{
  "contractName": "AaveLendingPool",
  "abi": [
    {
      "inputs": [
        {
          "internalType": "contract MockERC20",
          "name": "aDaiAddress",
          "type": "address"
        },
        {
          "internalType": "contract MockERC20",
          "name": "daiAddress",
          "type": "address"
        },
        {
          "internalType": "uint256",
          "name": "_simulatedInstantAPY",
          "type": "uint256"
        }
      ],
      "stateMutability": "nonpayable",
      "type": "constructor"
    },
    {
      "inputs": [],
      "name": "aDai",
      "outputs": [
        {
          "internalType": "contract MockERC20",
          "name": "",
          "type": "address"
        }
      ],
      "stateMutability": "view",
      "type": "function",
      "constant": true
    },
    {
      "inputs": [],
      "name": "dai",
      "outputs": [
        {
          "internalType": "contract MockERC20",
          "name": "",
          "type": "address"
        }
      ],
      "stateMutability": "view",
      "type": "function",
      "constant": true
    },
    {
      "inputs": [],
      "name": "simulatedInstantAPY",
      "outputs": [
        {
          "internalType": "uint256",
          "name": "",
          "type": "uint256"
        }
      ],
      "stateMutability": "view",
      "type": "function",
      "constant": true
    },
    {
      "inputs": [
        {
          "internalType": "uint256",
          "name": "_simulatedInstantAPY",
          "type": "uint256"
        }
      ],
      "name": "setSimulatedInstantAPY",
      "outputs": [],
      "stateMutability": "nonpayable",
      "type": "function"
    },
    {
      "inputs": [
        {
          "internalType": "address",
          "name": "_reserve",
          "type": "address"
        },
        {
          "internalType": "uint256",
          "name": "_amount",
          "type": "uint256"
        },
        {
          "internalType": "uint16",
          "name": "_referralCode",
          "type": "uint16"
        }
      ],
      "name": "deposit",
      "outputs": [],
      "stateMutability": "nonpayable",
      "type": "function"
    },
    {
      "inputs": [
        {
          "internalType": "address",
          "name": "_address",
          "type": "address"
        },
        {
          "internalType": "uint256",
          "name": "_amount",
          "type": "uint256"
        }
      ],
      "name": "mockSendInterest",
      "outputs": [],
      "stateMutability": "nonpayable",
      "type": "function"
    }
  ],
  "bytecode": "0x608060405234801561001057600080fd5b5060405161057c38038061057c8339818101604052606081101561003357600080fd5b5080516020820151604090920151600080546001600160a01b039384166001600160a01b03199182161790915560018054939094169216919091179091556002556104f9806100836000396000f3fe608060405234801561001057600080fd5b50600436106100625760003560e01c80637620298414610067578063949297161461009557806397eb8384146100af578063a34e8fa0146100cc578063d2d0e066146100f0578063f4b9fa7514610126575b600080fd5b6100936004803603604081101561007d57600080fd5b506001600160a01b03813516906020013561012e565b005b61009d6101b7565b60408051918252519081900360200190f35b610093600480360360208110156100c557600080fd5b50356101bd565b6100d46101c2565b604080516001600160a01b039092168252519081900360200190f35b6100936004803603606081101561010657600080fd5b5080356001600160a01b0316906020810135906040013561ffff166101d1565b6100d46102f3565b60008054604080516340c10f1960e01b81526001600160a01b03868116600483015260248201869052915191909216926340c10f1992604480820193602093909283900390910190829087803b15801561018757600080fd5b505af115801561019b573d6000803e3d6000fd5b505050506040513d60208110156101b157600080fd5b50505050565b60025481565b600255565b6000546001600160a01b031681565b6001546040805163079cc67960e41b81523360048201526024810185905290516001600160a01b03909216916379cc67909160448082019260009290919082900301818387803b15801561022457600080fd5b505af1158015610238573d6000803e3d6000fd5b505050506000610268610261606461025b6002548761030290919063ffffffff16565b90610364565b84906103a6565b60008054604080516340c10f1960e01b81523360048201526024810185905290519394506001600160a01b03909116926340c10f1992604480840193602093929083900390910190829087803b1580156102c157600080fd5b505af11580156102d5573d6000803e3d6000fd5b505050506040513d60208110156102eb57600080fd5b505050505050565b6001546001600160a01b031681565b6000826103115750600061035e565b8282028284828161031e57fe5b041461035b5760405162461bcd60e51b81526004018080602001828103825260218152602001806104a36021913960400191505060405180910390fd5b90505b92915050565b600061035b83836040518060400160405280601a81526020017f536166654d6174683a206469766973696f6e206279207a65726f000000000000815250610400565b60008282018381101561035b576040805162461bcd60e51b815260206004820152601b60248201527f536166654d6174683a206164646974696f6e206f766572666c6f770000000000604482015290519081900360640190fd5b6000818361048c5760405162461bcd60e51b81526004018080602001828103825283818151815260200191508051906020019080838360005b83811015610451578181015183820152602001610439565b50505050905090810190601f16801561047e5780820380516001836020036101000a031916815260200191505b509250505060405180910390fd5b50600083858161049857fe5b049594505050505056fe536166654d6174683a206d756c7469706c69636174696f6e206f766572666c6f77a2646970667358221220797c50ad487ab330c8e10c7a253ece61d900ed0aee0c6f990af302be4be6d28764736f6c634300060c0033",
  "immutableReferences": {},
  "source": "pragma solidity ^0.6.0;\n\nimport \"../interfaces/IAaveLendingPool.sol\";\nimport \"./MockERC20.sol\";\n// import '@openzeppelin/contracts-ethereum-package/contracts/token/ERC20/ERC20.sol';\nimport \"@nomiclabs/buidler/console.sol\";\n\ncontract AaveLendingPool is IAaveLendingPool {\n    using SafeMath for uint256;\n\n    MockERC20 public aDai;\n    MockERC20 public dai;\n    uint256 public simulatedInstantAPY;\n\n    constructor(\n        MockERC20 aDaiAddress,\n        MockERC20 daiAddress,\n        uint256 _simulatedInstantAPY // 1 to 100 as percentage\n    ) public {\n        aDai = aDaiAddress;\n        dai = daiAddress;\n        simulatedInstantAPY = _simulatedInstantAPY;\n    }\n\n    function setSimulatedInstantAPY(uint256 _simulatedInstantAPY) public {\n        simulatedInstantAPY = _simulatedInstantAPY;\n    }\n\n    function deposit(\n        address _reserve,\n        uint256 _amount,\n        uint16 _referralCode\n    ) public override {\n        dai.burnFrom(msg.sender, _amount);\n        uint256 amount = _amount.add(_amount.mul(simulatedInstantAPY).div(100));\n\n        aDai.mint(msg.sender, amount);\n        //aDai.mint(msg.sender, _amount);\n    }\n\n    function mockSendInterest(address _address, uint256 _amount) public {\n        aDai.mint(_address, _amount);\n    }\n}\n",
  "sourcePath": "/home/jasoons/Documents/code/longshort/contracts/contracts/mocks/AaveLendingPool.sol",
  "compiler": {
    "name": "solc",
    "version": "0.6.12+commit.27d51765.Emscripten.clang"
  },
  "schemaVersion": "3.3.3",
  "updatedAt": "2021-01-29T14:38:38.829Z",
  "networkType": "ethereum",
  "devdoc": {
    "kind": "dev",
    "methods": {},
    "version": 1
  },
  "userdoc": {
    "kind": "user",
    "methods": {},
    "version": 1
  }
}