{
  "contractName": "ADai",
  "abi": [
    {
      "inputs": [
        {
          "internalType": "contract MockERC20",
          "name": "daiAddress",
          "type": "address"
        }
      ],
      "stateMutability": "nonpayable",
      "type": "constructor"
    },
    {
      "inputs": [
        {
          "internalType": "address",
          "name": "",
          "type": "address"
        },
        {
          "internalType": "address",
          "name": "",
          "type": "address"
        }
      ],
      "name": "_allowance",
      "outputs": [
        {
          "internalType": "uint256",
          "name": "",
          "type": "uint256"
        }
      ],
      "stateMutability": "view",
      "type": "function",
      "constant": true
    },
    {
      "inputs": [
        {
          "internalType": "address",
          "name": "",
          "type": "address"
        }
      ],
      "name": "_balances",
      "outputs": [
        {
          "internalType": "uint256",
          "name": "",
          "type": "uint256"
        }
      ],
      "stateMutability": "view",
      "type": "function",
      "constant": true
    },
    {
      "inputs": [
        {
          "internalType": "address",
          "name": "owner",
          "type": "address"
        },
        {
          "internalType": "address",
          "name": "spender",
          "type": "address"
        }
      ],
      "name": "allowance",
      "outputs": [
        {
          "internalType": "uint256",
          "name": "",
          "type": "uint256"
        }
      ],
      "stateMutability": "view",
      "type": "function",
      "constant": true
    },
    {
      "inputs": [
        {
          "internalType": "address",
          "name": "user",
          "type": "address"
        },
        {
          "internalType": "uint256",
          "name": "amount",
          "type": "uint256"
        }
      ],
      "name": "approve",
      "outputs": [
        {
          "internalType": "bool",
          "name": "",
          "type": "bool"
        }
      ],
      "stateMutability": "nonpayable",
      "type": "function"
    },
    {
      "inputs": [
        {
          "internalType": "address",
          "name": "user",
          "type": "address"
        }
      ],
      "name": "balanceOf",
      "outputs": [
        {
          "internalType": "uint256",
          "name": "",
          "type": "uint256"
        }
      ],
      "stateMutability": "view",
      "type": "function",
      "constant": true
    },
    {
      "inputs": [
        {
          "internalType": "address",
          "name": "user",
          "type": "address"
        },
        {
          "internalType": "uint256",
          "name": "amount",
          "type": "uint256"
        }
      ],
      "name": "burnFrom",
      "outputs": [],
      "stateMutability": "nonpayable",
      "type": "function"
    },
    {
      "inputs": [],
      "name": "dai",
      "outputs": [
        {
          "internalType": "contract MockERC20",
          "name": "",
          "type": "address"
        }
      ],
      "stateMutability": "view",
      "type": "function",
      "constant": true
    },
    {
      "inputs": [
        {
          "internalType": "address",
          "name": "user",
          "type": "address"
        },
        {
          "internalType": "uint256",
          "name": "amount",
          "type": "uint256"
        }
      ],
      "name": "mint",
      "outputs": [
        {
          "internalType": "bool",
          "name": "",
          "type": "bool"
        }
      ],
      "stateMutability": "nonpayable",
      "type": "function"
    },
    {
      "inputs": [],
      "name": "noLiquidityBool",
      "outputs": [
        {
          "internalType": "bool",
          "name": "",
          "type": "bool"
        }
      ],
      "stateMutability": "view",
      "type": "function",
      "constant": true
    },
    {
      "inputs": [],
      "name": "steward",
      "outputs": [
        {
          "internalType": "address",
          "name": "",
          "type": "address"
        }
      ],
      "stateMutability": "view",
      "type": "function",
      "constant": true
    },
    {
      "inputs": [
        {
          "internalType": "address",
          "name": "to",
          "type": "address"
        },
        {
          "internalType": "uint256",
          "name": "amount",
          "type": "uint256"
        }
      ],
      "name": "transfer",
      "outputs": [
        {
          "internalType": "bool",
          "name": "",
          "type": "bool"
        }
      ],
      "stateMutability": "nonpayable",
      "type": "function"
    },
    {
      "inputs": [
        {
          "internalType": "address",
          "name": "sender",
          "type": "address"
        },
        {
          "internalType": "address",
          "name": "to",
          "type": "address"
        },
        {
          "internalType": "uint256",
          "name": "amount",
          "type": "uint256"
        }
      ],
      "name": "transferFrom",
      "outputs": [
        {
          "internalType": "bool",
          "name": "",
          "type": "bool"
        }
      ],
      "stateMutability": "nonpayable",
      "type": "function"
    },
    {
      "inputs": [
        {
          "internalType": "bool",
          "name": "liquidityStatus",
          "type": "bool"
        }
      ],
      "name": "setRedeemFailNotEnoughLiquidity",
      "outputs": [],
      "stateMutability": "nonpayable",
      "type": "function"
    },
    {
      "inputs": [
        {
          "internalType": "uint256",
          "name": "_amount",
          "type": "uint256"
        }
      ],
      "name": "redeem",
      "outputs": [],
      "stateMutability": "nonpayable",
      "type": "function"
    }
  ],
  "bytecode": "0x608060405234801561001057600080fd5b506040516109da3803806109da8339818101604052602081101561003357600080fd5b505160408051808201825260038082526244616960e81b6020838101918252845180860190955260018552601160fa1b908501528251929392601292339261007a926100e7565b50825161008e9060049060208601906100e7565b506005805460ff191660ff9390931692909217610100600160a81b0319166101006001600160a01b039283160217909155600680546001600160a01b031916949091169390931760ff60a01b19169092555061017a9050565b828054600181600116156101000203166002900490600052602060002090601f016020900481019282601f1061012857805160ff1916838001178555610155565b82800160010185558215610155579182015b8281111561015557825182559160200191906001019061013a565b50610161929150610165565b5090565b5b808211156101615760008155600101610166565b610851806101896000396000f3fe608060405234801561001057600080fd5b50600436106100ea5760003560e01c806379cc67901161008c578063dd336c1211610066578063dd336c12146102a9578063dd62ed3e146102d7578063ee4d734e14610305578063f4b9fa751461030d576100ea565b806379cc679014610234578063a9059cbb14610260578063db006a751461028c576100ea565b806340c10f19116100c857806340c10f1914610186578063637eea19146101b25780636ebcf607146101d657806370a082311461020e576100ea565b8063095ea7b3146100ef57806323b872dd1461012f5780633c4be0a314610165575b600080fd5b61011b6004803603604081101561010557600080fd5b506001600160a01b038135169060200135610315565b604080519115158252519081900360200190f35b61011b6004803603606081101561014557600080fd5b506001600160a01b03813581169160208101359091169060400135610342565b6101846004803603602081101561017b57600080fd5b50351515610401565b005b61011b6004803603604081101561019c57600080fd5b506001600160a01b03813516906020013561041f565b6101ba610469565b604080516001600160a01b039092168252519081900360200190f35b6101fc600480360360208110156101ec57600080fd5b50356001600160a01b0316610478565b60408051918252519081900360200190f35b6101fc6004803603602081101561022457600080fd5b50356001600160a01b031661048a565b6101846004803603604081101561024a57600080fd5b506001600160a01b0381351690602001356104a5565b61011b6004803603604081101561027657600080fd5b506001600160a01b0381351690602001356104e8565b610184600480360360208110156102a257600080fd5b503561052e565b6101fc600480360360408110156102bf57600080fd5b506001600160a01b0381358116916020013516610657565b6101fc600480360360408110156102ed57600080fd5b506001600160a01b0381358116916020013516610674565b61011b61069f565b6101ba6106af565b3360009081526002602090815260408083206001600160a01b039590951683529390529190912055600190565b6001600160a01b03831660009081526001602052604081205461036590836106be565b6001600160a01b0380861660009081526001602052604080822093909355908516815220546103949083610707565b6001600160a01b03808516600081815260016020908152604080832095909555928816815260028352838120918152915220546103d190836106be565b6001600160a01b038086166000908152600260209081526040808320938816835292905220555060019392505050565b60068054911515600160a01b0260ff60a01b19909216919091179055565b6001600160a01b0382166000908152600160205260408120546104429083610707565b6001600160a01b038416600090815260016020819052604090912091909155905092915050565b6000546001600160a01b031681565b60016020526000908152604090205481565b6001600160a01b031660009081526001602052604090205490565b6001600160a01b0382166000908152600160205260409020546104c890826106be565b6001600160a01b0390921660009081526001602052604090209190915550565b3360009081526001602052604081205461050290836106be565b33600090815260016020526040808220929092556001600160a01b038516815220546104429083610707565b600654600160a01b900460ff16156105775760405162461bcd60e51b81526004018080602001828103825260238152602001806107f96023913960400191505060405180910390fd5b6040805163079cc67960e41b815233600482015260248101839052905130916379cc679091604480830192600092919082900301818387803b1580156105bc57600080fd5b505af11580156105d0573d6000803e3d6000fd5b5050600654604080516340c10f1960e01b81523360048201526024810186905290516001600160a01b0390921693506340c10f1992506044808201926020929091908290030181600087803b15801561062857600080fd5b505af115801561063c573d6000803e3d6000fd5b505050506040513d602081101561065257600080fd5b505050565b600260209081526000928352604080842090915290825290205481565b6001600160a01b03918216600090815260026020908152604080832093909416825291909152205490565b600654600160a01b900460ff1681565b6006546001600160a01b031681565b600061070083836040518060400160405280601e81526020017f536166654d6174683a207375627472616374696f6e206f766572666c6f770000815250610761565b9392505050565b600082820183811015610700576040805162461bcd60e51b815260206004820152601b60248201527f536166654d6174683a206164646974696f6e206f766572666c6f770000000000604482015290519081900360640190fd5b600081848411156107f05760405162461bcd60e51b81526004018080602001828103825283818151815260200191508051906020019080838360005b838110156107b557818101518382015260200161079d565b50505050905090810190601f1680156107e25780820380516001836020036101000a031916815260200191505b509250505060405180910390fd5b50505090039056fe4e6f7420656e6f756768206c697175696469747920696e20506f6f6c20284d4f434b29a2646970667358221220eb501e20e94ab96d11855665540f16836ee05fa9e0323c5a0acd2d13ddad947164736f6c634300060c0033",
  "immutableReferences": {},
  "source": "pragma solidity ^0.6.0;\n\nimport \"hardhat/console.sol\";\nimport \"../interfaces/IADai.sol\";\nimport \"./MockERC20.sol\";\n\n// import '@openzeppelin/contracts-upgradeable/token/ERC20/ERC20.sol';\n\n//import 'hardhat/console.sol';\n\n// MOCK ONLY\ncontract ADai is MockERC20 {\n    MockERC20 public dai;\n    bool public noLiquidityBool;\n\n    constructor(MockERC20 daiAddress)\n        public\n        MockERC20(\"Dai\", \"D\", 18, msg.sender)\n    {\n        dai = daiAddress;\n        noLiquidityBool = false;\n    }\n\n    function setRedeemFailNotEnoughLiquidity(bool liquidityStatus) public {\n        noLiquidityBool = liquidityStatus;\n    }\n\n    function redeem(uint256 _amount) public {\n        // THIS FUNCTION IS FAILING\n        // Assuming its on dai.mint, where this contract doesn't have mint permission token\n        // But.. I have given it permission. Anyways, assuming aDai is returned instead of dai....\n        require(!noLiquidityBool, \"Not enough liquidity in Pool (MOCK)\");\n        //console.log(\" **** aDai being redeemed by *****\", msg.sender);\n        //console.log(\"Burning this amount of aDai: \", _amount);\n        this.burnFrom(msg.sender, _amount);\n        //console.log(\"Sending this amount of dai: \", _amount);\n        dai.mint(msg.sender, _amount);\n        // console.log(\" **** aDai redemtpion successful *****\");\n    }\n}\n",
  "sourcePath": "/home/jasoons/Documents/code/longshort/contracts/contracts/mocks/ADai.sol",
  "compiler": {
    "name": "solc",
    "version": "0.6.12+commit.27d51765.Emscripten.clang"
  },
  "schemaVersion": "3.3.3",
  "updatedAt": "2021-01-29T14:38:38.823Z",
  "networkType": "ethereum",
  "devdoc": {
    "kind": "dev",
    "methods": {},
    "version": 1
  },
  "userdoc": {
    "kind": "user",
    "methods": {},
    "version": 1
  }
}