{
  "contractName": "Dai",
  "abi": [
    {
      "anonymous": false,
      "inputs": [
        {
          "indexed": true,
          "internalType": "address",
          "name": "owner",
          "type": "address"
        },
        {
          "indexed": true,
          "internalType": "address",
          "name": "spender",
          "type": "address"
        },
        {
          "indexed": false,
          "internalType": "uint256",
          "name": "value",
          "type": "uint256"
        }
      ],
      "name": "Approval",
      "type": "event"
    },
    {
      "anonymous": false,
      "inputs": [
        {
          "indexed": false,
          "internalType": "address",
          "name": "account",
          "type": "address"
        }
      ],
      "name": "Paused",
      "type": "event"
    },
    {
      "anonymous": false,
      "inputs": [
        {
          "indexed": true,
          "internalType": "bytes32",
          "name": "role",
          "type": "bytes32"
        },
        {
          "indexed": true,
          "internalType": "bytes32",
          "name": "previousAdminRole",
          "type": "bytes32"
        },
        {
          "indexed": true,
          "internalType": "bytes32",
          "name": "newAdminRole",
          "type": "bytes32"
        }
      ],
      "name": "RoleAdminChanged",
      "type": "event"
    },
    {
      "anonymous": false,
      "inputs": [
        {
          "indexed": true,
          "internalType": "bytes32",
          "name": "role",
          "type": "bytes32"
        },
        {
          "indexed": true,
          "internalType": "address",
          "name": "account",
          "type": "address"
        },
        {
          "indexed": true,
          "internalType": "address",
          "name": "sender",
          "type": "address"
        }
      ],
      "name": "RoleGranted",
      "type": "event"
    },
    {
      "anonymous": false,
      "inputs": [
        {
          "indexed": true,
          "internalType": "bytes32",
          "name": "role",
          "type": "bytes32"
        },
        {
          "indexed": true,
          "internalType": "address",
          "name": "account",
          "type": "address"
        },
        {
          "indexed": true,
          "internalType": "address",
          "name": "sender",
          "type": "address"
        }
      ],
      "name": "RoleRevoked",
      "type": "event"
    },
    {
      "anonymous": false,
      "inputs": [
        {
          "indexed": true,
          "internalType": "address",
          "name": "from",
          "type": "address"
        },
        {
          "indexed": true,
          "internalType": "address",
          "name": "to",
          "type": "address"
        },
        {
          "indexed": false,
          "internalType": "uint256",
          "name": "value",
          "type": "uint256"
        }
      ],
      "name": "Transfer",
      "type": "event"
    },
    {
      "anonymous": false,
      "inputs": [
        {
          "indexed": false,
          "internalType": "address",
          "name": "account",
          "type": "address"
        }
      ],
      "name": "Unpaused",
      "type": "event"
    },
    {
      "inputs": [],
      "name": "DEFAULT_ADMIN_ROLE",
      "outputs": [
        {
          "internalType": "bytes32",
          "name": "",
          "type": "bytes32"
        }
      ],
      "stateMutability": "view",
      "type": "function",
      "constant": true
    },
    {
      "inputs": [],
      "name": "MINTER_ROLE",
      "outputs": [
        {
          "internalType": "bytes32",
          "name": "",
          "type": "bytes32"
        }
      ],
      "stateMutability": "view",
      "type": "function",
      "constant": true
    },
    {
      "inputs": [],
      "name": "PAUSER_ROLE",
      "outputs": [
        {
          "internalType": "bytes32",
          "name": "",
          "type": "bytes32"
        }
      ],
      "stateMutability": "view",
      "type": "function",
      "constant": true
    },
    {
      "inputs": [
        {
          "internalType": "address",
          "name": "owner",
          "type": "address"
        },
        {
          "internalType": "address",
          "name": "spender",
          "type": "address"
        }
      ],
      "name": "allowance",
      "outputs": [
        {
          "internalType": "uint256",
          "name": "",
          "type": "uint256"
        }
      ],
      "stateMutability": "view",
      "type": "function",
      "constant": true
    },
    {
      "inputs": [
        {
          "internalType": "address",
          "name": "spender",
          "type": "address"
        },
        {
          "internalType": "uint256",
          "name": "amount",
          "type": "uint256"
        }
      ],
      "name": "approve",
      "outputs": [
        {
          "internalType": "bool",
          "name": "",
          "type": "bool"
        }
      ],
      "stateMutability": "nonpayable",
      "type": "function"
    },
    {
      "inputs": [
        {
          "internalType": "address",
          "name": "account",
          "type": "address"
        }
      ],
      "name": "balanceOf",
      "outputs": [
        {
          "internalType": "uint256",
          "name": "",
          "type": "uint256"
        }
      ],
      "stateMutability": "view",
      "type": "function",
      "constant": true
    },
    {
      "inputs": [
        {
          "internalType": "uint256",
          "name": "amount",
          "type": "uint256"
        }
      ],
      "name": "burn",
      "outputs": [],
      "stateMutability": "nonpayable",
      "type": "function"
    },
    {
      "inputs": [
        {
          "internalType": "address",
          "name": "account",
          "type": "address"
        },
        {
          "internalType": "uint256",
          "name": "amount",
          "type": "uint256"
        }
      ],
      "name": "burnFrom",
      "outputs": [],
      "stateMutability": "nonpayable",
      "type": "function"
    },
    {
      "inputs": [],
      "name": "decimals",
      "outputs": [
        {
          "internalType": "uint8",
          "name": "",
          "type": "uint8"
        }
      ],
      "stateMutability": "view",
      "type": "function",
      "constant": true
    },
    {
      "inputs": [
        {
          "internalType": "address",
          "name": "spender",
          "type": "address"
        },
        {
          "internalType": "uint256",
          "name": "subtractedValue",
          "type": "uint256"
        }
      ],
      "name": "decreaseAllowance",
      "outputs": [
        {
          "internalType": "bool",
          "name": "",
          "type": "bool"
        }
      ],
      "stateMutability": "nonpayable",
      "type": "function"
    },
    {
      "inputs": [
        {
          "internalType": "bytes32",
          "name": "role",
          "type": "bytes32"
        }
      ],
      "name": "getRoleAdmin",
      "outputs": [
        {
          "internalType": "bytes32",
          "name": "",
          "type": "bytes32"
        }
      ],
      "stateMutability": "view",
      "type": "function",
      "constant": true
    },
    {
      "inputs": [
        {
          "internalType": "bytes32",
          "name": "role",
          "type": "bytes32"
        },
        {
          "internalType": "uint256",
          "name": "index",
          "type": "uint256"
        }
      ],
      "name": "getRoleMember",
      "outputs": [
        {
          "internalType": "address",
          "name": "",
          "type": "address"
        }
      ],
      "stateMutability": "view",
      "type": "function",
      "constant": true
    },
    {
      "inputs": [
        {
          "internalType": "bytes32",
          "name": "role",
          "type": "bytes32"
        }
      ],
      "name": "getRoleMemberCount",
      "outputs": [
        {
          "internalType": "uint256",
          "name": "",
          "type": "uint256"
        }
      ],
      "stateMutability": "view",
      "type": "function",
      "constant": true
    },
    {
      "inputs": [
        {
          "internalType": "bytes32",
          "name": "role",
          "type": "bytes32"
        },
        {
          "internalType": "address",
          "name": "account",
          "type": "address"
        }
      ],
      "name": "grantRole",
      "outputs": [],
      "stateMutability": "nonpayable",
      "type": "function"
    },
    {
      "inputs": [
        {
          "internalType": "bytes32",
          "name": "role",
          "type": "bytes32"
        },
        {
          "internalType": "address",
          "name": "account",
          "type": "address"
        }
      ],
      "name": "hasRole",
      "outputs": [
        {
          "internalType": "bool",
          "name": "",
          "type": "bool"
        }
      ],
      "stateMutability": "view",
      "type": "function",
      "constant": true
    },
    {
      "inputs": [
        {
          "internalType": "address",
          "name": "spender",
          "type": "address"
        },
        {
          "internalType": "uint256",
          "name": "addedValue",
          "type": "uint256"
        }
      ],
      "name": "increaseAllowance",
      "outputs": [
        {
          "internalType": "bool",
          "name": "",
          "type": "bool"
        }
      ],
      "stateMutability": "nonpayable",
      "type": "function"
    },
    {
      "inputs": [
        {
          "internalType": "string",
          "name": "name",
          "type": "string"
        },
        {
          "internalType": "string",
          "name": "symbol",
          "type": "string"
        }
      ],
      "name": "initialize",
      "outputs": [],
      "stateMutability": "nonpayable",
      "type": "function"
    },
    {
      "inputs": [
        {
          "internalType": "string",
          "name": "name",
          "type": "string"
        },
        {
          "internalType": "string",
          "name": "symbol",
          "type": "string"
        },
        {
          "internalType": "address",
          "name": "longShortAddress",
          "type": "address"
        },
        {
          "internalType": "bool",
          "name": "_isLong",
          "type": "bool"
        },
        {
          "internalType": "uint256",
          "name": "_marketIndex",
          "type": "uint256"
        }
      ],
      "name": "initialize",
      "outputs": [],
      "stateMutability": "nonpayable",
      "type": "function"
    },
    {
      "inputs": [],
      "name": "isLong",
      "outputs": [
        {
          "internalType": "bool",
          "name": "",
          "type": "bool"
        }
      ],
      "stateMutability": "view",
      "type": "function",
      "constant": true
    },
    {
      "inputs": [],
      "name": "longShort",
      "outputs": [
        {
          "internalType": "contract ILongShort",
          "name": "",
          "type": "address"
        }
      ],
      "stateMutability": "view",
      "type": "function",
      "constant": true
    },
    {
      "inputs": [],
      "name": "marketIndex",
      "outputs": [
        {
          "internalType": "uint256",
          "name": "",
          "type": "uint256"
        }
      ],
      "stateMutability": "view",
      "type": "function",
      "constant": true
    },
    {
      "inputs": [
        {
          "internalType": "address",
          "name": "to",
          "type": "address"
        },
        {
          "internalType": "uint256",
          "name": "amount",
          "type": "uint256"
        }
      ],
      "name": "mint",
      "outputs": [],
      "stateMutability": "nonpayable",
      "type": "function"
    },
    {
      "inputs": [],
      "name": "name",
      "outputs": [
        {
          "internalType": "string",
          "name": "",
          "type": "string"
        }
      ],
      "stateMutability": "view",
      "type": "function",
      "constant": true
    },
    {
      "inputs": [],
      "name": "pause",
      "outputs": [],
      "stateMutability": "nonpayable",
      "type": "function"
    },
    {
      "inputs": [],
      "name": "paused",
      "outputs": [
        {
          "internalType": "bool",
          "name": "",
          "type": "bool"
        }
      ],
      "stateMutability": "view",
      "type": "function",
      "constant": true
    },
    {
      "inputs": [
        {
          "internalType": "uint256",
          "name": "tokensToRedeem",
          "type": "uint256"
        }
      ],
      "name": "redeem",
      "outputs": [],
      "stateMutability": "nonpayable",
      "type": "function"
    },
    {
      "inputs": [
        {
          "internalType": "bytes32",
          "name": "role",
          "type": "bytes32"
        },
        {
          "internalType": "address",
          "name": "account",
          "type": "address"
        }
      ],
      "name": "renounceRole",
      "outputs": [],
      "stateMutability": "nonpayable",
      "type": "function"
    },
    {
      "inputs": [
        {
          "internalType": "bytes32",
          "name": "role",
          "type": "bytes32"
        },
        {
          "internalType": "address",
          "name": "account",
          "type": "address"
        }
      ],
      "name": "revokeRole",
      "outputs": [],
      "stateMutability": "nonpayable",
      "type": "function"
    },
    {
      "inputs": [],
      "name": "symbol",
      "outputs": [
        {
          "internalType": "string",
          "name": "",
          "type": "string"
        }
      ],
      "stateMutability": "view",
      "type": "function",
      "constant": true
    },
    {
      "inputs": [],
      "name": "totalSupply",
      "outputs": [
        {
          "internalType": "uint256",
          "name": "",
          "type": "uint256"
        }
      ],
      "stateMutability": "view",
      "type": "function",
      "constant": true
    },
    {
      "inputs": [
        {
          "internalType": "address",
          "name": "recipient",
          "type": "address"
        },
        {
          "internalType": "uint256",
          "name": "amount",
          "type": "uint256"
        }
      ],
      "name": "transfer",
      "outputs": [
        {
          "internalType": "bool",
          "name": "",
          "type": "bool"
        }
      ],
      "stateMutability": "nonpayable",
      "type": "function"
    },
    {
      "inputs": [
        {
          "internalType": "address",
          "name": "sender",
          "type": "address"
        },
        {
          "internalType": "address",
          "name": "recipient",
          "type": "address"
        },
        {
          "internalType": "uint256",
          "name": "amount",
          "type": "uint256"
        }
      ],
      "name": "transferFrom",
      "outputs": [
        {
          "internalType": "bool",
          "name": "",
          "type": "bool"
        }
      ],
      "stateMutability": "nonpayable",
      "type": "function"
    },
    {
      "inputs": [],
      "name": "unpause",
      "outputs": [],
      "stateMutability": "nonpayable",
      "type": "function"
    }
  ],
  "bytecode": "0x608060405234801561001057600080fd5b50612333806100206000396000f3fe608060405234801561001057600080fd5b50600436106101fb5760003560e01c806370a082311161011a578063a217fddf116100ad578063d53913931161007c578063d5391393146107f1578063d547741f146107f9578063db006a7514610825578063dd62ed3e14610842578063e63ab1e914610870576101fb565b8063a217fddf14610774578063a457c2d71461077c578063a9059cbb146107a8578063ca15c873146107d4576101fb565b80639010d07c116100e95780639010d07c146105de57806391d148541461060157806395d89b411461062d578063a031256314610635576101fb565b806370a082311461057c57806379cc6790146105a25780638456cb59146105ce5780638c7adc15146105d6576101fb565b8063313ce5671161019257806340c10f191161016157806340c10f191461040257806342966c681461042e5780634cd88b761461044b5780635c975abb14610574576101fb565b8063313ce5671461038457806336568abe146103a257806339509351146103ce5780633f4ba83a146103fa576101fb565b806323b872dd116101ce57806323b872dd146102df578063248a9ca31461031557806329949872146103325780632f2ff15d14610356576101fb565b806306fdde0314610200578063095ea7b31461027d57806318160ddd146102bd578063202a61a1146102d7575b600080fd5b610208610878565b6040805160208082528351818301528351919283929083019185019080838360005b8381101561024257818101518382015260200161022a565b50505050905090810190601f16801561026f5780820380516001836020036101000a031916815260200191505b509250505060405180910390f35b6102a96004803603604081101561029357600080fd5b506001600160a01b03813516906020013561090e565b604080519115158252519081900360200190f35b6102c561092c565b60408051918252519081900360200190f35b6102a9610932565b6102a9600480360360608110156102f557600080fd5b506001600160a01b0381358116916020810135909116906040013561093c565b6102c56004803603602081101561032b57600080fd5b50356109c3565b61033a6109d8565b604080516001600160a01b039092168252519081900360200190f35b6103826004803603604081101561036c57600080fd5b50803590602001356001600160a01b03166109ed565b005b61038c610a59565b6040805160ff9092168252519081900360200190f35b610382600480360360408110156103b857600080fd5b50803590602001356001600160a01b0316610a62565b6102a9600480360360408110156103e457600080fd5b506001600160a01b038135169060200135610ac3565b610382610b11565b6103826004803603604081101561041857600080fd5b506001600160a01b038135169060200135610b70565b6103826004803603602081101561044457600080fd5b5035610be1565b6103826004803603604081101561046157600080fd5b810190602081018135600160201b81111561047b57600080fd5b82018360208201111561048d57600080fd5b803590602001918460018302840111600160201b831117156104ae57600080fd5b91908080601f0160208091040260200160405190810160405280939291908181526020018383808284376000920191909152509295949360208101935035915050600160201b81111561050057600080fd5b82018360208201111561051257600080fd5b803590602001918460018302840111600160201b8311171561053357600080fd5b91908080601f016020809104026020016040519081016040528093929190818152602001838380828437600092019190915250929550610bf5945050505050565b6102a9610ca3565b6102c56004803603602081101561059257600080fd5b50356001600160a01b0316610cac565b610382600480360360408110156105b857600080fd5b506001600160a01b038135169060200135610cc7565b610382610d1c565b6102c5610d79565b61033a600480360360408110156105f457600080fd5b5080359060200135610d80565b6102a96004803603604081101561061757600080fd5b50803590602001356001600160a01b0316610d9f565b610208610db7565b610382600480360360a081101561064b57600080fd5b810190602081018135600160201b81111561066557600080fd5b82018360208201111561067757600080fd5b803590602001918460018302840111600160201b8311171561069857600080fd5b91908080601f0160208091040260200160405190810160405280939291908181526020018383808284376000920191909152509295949360208101935035915050600160201b8111156106ea57600080fd5b8201836020820111156106fc57600080fd5b803590602001918460018302840111600160201b8311171561071d57600080fd5b91908080601f016020809104026020016040519081016040528093929190818152602001838380828437600092019190915250929550506001600160a01b0383351693505050602081013515159060400135610e18565b6102c5610ef8565b6102a96004803603604081101561079257600080fd5b506001600160a01b038135169060200135610efd565b6102a9600480360360408110156107be57600080fd5b506001600160a01b038135169060200135610f65565b6102c5600480360360208110156107ea57600080fd5b5035610f79565b6102c5610f90565b6103826004803603604081101561080f57600080fd5b50803590602001356001600160a01b0316610fb4565b6103826004803603602081101561083b57600080fd5b503561100d565b6102c56004803603604081101561085857600080fd5b506001600160a01b0381358116916020013516611142565b6102c561116d565b60688054604080516020601f60026000196101006001881615020190951694909404938401819004810282018101909252828152606093909290918301828280156109045780601f106108d957610100808354040283529160200191610904565b820191906000526020600020905b8154815290600101906020018083116108e757829003601f168201915b5050505050905090565b600061092261091b61117f565b8484611183565b5060015b92915050565b60675490565b61015f5460ff1681565b600061094984848461126f565b6109b98461095561117f565b6109b48560405180606001604052806028815260200161213d602891396001600160a01b038a1660009081526066602052604081209061099361117f565b6001600160a01b0316815260208101919091526040016000205491906113cc565b611183565b5060019392505050565b60009081526033602052604090206002015490565b61015f5461010090046001600160a01b031681565b600082815260336020526040902060020154610a1090610a0b61117f565b610d9f565b610a4b5760405162461bcd60e51b815260040180806020018281038252602f81526020018061200d602f913960400191505060405180910390fd5b610a558282611463565b5050565b606a5460ff1690565b610a6a61117f565b6001600160a01b0316816001600160a01b031614610ab95760405162461bcd60e51b815260040180806020018281038252602f8152602001806122a5602f913960400191505060405180910390fd5b610a5582826114cc565b6000610922610ad061117f565b846109b48560666000610ae161117f565b6001600160a01b03908116825260208083019390935260409182016000908120918c168152925290205490611535565b610b2b600080516020612165833981519152610a0b61117f565b610b665760405162461bcd60e51b815260040180806020018281038252603981526020018061205e6039913960400191505060405180910390fd5b610b6e61158f565b565b610b9c7f9f2df0fed2c77648de5860a4cc508cd0818c85b8b8a1ab4ceeef8d981c8956a6610a0b61117f565b610bd75760405162461bcd60e51b81526004018080602001828103825260368152602001806121856036913960400191505060405180910390fd5b610a55828261162f565b610bf2610bec61117f565b82611721565b50565b600054610100900460ff1680610c0e5750610c0e61181d565b80610c1c575060005460ff16155b610c575760405162461bcd60e51b815260040180806020018281038252602e81526020018061210f602e913960400191505060405180910390fd5b600054610100900460ff16158015610c82576000805460ff1961ff0019909116610100171660011790555b610c8c838361182e565b8015610c9e576000805461ff00191690555b505050565b60c95460ff1690565b6001600160a01b031660009081526065602052604090205490565b6000610cfe826040518060600160405280602481526020016121bb60249139610cf786610cf261117f565b611142565b91906113cc565b9050610d1283610d0c61117f565b83611183565b610c9e8383611721565b610d36600080516020612165833981519152610a0b61117f565b610d715760405162461bcd60e51b81526004018080602001828103825260378152602001806122496037913960400191505060405180910390fd5b610b6e6118f7565b6101605481565b6000828152603360205260408120610d98908361197a565b9392505050565b6000828152603360205260408120610d989083611986565b60698054604080516020601f60026000196101006001881615020190951694909404938401819004810282018101909252828152606093909290918301828280156109045780601f106108d957610100808354040283529160200191610904565b600054610100900460ff1680610e315750610e3161181d565b80610e3f575060005460ff16155b610e7a5760405162461bcd60e51b815260040180806020018281038252602e81526020018061210f602e913960400191505060405180910390fd5b600054610100900460ff16158015610ea5576000805460ff1961ff0019909116610100171660011790555b610eaf8686610bf5565b61015f805460ff191684151517610100600160a81b0319166101006001600160a01b038716021790556101608290558015610ef0576000805461ff00191690555b505050505050565b600081565b6000610922610f0a61117f565b846109b4856040518060600160405280602581526020016122806025913960666000610f3461117f565b6001600160a01b03908116825260208083019390935260409182016000908120918d168152925290205491906113cc565b6000610922610f7261117f565b848461126f565b60008181526033602052604081206109269061199b565b7f9f2df0fed2c77648de5860a4cc508cd0818c85b8b8a1ab4ceeef8d981c8956a681565b600082815260336020526040902060020154610fd290610a0b61117f565b610ab95760405162461bcd60e51b81526004018080602001828103825260308152602001806120df6030913960400191505060405180910390fd5b61103061101861117f565b61015f5461010090046001600160a01b031683611183565b61015f5460ff16156110c05761015f60019054906101000a90046001600160a01b03166001600160a01b03166387d3249761016054836040518363ffffffff1660e01b81526004018083815260200182815260200192505050600060405180830381600087803b1580156110a357600080fd5b505af11580156110b7573d6000803e3d6000fd5b50505050610bf2565b61015f60019054906101000a90046001600160a01b03166001600160a01b031663a104438f61016054836040518363ffffffff1660e01b81526004018083815260200182815260200192505050600060405180830381600087803b15801561112757600080fd5b505af115801561113b573d6000803e3d6000fd5b5050505050565b6001600160a01b03918216600090815260666020908152604080832093909416825291909152205490565b60008051602061216583398151915281565b3390565b6001600160a01b0383166111c85760405162461bcd60e51b81526004018080602001828103825260248152602001806122256024913960400191505060405180910390fd5b6001600160a01b03821661120d5760405162461bcd60e51b81526004018080602001828103825260228152602001806120976022913960400191505060405180910390fd5b6001600160a01b03808416600081815260666020908152604080832094871680845294825291829020859055815185815291517f8c5be1e5ebec7d5bd14f71427d1e84f3dd0314c0f7b2291e5b200ac8c7c3b9259281900390910190a3505050565b6001600160a01b0383166112b45760405162461bcd60e51b81526004018080602001828103825260258152602001806122006025913960400191505060405180910390fd5b6001600160a01b0382166112f95760405162461bcd60e51b8152600401808060200182810382526023815260200180611fea6023913960400191505060405180910390fd5b6113048383836119a6565b611341816040518060600160405280602681526020016120b9602691396001600160a01b03861660009081526065602052604090205491906113cc565b6001600160a01b0380851660009081526065602052604080822093909355908416815220546113709082611535565b6001600160a01b0380841660008181526065602090815260409182902094909455805185815290519193928716927fddf252ad1be2c89b69c2b068fc378daa952ba7f163c4a11628f55a4df523b3ef92918290030190a3505050565b6000818484111561145b5760405162461bcd60e51b81526004018080602001828103825283818151815260200191508051906020019080838360005b83811015611420578181015183820152602001611408565b50505050905090810190601f16801561144d5780820380516001836020036101000a031916815260200191505b509250505060405180910390fd5b505050900390565b600082815260336020526040902061147b90826119b1565b15610a555761148861117f565b6001600160a01b0316816001600160a01b0316837f2f8788117e7eff1d82e926ec794901d17c78024a50270940304540a733656f0d60405160405180910390a45050565b60008281526033602052604090206114e490826119c6565b15610a55576114f161117f565b6001600160a01b0316816001600160a01b0316837ff6391f5c32d9c69d2a47ea670b442974b53935d1edc7fd64eb21e047a839171b60405160405180910390a45050565b600082820183811015610d98576040805162461bcd60e51b815260206004820152601b60248201527f536166654d6174683a206164646974696f6e206f766572666c6f770000000000604482015290519081900360640190fd5b611597610ca3565b6115df576040805162461bcd60e51b815260206004820152601460248201527314185d5cd8589b194e881b9bdd081c185d5cd95960621b604482015290519081900360640190fd5b60c9805460ff191690557f5db9ee0a495bf2e6ff9c91a7834c1ba4fdd244a5e8aa4e537bd38aeae4b073aa61161261117f565b604080516001600160a01b039092168252519081900360200190a1565b6001600160a01b03821661168a576040805162461bcd60e51b815260206004820152601f60248201527f45524332303a206d696e7420746f20746865207a65726f206164647265737300604482015290519081900360640190fd5b611696600083836119a6565b6067546116a39082611535565b6067556001600160a01b0382166000908152606560205260409020546116c99082611535565b6001600160a01b03831660008181526065602090815260408083209490945583518581529351929391927fddf252ad1be2c89b69c2b068fc378daa952ba7f163c4a11628f55a4df523b3ef9281900390910190a35050565b6001600160a01b0382166117665760405162461bcd60e51b81526004018080602001828103825260218152602001806121df6021913960400191505060405180910390fd5b611772826000836119a6565b6117af8160405180606001604052806022815260200161203c602291396001600160a01b03851660009081526065602052604090205491906113cc565b6001600160a01b0383166000908152606560205260409020556067546117d590826119db565b6067556040805182815290516000916001600160a01b038516917fddf252ad1be2c89b69c2b068fc378daa952ba7f163c4a11628f55a4df523b3ef9181900360200190a35050565b600061182830611a38565b15905090565b600054610100900460ff1680611847575061184761181d565b80611855575060005460ff16155b6118905760405162461bcd60e51b815260040180806020018281038252602e81526020018061210f602e913960400191505060405180910390fd5b600054610100900460ff161580156118bb576000805460ff1961ff0019909116610100171660011790555b6118c3611a3e565b6118cb611a3e565b6118d58383611adf565b6118dd611a3e565b6118e5611bb7565b6118ed611a3e565b610c8c8383611c62565b6118ff610ca3565b15611944576040805162461bcd60e51b815260206004820152601060248201526f14185d5cd8589b194e881c185d5cd95960821b604482015290519081900360640190fd5b60c9805460ff191660011790557f62e78cea01bee320cd4e420270b5ea74000d11b0c9f74754ebdbfc544b05a25861161261117f565b6000610d988383611d47565b6000610d98836001600160a01b038416611dab565b600061092682611dc3565b610c9e838383611dc7565b6000610d98836001600160a01b038416611e16565b6000610d98836001600160a01b038416611e60565b600082821115611a32576040805162461bcd60e51b815260206004820152601e60248201527f536166654d6174683a207375627472616374696f6e206f766572666c6f770000604482015290519081900360640190fd5b50900390565b3b151590565b600054610100900460ff1680611a575750611a5761181d565b80611a65575060005460ff16155b611aa05760405162461bcd60e51b815260040180806020018281038252602e81526020018061210f602e913960400191505060405180910390fd5b600054610100900460ff16158015611acb576000805460ff1961ff0019909116610100171660011790555b8015610bf2576000805461ff001916905550565b600054610100900460ff1680611af85750611af861181d565b80611b06575060005460ff16155b611b415760405162461bcd60e51b815260040180806020018281038252602e81526020018061210f602e913960400191505060405180910390fd5b600054610100900460ff16158015611b6c576000805460ff1961ff0019909116610100171660011790555b8251611b7f906068906020860190611f26565b508151611b93906069906020850190611f26565b50606a805460ff191660121790558015610c9e576000805461ff0019169055505050565b600054610100900460ff1680611bd05750611bd061181d565b80611bde575060005460ff16155b611c195760405162461bcd60e51b815260040180806020018281038252602e81526020018061210f602e913960400191505060405180910390fd5b600054610100900460ff16158015611c44576000805460ff1961ff0019909116610100171660011790555b60c9805460ff191690558015610bf2576000805461ff001916905550565b600054610100900460ff1680611c7b5750611c7b61181d565b80611c89575060005460ff16155b611cc45760405162461bcd60e51b815260040180806020018281038252602e81526020018061210f602e913960400191505060405180910390fd5b600054610100900460ff16158015611cef576000805460ff1961ff0019909116610100171660011790555b611d016000611cfc61117f565b610a4b565b611d2d7f9f2df0fed2c77648de5860a4cc508cd0818c85b8b8a1ab4ceeef8d981c8956a6611cfc61117f565b610c8c600080516020612165833981519152611cfc61117f565b81546000908210611d895760405162461bcd60e51b8152600401808060200182810382526022815260200180611fc86022913960400191505060405180910390fd5b826000018281548110611d9857fe5b9060005260206000200154905092915050565b60009081526001919091016020526040902054151590565b5490565b611dd2838383610c9e565b611dda610ca3565b15610c9e5760405162461bcd60e51b815260040180806020018281038252602a8152602001806122d4602a913960400191505060405180910390fd5b6000611e228383611dab565b611e5857508154600181810184556000848152602080822090930184905584548482528286019093526040902091909155610926565b506000610926565b60008181526001830160205260408120548015611f1c5783546000198083019190810190600090879083908110611e9357fe5b9060005260206000200154905080876000018481548110611eb057fe5b600091825260208083209091019290925582815260018981019092526040902090840190558654879080611ee057fe5b60019003818190600052602060002001600090559055866001016000878152602001908152602001600020600090556001945050505050610926565b6000915050610926565b828054600181600116156101000203166002900490600052602060002090601f016020900481019282611f5c5760008555611fa2565b82601f10611f7557805160ff1916838001178555611fa2565b82800160010185558215611fa2579182015b82811115611fa2578251825591602001919060010190611f87565b50611fae929150611fb2565b5090565b5b80821115611fae5760008155600101611fb356fe456e756d657261626c655365743a20696e646578206f7574206f6620626f756e647345524332303a207472616e7366657220746f20746865207a65726f2061646472657373416363657373436f6e74726f6c3a2073656e646572206d75737420626520616e2061646d696e20746f206772616e7445524332303a206275726e20616d6f756e7420657863656564732062616c616e636545524332305072657365744d696e7465725061757365723a206d75737420686176652070617573657220726f6c6520746f20756e706175736545524332303a20617070726f766520746f20746865207a65726f206164647265737345524332303a207472616e7366657220616d6f756e7420657863656564732062616c616e6365416363657373436f6e74726f6c3a2073656e646572206d75737420626520616e2061646d696e20746f207265766f6b65496e697469616c697a61626c653a20636f6e747261637420697320616c726561647920696e697469616c697a656445524332303a207472616e7366657220616d6f756e74206578636565647320616c6c6f77616e636565d7a28e3265b37a6474929f336521b332c1681b933f6cb9f3376673440d862a45524332305072657365744d696e7465725061757365723a206d7573742068617665206d696e74657220726f6c6520746f206d696e7445524332303a206275726e20616d6f756e74206578636565647320616c6c6f77616e636545524332303a206275726e2066726f6d20746865207a65726f206164647265737345524332303a207472616e736665722066726f6d20746865207a65726f206164647265737345524332303a20617070726f76652066726f6d20746865207a65726f206164647265737345524332305072657365744d696e7465725061757365723a206d75737420686176652070617573657220726f6c6520746f20706175736545524332303a2064656372656173656420616c6c6f77616e63652062656c6f77207a65726f416363657373436f6e74726f6c3a2063616e206f6e6c792072656e6f756e636520726f6c657320666f722073656c6645524332305061757361626c653a20746f6b656e207472616e73666572207768696c6520706175736564a2646970667358221220b88ca522c7b379f24aa39a9fcfddbbd1dc18c5da28e6ca6985e2259d530ce20664736f6c63430007060033",
  "immutableReferences": {},
  "source": "//SPDX-License-Identifier: Unlicense\npragma solidity 0.7.6;\n\nimport \"../SyntheticToken.sol\";\n\n// This is needed for truffle migrations, not used in tests.\ncontract Dai is SyntheticToken {\n\n}\n",
  "sourcePath": "/home/jasoons/Documents/code/longshort/contracts/contracts/mocks/Dai.sol",
  "compiler": {
    "name": "solc",
    "version": "0.7.6+commit.7338295f.Emscripten.clang"
  },
  "schemaVersion": "3.3.4",
  "updatedAt": "2021-02-18T12:41:57.434Z",
  "networkType": "ethereum",
  "devdoc": {
    "kind": "dev",
    "methods": {
      "allowance(address,address)": {
        "details": "See {IERC20-allowance}."
      },
      "approve(address,uint256)": {
        "details": "See {IERC20-approve}. Requirements: - `spender` cannot be the zero address."
      },
      "balanceOf(address)": {
        "details": "See {IERC20-balanceOf}."
      },
      "burn(uint256)": {
        "details": "Destroys `amount` tokens from the caller. See {ERC20-_burn}."
      },
      "burnFrom(address,uint256)": {
        "details": "Destroys `amount` tokens from `account`, deducting from the caller's allowance. See {ERC20-_burn} and {ERC20-allowance}. Requirements: - the caller must have allowance for ``accounts``'s tokens of at least `amount`."
      },
      "decimals()": {
        "details": "Returns the number of decimals used to get its user representation. For example, if `decimals` equals `2`, a balance of `505` tokens should be displayed to a user as `5,05` (`505 / 10 ** 2`). Tokens usually opt for a value of 18, imitating the relationship between Ether and Wei. This is the value {ERC20} uses, unless {_setupDecimals} is called. NOTE: This information is only used for _display_ purposes: it in no way affects any of the arithmetic of the contract, including {IERC20-balanceOf} and {IERC20-transfer}."
      },
      "decreaseAllowance(address,uint256)": {
        "details": "Atomically decreases the allowance granted to `spender` by the caller. This is an alternative to {approve} that can be used as a mitigation for problems described in {IERC20-approve}. Emits an {Approval} event indicating the updated allowance. Requirements: - `spender` cannot be the zero address. - `spender` must have allowance for the caller of at least `subtractedValue`."
      },
      "getRoleAdmin(bytes32)": {
        "details": "Returns the admin role that controls `role`. See {grantRole} and {revokeRole}. To change a role's admin, use {_setRoleAdmin}."
      },
      "getRoleMember(bytes32,uint256)": {
        "details": "Returns one of the accounts that have `role`. `index` must be a value between 0 and {getRoleMemberCount}, non-inclusive. Role bearers are not sorted in any particular way, and their ordering may change at any point. WARNING: When using {getRoleMember} and {getRoleMemberCount}, make sure you perform all queries on the same block. See the following https://forum.openzeppelin.com/t/iterating-over-elements-on-enumerableset-in-openzeppelin-contracts/2296[forum post] for more information."
      },
      "getRoleMemberCount(bytes32)": {
        "details": "Returns the number of accounts that have `role`. Can be used together with {getRoleMember} to enumerate all bearers of a role."
      },
      "grantRole(bytes32,address)": {
        "details": "Grants `role` to `account`. If `account` had not been already granted `role`, emits a {RoleGranted} event. Requirements: - the caller must have ``role``'s admin role."
      },
      "hasRole(bytes32,address)": {
        "details": "Returns `true` if `account` has been granted `role`."
      },
      "increaseAllowance(address,uint256)": {
        "details": "Atomically increases the allowance granted to `spender` by the caller. This is an alternative to {approve} that can be used as a mitigation for problems described in {IERC20-approve}. Emits an {Approval} event indicating the updated allowance. Requirements: - `spender` cannot be the zero address."
      },
      "mint(address,uint256)": {
        "details": "Creates `amount` new tokens for `to`. See {ERC20-_mint}. Requirements: - the caller must have the `MINTER_ROLE`."
      },
      "name()": {
        "details": "Returns the name of the token."
      },
      "pause()": {
        "details": "Pauses all token transfers. See {ERC20Pausable} and {Pausable-_pause}. Requirements: - the caller must have the `PAUSER_ROLE`."
      },
      "paused()": {
        "details": "Returns true if the contract is paused, and false otherwise."
      },
      "renounceRole(bytes32,address)": {
        "details": "Revokes `role` from the calling account. Roles are often managed via {grantRole} and {revokeRole}: this function's purpose is to provide a mechanism for accounts to lose their privileges if they are compromised (such as when a trusted device is misplaced). If the calling account had been granted `role`, emits a {RoleRevoked} event. Requirements: - the caller must be `account`."
      },
      "revokeRole(bytes32,address)": {
        "details": "Revokes `role` from `account`. If `account` had been granted `role`, emits a {RoleRevoked} event. Requirements: - the caller must have ``role``'s admin role."
      },
      "symbol()": {
        "details": "Returns the symbol of the token, usually a shorter version of the name."
      },
      "totalSupply()": {
        "details": "See {IERC20-totalSupply}."
      },
      "transfer(address,uint256)": {
        "details": "See {IERC20-transfer}. Requirements: - `recipient` cannot be the zero address. - the caller must have a balance of at least `amount`."
      },
      "transferFrom(address,address,uint256)": {
        "details": "See {IERC20-transferFrom}. Emits an {Approval} event indicating the updated allowance. This is not required by the EIP. See the note at the beginning of {ERC20}. Requirements: - `sender` and `recipient` cannot be the zero address. - `sender` must have a balance of at least `amount`. - the caller must have allowance for ``sender``'s tokens of at least `amount`."
      },
      "unpause()": {
        "details": "Unpauses all token transfers. See {ERC20Pausable} and {Pausable-_unpause}. Requirements: - the caller must have the `PAUSER_ROLE`."
      }
    },
    "version": 1
  },
  "userdoc": {
    "kind": "user",
    "methods": {},
    "version": 1
  }
}