{
  "contractName": "FloatToken",
  "abi": [
    {
      "anonymous": false,
      "inputs": [
        {
          "indexed": true,
          "internalType": "address",
          "name": "owner",
          "type": "address"
        },
        {
          "indexed": true,
          "internalType": "address",
          "name": "spender",
          "type": "address"
        },
        {
          "indexed": false,
          "internalType": "uint256",
          "name": "value",
          "type": "uint256"
        }
      ],
      "name": "Approval",
      "type": "event"
    },
    {
      "anonymous": false,
      "inputs": [
        {
          "indexed": false,
          "internalType": "address",
          "name": "account",
          "type": "address"
        }
      ],
      "name": "Paused",
      "type": "event"
    },
    {
      "anonymous": false,
      "inputs": [
        {
          "indexed": true,
          "internalType": "bytes32",
          "name": "role",
          "type": "bytes32"
        },
        {
          "indexed": true,
          "internalType": "bytes32",
          "name": "previousAdminRole",
          "type": "bytes32"
        },
        {
          "indexed": true,
          "internalType": "bytes32",
          "name": "newAdminRole",
          "type": "bytes32"
        }
      ],
      "name": "RoleAdminChanged",
      "type": "event"
    },
    {
      "anonymous": false,
      "inputs": [
        {
          "indexed": true,
          "internalType": "bytes32",
          "name": "role",
          "type": "bytes32"
        },
        {
          "indexed": true,
          "internalType": "address",
          "name": "account",
          "type": "address"
        },
        {
          "indexed": true,
          "internalType": "address",
          "name": "sender",
          "type": "address"
        }
      ],
      "name": "RoleGranted",
      "type": "event"
    },
    {
      "anonymous": false,
      "inputs": [
        {
          "indexed": true,
          "internalType": "bytes32",
          "name": "role",
          "type": "bytes32"
        },
        {
          "indexed": true,
          "internalType": "address",
          "name": "account",
          "type": "address"
        },
        {
          "indexed": true,
          "internalType": "address",
          "name": "sender",
          "type": "address"
        }
      ],
      "name": "RoleRevoked",
      "type": "event"
    },
    {
      "anonymous": false,
      "inputs": [
        {
          "indexed": true,
          "internalType": "address",
          "name": "from",
          "type": "address"
        },
        {
          "indexed": true,
          "internalType": "address",
          "name": "to",
          "type": "address"
        },
        {
          "indexed": false,
          "internalType": "uint256",
          "name": "value",
          "type": "uint256"
        }
      ],
      "name": "Transfer",
      "type": "event"
    },
    {
      "anonymous": false,
      "inputs": [
        {
          "indexed": false,
          "internalType": "address",
          "name": "account",
          "type": "address"
        }
      ],
      "name": "Unpaused",
      "type": "event"
    },
    {
      "inputs": [],
      "name": "DEFAULT_ADMIN_ROLE",
      "outputs": [
        {
          "internalType": "bytes32",
          "name": "",
          "type": "bytes32"
        }
      ],
      "stateMutability": "view",
      "type": "function",
      "constant": true
    },
    {
      "inputs": [],
      "name": "MINTER_ROLE",
      "outputs": [
        {
          "internalType": "bytes32",
          "name": "",
          "type": "bytes32"
        }
      ],
      "stateMutability": "view",
      "type": "function",
      "constant": true
    },
    {
      "inputs": [],
      "name": "PAUSER_ROLE",
      "outputs": [
        {
          "internalType": "bytes32",
          "name": "",
          "type": "bytes32"
        }
      ],
      "stateMutability": "view",
      "type": "function",
      "constant": true
    },
    {
      "inputs": [
        {
          "internalType": "address",
          "name": "owner",
          "type": "address"
        },
        {
          "internalType": "address",
          "name": "spender",
          "type": "address"
        }
      ],
      "name": "allowance",
      "outputs": [
        {
          "internalType": "uint256",
          "name": "",
          "type": "uint256"
        }
      ],
      "stateMutability": "view",
      "type": "function",
      "constant": true
    },
    {
      "inputs": [
        {
          "internalType": "address",
          "name": "spender",
          "type": "address"
        },
        {
          "internalType": "uint256",
          "name": "amount",
          "type": "uint256"
        }
      ],
      "name": "approve",
      "outputs": [
        {
          "internalType": "bool",
          "name": "",
          "type": "bool"
        }
      ],
      "stateMutability": "nonpayable",
      "type": "function"
    },
    {
      "inputs": [
        {
          "internalType": "address",
          "name": "account",
          "type": "address"
        }
      ],
      "name": "balanceOf",
      "outputs": [
        {
          "internalType": "uint256",
          "name": "",
          "type": "uint256"
        }
      ],
      "stateMutability": "view",
      "type": "function",
      "constant": true
    },
    {
      "inputs": [
        {
          "internalType": "uint256",
          "name": "amount",
          "type": "uint256"
        }
      ],
      "name": "burn",
      "outputs": [],
      "stateMutability": "nonpayable",
      "type": "function"
    },
    {
      "inputs": [
        {
          "internalType": "address",
          "name": "account",
          "type": "address"
        },
        {
          "internalType": "uint256",
          "name": "amount",
          "type": "uint256"
        }
      ],
      "name": "burnFrom",
      "outputs": [],
      "stateMutability": "nonpayable",
      "type": "function"
    },
    {
      "inputs": [],
      "name": "decimals",
      "outputs": [
        {
          "internalType": "uint8",
          "name": "",
          "type": "uint8"
        }
      ],
      "stateMutability": "view",
      "type": "function",
      "constant": true
    },
    {
      "inputs": [
        {
          "internalType": "address",
          "name": "spender",
          "type": "address"
        },
        {
          "internalType": "uint256",
          "name": "subtractedValue",
          "type": "uint256"
        }
      ],
      "name": "decreaseAllowance",
      "outputs": [
        {
          "internalType": "bool",
          "name": "",
          "type": "bool"
        }
      ],
      "stateMutability": "nonpayable",
      "type": "function"
    },
    {
      "inputs": [
        {
          "internalType": "bytes32",
          "name": "role",
          "type": "bytes32"
        }
      ],
      "name": "getRoleAdmin",
      "outputs": [
        {
          "internalType": "bytes32",
          "name": "",
          "type": "bytes32"
        }
      ],
      "stateMutability": "view",
      "type": "function",
      "constant": true
    },
    {
      "inputs": [
        {
          "internalType": "bytes32",
          "name": "role",
          "type": "bytes32"
        },
        {
          "internalType": "uint256",
          "name": "index",
          "type": "uint256"
        }
      ],
      "name": "getRoleMember",
      "outputs": [
        {
          "internalType": "address",
          "name": "",
          "type": "address"
        }
      ],
      "stateMutability": "view",
      "type": "function",
      "constant": true
    },
    {
      "inputs": [
        {
          "internalType": "bytes32",
          "name": "role",
          "type": "bytes32"
        }
      ],
      "name": "getRoleMemberCount",
      "outputs": [
        {
          "internalType": "uint256",
          "name": "",
          "type": "uint256"
        }
      ],
      "stateMutability": "view",
      "type": "function",
      "constant": true
    },
    {
      "inputs": [
        {
          "internalType": "bytes32",
          "name": "role",
          "type": "bytes32"
        },
        {
          "internalType": "address",
          "name": "account",
          "type": "address"
        }
      ],
      "name": "grantRole",
      "outputs": [],
      "stateMutability": "nonpayable",
      "type": "function"
    },
    {
      "inputs": [
        {
          "internalType": "bytes32",
          "name": "role",
          "type": "bytes32"
        },
        {
          "internalType": "address",
          "name": "account",
          "type": "address"
        }
      ],
      "name": "hasRole",
      "outputs": [
        {
          "internalType": "bool",
          "name": "",
          "type": "bool"
        }
      ],
      "stateMutability": "view",
      "type": "function",
      "constant": true
    },
    {
      "inputs": [
        {
          "internalType": "address",
          "name": "spender",
          "type": "address"
        },
        {
          "internalType": "uint256",
          "name": "addedValue",
          "type": "uint256"
        }
      ],
      "name": "increaseAllowance",
      "outputs": [
        {
          "internalType": "bool",
          "name": "",
          "type": "bool"
        }
      ],
      "stateMutability": "nonpayable",
      "type": "function"
    },
    {
      "inputs": [
        {
          "internalType": "string",
          "name": "name",
          "type": "string"
        },
        {
          "internalType": "string",
          "name": "symbol",
          "type": "string"
        }
      ],
      "name": "initialize",
      "outputs": [],
      "stateMutability": "nonpayable",
      "type": "function"
    },
    {
      "inputs": [
        {
          "internalType": "address",
          "name": "to",
          "type": "address"
        },
        {
          "internalType": "uint256",
          "name": "amount",
          "type": "uint256"
        }
      ],
      "name": "mint",
      "outputs": [],
      "stateMutability": "nonpayable",
      "type": "function"
    },
    {
      "inputs": [],
      "name": "name",
      "outputs": [
        {
          "internalType": "string",
          "name": "",
          "type": "string"
        }
      ],
      "stateMutability": "view",
      "type": "function",
      "constant": true
    },
    {
      "inputs": [],
      "name": "pause",
      "outputs": [],
      "stateMutability": "nonpayable",
      "type": "function"
    },
    {
      "inputs": [],
      "name": "paused",
      "outputs": [
        {
          "internalType": "bool",
          "name": "",
          "type": "bool"
        }
      ],
      "stateMutability": "view",
      "type": "function",
      "constant": true
    },
    {
      "inputs": [
        {
          "internalType": "bytes32",
          "name": "role",
          "type": "bytes32"
        },
        {
          "internalType": "address",
          "name": "account",
          "type": "address"
        }
      ],
      "name": "renounceRole",
      "outputs": [],
      "stateMutability": "nonpayable",
      "type": "function"
    },
    {
      "inputs": [
        {
          "internalType": "bytes32",
          "name": "role",
          "type": "bytes32"
        },
        {
          "internalType": "address",
          "name": "account",
          "type": "address"
        }
      ],
      "name": "revokeRole",
      "outputs": [],
      "stateMutability": "nonpayable",
      "type": "function"
    },
    {
      "inputs": [],
      "name": "symbol",
      "outputs": [
        {
          "internalType": "string",
          "name": "",
          "type": "string"
        }
      ],
      "stateMutability": "view",
      "type": "function",
      "constant": true
    },
    {
      "inputs": [],
      "name": "totalSupply",
      "outputs": [
        {
          "internalType": "uint256",
          "name": "",
          "type": "uint256"
        }
      ],
      "stateMutability": "view",
      "type": "function",
      "constant": true
    },
    {
      "inputs": [
        {
          "internalType": "address",
          "name": "recipient",
          "type": "address"
        },
        {
          "internalType": "uint256",
          "name": "amount",
          "type": "uint256"
        }
      ],
      "name": "transfer",
      "outputs": [
        {
          "internalType": "bool",
          "name": "",
          "type": "bool"
        }
      ],
      "stateMutability": "nonpayable",
      "type": "function"
    },
    {
      "inputs": [
        {
          "internalType": "address",
          "name": "sender",
          "type": "address"
        },
        {
          "internalType": "address",
          "name": "recipient",
          "type": "address"
        },
        {
          "internalType": "uint256",
          "name": "amount",
          "type": "uint256"
        }
      ],
      "name": "transferFrom",
      "outputs": [
        {
          "internalType": "bool",
          "name": "",
          "type": "bool"
        }
      ],
      "stateMutability": "nonpayable",
      "type": "function"
    },
    {
      "inputs": [],
      "name": "unpause",
      "outputs": [],
      "stateMutability": "nonpayable",
      "type": "function"
    },
    {
      "inputs": [
        {
          "internalType": "string",
          "name": "name",
          "type": "string"
        },
        {
          "internalType": "string",
          "name": "symbol",
          "type": "string"
        },
        {
          "internalType": "address",
          "name": "stakerAddress",
          "type": "address"
        }
      ],
      "name": "setup",
      "outputs": [],
      "stateMutability": "nonpayable",
      "type": "function"
    }
  ],
  "bytecode": "0x608060405234801561001057600080fd5b50612199806100206000396000f3fe608060405234801561001057600080fd5b50600436106101cf5760003560e01c806370a0823111610104578063a457c2d7116100a2578063d547741f11610071578063d547741f14610676578063dcc43d16146106a2578063dd62ed3e14610769578063e63ab1e914610797576101cf565b8063a457c2d7146105f9578063a9059cbb14610625578063ca15c87314610651578063d53913931461066e576101cf565b80639010d07c116100de5780639010d07c1461057e57806391d14854146105bd57806395d89b41146105e9578063a217fddf146105f1576101cf565b806370a082311461052457806379cc67901461054a5780638456cb5914610576576101cf565b806336568abe1161017157806340c10f191161014b57806340c10f19146103aa57806342966c68146103d65780634cd88b76146103f35780635c975abb1461051c576101cf565b806336568abe1461034a57806339509351146103765780633f4ba83a146103a2576101cf565b806323b872dd116101ad57806323b872dd146102ab578063248a9ca3146102e15780632f2ff15d146102fe578063313ce5671461032c576101cf565b806306fdde03146101d4578063095ea7b31461025157806318160ddd14610291575b600080fd5b6101dc61079f565b6040805160208082528351818301528351919283929083019185019080838360005b838110156102165781810151838201526020016101fe565b50505050905090810190601f1680156102435780820380516001836020036101000a031916815260200191505b509250505060405180910390f35b61027d6004803603604081101561026757600080fd5b506001600160a01b038135169060200135610835565b604080519115158252519081900360200190f35b610299610853565b60408051918252519081900360200190f35b61027d600480360360608110156102c157600080fd5b506001600160a01b03813581169160208101359091169060400135610859565b610299600480360360208110156102f757600080fd5b50356108e0565b61032a6004803603604081101561031457600080fd5b50803590602001356001600160a01b03166108f5565b005b610334610961565b6040805160ff9092168252519081900360200190f35b61032a6004803603604081101561036057600080fd5b50803590602001356001600160a01b031661096a565b61027d6004803603604081101561038c57600080fd5b506001600160a01b0381351690602001356109cb565b61032a610a19565b61032a600480360360408110156103c057600080fd5b506001600160a01b038135169060200135610a78565b61032a600480360360208110156103ec57600080fd5b5035610ad7565b61032a6004803603604081101561040957600080fd5b810190602081018135600160201b81111561042357600080fd5b82018360208201111561043557600080fd5b803590602001918460018302840111600160201b8311171561045657600080fd5b91908080601f0160208091040260200160405190810160405280939291908181526020018383808284376000920191909152509295949360208101935035915050600160201b8111156104a857600080fd5b8201836020820111156104ba57600080fd5b803590602001918460018302840111600160201b831117156104db57600080fd5b91908080601f016020809104026020016040519081016040528093929190818152602001838380828437600092019190915250929550610aeb945050505050565b61027d610b99565b6102996004803603602081101561053a57600080fd5b50356001600160a01b0316610ba2565b61032a6004803603604081101561056057600080fd5b506001600160a01b038135169060200135610bbd565b61032a610c12565b6105a16004803603604081101561059457600080fd5b5080359060200135610c6f565b604080516001600160a01b039092168252519081900360200190f35b61027d600480360360408110156105d357600080fd5b50803590602001356001600160a01b0316610c8e565b6101dc610ca6565b610299610d07565b61027d6004803603604081101561060f57600080fd5b506001600160a01b038135169060200135610d0c565b61027d6004803603604081101561063b57600080fd5b506001600160a01b038135169060200135610d74565b6102996004803603602081101561066757600080fd5b5035610d88565b610299610d9f565b61032a6004803603604081101561068c57600080fd5b50803590602001356001600160a01b0316610db1565b61032a600480360360608110156106b857600080fd5b810190602081018135600160201b8111156106d257600080fd5b8201836020820111156106e457600080fd5b803590602001918460018302840111600160201b8311171561070557600080fd5b919390929091602081019035600160201b81111561072257600080fd5b82018360208201111561073457600080fd5b803590602001918460018302840111600160201b8311171561075557600080fd5b9193509150356001600160a01b0316610e0a565b6102996004803603604081101561077f57600080fd5b506001600160a01b0381358116916020013516610f9a565b610299610fc5565b60688054604080516020601f600260001961010060018816150201909516949094049384018190048102820181019092528281526060939092909183018282801561082b5780601f106108005761010080835404028352916020019161082b565b820191906000526020600020905b81548152906001019060200180831161080e57829003601f168201915b5050505050905090565b6000610849610842610fd7565b8484610fdb565b5060015b92915050565b60675490565b60006108668484846110c7565b6108d684610872610fd7565b6108d185604051806060016040528060288152602001611f83602891396001600160a01b038a166000908152606660205260408120906108b0610fd7565b6001600160a01b031681526020810191909152604001600020549190611224565b610fdb565b5060019392505050565b60009081526033602052604090206002015490565b60008281526033602052604090206002015461091890610913610fd7565b610c8e565b6109535760405162461bcd60e51b815260040180806020018281038252602f815260200180611e53602f913960400191505060405180910390fd5b61095d82826112bb565b5050565b606a5460ff1690565b610972610fd7565b6001600160a01b0316816001600160a01b0316146109c15760405162461bcd60e51b815260040180806020018281038252602f81526020018061210b602f913960400191505060405180910390fd5b61095d8282611324565b60006108496109d8610fd7565b846108d185606660006109e9610fd7565b6001600160a01b03908116825260208083019390935260409182016000908120918c16815292529020549061138d565b610a33600080516020611fab833981519152610913610fd7565b610a6e5760405162461bcd60e51b8152600401808060200182810382526039815260200180611ea46039913960400191505060405180910390fd5b610a766113e7565b565b610a92600080516020612025833981519152610913610fd7565b610acd5760405162461bcd60e51b8152600401808060200182810382526036815260200180611fcb6036913960400191505060405180910390fd5b61095d8282611487565b610ae8610ae2610fd7565b82611579565b50565b600054610100900460ff1680610b045750610b04611675565b80610b12575060005460ff16155b610b4d5760405162461bcd60e51b815260040180806020018281038252602e815260200180611f55602e913960400191505060405180910390fd5b600054610100900460ff16158015610b78576000805460ff1961ff0019909116610100171660011790555b610b828383611686565b8015610b94576000805461ff00191690555b505050565b60c95460ff1690565b6001600160a01b031660009081526065602052604090205490565b6000610bf48260405180606001604052806024815260200161200160249139610bed86610be8610fd7565b610f9a565b9190611224565b9050610c0883610c02610fd7565b83610fdb565b610b948383611579565b610c2c600080516020611fab833981519152610913610fd7565b610c675760405162461bcd60e51b81526004018080602001828103825260378152602001806120af6037913960400191505060405180910390fd5b610a7661174f565b6000828152603360205260408120610c8790836117d2565b9392505050565b6000828152603360205260408120610c8790836117de565b60698054604080516020601f600260001961010060018816150201909516949094049384018190048102820181019092528281526060939092909183018282801561082b5780601f106108005761010080835404028352916020019161082b565b600081565b6000610849610d19610fd7565b846108d1856040518060600160405280602581526020016120e66025913960666000610d43610fd7565b6001600160a01b03908116825260208083019390935260409182016000908120918d16815292529020549190611224565b6000610849610d81610fd7565b84846110c7565b600081815260336020526040812061084d906117f3565b60008051602061202583398151915281565b600082815260336020526040902060020154610dcf90610913610fd7565b6109c15760405162461bcd60e51b8152600401808060200182810382526030815260200180611f256030913960400191505060405180910390fd5b600054610100900460ff1680610e235750610e23611675565b80610e31575060005460ff16155b610e6c5760405162461bcd60e51b815260040180806020018281038252602e815260200180611f55602e913960400191505060405180910390fd5b600054610100900460ff16158015610e97576000805460ff1961ff0019909116610100171660011790555b610f0a86868080601f01602080910402602001604051908101604052809392919081815260200183838082843760009201919091525050604080516020601f8a018190048102820181019092528881529250889150879081908401838280828437600092019190915250610aeb92505050565b610f15600083610953565b610f2d60008051602061202583398151915283610953565b610f45600080516020611fab83398151915283610953565b610f5060003361096a565b610f686000805160206120258339815191523361096a565b610f80600080516020611fab8339815191523361096a565b8015610f92576000805461ff00191690555b505050505050565b6001600160a01b03918216600090815260666020908152604080832093909416825291909152205490565b600080516020611fab83398151915281565b3390565b6001600160a01b0383166110205760405162461bcd60e51b815260040180806020018281038252602481526020018061208b6024913960400191505060405180910390fd5b6001600160a01b0382166110655760405162461bcd60e51b8152600401808060200182810382526022815260200180611edd6022913960400191505060405180910390fd5b6001600160a01b03808416600081815260666020908152604080832094871680845294825291829020859055815185815291517f8c5be1e5ebec7d5bd14f71427d1e84f3dd0314c0f7b2291e5b200ac8c7c3b9259281900390910190a3505050565b6001600160a01b03831661110c5760405162461bcd60e51b81526004018080602001828103825260258152602001806120666025913960400191505060405180910390fd5b6001600160a01b0382166111515760405162461bcd60e51b8152600401808060200182810382526023815260200180611e306023913960400191505060405180910390fd5b61115c8383836117fe565b61119981604051806060016040528060268152602001611eff602691396001600160a01b0386166000908152606560205260409020549190611224565b6001600160a01b0380851660009081526065602052604080822093909355908416815220546111c8908261138d565b6001600160a01b0380841660008181526065602090815260409182902094909455805185815290519193928716927fddf252ad1be2c89b69c2b068fc378daa952ba7f163c4a11628f55a4df523b3ef92918290030190a3505050565b600081848411156112b35760405162461bcd60e51b81526004018080602001828103825283818151815260200191508051906020019080838360005b83811015611278578181015183820152602001611260565b50505050905090810190601f1680156112a55780820380516001836020036101000a031916815260200191505b509250505060405180910390fd5b505050900390565b60008281526033602052604090206112d39082611809565b1561095d576112e0610fd7565b6001600160a01b0316816001600160a01b0316837f2f8788117e7eff1d82e926ec794901d17c78024a50270940304540a733656f0d60405160405180910390a45050565b600082815260336020526040902061133c908261181e565b1561095d57611349610fd7565b6001600160a01b0316816001600160a01b0316837ff6391f5c32d9c69d2a47ea670b442974b53935d1edc7fd64eb21e047a839171b60405160405180910390a45050565b600082820183811015610c87576040805162461bcd60e51b815260206004820152601b60248201527f536166654d6174683a206164646974696f6e206f766572666c6f770000000000604482015290519081900360640190fd5b6113ef610b99565b611437576040805162461bcd60e51b815260206004820152601460248201527314185d5cd8589b194e881b9bdd081c185d5cd95960621b604482015290519081900360640190fd5b60c9805460ff191690557f5db9ee0a495bf2e6ff9c91a7834c1ba4fdd244a5e8aa4e537bd38aeae4b073aa61146a610fd7565b604080516001600160a01b039092168252519081900360200190a1565b6001600160a01b0382166114e2576040805162461bcd60e51b815260206004820152601f60248201527f45524332303a206d696e7420746f20746865207a65726f206164647265737300604482015290519081900360640190fd5b6114ee600083836117fe565b6067546114fb908261138d565b6067556001600160a01b038216600090815260656020526040902054611521908261138d565b6001600160a01b03831660008181526065602090815260408083209490945583518581529351929391927fddf252ad1be2c89b69c2b068fc378daa952ba7f163c4a11628f55a4df523b3ef9281900390910190a35050565b6001600160a01b0382166115be5760405162461bcd60e51b81526004018080602001828103825260218152602001806120456021913960400191505060405180910390fd5b6115ca826000836117fe565b61160781604051806060016040528060228152602001611e82602291396001600160a01b0385166000908152606560205260409020549190611224565b6001600160a01b03831660009081526065602052604090205560675461162d9082611833565b6067556040805182815290516000916001600160a01b038516917fddf252ad1be2c89b69c2b068fc378daa952ba7f163c4a11628f55a4df523b3ef9181900360200190a35050565b600061168030611890565b15905090565b600054610100900460ff168061169f575061169f611675565b806116ad575060005460ff16155b6116e85760405162461bcd60e51b815260040180806020018281038252602e815260200180611f55602e913960400191505060405180910390fd5b600054610100900460ff16158015611713576000805460ff1961ff0019909116610100171660011790555b61171b611896565b611723611896565b61172d8383611937565b611735611896565b61173d611a0f565b611745611896565b610b828383611aba565b611757610b99565b1561179c576040805162461bcd60e51b815260206004820152601060248201526f14185d5cd8589b194e881c185d5cd95960821b604482015290519081900360640190fd5b60c9805460ff191660011790557f62e78cea01bee320cd4e420270b5ea74000d11b0c9f74754ebdbfc544b05a25861146a610fd7565b6000610c878383611b8d565b6000610c87836001600160a01b038416611bf1565b600061084d82611c09565b610b94838383611c0d565b6000610c87836001600160a01b038416611c5c565b6000610c87836001600160a01b038416611ca6565b60008282111561188a576040805162461bcd60e51b815260206004820152601e60248201527f536166654d6174683a207375627472616374696f6e206f766572666c6f770000604482015290519081900360640190fd5b50900390565b3b151590565b600054610100900460ff16806118af57506118af611675565b806118bd575060005460ff16155b6118f85760405162461bcd60e51b815260040180806020018281038252602e815260200180611f55602e913960400191505060405180910390fd5b600054610100900460ff16158015611923576000805460ff1961ff0019909116610100171660011790555b8015610ae8576000805461ff001916905550565b600054610100900460ff16806119505750611950611675565b8061195e575060005460ff16155b6119995760405162461bcd60e51b815260040180806020018281038252602e815260200180611f55602e913960400191505060405180910390fd5b600054610100900460ff161580156119c4576000805460ff1961ff0019909116610100171660011790555b82516119d7906068906020860190611d6c565b5081516119eb906069906020850190611d6c565b50606a805460ff191660121790558015610b94576000805461ff0019169055505050565b600054610100900460ff1680611a285750611a28611675565b80611a36575060005460ff16155b611a715760405162461bcd60e51b815260040180806020018281038252602e815260200180611f55602e913960400191505060405180910390fd5b600054610100900460ff16158015611a9c576000805460ff1961ff0019909116610100171660011790555b60c9805460ff191690558015610ae8576000805461ff001916905550565b600054610100900460ff1680611ad35750611ad3611675565b80611ae1575060005460ff16155b611b1c5760405162461bcd60e51b815260040180806020018281038252602e815260200180611f55602e913960400191505060405180910390fd5b600054610100900460ff16158015611b47576000805460ff1961ff0019909116610100171660011790555b611b596000611b54610fd7565b610953565b611b73600080516020612025833981519152611b54610fd7565b610b82600080516020611fab833981519152611b54610fd7565b81546000908210611bcf5760405162461bcd60e51b8152600401808060200182810382526022815260200180611e0e6022913960400191505060405180910390fd5b826000018281548110611bde57fe5b9060005260206000200154905092915050565b60009081526001919091016020526040902054151590565b5490565b611c18838383610b94565b611c20610b99565b15610b945760405162461bcd60e51b815260040180806020018281038252602a81526020018061213a602a913960400191505060405180910390fd5b6000611c688383611bf1565b611c9e5750815460018181018455600084815260208082209093018490558454848252828601909352604090209190915561084d565b50600061084d565b60008181526001830160205260408120548015611d625783546000198083019190810190600090879083908110611cd957fe5b9060005260206000200154905080876000018481548110611cf657fe5b600091825260208083209091019290925582815260018981019092526040902090840190558654879080611d2657fe5b6001900381819060005260206000200160009055905586600101600087815260200190815260200160002060009055600194505050505061084d565b600091505061084d565b828054600181600116156101000203166002900490600052602060002090601f016020900481019282611da25760008555611de8565b82601f10611dbb57805160ff1916838001178555611de8565b82800160010185558215611de8579182015b82811115611de8578251825591602001919060010190611dcd565b50611df4929150611df8565b5090565b5b80821115611df45760008155600101611df956fe456e756d657261626c655365743a20696e646578206f7574206f6620626f756e647345524332303a207472616e7366657220746f20746865207a65726f2061646472657373416363657373436f6e74726f6c3a2073656e646572206d75737420626520616e2061646d696e20746f206772616e7445524332303a206275726e20616d6f756e7420657863656564732062616c616e636545524332305072657365744d696e7465725061757365723a206d75737420686176652070617573657220726f6c6520746f20756e706175736545524332303a20617070726f766520746f20746865207a65726f206164647265737345524332303a207472616e7366657220616d6f756e7420657863656564732062616c616e6365416363657373436f6e74726f6c3a2073656e646572206d75737420626520616e2061646d696e20746f207265766f6b65496e697469616c697a61626c653a20636f6e747261637420697320616c726561647920696e697469616c697a656445524332303a207472616e7366657220616d6f756e74206578636565647320616c6c6f77616e636565d7a28e3265b37a6474929f336521b332c1681b933f6cb9f3376673440d862a45524332305072657365744d696e7465725061757365723a206d7573742068617665206d696e74657220726f6c6520746f206d696e7445524332303a206275726e20616d6f756e74206578636565647320616c6c6f77616e63659f2df0fed2c77648de5860a4cc508cd0818c85b8b8a1ab4ceeef8d981c8956a645524332303a206275726e2066726f6d20746865207a65726f206164647265737345524332303a207472616e736665722066726f6d20746865207a65726f206164647265737345524332303a20617070726f76652066726f6d20746865207a65726f206164647265737345524332305072657365744d696e7465725061757365723a206d75737420686176652070617573657220726f6c6520746f20706175736545524332303a2064656372656173656420616c6c6f77616e63652062656c6f77207a65726f416363657373436f6e74726f6c3a2063616e206f6e6c792072656e6f756e636520726f6c657320666f722073656c6645524332305061757361626c653a20746f6b656e207472616e73666572207768696c6520706175736564a264697066735822122091c467c70ab61ba59f17e502b2331c56d4d62b2b7973c14d2f5cdcdf3b0f078c64736f6c63430007060033",
  "immutableReferences": {},
  "source": "//SPDX-License-Identifier: Unlicense\npragma solidity 0.7.6;\n\nimport \"@openzeppelin/contracts-upgradeable/presets/ERC20PresetMinterPauserUpgradeable.sol\";\n\ncontract FloatToken is ERC20PresetMinterPauserUpgradeable {\n    function setup(\n        string calldata name,\n        string calldata symbol,\n        address stakerAddress\n    ) public initializer {\n        initialize(name, symbol);\n\n        _setupRole(DEFAULT_ADMIN_ROLE, stakerAddress);\n        _setupRole(MINTER_ROLE, stakerAddress);\n        _setupRole(PAUSER_ROLE, stakerAddress);\n\n        renounceRole(DEFAULT_ADMIN_ROLE, msg.sender);\n        renounceRole(MINTER_ROLE, msg.sender);\n        renounceRole(PAUSER_ROLE, msg.sender);\n    }\n}\n",
  "sourcePath": "/home/jasoons/Documents/code/longshort/contracts/contracts/FloatToken.sol",
  "compiler": {
    "name": "solc",
    "version": "0.7.6+commit.7338295f.Emscripten.clang"
  },
  "schemaVersion": "3.3.4",
  "updatedAt": "2021-02-18T12:41:57.438Z",
  "networkType": "ethereum",
  "devdoc": {
    "kind": "dev",
    "methods": {
      "allowance(address,address)": {
        "details": "See {IERC20-allowance}."
      },
      "approve(address,uint256)": {
        "details": "See {IERC20-approve}. Requirements: - `spender` cannot be the zero address."
      },
      "balanceOf(address)": {
        "details": "See {IERC20-balanceOf}."
      },
      "burn(uint256)": {
        "details": "Destroys `amount` tokens from the caller. See {ERC20-_burn}."
      },
      "burnFrom(address,uint256)": {
        "details": "Destroys `amount` tokens from `account`, deducting from the caller's allowance. See {ERC20-_burn} and {ERC20-allowance}. Requirements: - the caller must have allowance for ``accounts``'s tokens of at least `amount`."
      },
      "decimals()": {
        "details": "Returns the number of decimals used to get its user representation. For example, if `decimals` equals `2`, a balance of `505` tokens should be displayed to a user as `5,05` (`505 / 10 ** 2`). Tokens usually opt for a value of 18, imitating the relationship between Ether and Wei. This is the value {ERC20} uses, unless {_setupDecimals} is called. NOTE: This information is only used for _display_ purposes: it in no way affects any of the arithmetic of the contract, including {IERC20-balanceOf} and {IERC20-transfer}."
      },
      "decreaseAllowance(address,uint256)": {
        "details": "Atomically decreases the allowance granted to `spender` by the caller. This is an alternative to {approve} that can be used as a mitigation for problems described in {IERC20-approve}. Emits an {Approval} event indicating the updated allowance. Requirements: - `spender` cannot be the zero address. - `spender` must have allowance for the caller of at least `subtractedValue`."
      },
      "getRoleAdmin(bytes32)": {
        "details": "Returns the admin role that controls `role`. See {grantRole} and {revokeRole}. To change a role's admin, use {_setRoleAdmin}."
      },
      "getRoleMember(bytes32,uint256)": {
        "details": "Returns one of the accounts that have `role`. `index` must be a value between 0 and {getRoleMemberCount}, non-inclusive. Role bearers are not sorted in any particular way, and their ordering may change at any point. WARNING: When using {getRoleMember} and {getRoleMemberCount}, make sure you perform all queries on the same block. See the following https://forum.openzeppelin.com/t/iterating-over-elements-on-enumerableset-in-openzeppelin-contracts/2296[forum post] for more information."
      },
      "getRoleMemberCount(bytes32)": {
        "details": "Returns the number of accounts that have `role`. Can be used together with {getRoleMember} to enumerate all bearers of a role."
      },
      "grantRole(bytes32,address)": {
        "details": "Grants `role` to `account`. If `account` had not been already granted `role`, emits a {RoleGranted} event. Requirements: - the caller must have ``role``'s admin role."
      },
      "hasRole(bytes32,address)": {
        "details": "Returns `true` if `account` has been granted `role`."
      },
      "increaseAllowance(address,uint256)": {
        "details": "Atomically increases the allowance granted to `spender` by the caller. This is an alternative to {approve} that can be used as a mitigation for problems described in {IERC20-approve}. Emits an {Approval} event indicating the updated allowance. Requirements: - `spender` cannot be the zero address."
      },
      "mint(address,uint256)": {
        "details": "Creates `amount` new tokens for `to`. See {ERC20-_mint}. Requirements: - the caller must have the `MINTER_ROLE`."
      },
      "name()": {
        "details": "Returns the name of the token."
      },
      "pause()": {
        "details": "Pauses all token transfers. See {ERC20Pausable} and {Pausable-_pause}. Requirements: - the caller must have the `PAUSER_ROLE`."
      },
      "paused()": {
        "details": "Returns true if the contract is paused, and false otherwise."
      },
      "renounceRole(bytes32,address)": {
        "details": "Revokes `role` from the calling account. Roles are often managed via {grantRole} and {revokeRole}: this function's purpose is to provide a mechanism for accounts to lose their privileges if they are compromised (such as when a trusted device is misplaced). If the calling account had been granted `role`, emits a {RoleRevoked} event. Requirements: - the caller must be `account`."
      },
      "revokeRole(bytes32,address)": {
        "details": "Revokes `role` from `account`. If `account` had been granted `role`, emits a {RoleRevoked} event. Requirements: - the caller must have ``role``'s admin role."
      },
      "symbol()": {
        "details": "Returns the symbol of the token, usually a shorter version of the name."
      },
      "totalSupply()": {
        "details": "See {IERC20-totalSupply}."
      },
      "transfer(address,uint256)": {
        "details": "See {IERC20-transfer}. Requirements: - `recipient` cannot be the zero address. - the caller must have a balance of at least `amount`."
      },
      "transferFrom(address,address,uint256)": {
        "details": "See {IERC20-transferFrom}. Emits an {Approval} event indicating the updated allowance. This is not required by the EIP. See the note at the beginning of {ERC20}. Requirements: - `sender` and `recipient` cannot be the zero address. - `sender` must have a balance of at least `amount`. - the caller must have allowance for ``sender``'s tokens of at least `amount`."
      },
      "unpause()": {
        "details": "Unpauses all token transfers. See {ERC20Pausable} and {Pausable-_unpause}. Requirements: - the caller must have the `PAUSER_ROLE`."
      }
    },
    "version": 1
  },
  "userdoc": {
    "kind": "user",
    "methods": {},
    "version": 1
  }
}