{
  "contractName": "LendingPoolAddressesProvider",
  "abi": [
    {
      "inputs": [
        {
          "internalType": "contract AaveLendingPool",
          "name": "aaveLendingPoolAddress",
          "type": "address"
        }
      ],
      "stateMutability": "nonpayable",
      "type": "constructor"
    },
    {
      "inputs": [],
      "name": "aaveLendingPool",
      "outputs": [
        {
          "internalType": "contract AaveLendingPool",
          "name": "",
          "type": "address"
        }
      ],
      "stateMutability": "view",
      "type": "function",
      "constant": true
    },
    {
      "inputs": [],
      "name": "getLendingPool",
      "outputs": [
        {
          "internalType": "address",
          "name": "",
          "type": "address"
        }
      ],
      "stateMutability": "view",
      "type": "function",
      "constant": true
    },
    {
      "inputs": [],
      "name": "getLendingPoolCore",
      "outputs": [
        {
          "internalType": "address",
          "name": "",
          "type": "address"
        }
      ],
      "stateMutability": "view",
      "type": "function",
      "constant": true
    }
  ],
  "bytecode": "0x608060405234801561001057600080fd5b506040516101213803806101218339818101604052602081101561003357600080fd5b5051600080546001600160a01b039092166001600160a01b031990921691909117905560bd806100646000396000f3fe6080604052348015600f57600080fd5b5060043610603c5760003560e01c80630261bf8b146041578063e9d337b8146063578063ed6ff760146041575b600080fd5b60476069565b604080516001600160a01b039092168252519081900360200190f35b60476078565b6000546001600160a01b031690565b6000546001600160a01b03168156fea2646970667358221220ef94abbea59fb09b2b22abe5bb1a9631bd8cd7251cbbdc160bc6286cc89bd48164736f6c634300060c0033",
  "immutableReferences": {},
  "source": "pragma solidity ^0.6.0;\n\nimport '../interfaces/ILendingPoolAddressesProvider.sol';\nimport './AaveLendingPool.sol';\n\ncontract LendingPoolAddressesProvider is ILendingPoolAddressesProvider {\n  AaveLendingPool public aaveLendingPool;\n\n  constructor(AaveLendingPool aaveLendingPoolAddress) public {\n    aaveLendingPool = aaveLendingPoolAddress;\n  }\n\n  function getLendingPool() public override view returns (address) {\n    return address(aaveLendingPool);\n  }\n\n  function getLendingPoolCore() public override view returns (address) {\n    return address(aaveLendingPool);\n  }\n}\n",
  "sourcePath": "/home/jasoons/Documents/code/longshort/contracts/contracts/mocks/LendingPoolAddressesProvider.sol",
  "compiler": {
    "name": "solc",
    "version": "0.6.12+commit.27d51765.Emscripten.clang"
  },
  "schemaVersion": "3.3.3",
  "updatedAt": "2021-01-29T14:38:38.833Z",
  "networkType": "ethereum",
  "devdoc": {
    "kind": "dev",
    "methods": {},
    "version": 1
  },
  "userdoc": {
    "kind": "user",
    "methods": {},
    "version": 1
  }
}