{
  "contractName": "SyntheticToken",
  "abi": [
    {
      "anonymous": false,
      "inputs": [
        {
          "indexed": true,
          "internalType": "address",
          "name": "owner",
          "type": "address"
        },
        {
          "indexed": true,
          "internalType": "address",
          "name": "spender",
          "type": "address"
        },
        {
          "indexed": false,
          "internalType": "uint256",
          "name": "value",
          "type": "uint256"
        }
      ],
      "name": "Approval",
      "type": "event"
    },
    {
      "anonymous": false,
      "inputs": [
        {
          "indexed": false,
          "internalType": "address",
          "name": "account",
          "type": "address"
        }
      ],
      "name": "Paused",
      "type": "event"
    },
    {
      "anonymous": false,
      "inputs": [
        {
          "indexed": true,
          "internalType": "bytes32",
          "name": "role",
          "type": "bytes32"
        },
        {
          "indexed": true,
          "internalType": "address",
          "name": "account",
          "type": "address"
        },
        {
          "indexed": true,
          "internalType": "address",
          "name": "sender",
          "type": "address"
        }
      ],
      "name": "RoleGranted",
      "type": "event"
    },
    {
      "anonymous": false,
      "inputs": [
        {
          "indexed": true,
          "internalType": "bytes32",
          "name": "role",
          "type": "bytes32"
        },
        {
          "indexed": true,
          "internalType": "address",
          "name": "account",
          "type": "address"
        },
        {
          "indexed": true,
          "internalType": "address",
          "name": "sender",
          "type": "address"
        }
      ],
      "name": "RoleRevoked",
      "type": "event"
    },
    {
      "anonymous": false,
      "inputs": [
        {
          "indexed": true,
          "internalType": "address",
          "name": "from",
          "type": "address"
        },
        {
          "indexed": true,
          "internalType": "address",
          "name": "to",
          "type": "address"
        },
        {
          "indexed": false,
          "internalType": "uint256",
          "name": "value",
          "type": "uint256"
        }
      ],
      "name": "Transfer",
      "type": "event"
    },
    {
      "anonymous": false,
      "inputs": [
        {
          "indexed": false,
          "internalType": "address",
          "name": "account",
          "type": "address"
        }
      ],
      "name": "Unpaused",
      "type": "event"
    },
    {
      "inputs": [],
      "name": "DEFAULT_ADMIN_ROLE",
      "outputs": [
        {
          "internalType": "bytes32",
          "name": "",
          "type": "bytes32"
        }
      ],
      "stateMutability": "view",
      "type": "function",
      "constant": true
    },
    {
      "inputs": [],
      "name": "MINTER_ROLE",
      "outputs": [
        {
          "internalType": "bytes32",
          "name": "",
          "type": "bytes32"
        }
      ],
      "stateMutability": "view",
      "type": "function",
      "constant": true
    },
    {
      "inputs": [],
      "name": "PAUSER_ROLE",
      "outputs": [
        {
          "internalType": "bytes32",
          "name": "",
          "type": "bytes32"
        }
      ],
      "stateMutability": "view",
      "type": "function",
      "constant": true
    },
    {
      "inputs": [
        {
          "internalType": "address",
          "name": "owner",
          "type": "address"
        },
        {
          "internalType": "address",
          "name": "spender",
          "type": "address"
        }
      ],
      "name": "allowance",
      "outputs": [
        {
          "internalType": "uint256",
          "name": "",
          "type": "uint256"
        }
      ],
      "stateMutability": "view",
      "type": "function",
      "constant": true
    },
    {
      "inputs": [
        {
          "internalType": "address",
          "name": "spender",
          "type": "address"
        },
        {
          "internalType": "uint256",
          "name": "amount",
          "type": "uint256"
        }
      ],
      "name": "approve",
      "outputs": [
        {
          "internalType": "bool",
          "name": "",
          "type": "bool"
        }
      ],
      "stateMutability": "nonpayable",
      "type": "function"
    },
    {
      "inputs": [
        {
          "internalType": "address",
          "name": "account",
          "type": "address"
        }
      ],
      "name": "balanceOf",
      "outputs": [
        {
          "internalType": "uint256",
          "name": "",
          "type": "uint256"
        }
      ],
      "stateMutability": "view",
      "type": "function",
      "constant": true
    },
    {
      "inputs": [
        {
          "internalType": "uint256",
          "name": "amount",
          "type": "uint256"
        }
      ],
      "name": "burn",
      "outputs": [],
      "stateMutability": "nonpayable",
      "type": "function"
    },
    {
      "inputs": [
        {
          "internalType": "address",
          "name": "account",
          "type": "address"
        },
        {
          "internalType": "uint256",
          "name": "amount",
          "type": "uint256"
        }
      ],
      "name": "burnFrom",
      "outputs": [],
      "stateMutability": "nonpayable",
      "type": "function"
    },
    {
      "inputs": [],
      "name": "decimals",
      "outputs": [
        {
          "internalType": "uint8",
          "name": "",
          "type": "uint8"
        }
      ],
      "stateMutability": "view",
      "type": "function",
      "constant": true
    },
    {
      "inputs": [
        {
          "internalType": "address",
          "name": "spender",
          "type": "address"
        },
        {
          "internalType": "uint256",
          "name": "subtractedValue",
          "type": "uint256"
        }
      ],
      "name": "decreaseAllowance",
      "outputs": [
        {
          "internalType": "bool",
          "name": "",
          "type": "bool"
        }
      ],
      "stateMutability": "nonpayable",
      "type": "function"
    },
    {
      "inputs": [
        {
          "internalType": "bytes32",
          "name": "role",
          "type": "bytes32"
        }
      ],
      "name": "getRoleAdmin",
      "outputs": [
        {
          "internalType": "bytes32",
          "name": "",
          "type": "bytes32"
        }
      ],
      "stateMutability": "view",
      "type": "function",
      "constant": true
    },
    {
      "inputs": [
        {
          "internalType": "bytes32",
          "name": "role",
          "type": "bytes32"
        },
        {
          "internalType": "uint256",
          "name": "index",
          "type": "uint256"
        }
      ],
      "name": "getRoleMember",
      "outputs": [
        {
          "internalType": "address",
          "name": "",
          "type": "address"
        }
      ],
      "stateMutability": "view",
      "type": "function",
      "constant": true
    },
    {
      "inputs": [
        {
          "internalType": "bytes32",
          "name": "role",
          "type": "bytes32"
        }
      ],
      "name": "getRoleMemberCount",
      "outputs": [
        {
          "internalType": "uint256",
          "name": "",
          "type": "uint256"
        }
      ],
      "stateMutability": "view",
      "type": "function",
      "constant": true
    },
    {
      "inputs": [
        {
          "internalType": "bytes32",
          "name": "role",
          "type": "bytes32"
        },
        {
          "internalType": "address",
          "name": "account",
          "type": "address"
        }
      ],
      "name": "grantRole",
      "outputs": [],
      "stateMutability": "nonpayable",
      "type": "function"
    },
    {
      "inputs": [
        {
          "internalType": "bytes32",
          "name": "role",
          "type": "bytes32"
        },
        {
          "internalType": "address",
          "name": "account",
          "type": "address"
        }
      ],
      "name": "hasRole",
      "outputs": [
        {
          "internalType": "bool",
          "name": "",
          "type": "bool"
        }
      ],
      "stateMutability": "view",
      "type": "function",
      "constant": true
    },
    {
      "inputs": [
        {
          "internalType": "address",
          "name": "spender",
          "type": "address"
        },
        {
          "internalType": "uint256",
          "name": "addedValue",
          "type": "uint256"
        }
      ],
      "name": "increaseAllowance",
      "outputs": [
        {
          "internalType": "bool",
          "name": "",
          "type": "bool"
        }
      ],
      "stateMutability": "nonpayable",
      "type": "function"
    },
    {
      "inputs": [
        {
          "internalType": "string",
          "name": "name",
          "type": "string"
        },
        {
          "internalType": "string",
          "name": "symbol",
          "type": "string"
        }
      ],
      "name": "initialize",
      "outputs": [],
      "stateMutability": "nonpayable",
      "type": "function"
    },
    {
      "inputs": [
        {
          "internalType": "address",
          "name": "to",
          "type": "address"
        },
        {
          "internalType": "uint256",
          "name": "amount",
          "type": "uint256"
        }
      ],
      "name": "mint",
      "outputs": [],
      "stateMutability": "nonpayable",
      "type": "function"
    },
    {
      "inputs": [],
      "name": "name",
      "outputs": [
        {
          "internalType": "string",
          "name": "",
          "type": "string"
        }
      ],
      "stateMutability": "view",
      "type": "function",
      "constant": true
    },
    {
      "inputs": [],
      "name": "pause",
      "outputs": [],
      "stateMutability": "nonpayable",
      "type": "function"
    },
    {
      "inputs": [],
      "name": "paused",
      "outputs": [
        {
          "internalType": "bool",
          "name": "",
          "type": "bool"
        }
      ],
      "stateMutability": "view",
      "type": "function",
      "constant": true
    },
    {
      "inputs": [
        {
          "internalType": "bytes32",
          "name": "role",
          "type": "bytes32"
        },
        {
          "internalType": "address",
          "name": "account",
          "type": "address"
        }
      ],
      "name": "renounceRole",
      "outputs": [],
      "stateMutability": "nonpayable",
      "type": "function"
    },
    {
      "inputs": [
        {
          "internalType": "bytes32",
          "name": "role",
          "type": "bytes32"
        },
        {
          "internalType": "address",
          "name": "account",
          "type": "address"
        }
      ],
      "name": "revokeRole",
      "outputs": [],
      "stateMutability": "nonpayable",
      "type": "function"
    },
    {
      "inputs": [],
      "name": "symbol",
      "outputs": [
        {
          "internalType": "string",
          "name": "",
          "type": "string"
        }
      ],
      "stateMutability": "view",
      "type": "function",
      "constant": true
    },
    {
      "inputs": [],
      "name": "totalSupply",
      "outputs": [
        {
          "internalType": "uint256",
          "name": "",
          "type": "uint256"
        }
      ],
      "stateMutability": "view",
      "type": "function",
      "constant": true
    },
    {
      "inputs": [
        {
          "internalType": "address",
          "name": "recipient",
          "type": "address"
        },
        {
          "internalType": "uint256",
          "name": "amount",
          "type": "uint256"
        }
      ],
      "name": "transfer",
      "outputs": [
        {
          "internalType": "bool",
          "name": "",
          "type": "bool"
        }
      ],
      "stateMutability": "nonpayable",
      "type": "function"
    },
    {
      "inputs": [
        {
          "internalType": "address",
          "name": "sender",
          "type": "address"
        },
        {
          "internalType": "address",
          "name": "recipient",
          "type": "address"
        },
        {
          "internalType": "uint256",
          "name": "amount",
          "type": "uint256"
        }
      ],
      "name": "transferFrom",
      "outputs": [
        {
          "internalType": "bool",
          "name": "",
          "type": "bool"
        }
      ],
      "stateMutability": "nonpayable",
      "type": "function"
    },
    {
      "inputs": [],
      "name": "unpause",
      "outputs": [],
      "stateMutability": "nonpayable",
      "type": "function"
    },
    {
      "inputs": [
        {
          "internalType": "string",
          "name": "name",
          "type": "string"
        },
        {
          "internalType": "string",
          "name": "symbol",
          "type": "string"
        },
        {
          "internalType": "address",
          "name": "LongShortContract",
          "type": "address"
        }
      ],
      "name": "setup",
      "outputs": [],
      "stateMutability": "nonpayable",
      "type": "function"
    }
  ],
  "bytecode": "0x608060405234801561001057600080fd5b50612099806100206000396000f3fe608060405234801561001057600080fd5b50600436106101cf5760003560e01c806370a0823111610104578063a457c2d7116100a2578063d547741f11610071578063d547741f14610676578063dcc43d16146106a2578063dd62ed3e146107d6578063e63ab1e914610804576101cf565b8063a457c2d7146105f9578063a9059cbb14610625578063ca15c87314610651578063d53913931461066e576101cf565b80639010d07c116100de5780639010d07c1461057e57806391d14854146105bd57806395d89b41146105e9578063a217fddf146105f1576101cf565b806370a082311461052457806379cc67901461054a5780638456cb5914610576576101cf565b806336568abe1161017157806340c10f191161014b57806340c10f19146103aa57806342966c68146103d65780634cd88b76146103f35780635c975abb1461051c576101cf565b806336568abe1461034a57806339509351146103765780633f4ba83a146103a2576101cf565b806323b872dd116101ad57806323b872dd146102ab578063248a9ca3146102e15780632f2ff15d146102fe578063313ce5671461032c576101cf565b806306fdde03146101d4578063095ea7b31461025157806318160ddd14610291575b600080fd5b6101dc61080c565b6040805160208082528351818301528351919283929083019185019080838360005b838110156102165781810151838201526020016101fe565b50505050905090810190601f1680156102435780820380516001836020036101000a031916815260200191505b509250505060405180910390f35b61027d6004803603604081101561026757600080fd5b506001600160a01b0381351690602001356108a2565b604080519115158252519081900360200190f35b6102996108c0565b60408051918252519081900360200190f35b61027d600480360360608110156102c157600080fd5b506001600160a01b038135811691602081013590911690604001356108c6565b610299600480360360208110156102f757600080fd5b503561094d565b61032a6004803603604081101561031457600080fd5b50803590602001356001600160a01b0316610962565b005b6103346109ce565b6040805160ff9092168252519081900360200190f35b61032a6004803603604081101561036057600080fd5b50803590602001356001600160a01b03166109d7565b61027d6004803603604081101561038c57600080fd5b506001600160a01b038135169060200135610a38565b61032a610a86565b61032a600480360360408110156103c057600080fd5b506001600160a01b038135169060200135610ae5565b61032a600480360360208110156103ec57600080fd5b5035610b44565b61032a6004803603604081101561040957600080fd5b810190602081018135600160201b81111561042357600080fd5b82018360208201111561043557600080fd5b803590602001918460018302840111600160201b8311171561045657600080fd5b91908080601f0160208091040260200160405190810160405280939291908181526020018383808284376000920191909152509295949360208101935035915050600160201b8111156104a857600080fd5b8201836020820111156104ba57600080fd5b803590602001918460018302840111600160201b831117156104db57600080fd5b91908080601f016020809104026020016040519081016040528093929190818152602001838380828437600092019190915250929550610b58945050505050565b61027d610b62565b6102996004803603602081101561053a57600080fd5b50356001600160a01b0316610b6b565b61032a6004803603604081101561056057600080fd5b506001600160a01b038135169060200135610b86565b61032a610be0565b6105a16004803603604081101561059457600080fd5b5080359060200135610c3d565b604080516001600160a01b039092168252519081900360200190f35b61027d600480360360408110156105d357600080fd5b50803590602001356001600160a01b0316610c5c565b6101dc610c74565b610299610cd5565b61027d6004803603604081101561060f57600080fd5b506001600160a01b038135169060200135610cda565b61027d6004803603604081101561063b57600080fd5b506001600160a01b038135169060200135610d42565b6102996004803603602081101561066757600080fd5b5035610d56565b610299610d6d565b61032a6004803603604081101561068c57600080fd5b50803590602001356001600160a01b0316610d7f565b61032a600480360360608110156106b857600080fd5b810190602081018135600160201b8111156106d257600080fd5b8201836020820111156106e457600080fd5b803590602001918460018302840111600160201b8311171561070557600080fd5b91908080601f0160208091040260200160405190810160405280939291908181526020018383808284376000920191909152509295949360208101935035915050600160201b81111561075757600080fd5b82018360208201111561076957600080fd5b803590602001918460018302840111600160201b8311171561078a57600080fd5b91908080601f016020809104026020016040519081016040528093929190818152602001838380828437600092019190915250929550505090356001600160a01b03169150610dd89050565b610299600480360360408110156107ec57600080fd5b506001600160a01b0381358116916020013516610ec2565b610299610eed565b609a8054604080516020601f60026000196101006001881615020190951694909404938401819004810282018101909252828152606093909290918301828280156108985780601f1061086d57610100808354040283529160200191610898565b820191906000526020600020905b81548152906001019060200180831161087b57829003601f168201915b5050505050905090565b60006108b66108af610eff565b8484610f03565b5060015b92915050565b60995490565b60006108d3848484610fef565b610943846108df610eff565b61093e85604051806060016040528060288152602001611e55602891396001600160a01b038a1660009081526098602052604081209061091d610eff565b6001600160a01b03168152602081019190915260400160002054919061114c565b610f03565b5060019392505050565b60009081526065602052604090206002015490565b60008281526065602052604090206002015461098590610980610eff565b610c5c565b6109c05760405162461bcd60e51b815260040180806020018281038252602f815260200180611d53602f913960400191505060405180910390fd5b6109ca82826111e3565b5050565b609c5460ff1690565b6109df610eff565b6001600160a01b0316816001600160a01b031614610a2e5760405162461bcd60e51b815260040180806020018281038252602f81526020018061200b602f913960400191505060405180910390fd5b6109ca828261124c565b60006108b6610a45610eff565b8461093e8560986000610a56610eff565b6001600160a01b03908116825260208083019390935260409182016000908120918c1681529252902054906112b5565b610aa0600080516020611e7d833981519152610980610eff565b610adb5760405162461bcd60e51b8152600401808060200182810382526039815260200180611da46039913960400191505060405180910390fd5b610ae361130f565b565b610aff600080516020611f25833981519152610980610eff565b610b3a5760405162461bcd60e51b8152600401808060200182810382526036815260200180611e9d6036913960400191505060405180910390fd5b6109ca82826113ad565b610b55610b4f610eff565b8261149f565b50565b6109ca828261159b565b60fb5460ff1690565b6001600160a01b031660009081526097602052604090205490565b6000610bbd82604051806060016040528060248152602001611f0160249139610bb686610bb1610eff565b610ec2565b919061114c565b9050610bd183610bcb610eff565b83610f03565b610bdb838361149f565b505050565b610bfa600080516020611e7d833981519152610980610eff565b610c355760405162461bcd60e51b8152600401808060200182810382526037815260200180611faf6037913960400191505060405180910390fd5b610ae361167a565b6000828152606560205260408120610c5590836116fb565b9392505050565b6000828152606560205260408120610c559083611707565b609b8054604080516020601f60026000196101006001881615020190951694909404938401819004810282018101909252828152606093909290918301828280156108985780601f1061086d57610100808354040283529160200191610898565b600081565b60006108b6610ce7610eff565b8461093e85604051806060016040528060258152602001611fe66025913960986000610d11610eff565b6001600160a01b03908116825260208083019390935260409182016000908120918d1681529252902054919061114c565b60006108b6610d4f610eff565b8484610fef565b60008181526065602052604081206108ba9061171c565b600080516020611f2583398151915281565b600082815260656020526040902060020154610d9d90610980610eff565b610a2e5760405162461bcd60e51b8152600401808060200182810382526030815260200180611e256030913960400191505060405180910390fd5b600054610100900460ff1680610df15750610df1611727565b80610dff575060005460ff16155b610e3a5760405162461bcd60e51b815260040180806020018281038252602e815260200180611ed3602e913960400191505060405180910390fd5b600054610100900460ff16158015610e65576000805460ff1961ff0019909116610100171660011790555b610e6f8484610b58565b610e7a6000836109c0565b610e92600080516020611f25833981519152836109c0565b610eaa600080516020611e7d833981519152836109c0565b8015610ebc576000805461ff00191690555b50505050565b6001600160a01b03918216600090815260986020908152604080832093909416825291909152205490565b600080516020611e7d83398151915281565b3390565b6001600160a01b038316610f485760405162461bcd60e51b8152600401808060200182810382526024815260200180611f8b6024913960400191505060405180910390fd5b6001600160a01b038216610f8d5760405162461bcd60e51b8152600401808060200182810382526022815260200180611ddd6022913960400191505060405180910390fd5b6001600160a01b03808416600081815260986020908152604080832094871680845294825291829020859055815185815291517f8c5be1e5ebec7d5bd14f71427d1e84f3dd0314c0f7b2291e5b200ac8c7c3b9259281900390910190a3505050565b6001600160a01b0383166110345760405162461bcd60e51b8152600401808060200182810382526025815260200180611f666025913960400191505060405180910390fd5b6001600160a01b0382166110795760405162461bcd60e51b8152600401808060200182810382526023815260200180611d306023913960400191505060405180910390fd5b61108483838361172d565b6110c181604051806060016040528060268152602001611dff602691396001600160a01b038616600090815260976020526040902054919061114c565b6001600160a01b0380851660009081526097602052604080822093909355908416815220546110f090826112b5565b6001600160a01b0380841660008181526097602090815260409182902094909455805185815290519193928716927fddf252ad1be2c89b69c2b068fc378daa952ba7f163c4a11628f55a4df523b3ef92918290030190a3505050565b600081848411156111db5760405162461bcd60e51b81526004018080602001828103825283818151815260200191508051906020019080838360005b838110156111a0578181015183820152602001611188565b50505050905090810190601f1680156111cd5780820380516001836020036101000a031916815260200191505b509250505060405180910390fd5b505050900390565b60008281526065602052604090206111fb9082611738565b156109ca57611208610eff565b6001600160a01b0316816001600160a01b0316837f2f8788117e7eff1d82e926ec794901d17c78024a50270940304540a733656f0d60405160405180910390a45050565b6000828152606560205260409020611264908261174d565b156109ca57611271610eff565b6001600160a01b0316816001600160a01b0316837ff6391f5c32d9c69d2a47ea670b442974b53935d1edc7fd64eb21e047a839171b60405160405180910390a45050565b600082820183811015610c55576040805162461bcd60e51b815260206004820152601b60248201527f536166654d6174683a206164646974696f6e206f766572666c6f770000000000604482015290519081900360640190fd5b60fb5460ff1661135d576040805162461bcd60e51b815260206004820152601460248201527314185d5cd8589b194e881b9bdd081c185d5cd95960621b604482015290519081900360640190fd5b60fb805460ff191690557f5db9ee0a495bf2e6ff9c91a7834c1ba4fdd244a5e8aa4e537bd38aeae4b073aa611390610eff565b604080516001600160a01b039092168252519081900360200190a1565b6001600160a01b038216611408576040805162461bcd60e51b815260206004820152601f60248201527f45524332303a206d696e7420746f20746865207a65726f206164647265737300604482015290519081900360640190fd5b6114146000838361172d565b60995461142190826112b5565b6099556001600160a01b03821660009081526097602052604090205461144790826112b5565b6001600160a01b03831660008181526097602090815260408083209490945583518581529351929391927fddf252ad1be2c89b69c2b068fc378daa952ba7f163c4a11628f55a4df523b3ef9281900390910190a35050565b6001600160a01b0382166114e45760405162461bcd60e51b8152600401808060200182810382526021815260200180611f456021913960400191505060405180910390fd5b6114f08260008361172d565b61152d81604051806060016040528060228152602001611d82602291396001600160a01b038516600090815260976020526040902054919061114c565b6001600160a01b0383166000908152609760205260409020556099546115539082611762565b6099556040805182815290516000916001600160a01b038516917fddf252ad1be2c89b69c2b068fc378daa952ba7f163c4a11628f55a4df523b3ef9181900360200190a35050565b600054610100900460ff16806115b457506115b4611727565b806115c2575060005460ff16155b6115fd5760405162461bcd60e51b815260040180806020018281038252602e815260200180611ed3602e913960400191505060405180910390fd5b600054610100900460ff16158015611628576000805460ff1961ff0019909116610100171660011790555b6116306117a4565b6116386117a4565b6116428383611845565b61164a6117a4565b61165261191d565b61165a6117a4565b61166483836119c8565b8015610bdb576000805461ff0019169055505050565b60fb5460ff16156116c5576040805162461bcd60e51b815260206004820152601060248201526f14185d5cd8589b194e881c185d5cd95960821b604482015290519081900360640190fd5b60fb805460ff191660011790557f62e78cea01bee320cd4e420270b5ea74000d11b0c9f74754ebdbfc544b05a258611390610eff565b6000610c558383611a9b565b6000610c55836001600160a01b038416611aff565b60006108ba82611b17565b303b1590565b610bdb838383611b1b565b6000610c55836001600160a01b038416611b6a565b6000610c55836001600160a01b038416611bb4565b6000610c5583836040518060400160405280601e81526020017f536166654d6174683a207375627472616374696f6e206f766572666c6f77000081525061114c565b600054610100900460ff16806117bd57506117bd611727565b806117cb575060005460ff16155b6118065760405162461bcd60e51b815260040180806020018281038252602e815260200180611ed3602e913960400191505060405180910390fd5b600054610100900460ff16158015611831576000805460ff1961ff0019909116610100171660011790555b8015610b55576000805461ff001916905550565b600054610100900460ff168061185e575061185e611727565b8061186c575060005460ff16155b6118a75760405162461bcd60e51b815260040180806020018281038252602e815260200180611ed3602e913960400191505060405180910390fd5b600054610100900460ff161580156118d2576000805460ff1961ff0019909116610100171660011790555b82516118e590609a906020860190611c7a565b5081516118f990609b906020850190611c7a565b50609c805460ff191660121790558015610bdb576000805461ff0019169055505050565b600054610100900460ff16806119365750611936611727565b80611944575060005460ff16155b61197f5760405162461bcd60e51b815260040180806020018281038252602e815260200180611ed3602e913960400191505060405180910390fd5b600054610100900460ff161580156119aa576000805460ff1961ff0019909116610100171660011790555b60fb805460ff191690558015610b55576000805461ff001916905550565b600054610100900460ff16806119e157506119e1611727565b806119ef575060005460ff16155b611a2a5760405162461bcd60e51b815260040180806020018281038252602e815260200180611ed3602e913960400191505060405180910390fd5b600054610100900460ff16158015611a55576000805460ff1961ff0019909116610100171660011790555b611a676000611a62610eff565b6109c0565b611a81600080516020611f25833981519152611a62610eff565b611664600080516020611e7d833981519152611a62610eff565b81546000908210611add5760405162461bcd60e51b8152600401808060200182810382526022815260200180611d0e6022913960400191505060405180910390fd5b826000018281548110611aec57fe5b9060005260206000200154905092915050565b60009081526001919091016020526040902054151590565b5490565b611b26838383610bdb565b611b2e610b62565b15610bdb5760405162461bcd60e51b815260040180806020018281038252602a81526020018061203a602a913960400191505060405180910390fd5b6000611b768383611aff565b611bac575081546001818101845560008481526020808220909301849055845484825282860190935260409020919091556108ba565b5060006108ba565b60008181526001830160205260408120548015611c705783546000198083019190810190600090879083908110611be757fe5b9060005260206000200154905080876000018481548110611c0457fe5b600091825260208083209091019290925582815260018981019092526040902090840190558654879080611c3457fe5b600190038181906000526020600020016000905590558660010160008781526020019081526020016000206000905560019450505050506108ba565b60009150506108ba565b828054600181600116156101000203166002900490600052602060002090601f016020900481019282601f10611cbb57805160ff1916838001178555611ce8565b82800160010185558215611ce8579182015b82811115611ce8578251825591602001919060010190611ccd565b50611cf4929150611cf8565b5090565b5b80821115611cf45760008155600101611cf956fe456e756d657261626c655365743a20696e646578206f7574206f6620626f756e647345524332303a207472616e7366657220746f20746865207a65726f2061646472657373416363657373436f6e74726f6c3a2073656e646572206d75737420626520616e2061646d696e20746f206772616e7445524332303a206275726e20616d6f756e7420657863656564732062616c616e636545524332305072657365744d696e7465725061757365723a206d75737420686176652070617573657220726f6c6520746f20756e706175736545524332303a20617070726f766520746f20746865207a65726f206164647265737345524332303a207472616e7366657220616d6f756e7420657863656564732062616c616e6365416363657373436f6e74726f6c3a2073656e646572206d75737420626520616e2061646d696e20746f207265766f6b6545524332303a207472616e7366657220616d6f756e74206578636565647320616c6c6f77616e636565d7a28e3265b37a6474929f336521b332c1681b933f6cb9f3376673440d862a45524332305072657365744d696e7465725061757365723a206d7573742068617665206d696e74657220726f6c6520746f206d696e74436f6e747261637420696e7374616e63652068617320616c7265616479206265656e20696e697469616c697a656445524332303a206275726e20616d6f756e74206578636565647320616c6c6f77616e63659f2df0fed2c77648de5860a4cc508cd0818c85b8b8a1ab4ceeef8d981c8956a645524332303a206275726e2066726f6d20746865207a65726f206164647265737345524332303a207472616e736665722066726f6d20746865207a65726f206164647265737345524332303a20617070726f76652066726f6d20746865207a65726f206164647265737345524332305072657365744d696e7465725061757365723a206d75737420686176652070617573657220726f6c6520746f20706175736545524332303a2064656372656173656420616c6c6f77616e63652062656c6f77207a65726f416363657373436f6e74726f6c3a2063616e206f6e6c792072656e6f756e636520726f6c657320666f722073656c6645524332305061757361626c653a20746f6b656e207472616e73666572207768696c6520706175736564a2646970667358221220e45e6bdc58643e58901a45dcd29e4ac79d9bfa9cc1ae069260b4b07d8b7ec37664736f6c634300060c0033",
  "immutableReferences": {},
  "source": "pragma solidity 0.6.12;\n\nimport \"@openzeppelin/contracts-ethereum-package/contracts/presets/ERC20PresetMinterPauser.sol\";\n\ncontract SyntheticToken is ERC20PresetMinterPauserUpgradeSafe {\n    function setup(\n        string memory name,\n        string memory symbol,\n        address LongShortContract\n    ) public initializer {\n        ERC20PresetMinterPauserUpgradeSafe.initialize(name, symbol);\n        _setupRole(DEFAULT_ADMIN_ROLE, LongShortContract);\n        _setupRole(MINTER_ROLE, LongShortContract);\n        _setupRole(PAUSER_ROLE, LongShortContract);\n        // TODO: Renounce admin rights from this deployer\n    }\n}\n",
  "sourcePath": "/home/jasoons/Documents/code/longshort/contracts/contracts/SyntheticToken.sol",
  "compiler": {
    "name": "solc",
    "version": "0.6.12+commit.27d51765.Emscripten.clang"
  },
  "schemaVersion": "3.3.3",
  "updatedAt": "2021-01-29T14:38:38.766Z",
  "networkType": "ethereum",
  "devdoc": {
    "kind": "dev",
    "methods": {
      "allowance(address,address)": {
        "details": "See {IERC20-allowance}."
      },
      "approve(address,uint256)": {
        "details": "See {IERC20-approve}. Requirements: - `spender` cannot be the zero address."
      },
      "balanceOf(address)": {
        "details": "See {IERC20-balanceOf}."
      },
      "burn(uint256)": {
        "details": "Destroys `amount` tokens from the caller. See {ERC20-_burn}."
      },
      "burnFrom(address,uint256)": {
        "details": "Destroys `amount` tokens from `account`, deducting from the caller's allowance. See {ERC20-_burn} and {ERC20-allowance}. Requirements: - the caller must have allowance for ``accounts``'s tokens of at least `amount`."
      },
      "decimals()": {
        "details": "Returns the number of decimals used to get its user representation. For example, if `decimals` equals `2`, a balance of `505` tokens should be displayed to a user as `5,05` (`505 / 10 ** 2`). Tokens usually opt for a value of 18, imitating the relationship between Ether and Wei. This is the value {ERC20} uses, unless {_setupDecimals} is called. NOTE: This information is only used for _display_ purposes: it in no way affects any of the arithmetic of the contract, including {IERC20-balanceOf} and {IERC20-transfer}."
      },
      "decreaseAllowance(address,uint256)": {
        "details": "Atomically decreases the allowance granted to `spender` by the caller. This is an alternative to {approve} that can be used as a mitigation for problems described in {IERC20-approve}. Emits an {Approval} event indicating the updated allowance. Requirements: - `spender` cannot be the zero address. - `spender` must have allowance for the caller of at least `subtractedValue`."
      },
      "getRoleAdmin(bytes32)": {
        "details": "Returns the admin role that controls `role`. See {grantRole} and {revokeRole}. To change a role's admin, use {_setRoleAdmin}."
      },
      "getRoleMember(bytes32,uint256)": {
        "details": "Returns one of the accounts that have `role`. `index` must be a value between 0 and {getRoleMemberCount}, non-inclusive. Role bearers are not sorted in any particular way, and their ordering may change at any point. WARNING: When using {getRoleMember} and {getRoleMemberCount}, make sure you perform all queries on the same block. See the following https://forum.openzeppelin.com/t/iterating-over-elements-on-enumerableset-in-openzeppelin-contracts/2296[forum post] for more information."
      },
      "getRoleMemberCount(bytes32)": {
        "details": "Returns the number of accounts that have `role`. Can be used together with {getRoleMember} to enumerate all bearers of a role."
      },
      "grantRole(bytes32,address)": {
        "details": "Grants `role` to `account`. If `account` had not been already granted `role`, emits a {RoleGranted} event. Requirements: - the caller must have ``role``'s admin role."
      },
      "hasRole(bytes32,address)": {
        "details": "Returns `true` if `account` has been granted `role`."
      },
      "increaseAllowance(address,uint256)": {
        "details": "Atomically increases the allowance granted to `spender` by the caller. This is an alternative to {approve} that can be used as a mitigation for problems described in {IERC20-approve}. Emits an {Approval} event indicating the updated allowance. Requirements: - `spender` cannot be the zero address."
      },
      "initialize(string,string)": {
        "details": "Grants `DEFAULT_ADMIN_ROLE`, `MINTER_ROLE` and `PAUSER_ROLE` to the account that deploys the contract. See {ERC20-constructor}."
      },
      "mint(address,uint256)": {
        "details": "Creates `amount` new tokens for `to`. See {ERC20-_mint}. Requirements: - the caller must have the `MINTER_ROLE`."
      },
      "name()": {
        "details": "Returns the name of the token."
      },
      "pause()": {
        "details": "Pauses all token transfers. See {ERC20Pausable} and {Pausable-_pause}. Requirements: - the caller must have the `PAUSER_ROLE`."
      },
      "paused()": {
        "details": "Returns true if the contract is paused, and false otherwise."
      },
      "renounceRole(bytes32,address)": {
        "details": "Revokes `role` from the calling account. Roles are often managed via {grantRole} and {revokeRole}: this function's purpose is to provide a mechanism for accounts to lose their privileges if they are compromised (such as when a trusted device is misplaced). If the calling account had been granted `role`, emits a {RoleRevoked} event. Requirements: - the caller must be `account`."
      },
      "revokeRole(bytes32,address)": {
        "details": "Revokes `role` from `account`. If `account` had been granted `role`, emits a {RoleRevoked} event. Requirements: - the caller must have ``role``'s admin role."
      },
      "symbol()": {
        "details": "Returns the symbol of the token, usually a shorter version of the name."
      },
      "totalSupply()": {
        "details": "See {IERC20-totalSupply}."
      },
      "transfer(address,uint256)": {
        "details": "See {IERC20-transfer}. Requirements: - `recipient` cannot be the zero address. - the caller must have a balance of at least `amount`."
      },
      "transferFrom(address,address,uint256)": {
        "details": "See {IERC20-transferFrom}. Emits an {Approval} event indicating the updated allowance. This is not required by the EIP. See the note at the beginning of {ERC20}; Requirements: - `sender` and `recipient` cannot be the zero address. - `sender` must have a balance of at least `amount`. - the caller must have allowance for ``sender``'s tokens of at least `amount`."
      },
      "unpause()": {
        "details": "Unpauses all token transfers. See {ERC20Pausable} and {Pausable-_unpause}. Requirements: - the caller must have the `PAUSER_ROLE`."
      }
    },
    "version": 1
  },
  "userdoc": {
    "kind": "user",
    "methods": {},
    "version": 1
  }
}