{
  "contractName": "LongShort",
  "abi": [
    {
      "anonymous": false,
      "inputs": [
        {
          "indexed": false,
          "internalType": "uint256",
          "name": "totalFees",
          "type": "uint256"
        },
        {
          "indexed": false,
          "internalType": "uint256",
          "name": "longPercentage",
          "type": "uint256"
        },
        {
          "indexed": false,
          "internalType": "uint256",
          "name": "shortPercentage",
          "type": "uint256"
        }
      ],
      "name": "FeesLevied",
      "type": "event"
    },
    {
      "anonymous": false,
      "inputs": [
        {
          "indexed": false,
          "internalType": "uint256",
          "name": "newTotalValueLocked",
          "type": "uint256"
        },
        {
          "indexed": false,
          "internalType": "uint256",
          "name": "totalInterest",
          "type": "uint256"
        },
        {
          "indexed": false,
          "internalType": "uint256",
          "name": "longPercentage",
          "type": "uint256"
        },
        {
          "indexed": false,
          "internalType": "uint256",
          "name": "shortPercentage",
          "type": "uint256"
        }
      ],
      "name": "InterestDistribution",
      "type": "event"
    },
    {
      "anonymous": false,
      "inputs": [
        {
          "indexed": false,
          "internalType": "uint256",
          "name": "depositAdded",
          "type": "uint256"
        },
        {
          "indexed": false,
          "internalType": "uint256",
          "name": "finalDepositAmount",
          "type": "uint256"
        },
        {
          "indexed": false,
          "internalType": "uint256",
          "name": "tokensMinted",
          "type": "uint256"
        },
        {
          "indexed": false,
          "internalType": "address",
          "name": "user",
          "type": "address"
        }
      ],
      "name": "LongMinted",
      "type": "event"
    },
    {
      "anonymous": false,
      "inputs": [
        {
          "indexed": false,
          "internalType": "uint256",
          "name": "tokensRedeemed",
          "type": "uint256"
        },
        {
          "indexed": false,
          "internalType": "uint256",
          "name": "valueOfRedemption",
          "type": "uint256"
        },
        {
          "indexed": false,
          "internalType": "uint256",
          "name": "finalRedeemValue",
          "type": "uint256"
        },
        {
          "indexed": false,
          "internalType": "address",
          "name": "user",
          "type": "address"
        }
      ],
      "name": "LongRedeem",
      "type": "event"
    },
    {
      "anonymous": false,
      "inputs": [
        {
          "indexed": false,
          "internalType": "uint256",
          "name": "oldPrice",
          "type": "uint256"
        },
        {
          "indexed": false,
          "internalType": "uint256",
          "name": "newPrice",
          "type": "uint256"
        },
        {
          "indexed": false,
          "internalType": "address",
          "name": "user",
          "type": "address"
        }
      ],
      "name": "PriceUpdate",
      "type": "event"
    },
    {
      "anonymous": false,
      "inputs": [
        {
          "indexed": false,
          "internalType": "uint256",
          "name": "depositAdded",
          "type": "uint256"
        },
        {
          "indexed": false,
          "internalType": "uint256",
          "name": "finalDepositAmount",
          "type": "uint256"
        },
        {
          "indexed": false,
          "internalType": "uint256",
          "name": "tokensMinted",
          "type": "uint256"
        },
        {
          "indexed": false,
          "internalType": "address",
          "name": "user",
          "type": "address"
        }
      ],
      "name": "ShortMinted",
      "type": "event"
    },
    {
      "anonymous": false,
      "inputs": [
        {
          "indexed": false,
          "internalType": "uint256",
          "name": "tokensRedeemed",
          "type": "uint256"
        },
        {
          "indexed": false,
          "internalType": "uint256",
          "name": "valueOfRedemption",
          "type": "uint256"
        },
        {
          "indexed": false,
          "internalType": "uint256",
          "name": "finalRedeemValue",
          "type": "uint256"
        },
        {
          "indexed": false,
          "internalType": "address",
          "name": "user",
          "type": "address"
        }
      ],
      "name": "ShortRedeem",
      "type": "event"
    },
    {
      "anonymous": false,
      "inputs": [
        {
          "indexed": false,
          "internalType": "uint256",
          "name": "longTokenPrice",
          "type": "uint256"
        },
        {
          "indexed": false,
          "internalType": "uint256",
          "name": "shortTokenPrice",
          "type": "uint256"
        }
      ],
      "name": "TokenPriceRefreshed",
      "type": "event"
    },
    {
      "inputs": [],
      "name": "TEN_TO_THE_18",
      "outputs": [
        {
          "internalType": "uint256",
          "name": "",
          "type": "uint256"
        }
      ],
      "stateMutability": "view",
      "type": "function",
      "constant": true
    },
    {
      "inputs": [],
      "name": "aaveLendingContract",
      "outputs": [
        {
          "internalType": "contract IAaveLendingPool",
          "name": "",
          "type": "address"
        }
      ],
      "stateMutability": "view",
      "type": "function",
      "constant": true
    },
    {
      "inputs": [],
      "name": "aaveLendingContractCore",
      "outputs": [
        {
          "internalType": "address",
          "name": "",
          "type": "address"
        }
      ],
      "stateMutability": "view",
      "type": "function",
      "constant": true
    },
    {
      "inputs": [],
      "name": "adaiContract",
      "outputs": [
        {
          "internalType": "contract IADai",
          "name": "",
          "type": "address"
        }
      ],
      "stateMutability": "view",
      "type": "function",
      "constant": true
    },
    {
      "inputs": [],
      "name": "assetPrice",
      "outputs": [
        {
          "internalType": "uint256",
          "name": "",
          "type": "uint256"
        }
      ],
      "stateMutability": "view",
      "type": "function",
      "constant": true
    },
    {
      "inputs": [],
      "name": "badLiquidityExitFee",
      "outputs": [
        {
          "internalType": "uint256",
          "name": "",
          "type": "uint256"
        }
      ],
      "stateMutability": "view",
      "type": "function",
      "constant": true
    },
    {
      "inputs": [],
      "name": "baseEntryFee",
      "outputs": [
        {
          "internalType": "uint256",
          "name": "",
          "type": "uint256"
        }
      ],
      "stateMutability": "view",
      "type": "function",
      "constant": true
    },
    {
      "inputs": [],
      "name": "baseExitFee",
      "outputs": [
        {
          "internalType": "uint256",
          "name": "",
          "type": "uint256"
        }
      ],
      "stateMutability": "view",
      "type": "function",
      "constant": true
    },
    {
      "inputs": [],
      "name": "betaMultiplier",
      "outputs": [
        {
          "internalType": "uint256",
          "name": "",
          "type": "uint256"
        }
      ],
      "stateMutability": "view",
      "type": "function",
      "constant": true
    },
    {
      "inputs": [],
      "name": "contractValueWhenScalingFeesKicksIn",
      "outputs": [
        {
          "internalType": "uint256",
          "name": "",
          "type": "uint256"
        }
      ],
      "stateMutability": "view",
      "type": "function",
      "constant": true
    },
    {
      "inputs": [],
      "name": "daiContract",
      "outputs": [
        {
          "internalType": "contract IERC20",
          "name": "",
          "type": "address"
        }
      ],
      "stateMutability": "view",
      "type": "function",
      "constant": true
    },
    {
      "inputs": [],
      "name": "entryFeeMultiplier",
      "outputs": [
        {
          "internalType": "uint256",
          "name": "",
          "type": "uint256"
        }
      ],
      "stateMutability": "view",
      "type": "function",
      "constant": true
    },
    {
      "inputs": [],
      "name": "feeUnitsOfPrecision",
      "outputs": [
        {
          "internalType": "uint256",
          "name": "",
          "type": "uint256"
        }
      ],
      "stateMutability": "view",
      "type": "function",
      "constant": true
    },
    {
      "inputs": [],
      "name": "longTokenPrice",
      "outputs": [
        {
          "internalType": "uint256",
          "name": "",
          "type": "uint256"
        }
      ],
      "stateMutability": "view",
      "type": "function",
      "constant": true
    },
    {
      "inputs": [],
      "name": "longTokens",
      "outputs": [
        {
          "internalType": "contract SyntheticToken",
          "name": "",
          "type": "address"
        }
      ],
      "stateMutability": "view",
      "type": "function",
      "constant": true
    },
    {
      "inputs": [],
      "name": "longValue",
      "outputs": [
        {
          "internalType": "uint256",
          "name": "",
          "type": "uint256"
        }
      ],
      "stateMutability": "view",
      "type": "function",
      "constant": true
    },
    {
      "inputs": [],
      "name": "provider",
      "outputs": [
        {
          "internalType": "contract ILendingPoolAddressesProvider",
          "name": "",
          "type": "address"
        }
      ],
      "stateMutability": "view",
      "type": "function",
      "constant": true
    },
    {
      "inputs": [],
      "name": "shortTokenPrice",
      "outputs": [
        {
          "internalType": "uint256",
          "name": "",
          "type": "uint256"
        }
      ],
      "stateMutability": "view",
      "type": "function",
      "constant": true
    },
    {
      "inputs": [],
      "name": "shortTokens",
      "outputs": [
        {
          "internalType": "contract ShortCoins",
          "name": "",
          "type": "address"
        }
      ],
      "stateMutability": "view",
      "type": "function",
      "constant": true
    },
    {
      "inputs": [],
      "name": "shortValue",
      "outputs": [
        {
          "internalType": "uint256",
          "name": "",
          "type": "uint256"
        }
      ],
      "stateMutability": "view",
      "type": "function",
      "constant": true
    },
    {
      "inputs": [],
      "name": "totalValueLocked",
      "outputs": [
        {
          "internalType": "uint256",
          "name": "",
          "type": "uint256"
        }
      ],
      "stateMutability": "view",
      "type": "function",
      "constant": true
    },
    {
      "inputs": [
        {
          "internalType": "address",
          "name": "_longCoins",
          "type": "address"
        },
        {
          "internalType": "address",
          "name": "_shortCoins",
          "type": "address"
        },
        {
          "internalType": "address",
          "name": "daiAddress",
          "type": "address"
        },
        {
          "internalType": "address",
          "name": "aDaiAddress",
          "type": "address"
        },
        {
          "internalType": "address",
          "name": "lendingPoolAddressProvider",
          "type": "address"
        },
        {
          "internalType": "address",
          "name": "_priceOracle",
          "type": "address"
        },
        {
          "internalType": "uint256",
          "name": "_baseEntryFee",
          "type": "uint256"
        },
        {
          "internalType": "uint256",
          "name": "_entryFeeMultiplier",
          "type": "uint256"
        },
        {
          "internalType": "uint256",
          "name": "_baseExitFee",
          "type": "uint256"
        },
        {
          "internalType": "uint256",
          "name": "_badLiquidityExitFee",
          "type": "uint256"
        }
      ],
      "name": "setup",
      "outputs": [],
      "stateMutability": "nonpayable",
      "type": "function"
    },
    {
      "inputs": [],
      "name": "getLatestPrice",
      "outputs": [
        {
          "internalType": "int256",
          "name": "",
          "type": "int256"
        }
      ],
      "stateMutability": "view",
      "type": "function",
      "constant": true
    },
    {
      "inputs": [],
      "name": "getLongBeta",
      "outputs": [
        {
          "internalType": "uint256",
          "name": "",
          "type": "uint256"
        }
      ],
      "stateMutability": "view",
      "type": "function",
      "constant": true
    },
    {
      "inputs": [],
      "name": "getShortBeta",
      "outputs": [
        {
          "internalType": "uint256",
          "name": "",
          "type": "uint256"
        }
      ],
      "stateMutability": "view",
      "type": "function",
      "constant": true
    },
    {
      "inputs": [],
      "name": "_updateSystemState",
      "outputs": [],
      "stateMutability": "nonpayable",
      "type": "function"
    },
    {
      "inputs": [
        {
          "internalType": "uint256",
          "name": "amount",
          "type": "uint256"
        }
      ],
      "name": "mintLong",
      "outputs": [],
      "stateMutability": "nonpayable",
      "type": "function"
    },
    {
      "inputs": [
        {
          "internalType": "uint256",
          "name": "amount",
          "type": "uint256"
        }
      ],
      "name": "mintShort",
      "outputs": [],
      "stateMutability": "nonpayable",
      "type": "function"
    },
    {
      "inputs": [
        {
          "internalType": "uint256",
          "name": "tokensToRedeem",
          "type": "uint256"
        }
      ],
      "name": "redeemLong",
      "outputs": [],
      "stateMutability": "nonpayable",
      "type": "function"
    },
    {
      "inputs": [
        {
          "internalType": "uint256",
          "name": "tokensToRedeem",
          "type": "uint256"
        }
      ],
      "name": "redeemShort",
      "outputs": [],
      "stateMutability": "nonpayable",
      "type": "function"
    }
  ],
  "bytecode": "0x608060405234801561001057600080fd5b50611e64806100206000396000f3fe608060405234801561001057600080fd5b50600436106101da5760003560e01c80638059116111610104578063b4a2c54d116100a2578063da39888211610071578063da39888214610396578063e78dc0fb1461039e578063ec18154e146103a6578063f210e8c2146103ae576101da565b8063b4a2c54d14610313578063c68dc6ad1461037e578063d24378eb14610386578063d2d2ef761461038e576101da565b80638e15f473116100de5780638e15f473146102b457806397e5f43f146102bc57806397efa942146102d9578063ac6cd5ef146102f6576101da565b8063805911611461029c57806387a329c5146102a45780638cc6d535146102ac576101da565b80632ce8b9131161017c57806365aadaad1161014b57806365aadaad1461027c57806366c430f4146102845780636b38def21461028c5780636e4c3df314610294576101da565b80632ce8b9131461024557806337fae1e51461024d57806356c610a11461025557806361bead5a14610274576101da565b80630f416ad4116101b85780630f416ad41461022557806314d9ea631461022d5780631f14060b146102355780632cbf458d1461023d576101da565b80630162e720146101df578063047d6665146101f9578063085d488314610201575b600080fd5b6101e76103b6565b60408051918252519081900360200190f35b6101e76103bc565b6102096103c2565b604080516001600160a01b039092168252519081900360200190f35b6102096103d1565b6101e76103e0565b6101e76103e6565b6101e76103ec565b6102096103f2565b6101e7610401565b6102726004803603602081101561026b57600080fd5b503561044c565b005b6101e76106b8565b6101e76106be565b6101e76106c4565b6102096106c9565b6102096106d8565b6101e76106e7565b6101e7610726565b610209610734565b6101e7610743565b610272600480360360208110156102d257600080fd5b50356107d3565b610272600480360360208110156102ef57600080fd5b50356109d8565b6102726004803603602081101561030c57600080fd5b5035610b2c565b610272600480360361014081101561032a57600080fd5b506001600160a01b038135811691602081013582169160408201358116916060810135821691608082013581169160a08101359091169060c08101359060e081013590610100810135906101200135610c7a565b610209610dad565b6101e7610dbc565b6101e7610dc2565b6101e7610dce565b610272610dd4565b6101e7610f06565b6101e7610f0c565b603b5481565b603e5481565b6043546001600160a01b031681565b603d546001600160a01b031681565b60345481565b603f5481565b61271081565b6040546001600160a01b031681565b6000603a54603b541061041d5750670de0b6b3a7640000610449565b610446603a54610440670de0b6b3a7640000603b54610f1290919063ffffffff16565b90610f74565b90505b90565b610454610dd4565b61045d81610fb6565b6000806104686106e7565b9050600061049961048485603b5461129390919063ffffffff16565b603a5461044090670de0b6b3a7640000610f12565b905060006104aa85838560006112ed565b603f549091506104c69061044083670de0b6b3a7640000610f12565b603b549094506104d69082611293565b603b55603d54604080516340c10f1960e01b81523360048201526024810187905290516001600160a01b03909216916340c10f199160448082019260009290919082900301818387803b15801561052c57600080fd5b505af1158015610540573d6000803e3d6000fd5b5050604080518881526020810185905280820188905233606082015290517fd7d2f65b02412ab361bfab837ee828caa6fcc118e69ceb1ceef55df28b7df0d09350908190036080019150a1603d54604080516318160ddd60e01b81529051610612926001600160a01b0316916318160ddd916004808301926020929190829003018186803b1580156105d157600080fd5b505afa1580156105e5573d6000803e3d6000fd5b505050506040513d60208110156105fb57600080fd5b5051603b5461044090670de0b6b3a7640000610f12565b603f54146106515760405162461bcd60e51b8152600401808060200182810382526024815260200180611d786024913960400191505060405180910390fd5b603954603b54603a5461066391611293565b146106b1576040805162461bcd60e51b8152602060048201526019602482015278151bdd185b081b1bd8dad959081a5b98dbdb9cda5cdd195b9d603a1b604482015290519081900360640190fd5b5050505050565b603a5481565b60355481565b600a81565b6042546001600160a01b031681565b603c546001600160a01b031681565b6000603b54603a54106107035750670de0b6b3a7640000610449565b610446603b54610440670de0b6b3a7640000603a54610f1290919063ffffffff16565b69152d02c7e14af680000081565b6044546001600160a01b031681565b600080600080600080603360009054906101000a90046001600160a01b03166001600160a01b031663feaf968c6040518163ffffffff1660e01b815260040160a06040518083038186803b15801561079a57600080fd5b505afa1580156107ae573d6000803e3d6000fd5b505050506040513d60a08110156107c457600080fd5b50602001519550505050505090565b6107db610dd4565b6107e481610fb6565b6000806107ef610401565b9050600061082061080b85603a5461129390919063ffffffff16565b603b5461044090670de0b6b3a7640000610f12565b9050600061083185838560016112ed565b603e5490915061084d9061044083670de0b6b3a7640000610f12565b603a5490945061085d9082611293565b603a55603c54604080516340c10f1960e01b81523360048201526024810187905290516001600160a01b03909216916340c10f199160448082019260009290919082900301818387803b1580156108b357600080fd5b505af11580156108c7573d6000803e3d6000fd5b5050604080518881526020810185905280820188905233606082015290517f556eb884525d03e90acef8446923b70046ea3320a012b49d156b79c6faad11229350908190036080019150a1603c54604080516318160ddd60e01b81529051610999926001600160a01b0316916318160ddd916004808301926020929190829003018186803b15801561095857600080fd5b505afa15801561096c573d6000803e3d6000fd5b505050506040513d602081101561098257600080fd5b5051603a5461044090670de0b6b3a7640000610f12565b603e54146106515760405162461bcd60e51b8152600401808060200182810382526023815260200180611d9c6023913960400191505060405180910390fd5b6109e0610dd4565b603d546040805163079cc67960e41b81523360048201526024810184905290516001600160a01b03909216916379cc67909160448082019260009290919082900301818387803b158015610a3357600080fd5b505af1158015610a47573d6000803e3d6000fd5b505050506000610a55610401565b9050600080610a7b670de0b6b3a7640000610440603f5487610f1290919063ffffffff16565b9050610aaa603a54610440670de0b6b3a7640000610aa485603b546113ed90919063ffffffff16565b90610f12565b91506000610abb828486600061142f565b603b54909150610acb90836113ed565b603b55610ad66114f2565b610adf8161169a565b604080518681526020810184905280820183905233606082015290517f5bae4322b11d589c208d9a394b4ce992e6f660bcc63de44f4f8c4e2553ae3eda9181900360800190a15050505050565b610b34610dd4565b603c546040805163079cc67960e41b81523360048201526024810184905290516001600160a01b03909216916379cc67909160448082019260009290919082900301818387803b158015610b8757600080fd5b505af1158015610b9b573d6000803e3d6000fd5b505050506000610ba96106e7565b9050600080610bcf670de0b6b3a7640000610440603e5487610f1290919063ffffffff16565b9050610bf8603b54610440670de0b6b3a7640000610aa485603a546113ed90919063ffffffff16565b91506000610c09828486600161142f565b603a54909150610c1990836113ed565b603a55610c246114f2565b610c2d8161169a565b604080518681526020810184905280820183905233606082015290517f07d256342261ce7942d1ddefd1d9d1ebfb1868379c5b95063f891615da8cafc69181900360800190a15050505050565b600054610100900460ff1680610c935750610c93611813565b80610ca1575060005460ff16155b610cdc5760405162461bcd60e51b815260040180806020018281038252602e815260200180611de0602e913960400191505060405180910390fd5b600054610100900460ff16158015610d07576000805460ff1961ff0019909116610100171660011790555b603380546001600160a01b03199081166001600160a01b0389811691909117909255603c805482168e8416179055603d805482168d84161790556040805482168c84161790556043805482168a841617905560428054909116918a169190911790556034859055603584905560368390556037829055670de0b6b3a7640000603e819055603f558015610da0576000805461ff00191690555b5050505050505050505050565b6041546001600160a01b031681565b60385481565b670de0b6b3a764000081565b60365481565b603a54158015610de45750603b54155b15610dee57610f04565b6000610df8610743565b60385460408051918252602082018390523382820152519192507fc25b2dced4384fb51ce018b01853e1c22dcfdf8b2c95ab0f8672e44b8b31f24c919081900360600190a16000603a54118015610e5157506000603b54115b15610e5f57610e5f81611819565b603a54610e7757610e72600060646119dc565b610e95565b603b54610e8a57610e72606460006119dc565b610e956032806119dc565b610e9d6114f2565b6038819055603954603b54603a54610eb491611293565b14610f02576040805162461bcd60e51b8152602060048201526019602482015278151bdd185b081b1bd8dad959081a5b98dbdb9cda5cdd195b9d603a1b604482015290519081900360640190fd5b505b565b60395481565b60375481565b600082610f2157506000610f6e565b82820282848281610f2e57fe5b0414610f6b5760405162461bcd60e51b8152600401808060200182810382526021815260200180611dbf6021913960400191505060405180910390fd5b90505b92915050565b6000610f6b83836040518060400160405280601a81526020017f536166654d6174683a206469766973696f6e206279207a65726f000000000000815250611ac6565b60008111610ff55760405162461bcd60e51b8152600401808060200182810382526021815260200180611e0e6021913960400191505060405180910390fd5b604360009054906101000a90046001600160a01b03166001600160a01b0316630261bf8b6040518163ffffffff1660e01b815260040160206040518083038186803b15801561104357600080fd5b505afa158015611057573d6000803e3d6000fd5b505050506040513d602081101561106d57600080fd5b5051604180546001600160a01b0319166001600160a01b039283161790556043546040805163076b7fbb60e51b81529051919092169163ed6ff760916004808301926020929190829003018186803b1580156110c857600080fd5b505afa1580156110dc573d6000803e3d6000fd5b505050506040513d60208110156110f257600080fd5b5051604480546001600160a01b0319166001600160a01b039283161781556040805481516323b872dd60e01b815233600482015230602482015292830185905290519216916323b872dd916064808201926020929091908290030181600087803b15801561115f57600080fd5b505af1158015611173573d6000803e3d6000fd5b505050506040513d602081101561118957600080fd5b50506040805460448054835163095ea7b360e01b81526001600160a01b03918216600482015260248101869052935192169263095ea7b392818301926020928290030181600087803b1580156111de57600080fd5b505af11580156111f2573d6000803e3d6000fd5b505050506040513d602081101561120857600080fd5b5050604154604080548151636968703360e11b81526001600160a01b03918216600482015260248101859052601e6044820152915192169163d2d0e0669160648082019260009290919082900301818387803b15801561126757600080fd5b505af115801561127b573d6000803e3d6000fd5b505060395461128d9250905082611293565b60395550565b600082820183811015610f6b576040805162461bcd60e51b815260206004820152601b60248201527f536166654d6174683a206164646974696f6e206f766572666c6f770000000000604482015290519081900360640190fd5b600080670de0b6b3a764000085101580611305575084155b156113115750846113dc565b600080670de0b6b3a764000086101561133f576113388880611333898b6113ed565b611b68565b91506113a7565b6000851561136f57611368611361603a54603b546113ed90919063ffffffff16565b8a906113ed565b905061138c565b611389611361603b54603a546113ed90919063ffffffff16565b90505b6113a38982611333670de0b6b3a76400008c6113ed565b9250505b6113b188836113ed565b905084156113cb576113c68260006064611c1f565b6113d8565b6113d88260646000611c1f565b9150505b6113e46114f2565b95945050505050565b6000610f6b83836040518060400160405280601e81526020017f536166654d6174683a207375627472616374696f6e206f766572666c6f770000815250611c6f565b60008080670de0b6b3a764000086106114545761144d876000611cc9565b91506114d0565b670de0b6b3a764000085106114c357600084156114935761148c603a54611486603b548b61129390919063ffffffff16565b906113ed565b90506114b1565b6114ae603b54611486603a548b61129390919063ffffffff16565b90505b6114bb8882611cc9565b9250506114d0565b6114cd8788611cc9565b91505b6114da87836113ed565b90506114e882603280611c1f565b9695505050505050565b603c54604080516318160ddd60e01b815290516000926001600160a01b0316916318160ddd916004808301926020929190829003018186803b15801561153757600080fd5b505afa15801561154b573d6000803e3d6000fd5b505050506040513d602081101561156157600080fd5b5051905080156115b557603c54604080516318160ddd60e01b815290516115b1926001600160a01b0316916318160ddd916004808301926020929190829003018186803b15801561095857600080fd5b603e555b603d54604080516318160ddd60e01b815290516000926001600160a01b0316916318160ddd916004808301926020929190829003018186803b1580156115fa57600080fd5b505afa15801561160e573d6000803e3d6000fd5b505050506040513d602081101561162457600080fd5b5051905080156116535761164f81610440670de0b6b3a7640000603b54610f1290919063ffffffff16565b603f555b7f60f5b1bed8398674ead52f906636b5865760bab4679d517d15f4979bfebf7241603e54603f54604051808381526020018281526020019250505060405180910390a15050565b6039546116a790826113ed565b6039556042546040805163db006a7560e01b81526004810184905290516001600160a01b039092169163db006a759160248082019260009290919082900301818387803b1580156116f757600080fd5b505af1925050508015611708575060015b611792576042546040805163a9059cbb60e01b81523360048201526024810184905290516001600160a01b039092169163a9059cbb916044808201926020929091908290030181600087803b15801561176057600080fd5b505af1158015611774573d6000803e3d6000fd5b505050506040513d602081101561178a57600080fd5b50610f029050565b60408054815163a9059cbb60e01b81523360048201526024810184905291516001600160a01b039091169163a9059cbb9160448083019260209291908290030181600087803b1580156117e457600080fd5b505af11580156117f8573d6000803e3d6000fd5b505050506040513d602081101561180e57600080fd5b505050565b303b1590565b80603854141561182857610f02565b603854600090819083111561190a5760385461185490610440670de0b6b3a7640000610aa487846113ed565b9150670de0b6b3a7640000821061188157603b54603a5461187491611293565b603a556000603b55611905565b670de0b6b3a76400006118926106e7565b14156118c0576118b9670de0b6b3a764000061044084603b54610f1290919063ffffffff16565b90506118e4565b6118e1670de0b6b3a764000061044084603a54610f1290919063ffffffff16565b90505b603a546118f19082611293565b603a55603b5461190190826113ed565b603b555b61180e565b60385461192790610440670de0b6b3a7640000610aa483886113ed565b9150670de0b6b3a7640000821061195457603a54603b5461194791611293565b603b556000603a5561180e565b670de0b6b3a76400006119656106e7565b14156119935761198c670de0b6b3a764000061044084603b54610f1290919063ffffffff16565b90506119b7565b6119b4670de0b6b3a764000061044084603a54610f1290919063ffffffff16565b90505b603a546119c490826113ed565b603a55603b546119d49082611293565b603b55505050565b604254604080516370a0823160e01b815230600482015290516000926001600160a01b0316916370a08231916024808301926020929190829003018186803b158015611a2757600080fd5b505afa158015611a3b573d6000803e3d6000fd5b505050506040513d6020811015611a5157600080fd5b5051603954909150600090611a679083906113ed565b9050611a74818585611d12565b603982905560408051838152602081018390528082018690526060810185905290517f060f9db22fcd5f8560ec1e949609a49386af67f504aa7cb174adaa27520757e59181900360800190a150505050565b60008183611b525760405162461bcd60e51b81526004018080602001828103825283818151815260200191508051906020019080838360005b83811015611b17578181015183820152602001611aff565b50505050905090810190601f168015611b445780820380516001836020036101000a031916815260200191505b509250505060405180910390fd5b506000838581611b5e57fe5b0495945050505050565b600080611b8661271061044060345487610f1290919063ffffffff16565b905069152d02c7e14af68000006039541115611c175760395469152d02c7e14af680000090611bb590876113ed565b1015611bd557603954611bd29069152d02c7e14af68000006113ed565b93505b6000611c07670de0b6b3a7640000610440612710610440603554610aa4600a610aa48c8e610f1290919063ffffffff16565b9050611c138282611293565b9150505b949350505050565b611c2a838383611d12565b604080518481526020810184905280820183905290517f3d8c223aec0df0c88c5489277b48159462e896649c6ab16501ee8f86845845039181900360600190a1505050565b60008184841115611cc15760405162461bcd60e51b8152602060048201818152835160248401528351909283926044909101919085019080838360008315611b17578181015183820152602001611aff565b505050900390565b600080611ce761271061044060365487610f1290919063ffffffff16565b90506000611d0661271061044060375487610f1290919063ffffffff16565b90506113e48282611293565b611d1c8183611293565b606414611d2857600080fd5b821561180e576000611d3f60646104408686610f12565b90506000611d4d85836113ed565b603a54909150611d5d9083611293565b603a55603b54611d6d9082611293565b603b55505050505056fe4d696e7420616666656374696e67207072696365206368616e676564202873686f7274294d696e7420616666656374696e67207072696365206368616e67656420286c6f6e6729536166654d6174683a206d756c7469706c69636174696f6e206f766572666c6f77436f6e747261637420696e7374616e63652068617320616c7265616479206265656e20696e697469616c697a656455736572206e6565647320746f2061646420706f73697469766520616d6f756e74a26469706673582212205af0f676d243404236975e3057670a1c6fc13b8d9373dc1d6780be8a8e01004f64736f6c634300060c0033",
  "immutableReferences": {},
  "source": "//SPDX-License-Identifier: Unlicense\npragma solidity 0.6.12;\n\nimport \"@nomiclabs/buidler/console.sol\";\nimport \"@openzeppelin/contracts-ethereum-package/contracts/math/SafeMath.sol\";\nimport \"@openzeppelin/contracts-ethereum-package/contracts/Initializable.sol\";\nimport \"@chainlink/contracts/src/v0.6/interfaces/AggregatorV3Interface.sol\";\n\nimport \"./interfaces/IAaveLendingPool.sol\";\nimport \"./interfaces/IADai.sol\";\nimport \"./interfaces/ILendingPoolAddressesProvider.sol\";\n\nimport \"./SyntheticToken.sol\";\nimport \"./ShortCoins.sol\";\n\n/**\n * @dev {LongShort} contract, including:\n *\n *  - Ability for users to create synthetic long and short positions on value movements\n *  - Value movements could be derived from tradional or alternative asset classes, derivates, binary outcomes, etc...\n *  - Incentive mechansim providing fees to liquidity makers (users on both sides of order book)\n *\n * ******* SYSTEM FUNCTIONING V0.0 ***********\n * System accepts stable coin (DAI) and has a total locked value = short position value + long position value\n * If percentage movement as calculated from oracle is +10%, and short position value == long position value,\n * Then value change = long position value * 10%\n * long position value = long position value + value change\n * short position value = short position value - value change\n * Total contract value remains unchanged.\n * long value has increased and each longtoken is now worth more as underlying pool value has increased.\n *\n * Tokens representing a shares in the short or long token pool can be minted\n * at price (short position value) / (total short token value)\n * or conversely burned to redeem the underlying share of the pool calculated\n * as (short position value) / (total short token value) per token\n *\n * Depending on demand of minting and burning for underlying on both sides (long/short of contract),\n * most often short position value != long position value (there will be an imbalance)\n * Imbalances also naturally occur as the contract adjusts these values after observing oracle value changes\n * Incentives exist to best incentivize contract balance.\n *\n * Mechanism 1 - interest accural imbalance.\n * The entire total locked value accrues interest and distributes it 50/50 even if imbalance exists.\n * I.e. Short side supplys $50 capital. Long side supply $150. Short side effectively earns interest on $100.\n * Enhanced yield exists for sides taking on the position with less demand.\n *\n * Mechanism 2 - liquidity fees earned.\n * The side which is shorter on liquidity will receive fees strengthening their value\n * Whenever liquidity is added to the opposing side or withdrawn from their side (i.e. when the imbalance increases)\n *\n * ******* KNOWN ATTACK VECTORS ***********\n * (1) Feeless withdrawl:\n * [FIXED]\n * Long position $150, Short position $100. User should pay fee to remove short liquidity.\n * Step1: User mints $51 of short position (No fee to add liquidity).\n * Step2: User redeems $100 of short position (no fee as currently removing liquidity from bigger side)\n * Possible solution, check after deposit/withdrawl if order book has flipped, then apply fees.\n *\n * (2) FlashLoan mint:\n * [ONGOING]\n * Consider rapid large entries and exit of the system.\n *\n * (3) Oracle manipulation:\n * [ONGOING]\n * If the oracle determining price change can be easy manipulated (and by a decent magnitude),\n * Funds could be at risk. See: https://blog.trailofbits.com/2020/08/05/accidentally-stepping-on-a-defi-lego/\n *\n * ******* Work on gas effciencies ***********\n * Layer 2 solutions\n * Remove safe Math library\n */\ncontract LongShort is Initializable {\n    using SafeMath for uint256;\n    // Oracle\n    AggregatorV3Interface internal priceFeed;\n\n    ////// Constants ///////\n    uint256 public constant TEN_TO_THE_18 = 10**18;\n    uint256 public constant feeUnitsOfPrecision = 10000; // [div the above by 10000]\n\n    uint256 public constant contractValueWhenScalingFeesKicksIn = 10**23; // [above fee kicks in when contract >$100 000]\n    uint256 public constant betaMultiplier = 10;\n\n    // Fees for entering\n    uint256 public baseEntryFee; // 0.1% [we div by 10000]\n    uint256 public entryFeeMultiplier; // [= +1% fee for every 0.1 you tip the beta]\n    uint256 public baseExitFee; // 0.5% [we div by 10000]\n    uint256 public badLiquidityExitFee; // Extra charge for removing liquidity from the side with already less depth\n\n    // Value of the underlying from which we calculate\n    // gains and losses by respective sides\n    uint256 public assetPrice;\n\n    uint256 public totalValueLocked;\n    uint256 public longValue;\n    uint256 public shortValue;\n\n    // Tokens representing short and long position and cost at which\n    // they can be minted or redeemed\n    SyntheticToken public longTokens;\n    ShortCoins public shortTokens;\n    uint256 public longTokenPrice;\n    uint256 public shortTokenPrice;\n\n    // DEFI contracts\n    IERC20 public daiContract;\n    IAaveLendingPool public aaveLendingContract;\n    IADai public adaiContract;\n    ILendingPoolAddressesProvider public provider;\n    address public aaveLendingContractCore;\n\n    // EVENTS\n    event TokenPriceRefreshed(uint256 longTokenPrice, uint256 shortTokenPrice);\n    event FeesLevied(\n        uint256 totalFees,\n        uint256 longPercentage,\n        uint256 shortPercentage\n    );\n    event InterestDistribution(\n        uint256 newTotalValueLocked,\n        uint256 totalInterest,\n        uint256 longPercentage,\n        uint256 shortPercentage\n    );\n    event PriceUpdate(uint256 oldPrice, uint256 newPrice, address user);\n    event LongMinted(\n        uint256 depositAdded,\n        uint256 finalDepositAmount,\n        uint256 tokensMinted,\n        address user\n    );\n    event ShortMinted(\n        uint256 depositAdded,\n        uint256 finalDepositAmount,\n        uint256 tokensMinted,\n        address user\n    );\n    event LongRedeem(\n        uint256 tokensRedeemed,\n        uint256 valueOfRedemption,\n        uint256 finalRedeemValue,\n        address user\n    );\n    event ShortRedeem(\n        uint256 tokensRedeemed,\n        uint256 valueOfRedemption,\n        uint256 finalRedeemValue,\n        address user\n    );\n\n    /**\n     * Necessary to update system state before any contract actions (deposits / withdraws)\n     */\n    modifier refreshSystemState() {\n        _updateSystemState();\n        _;\n    }\n\n    /**\n     * Network: Kovan\n     * Aggregator: BTC/USD\n     * Address: 0x2445F2466898565374167859Ae5e3a231e48BB41\n     * TODO: weigh up pros/cons of making this upgradable\n     */\n    function setup(\n        address _longCoins,\n        address _shortCoins,\n        address daiAddress,\n        address aDaiAddress,\n        // lendingPoolAddressProvider should be one of below depending on deployment\n        // kovan 0x506B0B2CF20FAA8f38a4E2B524EE43e1f4458Cc5\n        // mainnet 0x24a42fD28C976A61Df5D00D0599C34c4f90748c8\n        address lendingPoolAddressProvider,\n        address _priceOracle,\n        uint256 _baseEntryFee,\n        uint256 _entryFeeMultiplier,\n        uint256 _baseExitFee,\n        uint256 _badLiquidityExitFee\n    ) public initializer {\n        priceFeed = AggregatorV3Interface(_priceOracle);\n\n        // Will need to make sure we are a minter! and pauser!\n        longTokens = SyntheticToken(_longCoins);\n        shortTokens = ShortCoins(_shortCoins);\n\n        daiContract = IERC20(daiAddress);\n        provider = ILendingPoolAddressesProvider(lendingPoolAddressProvider);\n        adaiContract = IADai(aDaiAddress);\n\n        baseEntryFee = _baseEntryFee;\n        entryFeeMultiplier = _entryFeeMultiplier;\n        baseExitFee = _baseExitFee;\n        badLiquidityExitFee = _badLiquidityExitFee;\n\n        // Intialize price at $1 per token (adjust decimals)\n        // TODO: we need to ensure 1 dai (18 decimals) =  1 longToken (18 decimals)\n        // NB to ensure this is the case.\n        // 1000000000000000\n        // = 1 long token\n        longTokenPrice = TEN_TO_THE_18;\n        shortTokenPrice = TEN_TO_THE_18;\n    }\n\n    /**\n     * Returns the latest price\n     */\n    function getLatestPrice() public view returns (int256) {\n        (\n            uint80 roundID,\n            int256 price,\n            uint256 startedAt,\n            uint256 timeStamp,\n            uint80 answeredInRound\n        ) = priceFeed.latestRoundData();\n        return price;\n    }\n\n    /**\n     * Returns % of long position that is filled\n     */\n    function getLongBeta() public view returns (uint256) {\n        // TODO account for contract start when these are both zero\n        // and an erronous beta of 1 reported.\n        if (shortValue >= longValue) {\n            return TEN_TO_THE_18;\n        } else {\n            return shortValue.mul(TEN_TO_THE_18).div(longValue);\n        }\n    }\n\n    /**\n     * Returns % of short position that is filled\n     * zero div error if both are zero\n     */\n    function getShortBeta() public view returns (uint256) {\n        if (longValue >= shortValue) {\n            return TEN_TO_THE_18;\n        } else {\n            return longValue.mul(TEN_TO_THE_18).div(shortValue);\n        }\n    }\n\n    /**\n     * Adjusts the relevant token price.\n     */\n    function _refreshTokensPrice() internal {\n        uint256 longTokenSupply = longTokens.totalSupply();\n        if (longTokenSupply > 0) {\n            longTokenPrice = longValue.mul(TEN_TO_THE_18).div(\n                longTokens.totalSupply()\n            );\n        }\n        uint256 shortTokenSupply = shortTokens.totalSupply();\n        if (shortTokenSupply > 0) {\n            shortTokenPrice = shortValue.mul(TEN_TO_THE_18).div(\n                shortTokenSupply\n            );\n        }\n        emit TokenPriceRefreshed(longTokenPrice, shortTokenPrice);\n    }\n\n    /**\n     * Fees for depositing or leaving the pool if you are not a\n     * liquidity taker and not a liquidity maker...\n     * This is v1 mechanism\n     */\n    function _feesMechanism(\n        uint256 totalFees,\n        uint256 longPercentage,\n        uint256 shortPercentage\n    ) internal {\n        _increaseLongShortSides(totalFees, longPercentage, shortPercentage);\n\n        emit FeesLevied(totalFees, longPercentage, shortPercentage);\n    }\n\n    /**\n     * Adds and credits the interest due before new minting or withdrawl.\n     * Currently works on 50/50 split between long and short\n     * This can be dynamic and configurable\n     */\n    function _accreditInterestMechanism(\n        uint256 longPercentage,\n        uint256 shortPercentage\n    ) internal {\n        uint256 totalValueWithInterest = adaiContract.balanceOf(address(this));\n        uint256 interestAccrued = totalValueWithInterest.sub(totalValueLocked);\n\n        _increaseLongShortSides(\n            interestAccrued,\n            longPercentage,\n            shortPercentage\n        );\n\n        totalValueLocked = totalValueWithInterest;\n\n        emit InterestDistribution(\n            totalValueWithInterest,\n            interestAccrued,\n            longPercentage,\n            shortPercentage\n        );\n    }\n\n    /**\n     * Generic function to add value to the system\n     * Interest or fees\n     */\n    function _increaseLongShortSides(\n        uint256 amount,\n        uint256 longPercentage,\n        uint256 shortPercentage\n    ) internal {\n        require(100 == shortPercentage.add(longPercentage)); // Possibly remove this check as internal function. Save gas.\n        if (amount != 0) {\n            uint256 longSideIncrease = amount.mul(longPercentage).div(100);\n            uint256 shortSideIncrease = amount.sub(longSideIncrease);\n            longValue = longValue.add(longSideIncrease);\n            shortValue = shortValue.add(shortSideIncrease);\n        }\n    }\n\n    // TODO fix with beta\n    function _priceChangeMechanism(uint256 newPrice) internal {\n        // If no new price update from oracle, proceed as normal\n        if (assetPrice == newPrice) {\n            return;\n        }\n\n        // 100% -> 10**18\n        // 100% -> 1\n        uint256 percentageChange;\n        uint256 valueChange = 0;\n        // Long gains\n        if (newPrice > assetPrice) {\n            percentageChange = (newPrice.sub(assetPrice))\n                .mul(TEN_TO_THE_18)\n                .div(assetPrice);\n            if (percentageChange >= TEN_TO_THE_18) {\n                // More than 100% price movement, system liquidation.\n                longValue = longValue.add(shortValue);\n                shortValue = 0;\n            } else {\n                if (getShortBeta() == TEN_TO_THE_18) {\n                    valueChange = shortValue.mul(percentageChange).div(\n                        TEN_TO_THE_18\n                    );\n                } else {\n                    valueChange = longValue.mul(percentageChange).div(\n                        TEN_TO_THE_18\n                    );\n                }\n                longValue = longValue.add(valueChange);\n                shortValue = shortValue.sub(valueChange);\n            }\n        } else {\n            percentageChange = (assetPrice.sub(newPrice))\n                .mul(TEN_TO_THE_18)\n                .div(assetPrice);\n            if (percentageChange >= TEN_TO_THE_18) {\n                shortValue = shortValue.add(longValue);\n                longValue = 0;\n            } else {\n                if (getShortBeta() == TEN_TO_THE_18) {\n                    valueChange = shortValue.mul(percentageChange).div(\n                        TEN_TO_THE_18\n                    );\n                } else {\n                    valueChange = longValue.mul(percentageChange).div(\n                        TEN_TO_THE_18\n                    );\n                }\n                longValue = longValue.sub(valueChange);\n                shortValue = shortValue.add(valueChange);\n            }\n        }\n    }\n\n    /**\n     * Updates the value of the long and short sides within the system\n     * Note this is public. Anyone can call this function.\n     */\n    function _updateSystemState() public {\n        if (longValue == 0 && shortValue == 0) {\n            return;\n        }\n\n        // TODO: Check why/if this is bad (casting to uint)\n        // If a negative int is return this should fail.\n        uint256 newPrice = uint256(getLatestPrice());\n        emit PriceUpdate(assetPrice, newPrice, msg.sender);\n\n        // Adjusts long and short values based on price movements.\n        // $1\n        // $100 on each side.\n        // $1.1 10% increase\n        // $90 on short side. $110 on the long side.\n        if (longValue > 0 && shortValue > 0) {\n            _priceChangeMechanism(newPrice);\n        }\n\n        // Now add interest to both sides in 50/50\n        // If the price moved by more than 100% and the one side is completly liquidated\n        if (longValue == 0) {\n            _accreditInterestMechanism(0, 100);\n        } else if (shortValue == 0) {\n            _accreditInterestMechanism(100, 0);\n        } else {\n            // TODO: Change this to an inverse min threshold rather than vanilla 50/50\n            _accreditInterestMechanism(50, 50);\n        }\n\n        _refreshTokensPrice();\n        assetPrice = newPrice;\n\n        // For extra robustness while testing.\n        // TODO: Consider gas cost trade-off of removing\n        require(\n            longValue.add(shortValue) == totalValueLocked,\n            \"Total locked inconsistent\"\n        );\n    }\n\n    function _addDeposit(uint256 amount) internal {\n        require(amount > 0, \"User needs to add positive amount\");\n        aaveLendingContract = IAaveLendingPool(provider.getLendingPool());\n        aaveLendingContractCore = provider.getLendingPoolCore();\n\n        daiContract.transferFrom(msg.sender, address(this), amount);\n        daiContract.approve(aaveLendingContractCore, amount);\n        aaveLendingContract.deposit(address(daiContract), amount, 30);\n\n        totalValueLocked = totalValueLocked.add(amount);\n    }\n\n    function _feeCalc(\n        uint256 fullAmount,\n        uint256 feePayableAmount,\n        uint256 betaDiff\n    ) internal returns (uint256) {\n        // 0.5% fee when contract has low liquidity\n        uint256 fees =\n            feePayableAmount.mul(baseEntryFee).div(feeUnitsOfPrecision);\n        if (totalValueLocked > contractValueWhenScalingFeesKicksIn) {\n            // 0.5% blanket fee + 1% for every 0.1 you dilute the beta!\n            // Be careful the above system will rapidly decrease the rate at which the contract can be\n            // grow quickly. Should let incentives guide this. No penalty on enterin at all ideally. Or\n            // at least it should be a lot smaller.\n            if (\n                (totalValueLocked.sub(fullAmount)) <\n                contractValueWhenScalingFeesKicksIn\n            ) {\n                feePayableAmount = totalValueLocked.sub(\n                    contractValueWhenScalingFeesKicksIn\n                );\n            }\n\n            uint256 additionalFees =\n                feePayableAmount\n                    .mul(betaDiff)\n                    .mul(betaMultiplier)\n                    .mul(entryFeeMultiplier)\n                    .div(feeUnitsOfPrecision)\n                    .div(TEN_TO_THE_18);\n\n            fees = fees.add(additionalFees);\n        }\n        return fees;\n    }\n\n    /**\n     * Calculates the final amount of deposit net of fees for imbalancing book liquidity\n     * Takes into account the consideration where book liquidity is tipped from one side to the other\n     */\n    function _calcFinalDepositAmount(\n        uint256 amount,\n        uint256 newAdjustedBeta,\n        uint256 oldBeta,\n        bool isLong\n    ) internal returns (uint256) {\n        uint256 finalDepositAmount = 0;\n\n        if (newAdjustedBeta >= TEN_TO_THE_18 || newAdjustedBeta == 0) {\n            finalDepositAmount = amount;\n        } else {\n            uint256 fees = 0;\n            uint256 depositLessFees = 0;\n            if (oldBeta < TEN_TO_THE_18) {\n                fees = _feeCalc(amount, amount, oldBeta.sub(newAdjustedBeta));\n            } else {\n                // Case 2: Tipping/reversing imbalance. Only fees on tipping portion\n                uint256 feePayablePortion = 0;\n                if (isLong) {\n                    feePayablePortion = amount.sub(shortValue.sub(longValue));\n                } else {\n                    feePayablePortion = amount.sub(longValue.sub(shortValue));\n                }\n                fees = _feeCalc(\n                    amount,\n                    feePayablePortion,\n                    TEN_TO_THE_18.sub(newAdjustedBeta)\n                );\n            }\n            depositLessFees = amount.sub(fees);\n\n            // Fees should not accrue this disproptionately!!!\n            if (isLong) {\n                _feesMechanism(fees, 0, 100);\n            } else {\n                _feesMechanism(fees, 100, 0);\n            }\n            finalDepositAmount = depositLessFees;\n        }\n        _refreshTokensPrice();\n        return finalDepositAmount;\n    }\n\n    /**\n     * Create a long position\n     */\n    function mintLong(uint256 amount) external refreshSystemState {\n        _addDeposit(amount);\n        uint256 amountToMint = 0;\n        uint256 longBeta = getLongBeta();\n        uint256 newAdjustedBeta =\n            shortValue.mul(TEN_TO_THE_18).div(longValue.add(amount));\n        uint256 finalDepositAmount =\n            _calcFinalDepositAmount(amount, newAdjustedBeta, longBeta, true);\n\n        amountToMint = finalDepositAmount.mul(TEN_TO_THE_18).div(\n            longTokenPrice\n        );\n        longValue = longValue.add(finalDepositAmount);\n        longTokens.mint(msg.sender, amountToMint);\n\n        emit LongMinted(amount, finalDepositAmount, amountToMint, msg.sender);\n        // Safety Checks\n        // Again consider gas implications.\n        require(\n            longTokenPrice ==\n                longValue.mul(TEN_TO_THE_18).div(longTokens.totalSupply()),\n            \"Mint affecting price changed (long)\"\n        );\n        require(\n            longValue.add(shortValue) == totalValueLocked,\n            \"Total locked inconsistent\"\n        );\n    }\n\n    /**\n     * Creates a short position\n     */\n    function mintShort(uint256 amount) external refreshSystemState {\n        _addDeposit(amount);\n        uint256 amountToMint = 0;\n        //uint256 finalDepositAmount = 0;\n        uint256 shortBeta = getShortBeta();\n        uint256 newAdjustedBeta =\n            longValue.mul(TEN_TO_THE_18).div(shortValue.add(amount));\n        uint256 finalDepositAmount =\n            _calcFinalDepositAmount(amount, newAdjustedBeta, shortBeta, false);\n\n        amountToMint = finalDepositAmount.mul(TEN_TO_THE_18).div(\n            shortTokenPrice\n        );\n        shortValue = shortValue.add(finalDepositAmount);\n        shortTokens.mint(msg.sender, amountToMint);\n\n        // NB : Important to refresh the token price before claculating amount to mint?\n        // So user is buying them at the new price after their fee has increased the price.\n\n        emit ShortMinted(amount, finalDepositAmount, amountToMint, msg.sender);\n        // Safety Checks\n        require(\n            shortTokenPrice ==\n                shortValue.mul(TEN_TO_THE_18).div(shortTokens.totalSupply()),\n            \"Mint affecting price changed (short)\"\n        );\n        require(\n            longValue.add(shortValue) == totalValueLocked,\n            \"Total locked inconsistent\"\n        );\n    }\n\n    function _redeem(uint256 amount) internal {\n        totalValueLocked = totalValueLocked.sub(amount);\n\n        try adaiContract.redeem(amount) {\n            daiContract.transfer(msg.sender, amount);\n        } catch {\n            adaiContract.transfer(msg.sender, amount);\n        }\n    }\n\n    /**\n     * 0.5% fee + extra 0.5% on amount of bad liquidity leaving\n     */\n    function _feeCalcRedeem(uint256 fullAmount, uint256 feePayableAmount)\n        internal\n        returns (uint256)\n    {\n        // base 0.5% fee\n        uint256 fees = fullAmount.mul(baseExitFee).div(feeUnitsOfPrecision);\n\n        // Extra 0.5% fee on deisrable liquidity leaving the book\n        uint256 additionalFees =\n            feePayableAmount.mul(badLiquidityExitFee).div(feeUnitsOfPrecision);\n\n        return fees.add(additionalFees);\n    }\n\n    function _calcFinalRedeemAmount(\n        uint256 amount,\n        uint256 newAdjustedBeta, // 0.5\n        uint256 oldBeta, // 1\n        bool isLong\n    ) internal returns (uint256) {\n        uint256 fees = 0;\n        uint256 finalRedeemAmount = 0;\n\n        if (newAdjustedBeta >= TEN_TO_THE_18) {\n            fees = _feeCalcRedeem(amount, 0);\n        } else {\n            if (oldBeta >= TEN_TO_THE_18) {\n                uint256 feePayablePortion = 0;\n                if (isLong) {\n                    feePayablePortion = amount.add(shortValue).sub(longValue);\n                } else {\n                    feePayablePortion = amount.add(longValue).sub(shortValue);\n                }\n                fees = _feeCalcRedeem(amount, feePayablePortion);\n            } else {\n                // All is bad liquidity leaving the book.\n                fees = _feeCalcRedeem(amount, amount);\n            }\n        }\n        finalRedeemAmount = amount.sub(fees);\n        _feesMechanism(fees, 50, 50);\n\n        return finalRedeemAmount;\n    }\n\n    // TODO: REDO redeem function with similair advanced fees strategy to minting functions.\n    function redeemLong(uint256 tokensToRedeem) external refreshSystemState {\n        // This will revert unless user gives permission to contract to burn these tokens.\n        longTokens.burnFrom(msg.sender, tokensToRedeem);\n\n        uint256 shortBeta = getShortBeta();\n        uint256 newAdjustedShortBeta = 0;\n        uint256 amountToRedeem =\n            tokensToRedeem.mul(longTokenPrice).div(TEN_TO_THE_18);\n\n        newAdjustedShortBeta = (longValue.sub(amountToRedeem))\n            .mul(TEN_TO_THE_18)\n            .div(shortValue);\n\n        uint256 finalRedeemAmount =\n            _calcFinalRedeemAmount(\n                amountToRedeem,\n                newAdjustedShortBeta,\n                shortBeta,\n                true\n            );\n\n        longValue = longValue.sub(amountToRedeem);\n        _refreshTokensPrice();\n        _redeem(finalRedeemAmount);\n\n        emit LongRedeem(\n            tokensToRedeem,\n            amountToRedeem,\n            finalRedeemAmount,\n            msg.sender\n        );\n    }\n\n    function redeemShort(uint256 tokensToRedeem) external refreshSystemState {\n        shortTokens.burnFrom(msg.sender, tokensToRedeem); // burning 50 tokens\n\n        uint256 longBeta = getLongBeta();\n        uint256 newAdjustedLongBeta = 0;\n        uint256 amountToRedeem =\n            tokensToRedeem.mul(shortTokenPrice).div(TEN_TO_THE_18);\n\n        newAdjustedLongBeta = (shortValue.sub(amountToRedeem))\n            .mul(TEN_TO_THE_18)\n            .div(longValue);\n\n        uint256 finalRedeemAmount =\n            _calcFinalRedeemAmount(\n                amountToRedeem,\n                newAdjustedLongBeta,\n                longBeta,\n                false\n            );\n\n        shortValue = shortValue.sub(amountToRedeem);\n        _refreshTokensPrice();\n        _redeem(finalRedeemAmount);\n\n        emit ShortRedeem(\n            tokensToRedeem,\n            amountToRedeem,\n            finalRedeemAmount,\n            msg.sender\n        );\n    }\n}\n",
  "sourcePath": "/home/jasoons/Documents/code/longshort/contracts/contracts/LongShort.sol",
  "compiler": {
    "name": "solc",
    "version": "0.6.12+commit.27d51765.Emscripten.clang"
  },
  "schemaVersion": "3.3.3",
  "updatedAt": "2021-01-29T14:38:38.799Z",
  "networkType": "ethereum",
  "devdoc": {
    "details": "{LongShort} contract, including:  - Ability for users to create synthetic long and short positions on value movements  - Value movements could be derived from tradional or alternative asset classes, derivates, binary outcomes, etc...  - Incentive mechansim providing fees to liquidity makers (users on both sides of order book) ******* SYSTEM FUNCTIONING V0.0 *********** System accepts stable coin (DAI) and has a total locked value = short position value + long position value If percentage movement as calculated from oracle is +10%, and short position value == long position value, Then value change = long position value * 10% long position value = long position value + value change short position value = short position value - value change Total contract value remains unchanged. long value has increased and each longtoken is now worth more as underlying pool value has increased. Tokens representing a shares in the short or long token pool can be minted at price (short position value) / (total short token value) or conversely burned to redeem the underlying share of the pool calculated as (short position value) / (total short token value) per token Depending on demand of minting and burning for underlying on both sides (long/short of contract), most often short position value != long position value (there will be an imbalance) Imbalances also naturally occur as the contract adjusts these values after observing oracle value changes Incentives exist to best incentivize contract balance. Mechanism 1 - interest accural imbalance. The entire total locked value accrues interest and distributes it 50/50 even if imbalance exists. I.e. Short side supplys $50 capital. Long side supply $150. Short side effectively earns interest on $100. Enhanced yield exists for sides taking on the position with less demand. Mechanism 2 - liquidity fees earned. The side which is shorter on liquidity will receive fees strengthening their value Whenever liquidity is added to the opposing side or withdrawn from their side (i.e. when the imbalance increases) ******* KNOWN ATTACK VECTORS *********** (1) Feeless withdrawl: [FIXED] Long position $150, Short position $100. User should pay fee to remove short liquidity. Step1: User mints $51 of short position (No fee to add liquidity). Step2: User redeems $100 of short position (no fee as currently removing liquidity from bigger side) Possible solution, check after deposit/withdrawl if order book has flipped, then apply fees. (2) FlashLoan mint: [ONGOING] Consider rapid large entries and exit of the system. (3) Oracle manipulation: [ONGOING] If the oracle determining price change can be easy manipulated (and by a decent magnitude), Funds could be at risk. See: https://blog.trailofbits.com/2020/08/05/accidentally-stepping-on-a-defi-lego/ ******* Work on gas effciencies *********** Layer 2 solutions Remove safe Math library",
    "kind": "dev",
    "methods": {},
    "version": 1
  },
  "userdoc": {
    "kind": "user",
    "methods": {
      "_updateSystemState()": {
        "notice": "Updates the value of the long and short sides within the system Note this is public. Anyone can call this function."
      },
      "getLatestPrice()": {
        "notice": "Returns the latest price"
      },
      "getLongBeta()": {
        "notice": "Returns % of long position that is filled"
      },
      "getShortBeta()": {
        "notice": "Returns % of short position that is filled zero div error if both are zero"
      },
      "mintLong(uint256)": {
        "notice": "Create a long position"
      },
      "mintShort(uint256)": {
        "notice": "Creates a short position"
      },
      "setup(address,address,address,address,address,address,uint256,uint256,uint256,uint256)": {
        "notice": "Network: Kovan Aggregator: BTC/USD Address: 0x2445F2466898565374167859Ae5e3a231e48BB41 TODO: weigh up pros/cons of making this upgradable"
      }
    },
    "version": 1
  }
}