{
  "contractName": "LongShort",
  "abi": [
    {
      "anonymous": false,
      "inputs": [
        {
          "indexed": false,
          "internalType": "uint256",
          "name": "marketIndex",
          "type": "uint256"
        },
        {
          "indexed": false,
          "internalType": "uint256",
          "name": "contractCallCounter",
          "type": "uint256"
        },
        {
          "indexed": false,
          "internalType": "uint256",
          "name": "totalFees",
          "type": "uint256"
        },
        {
          "indexed": false,
          "internalType": "uint256",
          "name": "longPercentage",
          "type": "uint256"
        },
        {
          "indexed": false,
          "internalType": "uint256",
          "name": "shortPercentage",
          "type": "uint256"
        }
      ],
      "name": "FeesLevied",
      "type": "event"
    },
    {
      "anonymous": false,
      "inputs": [
        {
          "indexed": false,
          "internalType": "uint256",
          "name": "marketIndex",
          "type": "uint256"
        },
        {
          "indexed": false,
          "internalType": "uint256",
          "name": "contractCallCounter",
          "type": "uint256"
        },
        {
          "indexed": false,
          "internalType": "uint256",
          "name": "depositAdded",
          "type": "uint256"
        },
        {
          "indexed": false,
          "internalType": "uint256",
          "name": "finalDepositAmount",
          "type": "uint256"
        },
        {
          "indexed": false,
          "internalType": "uint256",
          "name": "tokensMinted",
          "type": "uint256"
        },
        {
          "indexed": false,
          "internalType": "address",
          "name": "user",
          "type": "address"
        }
      ],
      "name": "LongMinted",
      "type": "event"
    },
    {
      "anonymous": false,
      "inputs": [
        {
          "indexed": false,
          "internalType": "uint256",
          "name": "marketIndex",
          "type": "uint256"
        },
        {
          "indexed": false,
          "internalType": "uint256",
          "name": "contractCallCounter",
          "type": "uint256"
        },
        {
          "indexed": false,
          "internalType": "uint256",
          "name": "tokensRedeemed",
          "type": "uint256"
        },
        {
          "indexed": false,
          "internalType": "uint256",
          "name": "valueOfRedemption",
          "type": "uint256"
        },
        {
          "indexed": false,
          "internalType": "uint256",
          "name": "finalRedeemValue",
          "type": "uint256"
        },
        {
          "indexed": false,
          "internalType": "address",
          "name": "user",
          "type": "address"
        }
      ],
      "name": "LongRedeem",
      "type": "event"
    },
    {
      "anonymous": false,
      "inputs": [
        {
          "indexed": false,
          "internalType": "uint256",
          "name": "marketIndex",
          "type": "uint256"
        },
        {
          "indexed": false,
          "internalType": "uint256",
          "name": "contractCallCounter",
          "type": "uint256"
        },
        {
          "indexed": false,
          "internalType": "uint256",
          "name": "oldPrice",
          "type": "uint256"
        },
        {
          "indexed": false,
          "internalType": "uint256",
          "name": "newPrice",
          "type": "uint256"
        },
        {
          "indexed": false,
          "internalType": "address",
          "name": "user",
          "type": "address"
        }
      ],
      "name": "PriceUpdate",
      "type": "event"
    },
    {
      "anonymous": false,
      "inputs": [
        {
          "indexed": false,
          "internalType": "uint256",
          "name": "marketIndex",
          "type": "uint256"
        },
        {
          "indexed": false,
          "internalType": "uint256",
          "name": "contractCallCounter",
          "type": "uint256"
        },
        {
          "indexed": false,
          "internalType": "uint256",
          "name": "depositAdded",
          "type": "uint256"
        },
        {
          "indexed": false,
          "internalType": "uint256",
          "name": "finalDepositAmount",
          "type": "uint256"
        },
        {
          "indexed": false,
          "internalType": "uint256",
          "name": "tokensMinted",
          "type": "uint256"
        },
        {
          "indexed": false,
          "internalType": "address",
          "name": "user",
          "type": "address"
        }
      ],
      "name": "ShortMinted",
      "type": "event"
    },
    {
      "anonymous": false,
      "inputs": [
        {
          "indexed": false,
          "internalType": "uint256",
          "name": "marketIndex",
          "type": "uint256"
        },
        {
          "indexed": false,
          "internalType": "uint256",
          "name": "contractCallCounter",
          "type": "uint256"
        },
        {
          "indexed": false,
          "internalType": "uint256",
          "name": "tokensRedeemed",
          "type": "uint256"
        },
        {
          "indexed": false,
          "internalType": "uint256",
          "name": "valueOfRedemption",
          "type": "uint256"
        },
        {
          "indexed": false,
          "internalType": "uint256",
          "name": "finalRedeemValue",
          "type": "uint256"
        },
        {
          "indexed": false,
          "internalType": "address",
          "name": "user",
          "type": "address"
        }
      ],
      "name": "ShortRedeem",
      "type": "event"
    },
    {
      "anonymous": false,
      "inputs": [
        {
          "indexed": false,
          "internalType": "uint256",
          "name": "marketIndex",
          "type": "uint256"
        },
        {
          "indexed": false,
          "internalType": "address",
          "name": "longTokenAddress",
          "type": "address"
        },
        {
          "indexed": false,
          "internalType": "address",
          "name": "shortTokenAddress",
          "type": "address"
        },
        {
          "indexed": false,
          "internalType": "uint256",
          "name": "assetPrice",
          "type": "uint256"
        },
        {
          "indexed": false,
          "internalType": "string",
          "name": "name",
          "type": "string"
        },
        {
          "indexed": false,
          "internalType": "string",
          "name": "symbol",
          "type": "string"
        },
        {
          "indexed": false,
          "internalType": "address",
          "name": "oracleAddress",
          "type": "address"
        },
        {
          "indexed": false,
          "internalType": "uint256",
          "name": "baseEntryFee",
          "type": "uint256"
        },
        {
          "indexed": false,
          "internalType": "uint256",
          "name": "badLiquidityEntryFee",
          "type": "uint256"
        },
        {
          "indexed": false,
          "internalType": "uint256",
          "name": "baseExitFee",
          "type": "uint256"
        },
        {
          "indexed": false,
          "internalType": "uint256",
          "name": "badLiquidityExitFee",
          "type": "uint256"
        }
      ],
      "name": "SyntheticTokenCreated",
      "type": "event"
    },
    {
      "anonymous": false,
      "inputs": [
        {
          "indexed": false,
          "internalType": "uint256",
          "name": "marketIndex",
          "type": "uint256"
        },
        {
          "indexed": false,
          "internalType": "uint256",
          "name": "contractCallCounter",
          "type": "uint256"
        },
        {
          "indexed": false,
          "internalType": "uint256",
          "name": "longTokenPrice",
          "type": "uint256"
        },
        {
          "indexed": false,
          "internalType": "uint256",
          "name": "shortTokenPrice",
          "type": "uint256"
        }
      ],
      "name": "TokenPriceRefreshed",
      "type": "event"
    },
    {
      "anonymous": false,
      "inputs": [
        {
          "indexed": false,
          "internalType": "address",
          "name": "admin",
          "type": "address"
        },
        {
          "indexed": false,
          "internalType": "address",
          "name": "tokenFactory",
          "type": "address"
        },
        {
          "indexed": false,
          "internalType": "address",
          "name": "staker",
          "type": "address"
        },
        {
          "indexed": false,
          "internalType": "address",
          "name": "yieldManager",
          "type": "address"
        },
        {
          "indexed": false,
          "internalType": "address",
          "name": "oracleAgregator",
          "type": "address"
        }
      ],
      "name": "V1",
      "type": "event"
    },
    {
      "anonymous": false,
      "inputs": [
        {
          "indexed": false,
          "internalType": "uint256",
          "name": "marketIndex",
          "type": "uint256"
        },
        {
          "indexed": false,
          "internalType": "uint256",
          "name": "contractCallCounter",
          "type": "uint256"
        },
        {
          "indexed": false,
          "internalType": "uint256",
          "name": "totalValueLockedInMarket",
          "type": "uint256"
        },
        {
          "indexed": false,
          "internalType": "uint256",
          "name": "longValue",
          "type": "uint256"
        },
        {
          "indexed": false,
          "internalType": "uint256",
          "name": "shortValue",
          "type": "uint256"
        }
      ],
      "name": "ValueLockedInSystem",
      "type": "event"
    },
    {
      "inputs": [],
      "name": "TEN_TO_THE_18",
      "outputs": [
        {
          "internalType": "uint256",
          "name": "",
          "type": "uint256"
        }
      ],
      "stateMutability": "view",
      "type": "function",
      "constant": true
    },
    {
      "inputs": [],
      "name": "admin",
      "outputs": [
        {
          "internalType": "address",
          "name": "",
          "type": "address"
        }
      ],
      "stateMutability": "view",
      "type": "function",
      "constant": true
    },
    {
      "inputs": [
        {
          "internalType": "uint256",
          "name": "",
          "type": "uint256"
        }
      ],
      "name": "assetPrice",
      "outputs": [
        {
          "internalType": "uint256",
          "name": "",
          "type": "uint256"
        }
      ],
      "stateMutability": "view",
      "type": "function",
      "constant": true
    },
    {
      "inputs": [
        {
          "internalType": "uint256",
          "name": "",
          "type": "uint256"
        }
      ],
      "name": "badLiquidityEntryFee",
      "outputs": [
        {
          "internalType": "uint256",
          "name": "",
          "type": "uint256"
        }
      ],
      "stateMutability": "view",
      "type": "function",
      "constant": true
    },
    {
      "inputs": [
        {
          "internalType": "uint256",
          "name": "",
          "type": "uint256"
        }
      ],
      "name": "badLiquidityExitFee",
      "outputs": [
        {
          "internalType": "uint256",
          "name": "",
          "type": "uint256"
        }
      ],
      "stateMutability": "view",
      "type": "function",
      "constant": true
    },
    {
      "inputs": [
        {
          "internalType": "uint256",
          "name": "",
          "type": "uint256"
        }
      ],
      "name": "baseEntryFee",
      "outputs": [
        {
          "internalType": "uint256",
          "name": "",
          "type": "uint256"
        }
      ],
      "stateMutability": "view",
      "type": "function",
      "constant": true
    },
    {
      "inputs": [
        {
          "internalType": "uint256",
          "name": "",
          "type": "uint256"
        }
      ],
      "name": "baseExitFee",
      "outputs": [
        {
          "internalType": "uint256",
          "name": "",
          "type": "uint256"
        }
      ],
      "stateMutability": "view",
      "type": "function",
      "constant": true
    },
    {
      "inputs": [
        {
          "internalType": "uint256",
          "name": "",
          "type": "uint256"
        }
      ],
      "name": "externalContractCounter",
      "outputs": [
        {
          "internalType": "uint256",
          "name": "",
          "type": "uint256"
        }
      ],
      "stateMutability": "view",
      "type": "function",
      "constant": true
    },
    {
      "inputs": [],
      "name": "feeUnitsOfPrecision",
      "outputs": [
        {
          "internalType": "uint256",
          "name": "",
          "type": "uint256"
        }
      ],
      "stateMutability": "view",
      "type": "function",
      "constant": true
    },
    {
      "inputs": [
        {
          "internalType": "uint256",
          "name": "",
          "type": "uint256"
        }
      ],
      "name": "fundTokens",
      "outputs": [
        {
          "internalType": "contract IERC20Upgradeable",
          "name": "",
          "type": "address"
        }
      ],
      "stateMutability": "view",
      "type": "function",
      "constant": true
    },
    {
      "inputs": [],
      "name": "latestMarket",
      "outputs": [
        {
          "internalType": "uint256",
          "name": "",
          "type": "uint256"
        }
      ],
      "stateMutability": "view",
      "type": "function",
      "constant": true
    },
    {
      "inputs": [
        {
          "internalType": "uint256",
          "name": "",
          "type": "uint256"
        }
      ],
      "name": "longTokenPrice",
      "outputs": [
        {
          "internalType": "uint256",
          "name": "",
          "type": "uint256"
        }
      ],
      "stateMutability": "view",
      "type": "function",
      "constant": true
    },
    {
      "inputs": [
        {
          "internalType": "uint256",
          "name": "",
          "type": "uint256"
        }
      ],
      "name": "longTokens",
      "outputs": [
        {
          "internalType": "contract SyntheticToken",
          "name": "",
          "type": "address"
        }
      ],
      "stateMutability": "view",
      "type": "function",
      "constant": true
    },
    {
      "inputs": [
        {
          "internalType": "uint256",
          "name": "",
          "type": "uint256"
        }
      ],
      "name": "longValue",
      "outputs": [
        {
          "internalType": "uint256",
          "name": "",
          "type": "uint256"
        }
      ],
      "stateMutability": "view",
      "type": "function",
      "constant": true
    },
    {
      "inputs": [
        {
          "internalType": "uint256",
          "name": "",
          "type": "uint256"
        }
      ],
      "name": "marketExists",
      "outputs": [
        {
          "internalType": "bool",
          "name": "",
          "type": "bool"
        }
      ],
      "stateMutability": "view",
      "type": "function",
      "constant": true
    },
    {
      "inputs": [],
      "name": "oracleAgregator",
      "outputs": [
        {
          "internalType": "contract IOracleManager",
          "name": "",
          "type": "address"
        }
      ],
      "stateMutability": "view",
      "type": "function",
      "constant": true
    },
    {
      "inputs": [
        {
          "internalType": "uint256",
          "name": "",
          "type": "uint256"
        }
      ],
      "name": "shortTokenPrice",
      "outputs": [
        {
          "internalType": "uint256",
          "name": "",
          "type": "uint256"
        }
      ],
      "stateMutability": "view",
      "type": "function",
      "constant": true
    },
    {
      "inputs": [
        {
          "internalType": "uint256",
          "name": "",
          "type": "uint256"
        }
      ],
      "name": "shortTokens",
      "outputs": [
        {
          "internalType": "contract SyntheticToken",
          "name": "",
          "type": "address"
        }
      ],
      "stateMutability": "view",
      "type": "function",
      "constant": true
    },
    {
      "inputs": [
        {
          "internalType": "uint256",
          "name": "",
          "type": "uint256"
        }
      ],
      "name": "shortValue",
      "outputs": [
        {
          "internalType": "uint256",
          "name": "",
          "type": "uint256"
        }
      ],
      "stateMutability": "view",
      "type": "function",
      "constant": true
    },
    {
      "inputs": [],
      "name": "staker",
      "outputs": [
        {
          "internalType": "contract Staker",
          "name": "",
          "type": "address"
        }
      ],
      "stateMutability": "view",
      "type": "function",
      "constant": true
    },
    {
      "inputs": [],
      "name": "tokenFactory",
      "outputs": [
        {
          "internalType": "contract TokenFactory",
          "name": "",
          "type": "address"
        }
      ],
      "stateMutability": "view",
      "type": "function",
      "constant": true
    },
    {
      "inputs": [],
      "name": "totalValueLocked",
      "outputs": [
        {
          "internalType": "uint256",
          "name": "",
          "type": "uint256"
        }
      ],
      "stateMutability": "view",
      "type": "function",
      "constant": true
    },
    {
      "inputs": [
        {
          "internalType": "uint256",
          "name": "",
          "type": "uint256"
        }
      ],
      "name": "totalValueLockedInMarket",
      "outputs": [
        {
          "internalType": "uint256",
          "name": "",
          "type": "uint256"
        }
      ],
      "stateMutability": "view",
      "type": "function",
      "constant": true
    },
    {
      "inputs": [],
      "name": "yieldManager",
      "outputs": [
        {
          "internalType": "contract IYieldManager",
          "name": "",
          "type": "address"
        }
      ],
      "stateMutability": "view",
      "type": "function",
      "constant": true
    },
    {
      "inputs": [
        {
          "internalType": "address",
          "name": "_admin",
          "type": "address"
        },
        {
          "internalType": "address",
          "name": "_tokenFactory",
          "type": "address"
        },
        {
          "internalType": "address",
          "name": "_staker",
          "type": "address"
        },
        {
          "internalType": "address",
          "name": "_oracleAgregator",
          "type": "address"
        },
        {
          "internalType": "address",
          "name": "_yieldManager",
          "type": "address"
        }
      ],
      "name": "setup",
      "outputs": [],
      "stateMutability": "nonpayable",
      "type": "function"
    },
    {
      "inputs": [
        {
          "internalType": "string",
          "name": "syntheticName",
          "type": "string"
        },
        {
          "internalType": "string",
          "name": "syntheticSymbol",
          "type": "string"
        },
        {
          "internalType": "address",
          "name": "_fundToken",
          "type": "address"
        },
        {
          "internalType": "address",
          "name": "_oracleFeed",
          "type": "address"
        },
        {
          "internalType": "uint256",
          "name": "_baseEntryFee",
          "type": "uint256"
        },
        {
          "internalType": "uint256",
          "name": "_badLiquidityEntryFee",
          "type": "uint256"
        },
        {
          "internalType": "uint256",
          "name": "_baseExitFee",
          "type": "uint256"
        },
        {
          "internalType": "uint256",
          "name": "_badLiquidityExitFee",
          "type": "uint256"
        }
      ],
      "name": "newSyntheticMarket",
      "outputs": [],
      "stateMutability": "nonpayable",
      "type": "function"
    },
    {
      "inputs": [
        {
          "internalType": "uint256",
          "name": "marketIndex",
          "type": "uint256"
        }
      ],
      "name": "getLatestPrice",
      "outputs": [
        {
          "internalType": "int256",
          "name": "",
          "type": "int256"
        }
      ],
      "stateMutability": "view",
      "type": "function",
      "constant": true
    },
    {
      "inputs": [
        {
          "internalType": "uint256",
          "name": "marketIndex",
          "type": "uint256"
        }
      ],
      "name": "getLongBeta",
      "outputs": [
        {
          "internalType": "uint256",
          "name": "",
          "type": "uint256"
        }
      ],
      "stateMutability": "view",
      "type": "function",
      "constant": true
    },
    {
      "inputs": [
        {
          "internalType": "uint256",
          "name": "marketIndex",
          "type": "uint256"
        }
      ],
      "name": "getShortBeta",
      "outputs": [
        {
          "internalType": "uint256",
          "name": "",
          "type": "uint256"
        }
      ],
      "stateMutability": "view",
      "type": "function",
      "constant": true
    },
    {
      "inputs": [
        {
          "internalType": "uint256",
          "name": "marketIndex",
          "type": "uint256"
        }
      ],
      "name": "_updateSystemState",
      "outputs": [],
      "stateMutability": "nonpayable",
      "type": "function"
    },
    {
      "inputs": [
        {
          "internalType": "uint256",
          "name": "marketIndex",
          "type": "uint256"
        },
        {
          "internalType": "uint256",
          "name": "amount",
          "type": "uint256"
        }
      ],
      "name": "mintLong",
      "outputs": [],
      "stateMutability": "nonpayable",
      "type": "function"
    },
    {
      "inputs": [
        {
          "internalType": "uint256",
          "name": "marketIndex",
          "type": "uint256"
        },
        {
          "internalType": "uint256",
          "name": "amount",
          "type": "uint256"
        }
      ],
      "name": "mintShort",
      "outputs": [],
      "stateMutability": "nonpayable",
      "type": "function"
    },
    {
      "inputs": [
        {
          "internalType": "uint256",
          "name": "marketIndex",
          "type": "uint256"
        },
        {
          "internalType": "uint256",
          "name": "tokensToRedeem",
          "type": "uint256"
        }
      ],
      "name": "redeemLong",
      "outputs": [],
      "stateMutability": "nonpayable",
      "type": "function"
    },
    {
      "inputs": [
        {
          "internalType": "uint256",
          "name": "marketIndex",
          "type": "uint256"
        },
        {
          "internalType": "uint256",
          "name": "tokensToRedeem",
          "type": "uint256"
        }
      ],
      "name": "redeemShort",
      "outputs": [],
      "stateMutability": "nonpayable",
      "type": "function"
    }
  ],
  "bytecode": "0x608060405234801561001057600080fd5b5061257d806100206000396000f3fe608060405234801561001057600080fd5b50600436106102065760003560e01c8063a104438f1161011a578063e77772fe116100ad578063ec18154e1161007c578063ec18154e14610605578063ec69a6541461060d578063f45a71921461063e578063f851a4401461065b578063fff1939c1461066357610206565b8063e77772fe14610590578063e95c17db14610598578063ea9380ed146105b5578063ebc27838146105bd57610206565b8063d206ff1c116100e9578063d206ff1c14610531578063d2d2ef761461054e578063e40944b314610556578063e54cdfe21461057357610206565b8063a104438f146104b1578063a668199f146104d4578063b94fe917146104f1578063c2b9a2e11461050e57610206565b80635ad6c71d1161019d57806380b7af181161016c57806380b7af181461042f57806384ba3c041461043757806387d3249714610454578063896c0c0514610477578063983ccdff1461049457610206565b80635ad6c71d146103df5780635ebaf1db146103fc578063608bbd4914610404578063636190c81461042757610206565b80632cbf458d116101d95780632cbf458d146102ad57806333c79d46146102b55780633498cd49146103a55780633d7d0706146103c257610206565b8063076c1e941461020b578063143c70d01461023a5780631bfd19f8146102575780632237d35c14610274575b600080fd5b6102286004803603602081101561022157600080fd5b5035610680565b60408051918252519081900360200190f35b6102286004803603602081101561025057600080fd5b5035610692565b6102286004803603602081101561026d57600080fd5b50356106a4565b6102916004803603602081101561028a57600080fd5b50356106b6565b604080516001600160a01b039092168252519081900360200190f35b6102286106d1565b6103a360048036036101008110156102cc57600080fd5b8101906020810181356401000000008111156102e757600080fd5b8201836020820111156102f957600080fd5b8035906020019184600183028401116401000000008311171561031b57600080fd5b91939092909160208101903564010000000081111561033957600080fd5b82018360208201111561034b57600080fd5b8035906020019184600183028401116401000000008311171561036d57600080fd5b91935091506001600160a01b03813581169160208101359091169060408101359060608101359060808101359060a001356106d7565b005b610291600480360360208110156103bb57600080fd5b5035610be6565b6103a3600480360360208110156103d857600080fd5b5035610c01565b610228600480360360208110156103f557600080fd5b5035610eda565b610291610eec565b6103a36004803603604081101561041a57600080fd5b5080359060200135610efb565b6102286110f2565b6102916110f8565b6102286004803603602081101561044d57600080fd5b5035611107565b6103a36004803603604081101561046a57600080fd5b508035906020013561116f565b6102286004803603602081101561048d57600080fd5b503561136b565b610228600480360360208110156104aa57600080fd5b503561137d565b6103a3600480360360408110156104c757600080fd5b508035906020013561138f565b610228600480360360208110156104ea57600080fd5b503561158a565b6102286004803603602081101561050757600080fd5b503561159c565b6103a36004803603604081101561052457600080fd5b508035906020013561161a565b6102286004803603602081101561054757600080fd5b503561180b565b61022861181d565b6102286004803603602081101561056c57600080fd5b5035611829565b6102286004803603602081101561058957600080fd5b5035611889565b61029161189b565b610228600480360360208110156105ae57600080fd5b50356118aa565b6102916118bc565b6103a3600480360360a08110156105d357600080fd5b506001600160a01b038135811691602081013582169160408201358116916060810135821691608090910135166118cb565b610228611a31565b61062a6004803603602081101561062357600080fd5b5035611a37565b604080519115158252519081900360200190f35b6102286004803603602081101561065457600080fd5b5035611a4c565b610291611a5e565b6102916004803603602081101561067957600080fd5b5035611a73565b600b6020526000908152604090205481565b600a6020526000908152604090205481565b600d6020526000908152604090205481565b6011602052600090815260409020546001600160a01b031681565b61271081565b6000546201000090046001600160a01b031633146106f457600080fd5b600061070b60018054611a8e90919063ffffffff16565b6000818152601260209081526040808320899055601482528083208790556013825280832088905560158252808320869055600f90915280822080546001600160a01b0319166001600160a01b038c811691909117909155600754825163308cf4cb60e21b8152600481018690528b831660248201529251949550169263c233d32c9260448084019391929182900301818387803b1580156107ac57600080fd5b505af11580156107c0573d6000803e3d6000fd5b50506004805460408051634740dbdf60e01b8152928301908152604483018f90526001600160a01b039091169350634740dbdf92508e918e918e918e919081906024810190606401878780828437600083820152601f01601f191690910184810383528581526020019050858580828437600081840152601f19601f8201169050808301925050509650505050505050602060405180830381600087803b15801561086a57600080fd5b505af115801561087e573d6000803e3d6000fd5b505050506040513d602081101561089457600080fd5b50516000828152601060205260409081902080546001600160a01b0319166001600160a01b03938416179055600480548251631945957560e01b8152918201928352604482018e9052909216916319459575918e918e918e918e919081906024810190606401878780828437600083820152601f01601f191690910184810383528581526020019050858580828437600081840152601f19601f8201169050808301925050509650505050505050602060405180830381600087803b15801561095c57600080fd5b505af1158015610970573d6000803e3d6000fd5b505050506040513d602081101561098657600080fd5b5051600082815260116020908152604080832080546001600160a01b0319166001600160a01b0390951694909417909355600c8152828220670de0b6b3a764000090819055600d909152919020556109dd8161159c565b600082815260086020908152604080832093909355600184815560038252838320805460ff19169091179055600554601082528383205460119092528383205484516303eacab560e61b8152600481018790526001600160a01b0393841660248201529083166044820152935191169263fab2ad4092606480830193919282900301818387803b158015610a7057600080fd5b505af1158015610a84573d6000803e3d6000fd5b505050507faa31e2e39807926e3ca439f72b8a8bac06d497a871931aeb98e282d0eb034acf816010600084815260200190815260200160002060009054906101000a90046001600160a01b03166011600085815260200190815260200160002060009054906101000a90046001600160a01b031660086000868152602001908152602001600020548f8f8f8f8e8e8e8e8e604051808e81526020018d6001600160a01b031681526020018c6001600160a01b031681526020018b81526020018060200180602001886001600160a01b0316815260200187815260200186815260200185815260200184815260200183810383528c8c82818152602001925080828437600083820152601f01601f191690910184810383528a815260200190508a8a80828437600081840152601f19601f8201169050808301925050509f5050505050505050505050505050505060405180910390a15050505050505050505050565b6010602052600090815260409020546001600160a01b031681565b600081815260036020526040902054819060ff16610c1e57600080fd5b81333014610c3c576000818152600e60205260409020805460010190555b6005546000848152601060209081526040808320546011835281842054600c845282852054600d855283862054600a865284872054600b909652848720548551635512039360e11b81526001600160a01b039586166004820152938516602485015260448401929092526064830152608482019490945260a4810193909352905193169263aa2407269260c48084019391929182900301818387803b158015610ce457600080fd5b505af1158015610cf8573d6000803e3d6000fd5b5050506000848152600a60205260409020541590508015610d2557506000838152600b6020526040902054155b15610d2f57610ed5565b6000610d3a8461159c565b6000858152600e6020908152604080832054600883529281902054815189815292830193909352818101929092526060810183905233608082015290519192507f79fb6848e7674bc7f6dccc10751e59abb112a43e0cadc715fa9d89f341c942dc919081900360a00190a16000848152600a602052604090205415801590610dcf57506000848152600b602052604090205415155b15610dde57610dde8482611af1565b610de784611db1565b6000848152600860209081526040808320849055600e8252808320546009835281842054600a845282852054600b8552948390205483518a815294850192909252838301526060830193909352608082019290925290516000805160206124e68339815191529181900360a00190a1600084815260096020908152604080832054600b835281842054600a909352922054610e8191611a8e565b14610ed3576040805162461bcd60e51b815260206004820152601960248201527f546f74616c206c6f636b656420696e636f6e73697374656e7400000000000000604482015290519081900360640190fd5b505b505050565b60136020526000908152604090205481565b6005546001600160a01b031681565b81610f0581610c01565b610f0f8383611f90565b6000838152600a6020908152604080832054600b909252822054610f3a91869186919060018661209c565b90506000610f488483612138565b9050610f578583603280612195565b610f6085611db1565b6000858152600d6020526040812054610f8b90610f8584670de0b6b3a7640000612203565b9061225c565b6000878152601160205260408082205481516340c10f1960e01b81523360048201526024810185905291519394506001600160a01b0316926340c10f199260448084019391929182900301818387803b158015610fe757600080fd5b505af1158015610ffb573d6000803e3d6000fd5b5050506000878152600b6020526040902054611018915083611a8e565b6000878152600b6020908152604080832093909355600e8152908290205482518981529182015280820187905260608101849052608081018390523360a082015290517f68904ace1024130cf0b954daa8ba8ea241b63f38cab13588eb3c534de1a487469181900360c00190a16000868152600e60209081526040808320546009835281842054600a845282852054600b8552948390205483518c815294850192909252838301526060830193909352608082019290925290516000805160206124e68339815191529181900360a00190a1505050505050565b60015481565b6006546001600160a01b031681565b6000818152600b6020908152604080832054600a909252822054106111355750670de0b6b3a764000061116a565b6000828152600b6020908152604080832054600a909252909120546111679190610f8590670de0b6b3a7640000612203565b90505b919050565b8161117981610c01565b60008381526010602052604080822054815163079cc67960e41b81523360048201526024810186905291516001600160a01b03909116926379cc6790926044808201939182900301818387803b1580156111d257600080fd5b505af11580156111e6573d6000803e3d6000fd5b5050506000848152600c602052604081205490915061121490670de0b6b3a764000090610f85908690612203565b6000858152600a6020908152604080832054600b909252822054929350909161124491879185919085600161209c565b905060006112528383612138565b90506112618683603280612195565b6000868152600a602052604090205461127a9084612138565b6000878152600a602052604090205561129286611db1565b61129c86826122c3565b6000868152600e60209081526040918290205482518981529182015280820187905260608101859052608081018390523360a082015290517f0ff7f63b14327882049ca86ccf90d5556c1ae229b18a460af7f119a1ce3b97cb9181900360c00190a16000868152600e60209081526040808320546009835281842054600a845282852054600b8552948390205483518c815294850192909252838301526060830193909352608082019290925290516000805160206124e68339815191529181900360a00190a1505050505050565b60156020526000908152604090205481565b60096020526000908152604090205481565b8161139981610c01565b60008381526011602052604080822054815163079cc67960e41b81523360048201526024810186905291516001600160a01b03909116926379cc6790926044808201939182900301818387803b1580156113f257600080fd5b505af1158015611406573d6000803e3d6000fd5b5050506000848152600d602052604081205490915061143490670de0b6b3a764000090610f85908690612203565b6000858152600a6020908152604080832054600b9092528220549293509091611463918791859190858061209c565b905060006114718383612138565b90506114808683603280612195565b6000868152600b60205260409020546114999084612138565b6000878152600b60205260409020556114b186611db1565b6114bb86826122c3565b6000868152600e60209081526040918290205482518981529182015280820187905260608101859052608081018390523360a082015290517f600c89bdd3fd6a17535cf96a7a531c2342557630dea9d38cf8fb2ea72887b6f29181900360c00190a16000868152600e60209081526040808320546009835281842054600a845282852054600b8552948390205483518c815294850192909252838301526060830193909352608082019290925290516000805160206124e68339815191529181900360a00190a1505050505050565b600c6020526000908152604090205481565b6007546040805163b94fe91760e01b81526004810184905290516000926001600160a01b03169163b94fe917916024808301926020929190829003018186803b1580156115e857600080fd5b505afa1580156115fc573d6000803e3d6000fd5b505050506040513d602081101561161257600080fd5b505192915050565b8161162481610c01565b61162e8383611f90565b6000838152600a6020908152604080832054600b90925282205461165991869186919060018061209c565b905060006116678483612138565b90506116768583603280612195565b61167f85611db1565b6000858152600c60205260408120546116a490610f8584670de0b6b3a7640000612203565b6000878152601060205260408082205481516340c10f1960e01b81523360048201526024810185905291519394506001600160a01b0316926340c10f199260448084019391929182900301818387803b15801561170057600080fd5b505af1158015611714573d6000803e3d6000fd5b5050506000878152600a6020526040902054611731915083611a8e565b6000878152600a6020908152604080832093909355600e8152908290205482518981529182015280820187905260608101849052608081018390523360a082015290517f62dfea882042aff33d46c5863b7dcce89776289b112b277c886cb51a186dbafc9181900360c00190a16000868152600e60209081526040808320546009835281842054600a845282852054600b8552948390205483518c815294850192909252838301526060830193909352608082019290925290516000805160206124e68339815191529181900360a00190a1505050505050565b60086020526000908152604090205481565b670de0b6b3a764000081565b6000818152600a6020908152604080832054600b909252822054106118575750670de0b6b3a764000061116a565b6000828152600a6020908152604080832054600b909252909120546111679190610f8590670de0b6b3a7640000612203565b60146020526000908152604090205481565b6004546001600160a01b031681565b600e6020526000908152604090205481565b6007546001600160a01b031681565b600054610100900460ff16806118e457506118e4612384565b806118f2575060005460ff16155b61192d5760405162461bcd60e51b815260040180806020018281038252602e8152602001806124b8602e913960400191505060405180910390fd5b600054610100900460ff16158015611958576000805460ff1961ff0019909116610100171660011790555b600080546001600160a01b0380891662010000810262010000600160b01b031990931692909217909255600480548884166001600160a01b0319918216811790925560058054898616908316811790915560068054888716908416811790915560078054968a16969093168617909255604080519485526020850193909352838301526060830193909352608082019290925290517f1af657f5a2520b59848a040f97e2e43d9cb1e37838b69d3a3f6aa692c0d81fed9181900360a00190a18015611a29576000805461ff00191690555b505050505050565b60025481565b60036020526000908152604090205460ff1681565b60126020526000908152604090205481565b6000546201000090046001600160a01b031681565b600f602052600090815260409020546001600160a01b031681565b600082820183811015611ae8576040805162461bcd60e51b815260206004820152601b60248201527f536166654d6174683a206164646974696f6e206f766572666c6f770000000000604482015290519081900360640190fd5b90505b92915050565b600082815260086020526040902054811415611b0c57611dad565b6000828152600860205260408120548190831115611c6d57600084815260086020526040902054611b5390610f85670de0b6b3a7640000611b4d8784612138565b90612203565b9150670de0b6b3a76400008210611baa576000848152600b6020908152604080832054600a90925290912054611b8891611a8e565b6000858152600a6020908152604080832093909355600b905290812055611c68565b670de0b6b3a7640000611bbc85611107565b1415611bf0576000848152600b6020526040902054611be990670de0b6b3a764000090610f859085612203565b9050611c1a565b6000848152600a6020526040902054611c1790670de0b6b3a764000090610f859085612203565b90505b6000848152600a6020526040902054611c339082611a8e565b6000858152600a6020908152604080832093909355600b90522054611c589082612138565b6000858152600b60205260409020555b610ed3565b600084815260086020526040902054611c9690610f85670de0b6b3a7640000611b4d8388612138565b9150670de0b6b3a76400008210611ced576000848152600a6020908152604080832054600b90925290912054611ccb91611a8e565b6000858152600b6020908152604080832093909355600a905290812055610ed3565b670de0b6b3a7640000611cff85611107565b1415611d33576000848152600b6020526040902054611d2c90670de0b6b3a764000090610f859085612203565b9050611d5d565b6000848152600a6020526040902054611d5a90670de0b6b3a764000090610f859085612203565b90505b6000848152600a6020526040902054611d769082612138565b6000858152600a6020908152604080832093909355600b90522054611d9b9082611a8e565b6000858152600b602052604090205550505b5050565b60008181526010602090815260408083205481516318160ddd60e01b815291516001600160a01b03909116926318160ddd9260048082019391829003018186803b158015611dfe57600080fd5b505afa158015611e12573d6000803e3d6000fd5b505050506040513d6020811015611e2857600080fd5b505190508015611e69576000828152600a6020526040902054611e59908290610f8590670de0b6b3a7640000612203565b6000838152600c60205260409020555b60008281526011602090815260408083205481516318160ddd60e01b815291516001600160a01b03909116926318160ddd9260048082019391829003018186803b158015611eb657600080fd5b505afa158015611eca573d6000803e3d6000fd5b505050506040513d6020811015611ee057600080fd5b505190508015611f21576000838152600b6020526040902054611f11908290610f8590670de0b6b3a7640000612203565b6000848152600d60205260409020555b6000838152600e6020908152604080832054600c835281842054600d8452938290205482518881529384019190915282820193909352606082019290925290517ff5a0d32fb0a11ce8c5cbc41ba0fbff5c11cf5a38f1d250b09a0604ecd7baeddb9181900360800190a1505050565b60008111611fcf5760405162461bcd60e51b81526004018080602001828103825260218152602001806125276021913960400191505060405180910390fd5b6000828152600f602090815260408083205481516323b872dd60e01b81523360048201523060248201526044810186905291516001600160a01b03909116936323b872dd93606480850194919392918390030190829087803b15801561203457600080fd5b505af1158015612048573d6000803e3d6000fd5b505050506040513d602081101561205e57600080fd5b50506000828152600960205260409020546120799082611a8e565b6000838152600960205260409020556002546120959082611a8e565b6002555050565b60008280156120b157508415806120b1575083155b156120ca576120c38787600086612395565b905061212e565b6000808415158415151480156120ed57878711156120e85787870391505b6120fb565b868811156120fb5786880391505b8882106121195761210f8a8a600089612395565b935050505061212e565b61210f8a8a6121288186612138565b89612395565b9695505050505050565b60008282111561218f576040805162461bcd60e51b815260206004820152601e60248201527f536166654d6174683a207375627472616374696f6e206f766572666c6f770000604482015290519081900360640190fd5b50900390565b6121a18484848461241e565b6000848152600e602090815260409182902054825187815291820152808201859052606081018490526080810183905290517f17fe3e82666214533b0b95d0fd216fd316abbccb171a32c72e4a78187ee0ad169181900360a00190a150505050565b60008261221257506000611aeb565b8282028284828161221f57fe5b0414611ae85760405162461bcd60e51b81526004018080602001828103825260218152602001806125066021913960400191505060405180910390fd5b60008082116122b2576040805162461bcd60e51b815260206004820152601a60248201527f536166654d6174683a206469766973696f6e206279207a65726f000000000000604482015290519081900360640190fd5b8183816122bb57fe5b049392505050565b6000828152600960205260409020546122dc9082612138565b6000838152600960205260409020556002546122f89082612138565b6002556000828152600f6020908152604080832054815163a9059cbb60e01b81523360048201526024810186905291516001600160a01b039091169363a9059cbb93604480850194919392918390030190829087803b15801561235a57600080fd5b505af115801561236e573d6000803e3d6000fd5b505050506040513d6020811015610ed357600080fd5b600061238f306124b1565b15905090565b6000808083156123c15750506000858152601260209081526040808320546013909252909120546123df565b50506000858152601460209081526040808320546015909252909120545b60006123f1612710610f858986612203565b90506000612405612710610f858986612203565b90506124118282611a8e565b9998505050505050505050565b6124288183611a8e565b60641461243457600080fd5b8215610ed357600061244b6064610f858686612203565b905060006124598583612138565b6000878152600a60205260409020549091506124759083611a8e565b6000878152600a6020908152604080832093909355600b9052205461249a9082611a8e565b6000878152600b6020526040902055505050505050565b3b15159056fe496e697469616c697a61626c653a20636f6e747261637420697320616c726561647920696e697469616c697a656479ebcec14f04f4d0413d471c8a42adb8217d9a407decd6be7387bc7625d8cad4536166654d6174683a206d756c7469706c69636174696f6e206f766572666c6f7755736572206e6565647320746f2061646420706f73697469766520616d6f756e74a2646970667358221220cf5a58c2165fe6cd43d11ea0ceecd355da70d229b00223d85a64cced0986bffd64736f6c63430007060033",
  "immutableReferences": {},
  "source": "//SPDX-License-Identifier: Unlicense\npragma solidity 0.7.6;\n\nimport \"hardhat/console.sol\";\nimport \"@openzeppelin/contracts-upgradeable/math/SafeMathUpgradeable.sol\";\nimport \"@openzeppelin/contracts-upgradeable/proxy/Initializable.sol\";\nimport \"@chainlink/contracts/src/v0.6/interfaces/AggregatorV3Interface.sol\";\n\nimport \"./SyntheticToken.sol\";\nimport \"./TokenFactory.sol\";\nimport \"./Staker.sol\";\nimport \"./interfaces/IYieldManager.sol\";\nimport \"./interfaces/IOracleManager.sol\";\n\n/**\n * @dev {LongShort} contract, including:\n *\n *  - Ability for users to create synthetic long and short positions on value movements\n *  - Value movements could be derived from tradional or alternative asset classes, derivates, binary outcomes, etc...\n *  - Incentive mechansim providing fees to liquidity makers (users on both sides of order book)\n *\n * ******* SYSTEM FUNCTIONING V0.0 ***********\n * System accepts stable coin (DAI) and has a total locked value = short position value + long position value\n * If percentage movement as calculated from oracle is +10%, and short position value == long position value,\n * Then value change = long position value * 10%\n * long position value = long position value + value change\n * short position value = short position value - value change\n * Total contract value remains unchanged.\n * long value has increased and each longtoken is now worth more as underlying pool value has increased.\n *\n * Tokens representing a shares in the short or long token pool can be minted\n * at price (short position value) / (total short token value)\n * or conversely burned to redeem the underlying share of the pool calculated\n * as (short position value) / (total short token value) per token\n *\n * Depending on demand of minting and burning for underlying on both sides (long/short of contract),\n * most often short position value != long position value (there will be an imbalance)\n * Imbalances also naturally occur as the contract adjusts these values after observing oracle value changes\n * Incentives exist to best incentivize contract balance.\n *\n * Mechanism 1 - interest accural imbalance.\n * The entire total locked value accrues interest and distributes it 50/50 even if imbalance exists.\n * I.e. Short side supplys $50 capital. Long side supply $150. Short side effectively earns interest on $100.\n * Enhanced yield exists for sides taking on the position with less demand.\n *\n * Mechanism 2 - liquidity fees earned.\n * The side which is shorter on liquidity will receive fees strengthening their value\n * Whenever liquidity is added to the opposing side or withdrawn from their side (i.e. when the imbalance increases)\n *\n * ******* KNOWN ATTACK VECTORS ***********\n * (1) Feeless withdrawl:\n * [FIXED]\n * Long position $150, Short position $100. User should pay fee to remove short liquidity.\n * Step1: User mints $51 of short position (No fee to add liquidity).\n * Step2: User redeems $100 of short position (no fee as currently removing liquidity from bigger side)\n * Possible solution, check after deposit/withdrawl if order book has flipped, then apply fees.\n *\n * (2) FlashLoan mint:\n * [ONGOING]\n * Consider rapid large entries and exit of the system.\n *\n * (3) Oracle manipulation:\n * [ONGOING]\n * If the oracle determining price change can be easy manipulated (and by a decent magnitude),\n * Funds could be at risk. See: https://blog.trailofbits.com/2020/08/05/accidentally-stepping-on-a-defi-lego/\n *\n * ******* Work on gas effciencies ***********\n * Layer 2 solutions\n * Remove safe Math library\n */\ncontract LongShort is Initializable {\n    using SafeMathUpgradeable for uint256;\n\n    ////////////////////////////////////\n    //////// VARIABLES /////////////////\n    ////////////////////////////////////\n\n    // Global state.\n    address public admin; // This will likely be the Gnosis safe\n    uint256 public latestMarket;\n    uint256 public totalValueLocked;\n    mapping(uint256 => bool) public marketExists;\n\n    // Factory for dynamically creating synthetic long/short tokens.\n    TokenFactory public tokenFactory;\n    Staker public staker;\n\n    // Interfaces to dependant contracts\n    IYieldManager public yieldManager;\n    IOracleManager public oracleAgregator;\n\n    // Fixed-precision constants.\n    uint256 public constant TEN_TO_THE_18 = 10**18;\n    uint256 public constant feeUnitsOfPrecision = 10000;\n\n    // Market state.\n    mapping(uint256 => uint256) public assetPrice;\n    mapping(uint256 => uint256) public totalValueLockedInMarket;\n    mapping(uint256 => uint256) public longValue;\n    mapping(uint256 => uint256) public shortValue;\n    mapping(uint256 => uint256) public longTokenPrice;\n    mapping(uint256 => uint256) public shortTokenPrice;\n    mapping(uint256 => uint256) public externalContractCounter;\n    mapping(uint256 => IERC20Upgradeable) public fundTokens;\n\n    // Synthetic long/short tokens users can mint and redeem.\n    mapping(uint256 => SyntheticToken) public longTokens;\n    mapping(uint256 => SyntheticToken) public shortTokens;\n\n    // Fees for minting/redeeming long/short tokens. Users are penalised\n    // with extra fees for imbalancing the market.\n    mapping(uint256 => uint256) public baseEntryFee;\n    mapping(uint256 => uint256) public badLiquidityEntryFee;\n    mapping(uint256 => uint256) public baseExitFee;\n    mapping(uint256 => uint256) public badLiquidityExitFee;\n\n    ////////////////////////////////////\n    /////////// EVENTS /////////////////\n    ////////////////////////////////////\n\n    event V1(\n        address admin,\n        address tokenFactory,\n        address staker,\n        address yieldManager,\n        address oracleAgregator\n    );\n    event ValueLockedInSystem(\n        uint256 marketIndex,\n        uint256 contractCallCounter,\n        uint256 totalValueLockedInMarket,\n        uint256 longValue,\n        uint256 shortValue\n    );\n    event TokenPriceRefreshed(\n        uint256 marketIndex,\n        uint256 contractCallCounter,\n        uint256 longTokenPrice,\n        uint256 shortTokenPrice\n    );\n    event FeesLevied(\n        uint256 marketIndex,\n        uint256 contractCallCounter,\n        uint256 totalFees,\n        uint256 longPercentage,\n        uint256 shortPercentage\n    );\n    event SyntheticTokenCreated(\n        uint256 marketIndex,\n        address longTokenAddress,\n        address shortTokenAddress,\n        uint256 assetPrice,\n        string name,\n        string symbol,\n        address oracleAddress,\n        uint256 baseEntryFee,\n        uint256 badLiquidityEntryFee,\n        uint256 baseExitFee,\n        uint256 badLiquidityExitFee\n    );\n    event PriceUpdate(\n        uint256 marketIndex,\n        uint256 contractCallCounter,\n        uint256 oldPrice,\n        uint256 newPrice,\n        address user\n    );\n    event LongMinted(\n        uint256 marketIndex,\n        uint256 contractCallCounter,\n        uint256 depositAdded,\n        uint256 finalDepositAmount,\n        uint256 tokensMinted,\n        address user\n    );\n    event ShortMinted(\n        uint256 marketIndex,\n        uint256 contractCallCounter,\n        uint256 depositAdded,\n        uint256 finalDepositAmount,\n        uint256 tokensMinted,\n        address user\n    );\n    event LongRedeem(\n        uint256 marketIndex,\n        uint256 contractCallCounter,\n        uint256 tokensRedeemed,\n        uint256 valueOfRedemption,\n        uint256 finalRedeemValue,\n        address user\n    );\n    event ShortRedeem(\n        uint256 marketIndex,\n        uint256 contractCallCounter,\n        uint256 tokensRedeemed,\n        uint256 valueOfRedemption,\n        uint256 finalRedeemValue,\n        address user\n    );\n\n    ////////////////////////////////////\n    /////////// MODIFIERS //////////////\n    ////////////////////////////////////\n\n    /**\n     * Necessary to update system state before any contract actions (deposits / withdraws)\n     */\n\n    modifier adminOnly() {\n        require(msg.sender == admin);\n        _;\n    }\n\n    modifier doesMarketExist(uint256 marketIndex) {\n        require(marketExists[marketIndex]);\n        _;\n    }\n\n    modifier refreshSystemState(uint256 marketIndex) {\n        _updateSystemState(marketIndex);\n        _;\n    }\n\n    modifier updateCounterIfExternalCall(uint256 marketIndex) {\n        if (msg.sender != address(this)) {\n            externalContractCounter[marketIndex]++;\n        }\n        _;\n    }\n\n    ////////////////////////////////////\n    ///// CONTRACT SET-UP //////////////\n    ////////////////////////////////////\n\n    function setup(\n        address _admin,\n        address _tokenFactory,\n        address _staker,\n        address _oracleAgregator,\n        address _yieldManager\n    ) public initializer {\n        admin = _admin;\n        tokenFactory = TokenFactory(_tokenFactory);\n        staker = Staker(_staker);\n        yieldManager = IYieldManager(_yieldManager);\n        oracleAgregator = IOracleManager(_oracleAgregator);\n\n        emit V1(\n            _admin,\n            _tokenFactory,\n            _staker,\n            _oracleAgregator,\n            _yieldManager\n        );\n    }\n\n    ////////////////////////////////////\n    /// MULTISIG ADMIN CREATE MARKETS //\n    ////////////////////////////////////\n\n    function newSyntheticMarket(\n        string calldata syntheticName,\n        string calldata syntheticSymbol,\n        address _fundToken,\n        address _oracleFeed,\n        uint256 _baseEntryFee,\n        uint256 _badLiquidityEntryFee,\n        uint256 _baseExitFee,\n        uint256 _badLiquidityExitFee\n    ) external adminOnly {\n        uint256 marketNumber = latestMarket.add(1);\n\n        // Initial minting/redeeming fees.\n        baseEntryFee[marketNumber] = _baseEntryFee;\n        baseExitFee[marketNumber] = _baseExitFee;\n        badLiquidityEntryFee[marketNumber] = _badLiquidityEntryFee;\n        badLiquidityExitFee[marketNumber] = _badLiquidityExitFee;\n\n        // Initial market state.\n        fundTokens[marketNumber] = IERC20Upgradeable(_fundToken);\n\n        oracleAgregator.registerNewMarket(marketNumber, _oracleFeed);\n\n        // Create new synthetic long token.\n        longTokens[marketNumber] = SyntheticToken(\n            tokenFactory.createTokenLong(syntheticName, syntheticSymbol)\n        );\n\n        // Create new synthetic short token.\n        shortTokens[marketNumber] = SyntheticToken(\n            tokenFactory.createTokenShort(syntheticName, syntheticSymbol)\n        );\n\n        // Initial market state.\n        longTokenPrice[marketNumber] = TEN_TO_THE_18;\n        shortTokenPrice[marketNumber] = TEN_TO_THE_18;\n        assetPrice[marketNumber] = uint256(getLatestPrice(marketNumber));\n\n        // Update global state.\n        latestMarket = marketNumber;\n        marketExists[marketNumber] = true;\n\n        // Add new staker funds with fresh synthetic tokens.\n        staker.addNewStakingFund(\n            marketNumber,\n            address(longTokens[marketNumber]),\n            address(shortTokens[marketNumber])\n        );\n\n        // TODO(guy): Update this event to track _fundToken address, need to\n        // change the graph handlers and schema to track that too.\n        emit SyntheticTokenCreated(\n            marketNumber,\n            address(longTokens[marketNumber]),\n            address(shortTokens[marketNumber]),\n            assetPrice[marketNumber],\n            syntheticName,\n            syntheticSymbol,\n            _oracleFeed,\n            _baseEntryFee,\n            _badLiquidityEntryFee,\n            _baseExitFee,\n            _badLiquidityExitFee\n        );\n    }\n\n    ////////////////////////////////////\n    //////// HELPER FUNCTIONS //////////\n    ////////////////////////////////////\n\n    /**\n     * Returns the latest price\n     */\n    function getLatestPrice(uint256 marketIndex) public view returns (int256) {\n        return oracleAgregator.getLatestPrice(marketIndex);\n    }\n\n    /**\n     * Returns % of long position that is filled\n     */\n    function getLongBeta(uint256 marketIndex) public view returns (uint256) {\n        // TODO account for contract start when these are both zero\n        // and an erronous beta of 1 reported.\n        if (shortValue[marketIndex] >= longValue[marketIndex]) {\n            return TEN_TO_THE_18;\n        } else {\n            return\n                shortValue[marketIndex].mul(TEN_TO_THE_18).div(\n                    longValue[marketIndex]\n                );\n        }\n    }\n\n    /**\n     * Returns % of short position that is filled\n     * zero div error if both are zero\n     */\n    function getShortBeta(uint256 marketIndex) public view returns (uint256) {\n        if (longValue[marketIndex] >= shortValue[marketIndex]) {\n            return TEN_TO_THE_18;\n        } else {\n            return\n                longValue[marketIndex].mul(TEN_TO_THE_18).div(\n                    shortValue[marketIndex]\n                );\n        }\n    }\n\n    /**\n     * Adjusts the long/short token prices according to supply and value.\n     */\n    function _refreshTokensPrice(uint256 marketIndex) internal {\n        uint256 longTokenSupply = longTokens[marketIndex].totalSupply();\n        if (longTokenSupply > 0) {\n            longTokenPrice[marketIndex] = longValue[marketIndex]\n                .mul(TEN_TO_THE_18)\n                .div(longTokenSupply);\n        }\n        uint256 shortTokenSupply = shortTokens[marketIndex].totalSupply();\n        if (shortTokenSupply > 0) {\n            shortTokenPrice[marketIndex] = shortValue[marketIndex]\n                .mul(TEN_TO_THE_18)\n                .div(shortTokenSupply);\n        }\n        emit TokenPriceRefreshed(\n            marketIndex,\n            externalContractCounter[marketIndex],\n            longTokenPrice[marketIndex],\n            shortTokenPrice[marketIndex]\n        );\n    }\n\n    /**\n     * Controls what happens with mint/redeem fees.\n     * This is a v1 mechanism.\n     */\n    function _feesMechanism(\n        uint256 marketIndex,\n        uint256 totalFees,\n        uint256 longPercentage,\n        uint256 shortPercentage\n    ) internal {\n        _increaseLongShortSides(\n            marketIndex,\n            totalFees,\n            longPercentage,\n            shortPercentage\n        );\n\n        emit FeesLevied(\n            marketIndex,\n            externalContractCounter[marketIndex],\n            totalFees,\n            longPercentage,\n            shortPercentage\n        );\n    }\n\n    /**\n     * Splits the given amount between the long/short sides.\n     */\n    function _increaseLongShortSides(\n        uint256 marketIndex,\n        uint256 amount,\n        uint256 longPercentage,\n        uint256 shortPercentage\n    ) internal {\n        require(100 == shortPercentage.add(longPercentage)); // Possibly remove this check as internal function. Save gas.\n\n        if (amount != 0) {\n            uint256 longSideIncrease = amount.mul(longPercentage).div(100);\n            uint256 shortSideIncrease = amount.sub(longSideIncrease);\n            longValue[marketIndex] = longValue[marketIndex].add(\n                longSideIncrease\n            );\n            shortValue[marketIndex] = shortValue[marketIndex].add(\n                shortSideIncrease\n            );\n        }\n    }\n\n    // TODO fix with beta\n    function _priceChangeMechanism(uint256 marketIndex, uint256 newPrice)\n        internal\n    {\n        // If no new price update from oracle, proceed as normal\n        if (assetPrice[marketIndex] == newPrice) {\n            return;\n        }\n        // 100% -> 10**18\n        // 100% -> 1\n        uint256 percentageChange;\n        uint256 valueChange = 0;\n        // Long gains\n        if (newPrice > assetPrice[marketIndex]) {\n            percentageChange = (newPrice.sub(assetPrice[marketIndex]))\n                .mul(TEN_TO_THE_18)\n                .div(assetPrice[marketIndex]);\n            if (percentageChange >= TEN_TO_THE_18) {\n                // More than 100% price movement, system liquidation.\n                longValue[marketIndex] = longValue[marketIndex].add(\n                    shortValue[marketIndex]\n                );\n                shortValue[marketIndex] = 0;\n            } else {\n                if (getShortBeta(marketIndex) == TEN_TO_THE_18) {\n                    valueChange = shortValue[marketIndex]\n                        .mul(percentageChange)\n                        .div(TEN_TO_THE_18);\n                } else {\n                    valueChange = longValue[marketIndex]\n                        .mul(percentageChange)\n                        .div(TEN_TO_THE_18);\n                }\n                longValue[marketIndex] = longValue[marketIndex].add(\n                    valueChange\n                );\n                shortValue[marketIndex] = shortValue[marketIndex].sub(\n                    valueChange\n                );\n            }\n        } else {\n            percentageChange = (assetPrice[marketIndex].sub(newPrice))\n                .mul(TEN_TO_THE_18)\n                .div(assetPrice[marketIndex]);\n            if (percentageChange >= TEN_TO_THE_18) {\n                shortValue[marketIndex] = shortValue[marketIndex].add(\n                    longValue[marketIndex]\n                );\n                longValue[marketIndex] = 0;\n            } else {\n                if (getShortBeta(marketIndex) == TEN_TO_THE_18) {\n                    valueChange = shortValue[marketIndex]\n                        .mul(percentageChange)\n                        .div(TEN_TO_THE_18);\n                } else {\n                    valueChange = longValue[marketIndex]\n                        .mul(percentageChange)\n                        .div(TEN_TO_THE_18);\n                }\n                longValue[marketIndex] = longValue[marketIndex].sub(\n                    valueChange\n                );\n                shortValue[marketIndex] = shortValue[marketIndex].add(\n                    valueChange\n                );\n            }\n        }\n    }\n\n    /**\n     * Updates the value of the long and short sides within the system\n     * Note this is public. Anyone can call this function.\n     */\n    function _updateSystemState(uint256 marketIndex)\n        public\n        doesMarketExist(marketIndex)\n        updateCounterIfExternalCall(marketIndex)\n    {\n        // This is called right before any state change!\n        // So reward rate can be calculated just in time by\n        // staker without needing to be saved\n        staker.addNewStateForFloatRewards(\n            address(longTokens[marketIndex]),\n            address(shortTokens[marketIndex]),\n            longTokenPrice[marketIndex],\n            shortTokenPrice[marketIndex],\n            longValue[marketIndex],\n            shortValue[marketIndex]\n        );\n\n        if (longValue[marketIndex] == 0 && shortValue[marketIndex] == 0) {\n            return;\n        }\n\n        // TODO: Check why/if this is bad (casting to uint)\n        // If a negative int is return this should fail.\n        uint256 newPrice = uint256(getLatestPrice(marketIndex));\n        emit PriceUpdate(\n            marketIndex,\n            externalContractCounter[marketIndex],\n            assetPrice[marketIndex],\n            newPrice,\n            msg.sender\n        );\n\n        // Adjusts long and short values based on price movements.\n        // $1\n        // $100 on each side.\n        // $1.1 10% increase\n        // $90 on short side. $110 on the long side.\n        if (longValue[marketIndex] > 0 && shortValue[marketIndex] > 0) {\n            _priceChangeMechanism(marketIndex, newPrice);\n        }\n\n        // TODO: Interest mechanism and governance tokens.\n\n        _refreshTokensPrice(marketIndex);\n        assetPrice[marketIndex] = newPrice;\n\n        emit ValueLockedInSystem(\n            marketIndex,\n            externalContractCounter[marketIndex],\n            totalValueLockedInMarket[marketIndex],\n            longValue[marketIndex],\n            shortValue[marketIndex]\n        );\n        // For extra robustness while testing.\n        // TODO: Consider gas cost trade-off of removing\n        require(\n            longValue[marketIndex].add(shortValue[marketIndex]) ==\n                totalValueLockedInMarket[marketIndex],\n            \"Total locked inconsistent\"\n        );\n    }\n\n    /*\n     * Locks funds from the sender into the given market.\n     */\n    function _depositFunds(uint256 marketIndex, uint256 amount) internal {\n        require(amount > 0, \"User needs to add positive amount\");\n\n        // TODO: Interest mechanism, probably lend coins to venus.\n        fundTokens[marketIndex].transferFrom(msg.sender, address(this), amount);\n\n        totalValueLockedInMarket[marketIndex] = totalValueLockedInMarket[\n            marketIndex\n        ]\n            .add(amount);\n\n        totalValueLocked = totalValueLocked.add(amount);\n    }\n\n    /*\n     * Returns locked funds from the market to the sender.\n     */\n    function _withdrawFunds(uint256 marketIndex, uint256 amount) internal {\n        totalValueLockedInMarket[marketIndex] = totalValueLockedInMarket[\n            marketIndex\n        ]\n            .sub(amount);\n\n        totalValueLocked = totalValueLocked.sub(amount);\n\n        // TODO: May need to liquidate venus coins if we're out of funds.\n        fundTokens[marketIndex].transfer(msg.sender, amount);\n    }\n\n    /*\n     * Calculates fees for the given base amount and an additional penalty\n     * amount that extra fees are paid on. Users are penalised for imbalancing\n     * the market.\n     */\n    function _getFeesForAmounts(\n        uint256 marketIndex,\n        uint256 baseAmount, // e18\n        uint256 penaltyAmount, // e18\n        bool isMint // true for mint, false for redeem\n    ) internal returns (uint256) {\n        uint256 baseRate = 0; // base fee pcnt paid for all actions\n        uint256 penaltyRate = 0; // penalty fee pcnt paid for imbalancing\n\n        if (isMint) {\n            baseRate = baseEntryFee[marketIndex];\n            penaltyRate = badLiquidityEntryFee[marketIndex];\n        } else {\n            baseRate = baseExitFee[marketIndex];\n            penaltyRate = badLiquidityExitFee[marketIndex];\n        }\n\n        uint256 baseFee = baseAmount.mul(baseRate).div(feeUnitsOfPrecision);\n\n        uint256 penaltyFee =\n            penaltyAmount.mul(penaltyRate).div(feeUnitsOfPrecision);\n\n        return baseFee.add(penaltyFee);\n    }\n\n    /**\n     * Calculates fees for the given mint/redeem amount. Users are penalised\n     * with higher fees for imbalancing the market.\n     */\n    function _getFeesForAction(\n        uint256 marketIndex,\n        uint256 amount, // 1e18\n        uint256 longValue, // 1e18\n        uint256 shortValue, // 1e18\n        bool isMint, // true for mint, false for redeem\n        bool isLong // true for long side, false for short side\n    ) internal returns (uint256) {\n        // Edge-case: no penalties for minting in a 1-sided market.\n        // TODO: Is this what we want for new markets?\n        if (isMint && (longValue == 0 || shortValue == 0)) {\n            return _getFeesForAmounts(marketIndex, amount, 0, isMint);\n        }\n\n        uint256 fees = 0; // amount paid in fees\n        uint256 feeGap = 0; // amount that can be spent before higher fees\n\n        bool isLongMintOrShortRedeem = isMint == isLong;\n        if (isLongMintOrShortRedeem) {\n            if (shortValue > longValue) {\n                feeGap = shortValue - longValue;\n            }\n        } else {\n            // long redeem or short mint\n            if (longValue > shortValue) {\n                feeGap = longValue - shortValue;\n            }\n        }\n\n        // Case 1: fee gap is big enough that user pays no penalty fees\n        if (feeGap >= amount) {\n            return _getFeesForAmounts(marketIndex, amount, 0, isMint);\n            // Case 2: user pays penalty fees on the remained after fee gap\n        } else {\n            return\n                _getFeesForAmounts(\n                    marketIndex,\n                    amount,\n                    amount.sub(feeGap),\n                    isMint\n                );\n        }\n    }\n\n    ////////////////////////////////////\n    /////////// MINT TOKENS ////////////\n    ////////////////////////////////////\n\n    /**\n     * Create a long position\n     */\n    function mintLong(uint256 marketIndex, uint256 amount)\n        external\n        refreshSystemState(marketIndex)\n    {\n        // Deposit DAI and compute fees.\n        _depositFunds(marketIndex, amount);\n        uint256 fees =\n            _getFeesForAction(\n                marketIndex,\n                amount,\n                longValue[marketIndex],\n                shortValue[marketIndex],\n                true,\n                true\n            );\n        uint256 remaining = amount.sub(fees);\n\n        // TODO: decide on minting fees mechanism,\n        _feesMechanism(marketIndex, fees, 50, 50);\n        _refreshTokensPrice(marketIndex);\n\n        // Mint long tokens with remaining value.\n        uint256 tokens =\n            remaining.mul(TEN_TO_THE_18).div(longTokenPrice[marketIndex]);\n        longTokens[marketIndex].mint(msg.sender, tokens);\n        longValue[marketIndex] = longValue[marketIndex].add(remaining);\n\n        emit LongMinted(\n            marketIndex,\n            externalContractCounter[marketIndex],\n            amount,\n            remaining,\n            tokens,\n            msg.sender\n        );\n        emit ValueLockedInSystem(\n            marketIndex,\n            externalContractCounter[marketIndex],\n            totalValueLockedInMarket[marketIndex],\n            longValue[marketIndex],\n            shortValue[marketIndex]\n        );\n    }\n\n    /**\n     * Creates a short position\n     */\n    function mintShort(uint256 marketIndex, uint256 amount)\n        external\n        refreshSystemState(marketIndex)\n    {\n        // Deposit DAI and compute fees.\n        _depositFunds(marketIndex, amount);\n        uint256 fees =\n            _getFeesForAction(\n                marketIndex,\n                amount,\n                longValue[marketIndex],\n                shortValue[marketIndex],\n                true,\n                false\n            );\n        uint256 remaining = amount.sub(fees);\n\n        // TODO: decide on minting fees mechanism.\n        _feesMechanism(marketIndex, fees, 50, 50);\n        _refreshTokensPrice(marketIndex);\n\n        // Mint short tokens with remaining value.\n        uint256 tokens =\n            remaining.mul(TEN_TO_THE_18).div(shortTokenPrice[marketIndex]);\n        shortTokens[marketIndex].mint(msg.sender, tokens);\n        shortValue[marketIndex] = shortValue[marketIndex].add(remaining);\n\n        emit ShortMinted(\n            marketIndex,\n            externalContractCounter[marketIndex],\n            amount,\n            remaining,\n            tokens,\n            msg.sender\n        );\n\n        emit ValueLockedInSystem(\n            marketIndex,\n            externalContractCounter[marketIndex],\n            totalValueLockedInMarket[marketIndex],\n            longValue[marketIndex],\n            shortValue[marketIndex]\n        );\n    }\n\n    ////////////////////////////////////\n    /////////// REDEEM TOKENS //////////\n    ////////////////////////////////////\n\n    function redeemLong(uint256 marketIndex, uint256 tokensToRedeem)\n        external\n        refreshSystemState(marketIndex)\n    {\n        // Burn tokens - will revert unless user gives permission to contract.\n        longTokens[marketIndex].burnFrom(msg.sender, tokensToRedeem);\n\n        // Compute fees.\n        uint256 amount =\n            tokensToRedeem.mul(longTokenPrice[marketIndex]).div(TEN_TO_THE_18);\n        uint256 fees =\n            _getFeesForAction(\n                marketIndex,\n                amount,\n                longValue[marketIndex],\n                shortValue[marketIndex],\n                false,\n                true\n            );\n        uint256 remaining = amount.sub(fees);\n\n        // TODO: decide on redeeming fees mechanism.\n        _feesMechanism(marketIndex, fees, 50, 50);\n\n        // Withdraw DAI with remaining amount.\n        longValue[marketIndex] = longValue[marketIndex].sub(amount);\n        _refreshTokensPrice(marketIndex);\n        _withdrawFunds(marketIndex, remaining);\n\n        emit LongRedeem(\n            marketIndex,\n            externalContractCounter[marketIndex],\n            tokensToRedeem,\n            amount,\n            remaining,\n            msg.sender\n        );\n\n        emit ValueLockedInSystem(\n            marketIndex,\n            externalContractCounter[marketIndex],\n            totalValueLockedInMarket[marketIndex],\n            longValue[marketIndex],\n            shortValue[marketIndex]\n        );\n    }\n\n    function redeemShort(uint256 marketIndex, uint256 tokensToRedeem)\n        external\n        refreshSystemState(marketIndex)\n    {\n        // Burn tokens - will revert unless user gives permission to contract.\n        shortTokens[marketIndex].burnFrom(msg.sender, tokensToRedeem);\n\n        // Compute fees.\n        uint256 amount =\n            tokensToRedeem.mul(shortTokenPrice[marketIndex]).div(TEN_TO_THE_18);\n        uint256 fees =\n            _getFeesForAction(\n                marketIndex,\n                amount,\n                longValue[marketIndex],\n                shortValue[marketIndex],\n                false,\n                false\n            );\n        uint256 remaining = amount.sub(fees);\n\n        // TODO: decide on redeeming fees mechanism.\n        _feesMechanism(marketIndex, fees, 50, 50);\n\n        // Withdraw DAI with remaining amount.\n        shortValue[marketIndex] = shortValue[marketIndex].sub(amount);\n        _refreshTokensPrice(marketIndex);\n        _withdrawFunds(marketIndex, remaining);\n\n        emit ShortRedeem(\n            marketIndex,\n            externalContractCounter[marketIndex],\n            tokensToRedeem,\n            amount,\n            remaining,\n            msg.sender\n        );\n\n        emit ValueLockedInSystem(\n            marketIndex,\n            externalContractCounter[marketIndex],\n            totalValueLockedInMarket[marketIndex],\n            longValue[marketIndex],\n            shortValue[marketIndex]\n        );\n    }\n}\n",
  "sourcePath": "/home/jasoons/Documents/code/longshort/contracts/contracts/LongShort.sol",
  "compiler": {
    "name": "solc",
    "version": "0.7.6+commit.7338295f.Emscripten.clang"
  },
  "schemaVersion": "3.3.4",
  "updatedAt": "2021-02-16T12:50:41.396Z",
  "networkType": "ethereum",
  "devdoc": {
    "details": "{LongShort} contract, including:  - Ability for users to create synthetic long and short positions on value movements  - Value movements could be derived from tradional or alternative asset classes, derivates, binary outcomes, etc...  - Incentive mechansim providing fees to liquidity makers (users on both sides of order book) ******* SYSTEM FUNCTIONING V0.0 *********** System accepts stable coin (DAI) and has a total locked value = short position value + long position value If percentage movement as calculated from oracle is +10%, and short position value == long position value, Then value change = long position value * 10% long position value = long position value + value change short position value = short position value - value change Total contract value remains unchanged. long value has increased and each longtoken is now worth more as underlying pool value has increased. Tokens representing a shares in the short or long token pool can be minted at price (short position value) / (total short token value) or conversely burned to redeem the underlying share of the pool calculated as (short position value) / (total short token value) per token Depending on demand of minting and burning for underlying on both sides (long/short of contract), most often short position value != long position value (there will be an imbalance) Imbalances also naturally occur as the contract adjusts these values after observing oracle value changes Incentives exist to best incentivize contract balance. Mechanism 1 - interest accural imbalance. The entire total locked value accrues interest and distributes it 50/50 even if imbalance exists. I.e. Short side supplys $50 capital. Long side supply $150. Short side effectively earns interest on $100. Enhanced yield exists for sides taking on the position with less demand. Mechanism 2 - liquidity fees earned. The side which is shorter on liquidity will receive fees strengthening their value Whenever liquidity is added to the opposing side or withdrawn from their side (i.e. when the imbalance increases) ******* KNOWN ATTACK VECTORS *********** (1) Feeless withdrawl: [FIXED] Long position $150, Short position $100. User should pay fee to remove short liquidity. Step1: User mints $51 of short position (No fee to add liquidity). Step2: User redeems $100 of short position (no fee as currently removing liquidity from bigger side) Possible solution, check after deposit/withdrawl if order book has flipped, then apply fees. (2) FlashLoan mint: [ONGOING] Consider rapid large entries and exit of the system. (3) Oracle manipulation: [ONGOING] If the oracle determining price change can be easy manipulated (and by a decent magnitude), Funds could be at risk. See: https://blog.trailofbits.com/2020/08/05/accidentally-stepping-on-a-defi-lego/ ******* Work on gas effciencies *********** Layer 2 solutions Remove safe Math library",
    "kind": "dev",
    "methods": {},
    "version": 1
  },
  "userdoc": {
    "kind": "user",
    "methods": {
      "_updateSystemState(uint256)": {
        "notice": "Updates the value of the long and short sides within the system Note this is public. Anyone can call this function."
      },
      "getLatestPrice(uint256)": {
        "notice": "Returns the latest price"
      },
      "getLongBeta(uint256)": {
        "notice": "Returns % of long position that is filled"
      },
      "getShortBeta(uint256)": {
        "notice": "Returns % of short position that is filled zero div error if both are zero"
      },
      "mintLong(uint256,uint256)": {
        "notice": "Create a long position"
      },
      "mintShort(uint256,uint256)": {
        "notice": "Creates a short position"
      },
      "newSyntheticMarket(string,string,address,address,uint256,uint256,uint256,uint256)": {
        "notice": "MULTISIG ADMIN CREATE MARKETS //"
      }
    },
    "version": 1
  }
}