{
  "contractName": "LongShort",
  "abi": [
    {
      "anonymous": false,
      "inputs": [
        {
          "indexed": false,
          "internalType": "uint256",
          "name": "marketIndex",
          "type": "uint256"
        },
        {
          "indexed": false,
          "internalType": "uint256",
          "name": "contractCallCounter",
          "type": "uint256"
        },
        {
          "indexed": false,
          "internalType": "uint256",
          "name": "totalFees",
          "type": "uint256"
        }
      ],
      "name": "FeesLevied",
      "type": "event"
    },
    {
      "anonymous": false,
      "inputs": [
        {
          "indexed": false,
          "internalType": "uint256",
          "name": "marketIndex",
          "type": "uint256"
        },
        {
          "indexed": false,
          "internalType": "uint256",
          "name": "contractCallCounter",
          "type": "uint256"
        },
        {
          "indexed": false,
          "internalType": "uint256",
          "name": "depositAdded",
          "type": "uint256"
        },
        {
          "indexed": false,
          "internalType": "uint256",
          "name": "finalDepositAmount",
          "type": "uint256"
        },
        {
          "indexed": false,
          "internalType": "uint256",
          "name": "tokensMinted",
          "type": "uint256"
        },
        {
          "indexed": false,
          "internalType": "address",
          "name": "user",
          "type": "address"
        }
      ],
      "name": "LongMinted",
      "type": "event"
    },
    {
      "anonymous": false,
      "inputs": [
        {
          "indexed": false,
          "internalType": "uint256",
          "name": "marketIndex",
          "type": "uint256"
        },
        {
          "indexed": false,
          "internalType": "uint256",
          "name": "contractCallCounter",
          "type": "uint256"
        },
        {
          "indexed": false,
          "internalType": "uint256",
          "name": "tokensRedeemed",
          "type": "uint256"
        },
        {
          "indexed": false,
          "internalType": "uint256",
          "name": "valueOfRedemption",
          "type": "uint256"
        },
        {
          "indexed": false,
          "internalType": "uint256",
          "name": "finalRedeemValue",
          "type": "uint256"
        },
        {
          "indexed": false,
          "internalType": "address",
          "name": "user",
          "type": "address"
        }
      ],
      "name": "LongRedeem",
      "type": "event"
    },
    {
      "anonymous": false,
      "inputs": [
        {
          "indexed": false,
          "internalType": "uint256",
          "name": "marketIndex",
          "type": "uint256"
        },
        {
          "indexed": false,
          "internalType": "uint256",
          "name": "contractCallCounter",
          "type": "uint256"
        },
        {
          "indexed": false,
          "internalType": "uint256",
          "name": "oldPrice",
          "type": "uint256"
        },
        {
          "indexed": false,
          "internalType": "uint256",
          "name": "newPrice",
          "type": "uint256"
        },
        {
          "indexed": false,
          "internalType": "address",
          "name": "user",
          "type": "address"
        }
      ],
      "name": "PriceUpdate",
      "type": "event"
    },
    {
      "anonymous": false,
      "inputs": [
        {
          "indexed": false,
          "internalType": "uint256",
          "name": "marketIndex",
          "type": "uint256"
        },
        {
          "indexed": false,
          "internalType": "uint256",
          "name": "contractCallCounter",
          "type": "uint256"
        },
        {
          "indexed": false,
          "internalType": "uint256",
          "name": "depositAdded",
          "type": "uint256"
        },
        {
          "indexed": false,
          "internalType": "uint256",
          "name": "finalDepositAmount",
          "type": "uint256"
        },
        {
          "indexed": false,
          "internalType": "uint256",
          "name": "tokensMinted",
          "type": "uint256"
        },
        {
          "indexed": false,
          "internalType": "address",
          "name": "user",
          "type": "address"
        }
      ],
      "name": "ShortMinted",
      "type": "event"
    },
    {
      "anonymous": false,
      "inputs": [
        {
          "indexed": false,
          "internalType": "uint256",
          "name": "marketIndex",
          "type": "uint256"
        },
        {
          "indexed": false,
          "internalType": "uint256",
          "name": "contractCallCounter",
          "type": "uint256"
        },
        {
          "indexed": false,
          "internalType": "uint256",
          "name": "tokensRedeemed",
          "type": "uint256"
        },
        {
          "indexed": false,
          "internalType": "uint256",
          "name": "valueOfRedemption",
          "type": "uint256"
        },
        {
          "indexed": false,
          "internalType": "uint256",
          "name": "finalRedeemValue",
          "type": "uint256"
        },
        {
          "indexed": false,
          "internalType": "address",
          "name": "user",
          "type": "address"
        }
      ],
      "name": "ShortRedeem",
      "type": "event"
    },
    {
      "anonymous": false,
      "inputs": [
        {
          "indexed": false,
          "internalType": "uint256",
          "name": "marketIndex",
          "type": "uint256"
        },
        {
          "indexed": false,
          "internalType": "address",
          "name": "longTokenAddress",
          "type": "address"
        },
        {
          "indexed": false,
          "internalType": "address",
          "name": "shortTokenAddress",
          "type": "address"
        },
        {
          "indexed": false,
          "internalType": "uint256",
          "name": "assetPrice",
          "type": "uint256"
        },
        {
          "indexed": false,
          "internalType": "string",
          "name": "name",
          "type": "string"
        },
        {
          "indexed": false,
          "internalType": "string",
          "name": "symbol",
          "type": "string"
        },
        {
          "indexed": false,
          "internalType": "address",
          "name": "oracleAddress",
          "type": "address"
        },
        {
          "indexed": false,
          "internalType": "uint256",
          "name": "baseEntryFee",
          "type": "uint256"
        },
        {
          "indexed": false,
          "internalType": "uint256",
          "name": "badLiquidityEntryFee",
          "type": "uint256"
        },
        {
          "indexed": false,
          "internalType": "uint256",
          "name": "baseExitFee",
          "type": "uint256"
        },
        {
          "indexed": false,
          "internalType": "uint256",
          "name": "badLiquidityExitFee",
          "type": "uint256"
        }
      ],
      "name": "SyntheticTokenCreated",
      "type": "event"
    },
    {
      "anonymous": false,
      "inputs": [
        {
          "indexed": false,
          "internalType": "uint256",
          "name": "marketIndex",
          "type": "uint256"
        },
        {
          "indexed": false,
          "internalType": "uint256",
          "name": "contractCallCounter",
          "type": "uint256"
        },
        {
          "indexed": false,
          "internalType": "uint256",
          "name": "longTokenPrice",
          "type": "uint256"
        },
        {
          "indexed": false,
          "internalType": "uint256",
          "name": "shortTokenPrice",
          "type": "uint256"
        }
      ],
      "name": "TokenPriceRefreshed",
      "type": "event"
    },
    {
      "anonymous": false,
      "inputs": [
        {
          "indexed": false,
          "internalType": "address",
          "name": "admin",
          "type": "address"
        },
        {
          "indexed": false,
          "internalType": "address",
          "name": "tokenFactory",
          "type": "address"
        },
        {
          "indexed": false,
          "internalType": "address",
          "name": "staker",
          "type": "address"
        },
        {
          "indexed": false,
          "internalType": "address",
          "name": "oracleAgregator",
          "type": "address"
        }
      ],
      "name": "V1",
      "type": "event"
    },
    {
      "anonymous": false,
      "inputs": [
        {
          "indexed": false,
          "internalType": "uint256",
          "name": "marketIndex",
          "type": "uint256"
        },
        {
          "indexed": false,
          "internalType": "uint256",
          "name": "contractCallCounter",
          "type": "uint256"
        },
        {
          "indexed": false,
          "internalType": "uint256",
          "name": "totalValueLockedInMarket",
          "type": "uint256"
        },
        {
          "indexed": false,
          "internalType": "uint256",
          "name": "longValue",
          "type": "uint256"
        },
        {
          "indexed": false,
          "internalType": "uint256",
          "name": "shortValue",
          "type": "uint256"
        }
      ],
      "name": "ValueLockedInSystem",
      "type": "event"
    },
    {
      "inputs": [],
      "name": "TEN_TO_THE_18",
      "outputs": [
        {
          "internalType": "uint256",
          "name": "",
          "type": "uint256"
        }
      ],
      "stateMutability": "view",
      "type": "function",
      "constant": true
    },
    {
      "inputs": [],
      "name": "admin",
      "outputs": [
        {
          "internalType": "address",
          "name": "",
          "type": "address"
        }
      ],
      "stateMutability": "view",
      "type": "function",
      "constant": true
    },
    {
      "inputs": [
        {
          "internalType": "uint256",
          "name": "",
          "type": "uint256"
        }
      ],
      "name": "assetPrice",
      "outputs": [
        {
          "internalType": "uint256",
          "name": "",
          "type": "uint256"
        }
      ],
      "stateMutability": "view",
      "type": "function",
      "constant": true
    },
    {
      "inputs": [
        {
          "internalType": "uint256",
          "name": "",
          "type": "uint256"
        }
      ],
      "name": "badLiquidityEntryFee",
      "outputs": [
        {
          "internalType": "uint256",
          "name": "",
          "type": "uint256"
        }
      ],
      "stateMutability": "view",
      "type": "function",
      "constant": true
    },
    {
      "inputs": [
        {
          "internalType": "uint256",
          "name": "",
          "type": "uint256"
        }
      ],
      "name": "badLiquidityExitFee",
      "outputs": [
        {
          "internalType": "uint256",
          "name": "",
          "type": "uint256"
        }
      ],
      "stateMutability": "view",
      "type": "function",
      "constant": true
    },
    {
      "inputs": [
        {
          "internalType": "uint256",
          "name": "",
          "type": "uint256"
        }
      ],
      "name": "baseEntryFee",
      "outputs": [
        {
          "internalType": "uint256",
          "name": "",
          "type": "uint256"
        }
      ],
      "stateMutability": "view",
      "type": "function",
      "constant": true
    },
    {
      "inputs": [
        {
          "internalType": "uint256",
          "name": "",
          "type": "uint256"
        }
      ],
      "name": "baseExitFee",
      "outputs": [
        {
          "internalType": "uint256",
          "name": "",
          "type": "uint256"
        }
      ],
      "stateMutability": "view",
      "type": "function",
      "constant": true
    },
    {
      "inputs": [
        {
          "internalType": "uint256",
          "name": "",
          "type": "uint256"
        }
      ],
      "name": "externalContractCounter",
      "outputs": [
        {
          "internalType": "uint256",
          "name": "",
          "type": "uint256"
        }
      ],
      "stateMutability": "view",
      "type": "function",
      "constant": true
    },
    {
      "inputs": [],
      "name": "feeUnitsOfPrecision",
      "outputs": [
        {
          "internalType": "uint256",
          "name": "",
          "type": "uint256"
        }
      ],
      "stateMutability": "view",
      "type": "function",
      "constant": true
    },
    {
      "inputs": [
        {
          "internalType": "uint256",
          "name": "",
          "type": "uint256"
        }
      ],
      "name": "fundTokens",
      "outputs": [
        {
          "internalType": "contract IERC20Upgradeable",
          "name": "",
          "type": "address"
        }
      ],
      "stateMutability": "view",
      "type": "function",
      "constant": true
    },
    {
      "inputs": [],
      "name": "latestMarket",
      "outputs": [
        {
          "internalType": "uint256",
          "name": "",
          "type": "uint256"
        }
      ],
      "stateMutability": "view",
      "type": "function",
      "constant": true
    },
    {
      "inputs": [
        {
          "internalType": "uint256",
          "name": "",
          "type": "uint256"
        }
      ],
      "name": "longTokenPrice",
      "outputs": [
        {
          "internalType": "uint256",
          "name": "",
          "type": "uint256"
        }
      ],
      "stateMutability": "view",
      "type": "function",
      "constant": true
    },
    {
      "inputs": [
        {
          "internalType": "uint256",
          "name": "",
          "type": "uint256"
        }
      ],
      "name": "longTokens",
      "outputs": [
        {
          "internalType": "contract SyntheticToken",
          "name": "",
          "type": "address"
        }
      ],
      "stateMutability": "view",
      "type": "function",
      "constant": true
    },
    {
      "inputs": [
        {
          "internalType": "uint256",
          "name": "",
          "type": "uint256"
        }
      ],
      "name": "longValue",
      "outputs": [
        {
          "internalType": "uint256",
          "name": "",
          "type": "uint256"
        }
      ],
      "stateMutability": "view",
      "type": "function",
      "constant": true
    },
    {
      "inputs": [
        {
          "internalType": "uint256",
          "name": "",
          "type": "uint256"
        }
      ],
      "name": "marketExists",
      "outputs": [
        {
          "internalType": "bool",
          "name": "",
          "type": "bool"
        }
      ],
      "stateMutability": "view",
      "type": "function",
      "constant": true
    },
    {
      "inputs": [],
      "name": "oracleAgregator",
      "outputs": [
        {
          "internalType": "contract IOracleManager",
          "name": "",
          "type": "address"
        }
      ],
      "stateMutability": "view",
      "type": "function",
      "constant": true
    },
    {
      "inputs": [
        {
          "internalType": "uint256",
          "name": "",
          "type": "uint256"
        }
      ],
      "name": "shortTokenPrice",
      "outputs": [
        {
          "internalType": "uint256",
          "name": "",
          "type": "uint256"
        }
      ],
      "stateMutability": "view",
      "type": "function",
      "constant": true
    },
    {
      "inputs": [
        {
          "internalType": "uint256",
          "name": "",
          "type": "uint256"
        }
      ],
      "name": "shortTokens",
      "outputs": [
        {
          "internalType": "contract SyntheticToken",
          "name": "",
          "type": "address"
        }
      ],
      "stateMutability": "view",
      "type": "function",
      "constant": true
    },
    {
      "inputs": [
        {
          "internalType": "uint256",
          "name": "",
          "type": "uint256"
        }
      ],
      "name": "shortValue",
      "outputs": [
        {
          "internalType": "uint256",
          "name": "",
          "type": "uint256"
        }
      ],
      "stateMutability": "view",
      "type": "function",
      "constant": true
    },
    {
      "inputs": [],
      "name": "staker",
      "outputs": [
        {
          "internalType": "contract Staker",
          "name": "",
          "type": "address"
        }
      ],
      "stateMutability": "view",
      "type": "function",
      "constant": true
    },
    {
      "inputs": [],
      "name": "tokenFactory",
      "outputs": [
        {
          "internalType": "contract TokenFactory",
          "name": "",
          "type": "address"
        }
      ],
      "stateMutability": "view",
      "type": "function",
      "constant": true
    },
    {
      "inputs": [
        {
          "internalType": "uint256",
          "name": "",
          "type": "uint256"
        }
      ],
      "name": "totalValueLockedInDao",
      "outputs": [
        {
          "internalType": "uint256",
          "name": "",
          "type": "uint256"
        }
      ],
      "stateMutability": "view",
      "type": "function",
      "constant": true
    },
    {
      "inputs": [
        {
          "internalType": "uint256",
          "name": "",
          "type": "uint256"
        }
      ],
      "name": "totalValueLockedInMarket",
      "outputs": [
        {
          "internalType": "uint256",
          "name": "",
          "type": "uint256"
        }
      ],
      "stateMutability": "view",
      "type": "function",
      "constant": true
    },
    {
      "inputs": [
        {
          "internalType": "uint256",
          "name": "",
          "type": "uint256"
        }
      ],
      "name": "totalValueLockedInYieldManager",
      "outputs": [
        {
          "internalType": "uint256",
          "name": "",
          "type": "uint256"
        }
      ],
      "stateMutability": "view",
      "type": "function",
      "constant": true
    },
    {
      "inputs": [
        {
          "internalType": "uint256",
          "name": "",
          "type": "uint256"
        }
      ],
      "name": "yieldManagers",
      "outputs": [
        {
          "internalType": "contract IYieldManager",
          "name": "",
          "type": "address"
        }
      ],
      "stateMutability": "view",
      "type": "function",
      "constant": true
    },
    {
      "inputs": [
        {
          "internalType": "address",
          "name": "_admin",
          "type": "address"
        },
        {
          "internalType": "address",
          "name": "_tokenFactory",
          "type": "address"
        },
        {
          "internalType": "address",
          "name": "_staker",
          "type": "address"
        },
        {
          "internalType": "address",
          "name": "_oracleAgregator",
          "type": "address"
        }
      ],
      "name": "setup",
      "outputs": [],
      "stateMutability": "nonpayable",
      "type": "function"
    },
    {
      "inputs": [
        {
          "internalType": "string",
          "name": "syntheticName",
          "type": "string"
        },
        {
          "internalType": "string",
          "name": "syntheticSymbol",
          "type": "string"
        },
        {
          "internalType": "address",
          "name": "_fundToken",
          "type": "address"
        },
        {
          "internalType": "address",
          "name": "_oracleFeed",
          "type": "address"
        },
        {
          "internalType": "address",
          "name": "_yieldManager",
          "type": "address"
        },
        {
          "internalType": "uint256",
          "name": "_baseEntryFee",
          "type": "uint256"
        },
        {
          "internalType": "uint256",
          "name": "_badLiquidityEntryFee",
          "type": "uint256"
        },
        {
          "internalType": "uint256",
          "name": "_baseExitFee",
          "type": "uint256"
        },
        {
          "internalType": "uint256",
          "name": "_badLiquidityExitFee",
          "type": "uint256"
        }
      ],
      "name": "newSyntheticMarket",
      "outputs": [],
      "stateMutability": "nonpayable",
      "type": "function"
    },
    {
      "inputs": [
        {
          "internalType": "uint256",
          "name": "marketIndex",
          "type": "uint256"
        }
      ],
      "name": "getLatestPrice",
      "outputs": [
        {
          "internalType": "int256",
          "name": "",
          "type": "int256"
        }
      ],
      "stateMutability": "view",
      "type": "function",
      "constant": true
    },
    {
      "inputs": [
        {
          "internalType": "uint256",
          "name": "marketIndex",
          "type": "uint256"
        }
      ],
      "name": "getLiquidFunds",
      "outputs": [
        {
          "internalType": "uint256",
          "name": "",
          "type": "uint256"
        }
      ],
      "stateMutability": "view",
      "type": "function",
      "constant": true
    },
    {
      "inputs": [
        {
          "internalType": "uint256",
          "name": "marketIndex",
          "type": "uint256"
        }
      ],
      "name": "getLongBeta",
      "outputs": [
        {
          "internalType": "uint256",
          "name": "",
          "type": "uint256"
        }
      ],
      "stateMutability": "view",
      "type": "function",
      "constant": true
    },
    {
      "inputs": [
        {
          "internalType": "uint256",
          "name": "marketIndex",
          "type": "uint256"
        }
      ],
      "name": "getShortBeta",
      "outputs": [
        {
          "internalType": "uint256",
          "name": "",
          "type": "uint256"
        }
      ],
      "stateMutability": "view",
      "type": "function",
      "constant": true
    },
    {
      "inputs": [
        {
          "internalType": "uint256",
          "name": "marketIndex",
          "type": "uint256"
        },
        {
          "internalType": "uint256",
          "name": "amount",
          "type": "uint256"
        }
      ],
      "name": "getYieldSplit",
      "outputs": [
        {
          "internalType": "uint256",
          "name": "marketAmount",
          "type": "uint256"
        },
        {
          "internalType": "uint256",
          "name": "daoAmount",
          "type": "uint256"
        }
      ],
      "stateMutability": "view",
      "type": "function",
      "constant": true
    },
    {
      "inputs": [
        {
          "internalType": "uint256",
          "name": "marketIndex",
          "type": "uint256"
        }
      ],
      "name": "_updateSystemState",
      "outputs": [],
      "stateMutability": "nonpayable",
      "type": "function"
    },
    {
      "inputs": [
        {
          "internalType": "uint256",
          "name": "marketIndex",
          "type": "uint256"
        },
        {
          "internalType": "uint256",
          "name": "amount",
          "type": "uint256"
        }
      ],
      "name": "mintLong",
      "outputs": [],
      "stateMutability": "nonpayable",
      "type": "function"
    },
    {
      "inputs": [
        {
          "internalType": "uint256",
          "name": "marketIndex",
          "type": "uint256"
        },
        {
          "internalType": "uint256",
          "name": "amount",
          "type": "uint256"
        }
      ],
      "name": "mintShort",
      "outputs": [],
      "stateMutability": "nonpayable",
      "type": "function"
    },
    {
      "inputs": [
        {
          "internalType": "uint256",
          "name": "marketIndex",
          "type": "uint256"
        },
        {
          "internalType": "uint256",
          "name": "amount",
          "type": "uint256"
        }
      ],
      "name": "mintLongAndStake",
      "outputs": [],
      "stateMutability": "nonpayable",
      "type": "function"
    },
    {
      "inputs": [
        {
          "internalType": "uint256",
          "name": "marketIndex",
          "type": "uint256"
        },
        {
          "internalType": "uint256",
          "name": "amount",
          "type": "uint256"
        }
      ],
      "name": "mintShortAndStake",
      "outputs": [],
      "stateMutability": "nonpayable",
      "type": "function"
    },
    {
      "inputs": [
        {
          "internalType": "uint256",
          "name": "marketIndex",
          "type": "uint256"
        },
        {
          "internalType": "uint256",
          "name": "tokensToRedeem",
          "type": "uint256"
        }
      ],
      "name": "redeemLong",
      "outputs": [],
      "stateMutability": "nonpayable",
      "type": "function"
    },
    {
      "inputs": [
        {
          "internalType": "uint256",
          "name": "marketIndex",
          "type": "uint256"
        },
        {
          "internalType": "uint256",
          "name": "tokensToRedeem",
          "type": "uint256"
        }
      ],
      "name": "redeemShort",
      "outputs": [],
      "stateMutability": "nonpayable",
      "type": "function"
    }
  ],
  "bytecode": "0x608060405234801561001057600080fd5b50612c2c806100206000396000f3fe608060405234801561001057600080fd5b506004361061023d5760003560e01c8063896c0c051161013b578063d3ce7982116100b8578063ea9380ed1161007c578063ea9380ed1461071e578063ec69a65414610726578063f45a719214610757578063f851a44014610774578063fff1939c1461077c5761023d565b8063d3ce7982146106a2578063e40944b3146106bf578063e54cdfe2146106dc578063e77772fe146106f9578063e95c17db146107015761023d565b8063a80b2457116100ff578063a80b24571461061a578063b94fe9171461063d578063c2b9a2e11461065a578063d206ff1c1461067d578063d2d2ef761461069a5761023d565b8063896c0c05146105835780638e5dfc1e146105a0578063983ccdff146105bd578063a104438f146105da578063a668199f146105fd5761023d565b80634b2fc91a116101c95780635ebaf1db1161018d5780635ebaf1db14610510578063608bbd4914610518578063636190c81461053b57806384ba3c041461054357806387d32497146105605761023d565b80634b2fc91a1461043f5780634b7d5ead1461047b57806354c35a3c146104985780635ad6c71d146104d65780635d02eab3146104f35761023d565b80632cbf458d116102105780632cbf458d146102e45780633425d363146102ec5780633498cd491461031157806338717b061461032e5780633d7d0706146104225761023d565b8063076c1e9414610242578063143c70d0146102715780631bfd19f81461028e5780632237d35c146102ab575b600080fd5b61025f6004803603602081101561025857600080fd5b5035610799565b60408051918252519081900360200190f35b61025f6004803603602081101561028757600080fd5b50356107ab565b61025f600480360360208110156102a457600080fd5b50356107bd565b6102c8600480360360208110156102c157600080fd5b50356107cf565b604080516001600160a01b039092168252519081900360200190f35b61025f6107ea565b61030f6004803603604081101561030257600080fd5b50803590602001356107f0565b005b6102c86004803603602081101561032757600080fd5b5035610898565b61030f600480360361012081101561034557600080fd5b81019060208101813564010000000081111561036057600080fd5b82018360208201111561037257600080fd5b8035906020019184600183028401116401000000008311171561039457600080fd5b9193909290916020810190356401000000008111156103b257600080fd5b8201836020820111156103c457600080fd5b803590602001918460018302840111640100000000831117156103e657600080fd5b91935091506001600160a01b03813581169160208101358216916040820135169060608101359060808101359060a08101359060c001356108b3565b61030f6004803603602081101561043857600080fd5b5035610e6b565b6104626004803603604081101561045557600080fd5b508035906020013561114d565b6040805192835260208301919091528051918290030190f35b61025f6004803603602081101561049157600080fd5b503561122d565b61030f600480360360808110156104ae57600080fd5b506001600160a01b03813581169160208101358216916040820135811691606001351661123f565b61025f600480360360208110156104ec57600080fd5b503561138d565b61025f6004803603602081101561050957600080fd5b503561139f565b6102c86113b1565b61030f6004803603604081101561052e57600080fd5b50803590602001356113c0565b61025f6113d6565b61025f6004803603602081101561055957600080fd5b50356113dc565b61030f6004803603604081101561057657600080fd5b5080359060200135611444565b61025f6004803603602081101561059957600080fd5b503561161f565b6102c8600480360360208110156105b657600080fd5b5035611631565b61025f600480360360208110156105d357600080fd5b503561164c565b61030f600480360360408110156105f057600080fd5b508035906020013561165e565b61025f6004803603602081101561061357600080fd5b5035611838565b61030f6004803603604081101561063057600080fd5b508035906020013561184a565b61025f6004803603602081101561065357600080fd5b50356118d5565b61030f6004803603604081101561067057600080fd5b5080359060200135611953565b61025f6004803603602081101561069357600080fd5b5035611969565b61025f61197b565b61025f600480360360208110156106b857600080fd5b5035611987565b61025f600480360360208110156106d557600080fd5b50356119be565b61025f600480360360208110156106f257600080fd5b5035611a1e565b6102c8611a30565b61025f6004803603602081101561071757600080fd5b5035611a3f565b6102c8611a51565b6107436004803603602081101561073c57600080fd5b5035611a60565b604080519115158252519081900360200190f35b61025f6004803603602081101561076d57600080fd5b5035611a75565b6102c8611a87565b6102c86004803603602081101561079257600080fd5b5035611a9c565b60076020526000908152604090205481565b60066020526000908152604090205481565b600d6020526000908152604090205481565b6012602052600090815260409020546001600160a01b031681565b61271081565b816107fa81610e6b565b600454610815908490849033906001600160a01b0316611ab7565b6004805460008581526011602052604080822054815163796a7ae960e11b81526001600160a01b039182169581019590955260248501879052336044860152905192169263f2d4f5d2926064808301939282900301818387803b15801561087b57600080fd5b505af115801561088f573d6000803e3d6000fd5b50505050505050565b6011602052600090815260409020546001600160a01b031681565b6000546201000090046001600160a01b031633146108d057600080fd5b6001805481018082556000908152600260209081526040808320805460ff1916851790558354835260138252808320889055835483526015825280832086905583548352601482528083208790558354835260169091528082208490556005549254815163308cf4cb60e21b815260048101919091526001600160a01b038a811660248301529151919093169263c233d32c92604480830193919282900301818387803b15801561098057600080fd5b505af1158015610994573d6000803e3d6000fd5b50505050600360009054906101000a90046001600160a01b03166001600160a01b0316632d46e4028c8c8c8c6001546040518663ffffffff1660e01b81526004018080602001806020018481526020018381038352888882818152602001925080828437600083820152601f01601f191690910184810383528681526020019050868680828437600081840152601f19601f820116905080830192505050975050505050505050602060405180830381600087803b158015610a5557600080fd5b505af1158015610a69573d6000803e3d6000fd5b505050506040513d6020811015610a7f57600080fd5b5051600180546000908152601160205260409081902080546001600160a01b0319166001600160a01b039485161790556003549154905163d5af62e160e01b815260448101829052606060048201908152606482018f9052929093169263d5af62e1928f928f928f928f929181906024810190608401888880828437600083820152601f01601f191690910184810383528681526020019050868680828437600081840152601f19601f820116905080830192505050975050505050505050602060405180830381600087803b158015610b5857600080fd5b505af1158015610b6c573d6000803e3d6000fd5b505050506040513d6020811015610b8257600080fd5b505160018054600090815260126020908152604080832080546001600160a01b0319166001600160a01b039096169590951790945582548252600c8152838220670de0b6b3a76400009081905583548352600d9091529290209190915554610be9906118d5565b600b600060015481526020019081526020016000208190555086600f6000600154815260200190815260200160002060006101000a8154816001600160a01b0302191690836001600160a01b031602179055508460106000600154815260200190815260200160002060006101000a8154816001600160a01b0302191690836001600160a01b031602179055507faa31e2e39807926e3ca439f72b8a8bac06d497a871931aeb98e282d0eb034acf60015460116000600154815260200190815260200160002060009054906101000a90046001600160a01b031660126000600154815260200190815260200160002060009054906101000a90046001600160a01b0316600b60006001548152602001908152602001600020548f8f8f8f8e8d8d8d8d604051808e81526020018d6001600160a01b031681526020018c6001600160a01b031681526020018b81526020018060200180602001886001600160a01b0316815260200187815260200186815260200185815260200184815260200183810383528c8c82818152602001925080828437600083820152601f01601f191690910184810383528a815260200190508a8a80828437600081840152601f19601f8201169050808301925050509f5050505050505050505050505050505060405180910390a16004805460015460008181526011602090815260408083205460129092528083205481516303eacab560e61b8152968701949094526001600160a01b03918216602487015292811660448601529151919092169263fab2ad4092606480830193919282900301818387803b158015610e4657600080fd5b505af1158015610e5a573d6000803e3d6000fd5b505050505050505050505050505050565b600081815260026020526040902054819060ff16610e8857600080fd5b81333014610ea6576000818152600e60205260409020805460010190555b600480546000858152601160209081526040808320546012835281842054600c845282852054600d85528386205460068652848720546007909652848720548551635512039360e11b81526001600160a01b039586169a81019a909a5292841660248a015260448901919091526064880152608487019390935260a48601929092525192169263aa2407269260c4808301939282900301818387803b158015610f4e57600080fd5b505af1158015610f62573d6000803e3d6000fd5b5050506000848152600660205260409020541590508015610f8f5750600083815260076020526040902054155b15610f9957611148565b6000610fa4846118d5565b6000858152600e6020908152604080832054600b83529281902054815189815292830193909352818101929092526060810183905233608082015290519192507f79fb6848e7674bc7f6dccc10751e59abb112a43e0cadc715fa9d89f341c942dc919081900360a00190a160008481526006602052604090205415801590611039575060008481526007602052604090205415155b15611048576110488482611c8c565b61105184611f46565b61105a8461208d565b6000848152600b60209081526040808320849055600e8252808320546008835281842054600684528285205460078552948390205483518a81529485019290925283830152606083019390935260808201929092529051600080516020612bb68339815191529181900360a00190a1600084815260086020908152604080832054600783528184205460069093529220546110f49161226c565b14611146576040805162461bcd60e51b815260206004820152601960248201527f546f74616c206c6f636b656420696e636f6e73697374656e7400000000000000604482015290519081900360640190fd5b505b505050565b60008281526007602090815260408083205460069092528220548291829111156111bd57600085815260086020908152604080832054600783528184205460069093529220546111b692916111b091612710916111aa91906122cf565b9061232c565b90612385565b90506111f9565b600085815260086020908152604080832054600683528184205460079093529220546111f692916111b091612710916111aa91906122cf565b90505b6112096127106111b0838761232c565b925061121584846122cf565b9150818301841461122557600080fd5b509250929050565b60096020526000908152604090205481565b600054610100900460ff168061125857506112586123ec565b80611266575060005460ff16155b6112a15760405162461bcd60e51b815260040180806020018281038252602e815260200180612b88602e913960400191505060405180910390fd5b600054610100900460ff161580156112cc576000805460ff1961ff0019909116610100171660011790555b600080546001600160a01b0380881662010000810262010000600160b01b031990931692909217909255600380548784166001600160a01b031991821681179092556004805488861690831681179091556005805495881695909216851790915560408051938452602084019290925282820152606082019290925290517fa9f3221832df6af126767c0e7fe3b550b0a97a07ed205459eefd4bbe29158b719181900360800190a18015611386576000805461ff00191690555b5050505050565b60146020526000908152604090205481565b600a6020526000908152604090205481565b6004546001600160a01b031681565b816113ca81610e6b565b611148838333336123fd565b60015481565b60008181526007602090815260408083205460069092528220541061140a5750670de0b6b3a764000061143f565b60008281526007602090815260408083205460069092529091205461143c91906111b090670de0b6b3a764000061232c565b90505b919050565b8161144e81610e6b565b60008381526011602052604080822054815163079cc67960e41b81523360048201526024810186905291516001600160a01b03909116926379cc6790926044808201939182900301818387803b1580156114a757600080fd5b505af11580156114bb573d6000803e3d6000fd5b5050506000848152600c60205260408120549091506114e990670de0b6b3a7640000906111b090869061232c565b905060006114fb8583600060016125d3565b9050600061150983836122cf565b90506115158683612687565b60008681526006602052604090205461152e90846122cf565b6000878152600660205260409020556115478682612742565b6115508661208d565b6000868152600e60209081526040918290205482518981529182015280820187905260608101859052608081018390523360a082015290517f0ff7f63b14327882049ca86ccf90d5556c1ae229b18a460af7f119a1ce3b97cb9181900360c00190a16000868152600e60209081526040808320546008835281842054600684528285205460078552948390205483518c81529485019290925283830152606083019390935260808201929092529051600080516020612bb68339815191529181900360a00190a1505050505050565b60166020526000908152604090205481565b6010602052600090815260409020546001600160a01b031681565b60086020526000908152604090205481565b8161166881610e6b565b60008381526012602052604080822054815163079cc67960e41b81523360048201526024810186905291516001600160a01b03909116926379cc6790926044808201939182900301818387803b1580156116c157600080fd5b505af11580156116d5573d6000803e3d6000fd5b5050506000848152600d602052604081205490915061170390670de0b6b3a7640000906111b090869061232c565b9050600061171485836000806125d3565b9050600061172283836122cf565b905061172e8683612687565b60008681526007602052604090205461174790846122cf565b6000878152600760205260409020556117608682612742565b6117698661208d565b6000868152600e60209081526040918290205482518981529182015280820187905260608101859052608081018390523360a082015290517f600c89bdd3fd6a17535cf96a7a531c2342557630dea9d38cf8fb2ea72887b6f29181900360c00190a16000868152600e60209081526040808320546008835281842054600684528285205460078552948390205483518c81529485019290925283830152606083019390935260808201929092529051600080516020612bb68339815191529181900360a00190a1505050505050565b600c6020526000908152604090205481565b8161185481610e6b565b60045461186f908490849033906001600160a01b03166123fd565b6004805460008581526012602052604080822054815163796a7ae960e11b81526001600160a01b039182169581019590955260248501879052336044860152905192169263f2d4f5d2926064808301939282900301818387803b15801561087b57600080fd5b6005546040805163b94fe91760e01b81526004810184905290516000926001600160a01b03169163b94fe917916024808301926020929190829003018186803b15801561192157600080fd5b505afa158015611935573d6000803e3d6000fd5b505050506040513d602081101561194b57600080fd5b505192915050565b8161195d81610e6b565b61114883833333611ab7565b600b6020526000908152604090205481565b670de0b6b3a764000081565b600081815260096020908152604080832054600a83528184205460089093529083205461143c926119b8919061226c565b906122cf565b6000818152600660209081526040808320546007909252822054106119ec5750670de0b6b3a764000061143f565b60008281526006602090815260408083205460079092529091205461143c91906111b090670de0b6b3a764000061232c565b60156020526000908152604090205481565b6003546001600160a01b031681565b600e6020526000908152604090205481565b6005546001600160a01b031681565b60026020526000908152604090205460ff1681565b60136020526000908152604090205481565b6000546201000090046001600160a01b031681565b600f602052600090815260409020546001600160a01b031681565b611ac18484612839565b6000611ad085856001806125d3565b90506000611ade85836122cf565b9050611aea8683612687565b611af38661208d565b6000868152600c6020526040812054611b18906111b084670de0b6b3a764000061232c565b6000888152601160205260408082205481516340c10f1960e01b81526001600160a01b0389811660048301526024820186905292519495509116926340c10f199260448084019391929182900301818387803b158015611b7757600080fd5b505af1158015611b8b573d6000803e3d6000fd5b505050600088815260066020526040902054611ba891508361226c565b600088815260066020908152604080832093909355600e8152908290205482518a81529182015280820188905260608101849052608081018390526001600160a01b03871660a082015290517f62dfea882042aff33d46c5863b7dcce89776289b112b277c886cb51a186dbafc9181900360c00190a16000878152600e60209081526040808320546008835281842054600684528285205460078552948390205483518d81529485019290925283830152606083019390935260808201929092529051600080516020612bb68339815191529181900360a00190a150505050505050565b6000828152600b6020526040902054811415611ca757611f42565b6000828152600b60205260408120548190831115611e02576000848152600b6020526040902054611ce8906111b0670de0b6b3a76400006111aa87846122cf565b9150670de0b6b3a76400008210611d3f57600084815260076020908152604080832054600690925290912054611d1d9161226c565b6000858152600660209081526040808320939093556007905290812055611dfd565b670de0b6b3a7640000611d51856113dc565b1415611d8557600084815260076020526040902054611d7e90670de0b6b3a7640000906111b0908561232c565b9050611daf565b600084815260066020526040902054611dac90670de0b6b3a7640000906111b0908561232c565b90505b600084815260066020526040902054611dc8908261226c565b600085815260066020908152604080832093909355600790522054611ded90826122cf565b6000858152600760205260409020555b611146565b6000848152600b6020526040902054611e2b906111b0670de0b6b3a76400006111aa83886122cf565b9150670de0b6b3a76400008210611e8257600084815260066020908152604080832054600790925290912054611e609161226c565b6000858152600760209081526040808320939093556006905290812055611146565b670de0b6b3a7640000611e94856113dc565b1415611ec857600084815260076020526040902054611ec190670de0b6b3a7640000906111b0908561232c565b9050611ef2565b600084815260066020526040902054611eef90670de0b6b3a7640000906111b0908561232c565b90505b600084815260066020526040902054611f0b90826122cf565b600085815260066020908152604080832093909355600790522054611f30908261226c565b60008581526007602052604090205550505b5050565b60008181526009602090815260408083205460108352818420548251638fb9801760e01b81529251611fd49492936001600160a01b0390921692638fb98017926004808201939182900301818987803b158015611fa257600080fd5b505af1158015611fb6573d6000803e3d6000fd5b505050506040513d6020811015611fcc57600080fd5b5051906122cf565b9050600080611fe3848461114d565b600086815260096020908152604080832080548901905560088252808320805486019055600a90915281208054830190559193509150612024836002612385565b9050600061203284836122cf565b60008781526006602052604090205490915061204e908361226c565b600087815260066020908152604080832093909355600790522054612073908261226c565b600096875260076020526040909620959095555050505050565b60008181526011602090815260408083205481516318160ddd60e01b815291516001600160a01b03909116926318160ddd9260048082019391829003018186803b1580156120da57600080fd5b505afa1580156120ee573d6000803e3d6000fd5b505050506040513d602081101561210457600080fd5b505190508015612145576000828152600660205260409020546121359082906111b090670de0b6b3a764000061232c565b6000838152600c60205260409020555b60008281526012602090815260408083205481516318160ddd60e01b815291516001600160a01b03909116926318160ddd9260048082019391829003018186803b15801561219257600080fd5b505afa1580156121a6573d6000803e3d6000fd5b505050506040513d60208110156121bc57600080fd5b5051905080156121fd576000838152600760205260409020546121ed9082906111b090670de0b6b3a764000061232c565b6000848152600d60205260409020555b6000838152600e6020908152604080832054600c835281842054600d8452938290205482518881529384019190915282820193909352606082019290925290517ff5a0d32fb0a11ce8c5cbc41ba0fbff5c11cf5a38f1d250b09a0604ecd7baeddb9181900360800190a1505050565b6000828201838110156122c6576040805162461bcd60e51b815260206004820152601b60248201527f536166654d6174683a206164646974696f6e206f766572666c6f770000000000604482015290519081900360640190fd5b90505b92915050565b600082821115612326576040805162461bcd60e51b815260206004820152601e60248201527f536166654d6174683a207375627472616374696f6e206f766572666c6f770000604482015290519081900360640190fd5b50900390565b60008261233b575060006122c9565b8282028284828161234857fe5b04146122c65760405162461bcd60e51b8152600401808060200182810382526021815260200180612bd66021913960400191505060405180910390fd5b60008082116123db576040805162461bcd60e51b815260206004820152601a60248201527f536166654d6174683a206469766973696f6e206279207a65726f000000000000604482015290519081900360640190fd5b8183816123e457fe5b049392505050565b60006123f7306128fc565b15905090565b6124078484612839565b60006124178585600160006125d3565b9050600061242585836122cf565b90506124318683612687565b61243a8661208d565b6000868152600d602052604081205461245f906111b084670de0b6b3a764000061232c565b6000888152601260205260408082205481516340c10f1960e01b81526001600160a01b0389811660048301526024820186905292519495509116926340c10f199260448084019391929182900301818387803b1580156124be57600080fd5b505af11580156124d2573d6000803e3d6000fd5b5050506000888152600760205260409020546124ef91508361226c565b600088815260076020908152604080832093909355600e8152908290205482518a81529182015280820188905260608101849052608081018390526001600160a01b03871660a082015290517f68904ace1024130cf0b954daa8ba8ea241b63f38cab13588eb3c534de1a487469181900360c00190a16000878152600e60209081526040808320546008835281842054600684528285205460078552948390205483518d81529485019290925283830152606083019390935260808201929092529051600080516020612bb68339815191529181900360a00190a150505050505050565b60008481526006602090815260408083205460079092528220548480156126005750811580612600575080155b1561261b576126128787600088612902565b9250505061267f565b600085151585151514801561263d57838311156126385783830391505b61264b565b8284111561264b5782840391505b87821061266a5761265f898960008a612902565b94505050505061267f565b61265f898961267981866122cf565b8a612902565b949350505050565b6000612694826002612385565b905060006126a283836122cf565b6000858152600660205260409020549091506126be908361226c565b6000858152600660209081526040808320939093556007905220546126e3908261226c565b600085815260076020908152604080832093909355600e8152908290205482518781529182015280820185905290517f3d8c223aec0df0c88c5489277b48159462e896649c6ab16501ee8f86845845039181900360600190a150505050565b60008281526008602052604090205481111561275d57600080fd5b600061276883611987565b90508181101561277e5761277e8382840361298b565b6000838152600f6020908152604080832054815163a9059cbb60e01b81523360048201526024810187905291516001600160a01b039091169363a9059cbb93604480850194919392918390030190829087803b1580156127dd57600080fd5b505af11580156127f1573d6000803e3d6000fd5b505050506040513d602081101561280757600080fd5b505060008381526008602052604090205461282290836122cf565b600093845260086020526040909320929092555050565b6000828152600f602090815260408083205481516323b872dd60e01b81523360048201523060248201526044810186905291516001600160a01b03909116936323b872dd93606480850194919392918390030190829087803b15801561289e57600080fd5b505af11580156128b2573d6000803e3d6000fd5b505050506040513d60208110156128c857600080fd5b50506000828152600860205260409020546128e3908261226c565b600083815260086020526040902055611f428282612a4d565b3b151590565b60008080831561292e57505060008581526013602090815260408083205460149092529091205461294c565b50506000858152601560209081526040808320546016909252909120545b600061295e6127106111b0898661232c565b905060006129726127106111b0898661232c565b905061297e828261226c565b9998505050505050505050565b6000828152600960205260409020548111156129a657600080fd5b60008281526010602052604080822054815163285d531160e11b81526004810185905291516001600160a01b03909116926350baa622926024808201939182900301818387803b1580156129f957600080fd5b505af1158015612a0d573d6000803e3d6000fd5b5050506000838152600960208181526040808420805487900390819055600a835281852054600884529190942054929091520110159050611f4257600080fd5b6000828152600f60209081526040808320546010835281842054825163095ea7b360e01b81526001600160a01b03918216600482015260248101879052925191169363095ea7b393604480850194919392918390030190829087803b158015612ab557600080fd5b505af1158015612ac9573d6000803e3d6000fd5b505050506040513d6020811015612adf57600080fd5b5050600082815260106020526040808220548151636215be7760e01b81526004810185905291516001600160a01b0390911692636215be77926024808201939182900301818387803b158015612b3457600080fd5b505af1158015612b48573d6000803e3d6000fd5b50505060008381526009602081815260408084208054870190819055600a835281852054600884529190942054929091520110159050611f4257600080fdfe496e697469616c697a61626c653a20636f6e747261637420697320616c726561647920696e697469616c697a656479ebcec14f04f4d0413d471c8a42adb8217d9a407decd6be7387bc7625d8cad4536166654d6174683a206d756c7469706c69636174696f6e206f766572666c6f77a2646970667358221220f671dfc46b1d7091a4e226c6fcdcaf68f9244cbdd2778f81aa786d14183d026964736f6c63430007060033",
  "immutableReferences": {},
  "source": "//SPDX-License-Identifier: Unlicense\npragma solidity 0.7.6;\n\nimport \"hardhat/console.sol\";\nimport \"@openzeppelin/contracts-upgradeable/math/SafeMathUpgradeable.sol\";\nimport \"@openzeppelin/contracts-upgradeable/proxy/Initializable.sol\";\nimport \"@chainlink/contracts/src/v0.6/interfaces/AggregatorV3Interface.sol\";\n\nimport \"./SyntheticToken.sol\";\nimport \"./TokenFactory.sol\";\nimport \"./Staker.sol\";\nimport \"./interfaces/IYieldManager.sol\";\nimport \"./interfaces/IOracleManager.sol\";\nimport \"./interfaces/ILongShort.sol\";\n\n/**\n * @dev {LongShort} contract, including:\n *\n *  - Ability for users to create synthetic long and short positions on value movements\n *  - Value movements could be derived from tradional or alternative asset classes, derivates, binary outcomes, etc...\n *  - Incentive mechansim providing fees to liquidity makers (users on both sides of order book)\n *\n * ******* SYSTEM FUNCTIONING V0.0 ***********\n * System accepts stable coin (DAI) and has a total locked value = short position value + long position value\n * If percentage movement as calculated from oracle is +10%, and short position value == long position value,\n * Then value change = long position value * 10%\n * long position value = long position value + value change\n * short position value = short position value - value change\n * Total contract value remains unchanged.\n * long value has increased and each longtoken is now worth more as underlying pool value has increased.\n *\n * Tokens representing a shares in the short or long token pool can be minted\n * at price (short position value) / (total short token value)\n * or conversely burned to redeem the underlying share of the pool calculated\n * as (short position value) / (total short token value) per token\n *\n * Depending on demand of minting and burning for underlying on both sides (long/short of contract),\n * most often short position value != long position value (there will be an imbalance)\n * Imbalances also naturally occur as the contract adjusts these values after observing oracle value changes\n * Incentives exist to best incentivize contract balance.\n *\n * Mechanism 1 - interest accural imbalance.\n * The entire total locked value accrues interest and distributes it 50/50 even if imbalance exists.\n * I.e. Short side supplys $50 capital. Long side supply $150. Short side effectively earns interest on $100.\n * Enhanced yield exists for sides taking on the position with less demand.\n *\n * Mechanism 2 - liquidity fees earned.\n * The side which is shorter on liquidity will receive fees strengthening their value\n * Whenever liquidity is added to the opposing side or withdrawn from their side (i.e. when the imbalance increases)\n *\n * ******* KNOWN ATTACK VECTORS ***********\n * (1) Feeless withdrawl:\n * [FIXED]\n * Long position $150, Short position $100. User should pay fee to remove short liquidity.\n * Step1: User mints $51 of short position (No fee to add liquidity).\n * Step2: User redeems $100 of short position (no fee as currently removing liquidity from bigger side)\n * Possible solution, check after deposit/withdrawl if order book has flipped, then apply fees.\n *\n * (2) FlashLoan mint:\n * [ONGOING]\n * Consider rapid large entries and exit of the system.\n *\n * (3) Oracle manipulation:\n * [ONGOING]\n * If the oracle determining price change can be easy manipulated (and by a decent magnitude),\n * Funds could be at risk. See: https://blog.trailofbits.com/2020/08/05/accidentally-stepping-on-a-defi-lego/\n *\n * ******* Work on gas effciencies ***********\n * Layer 2 solutions\n * Remove safe Math library\n */\ncontract LongShort is ILongShort, Initializable {\n    using SafeMathUpgradeable for uint256;\n\n    ////////////////////////////////////\n    //////// VARIABLES /////////////////\n    ////////////////////////////////////\n\n    // Global state.\n    address public admin; // This will likely be the Gnosis safe\n    uint256 public latestMarket;\n    mapping(uint256 => bool) public marketExists;\n\n    // Factory for dynamically creating synthetic long/short tokens.\n    TokenFactory public tokenFactory;\n\n    // Staker for controlling governance token issuance.\n    Staker public staker;\n\n    // Oracle for pulling underlying price data.\n    IOracleManager public oracleAgregator;\n\n    // Fixed-precision constants.\n    uint256 public constant TEN_TO_THE_18 = 10**18;\n    uint256 public constant feeUnitsOfPrecision = 10000;\n\n    // Market state.\n    mapping(uint256 => uint256) public longValue;\n    mapping(uint256 => uint256) public shortValue;\n    mapping(uint256 => uint256) public totalValueLockedInMarket;\n    mapping(uint256 => uint256) public totalValueLockedInYieldManager;\n    mapping(uint256 => uint256) public totalValueLockedInDao;\n    mapping(uint256 => uint256) public assetPrice;\n    mapping(uint256 => uint256) public longTokenPrice;\n    mapping(uint256 => uint256) public shortTokenPrice;\n    mapping(uint256 => uint256) public externalContractCounter;\n    mapping(uint256 => IERC20Upgradeable) public fundTokens;\n    mapping(uint256 => IYieldManager) public yieldManagers;\n\n    // Synthetic long/short tokens users can mint and redeem.\n    mapping(uint256 => SyntheticToken) public longTokens;\n    mapping(uint256 => SyntheticToken) public shortTokens;\n\n    // Fees for minting/redeeming long/short tokens. Users are penalised\n    // with extra fees for imbalancing the market.\n    mapping(uint256 => uint256) public baseEntryFee;\n    mapping(uint256 => uint256) public badLiquidityEntryFee;\n    mapping(uint256 => uint256) public baseExitFee;\n    mapping(uint256 => uint256) public badLiquidityExitFee;\n\n    ////////////////////////////////////\n    /////////// EVENTS /////////////////\n    ////////////////////////////////////\n\n    event V1(\n        address admin,\n        address tokenFactory,\n        address staker,\n        address oracleAgregator\n    );\n\n    event ValueLockedInSystem(\n        uint256 marketIndex,\n        uint256 contractCallCounter,\n        uint256 totalValueLockedInMarket,\n        uint256 longValue,\n        uint256 shortValue\n    );\n\n    event TokenPriceRefreshed(\n        uint256 marketIndex,\n        uint256 contractCallCounter,\n        uint256 longTokenPrice,\n        uint256 shortTokenPrice\n    );\n\n    event FeesLevied(\n        uint256 marketIndex,\n        uint256 contractCallCounter,\n        uint256 totalFees\n    );\n\n    event SyntheticTokenCreated(\n        uint256 marketIndex,\n        address longTokenAddress,\n        address shortTokenAddress,\n        uint256 assetPrice,\n        string name,\n        string symbol,\n        address oracleAddress,\n        uint256 baseEntryFee,\n        uint256 badLiquidityEntryFee,\n        uint256 baseExitFee,\n        uint256 badLiquidityExitFee\n    );\n\n    event PriceUpdate(\n        uint256 marketIndex,\n        uint256 contractCallCounter,\n        uint256 oldPrice,\n        uint256 newPrice,\n        address user\n    );\n\n    event LongMinted(\n        uint256 marketIndex,\n        uint256 contractCallCounter,\n        uint256 depositAdded,\n        uint256 finalDepositAmount,\n        uint256 tokensMinted,\n        address user\n    );\n\n    event ShortMinted(\n        uint256 marketIndex,\n        uint256 contractCallCounter,\n        uint256 depositAdded,\n        uint256 finalDepositAmount,\n        uint256 tokensMinted,\n        address user\n    );\n\n    event LongRedeem(\n        uint256 marketIndex,\n        uint256 contractCallCounter,\n        uint256 tokensRedeemed,\n        uint256 valueOfRedemption,\n        uint256 finalRedeemValue,\n        address user\n    );\n\n    event ShortRedeem(\n        uint256 marketIndex,\n        uint256 contractCallCounter,\n        uint256 tokensRedeemed,\n        uint256 valueOfRedemption,\n        uint256 finalRedeemValue,\n        address user\n    );\n\n    ////////////////////////////////////\n    /////////// MODIFIERS //////////////\n    ////////////////////////////////////\n\n    /**\n     * Necessary to update system state before any contract actions (deposits / withdraws)\n     */\n\n    modifier adminOnly() {\n        require(msg.sender == admin);\n        _;\n    }\n\n    modifier doesMarketExist(uint256 marketIndex) {\n        require(marketExists[marketIndex]);\n        _;\n    }\n\n    modifier refreshSystemState(uint256 marketIndex) {\n        _updateSystemState(marketIndex);\n        _;\n    }\n\n    modifier updateCounterIfExternalCall(uint256 marketIndex) {\n        if (msg.sender != address(this)) {\n            externalContractCounter[marketIndex]++;\n        }\n        _;\n    }\n\n    ////////////////////////////////////\n    ///// CONTRACT SET-UP //////////////\n    ////////////////////////////////////\n\n    function setup(\n        address _admin,\n        address _tokenFactory,\n        address _staker,\n        address _oracleAgregator\n    ) public initializer {\n        admin = _admin;\n        tokenFactory = TokenFactory(_tokenFactory);\n        staker = Staker(_staker);\n        oracleAgregator = IOracleManager(_oracleAgregator);\n\n        emit V1(_admin, _tokenFactory, _staker, _oracleAgregator);\n    }\n\n    ////////////////////////////////////\n    /// MULTISIG ADMIN CREATE MARKETS //\n    ////////////////////////////////////\n\n    function newSyntheticMarket(\n        string calldata syntheticName,\n        string calldata syntheticSymbol,\n        address _fundToken,\n        address _oracleFeed,\n        address _yieldManager,\n        uint256 _baseEntryFee,\n        uint256 _badLiquidityEntryFee,\n        uint256 _baseExitFee,\n        uint256 _badLiquidityExitFee\n    ) external adminOnly {\n        latestMarket++;\n        marketExists[latestMarket] = true;\n\n        // Initial minting/redeeming fees.\n        baseEntryFee[latestMarket] = _baseEntryFee;\n        baseExitFee[latestMarket] = _baseExitFee;\n        badLiquidityEntryFee[latestMarket] = _badLiquidityEntryFee;\n        badLiquidityExitFee[latestMarket] = _badLiquidityExitFee;\n\n        // Register price feed with oracle manager.\n        oracleAgregator.registerNewMarket(latestMarket, _oracleFeed);\n\n        // Create new synthetic long token.\n        longTokens[latestMarket] = SyntheticToken(\n            tokenFactory.createTokenLong(\n                syntheticName,\n                syntheticSymbol,\n                latestMarket\n            )\n        );\n\n        // Create new synthetic short token.\n        shortTokens[latestMarket] = SyntheticToken(\n            tokenFactory.createTokenShort(\n                syntheticName,\n                syntheticSymbol,\n                latestMarket\n            )\n        );\n\n        // Initial market state.\n        longTokenPrice[latestMarket] = TEN_TO_THE_18;\n        shortTokenPrice[latestMarket] = TEN_TO_THE_18;\n        assetPrice[latestMarket] = uint256(getLatestPrice(latestMarket));\n        fundTokens[latestMarket] = IERC20Upgradeable(_fundToken);\n        yieldManagers[latestMarket] = IYieldManager(_yieldManager);\n\n        emit SyntheticTokenCreated(\n            latestMarket,\n            address(longTokens[latestMarket]),\n            address(shortTokens[latestMarket]),\n            assetPrice[latestMarket],\n            syntheticName,\n            syntheticSymbol,\n            _oracleFeed,\n            _baseEntryFee,\n            _badLiquidityEntryFee,\n            _baseExitFee,\n            _badLiquidityExitFee\n        );\n\n        // Add new staker funds with fresh synthetic tokens.\n        staker.addNewStakingFund(\n            latestMarket,\n            address(longTokens[latestMarket]),\n            address(shortTokens[latestMarket])\n        );\n    }\n\n    ////////////////////////////////////\n    //////// HELPER FUNCTIONS //////////\n    ////////////////////////////////////\n\n    /**\n     * Returns the latest price\n     */\n    function getLatestPrice(uint256 marketIndex) public view returns (int256) {\n        return oracleAgregator.getLatestPrice(marketIndex);\n    }\n\n    /**\n     * Returns the amount of funds that LongShort can directly transfer.\n     * Funds locked in the yield managers have to be withdrawn first.\n     */\n    function getLiquidFunds(uint256 marketIndex) public view returns (uint256) {\n        return\n            totalValueLockedInMarket[marketIndex]\n                .add(totalValueLockedInDao[marketIndex])\n                .sub(totalValueLockedInYieldManager[marketIndex]);\n    }\n\n    /**\n     * Returns % of long position that is filled\n     */\n    function getLongBeta(uint256 marketIndex) public view returns (uint256) {\n        // TODO account for contract start when these are both zero\n        // and an erronous beta of 1 reported.\n        if (shortValue[marketIndex] >= longValue[marketIndex]) {\n            return TEN_TO_THE_18;\n        } else {\n            return\n                shortValue[marketIndex].mul(TEN_TO_THE_18).div(\n                    longValue[marketIndex]\n                );\n        }\n    }\n\n    /**\n     * Returns % of short position that is filled\n     * zero div error if both are zero\n     */\n    function getShortBeta(uint256 marketIndex) public view returns (uint256) {\n        if (longValue[marketIndex] >= shortValue[marketIndex]) {\n            return TEN_TO_THE_18;\n        } else {\n            return\n                longValue[marketIndex].mul(TEN_TO_THE_18).div(\n                    shortValue[marketIndex]\n                );\n        }\n    }\n\n    /**\n     * Returns the amount of accrued interest that should go to the market,\n     * and the amount that should be locked into dao funds. To incentivise\n     * market balance, more interest goes to the market in proportion to how\n     * imbalanced it is.\n     * TODO: use this for the fee mechanism as well?\n     */\n    function getYieldSplit(uint256 marketIndex, uint256 amount)\n        public\n        view\n        returns (uint256 marketAmount, uint256 daoAmount)\n    {\n        uint256 marketPcnt; // fixed-precision scale of 10000\n        if (longValue[marketIndex] > shortValue[marketIndex]) {\n            marketPcnt = longValue[marketIndex]\n                .sub(shortValue[marketIndex])\n                .mul(10000)\n                .div(totalValueLockedInMarket[marketIndex]);\n        } else {\n            marketPcnt = shortValue[marketIndex]\n                .sub(longValue[marketIndex])\n                .mul(10000)\n                .div(totalValueLockedInMarket[marketIndex]);\n        }\n\n        marketAmount = marketPcnt.mul(amount).div(10000);\n        daoAmount = amount.sub(marketAmount);\n        require(amount == marketAmount + daoAmount);\n\n        return (marketAmount, daoAmount);\n    }\n\n    /**\n     * Adjusts the long/short token prices according to supply and value.\n     */\n    function _refreshTokensPrice(uint256 marketIndex) internal {\n        uint256 longTokenSupply = longTokens[marketIndex].totalSupply();\n        if (longTokenSupply > 0) {\n            longTokenPrice[marketIndex] = longValue[marketIndex]\n                .mul(TEN_TO_THE_18)\n                .div(longTokenSupply);\n        }\n\n        uint256 shortTokenSupply = shortTokens[marketIndex].totalSupply();\n        if (shortTokenSupply > 0) {\n            shortTokenPrice[marketIndex] = shortValue[marketIndex]\n                .mul(TEN_TO_THE_18)\n                .div(shortTokenSupply);\n        }\n\n        emit TokenPriceRefreshed(\n            marketIndex,\n            externalContractCounter[marketIndex],\n            longTokenPrice[marketIndex],\n            shortTokenPrice[marketIndex]\n        );\n    }\n\n    /**\n     * Controls what happens with mint/redeem fees.\n     */\n    function _feesMechanism(uint256 marketIndex, uint256 totalFees) internal {\n        // Initial mechanism just splits fees evenly across the long/short\n        // market values. We may want to incentivise float token holders by\n        // depositing some in the DAO later.\n        uint256 longAmount = totalFees.div(2);\n        uint256 shortAmount = totalFees.sub(longAmount);\n        longValue[marketIndex] = longValue[marketIndex].add(longAmount);\n        shortValue[marketIndex] = shortValue[marketIndex].add(shortAmount);\n\n        emit FeesLevied(\n            marketIndex,\n            externalContractCounter[marketIndex],\n            totalFees\n        );\n    }\n\n    /**\n     * Controls what happens with accrued yield manager interest.\n     */\n    function _yieldMechanism(uint256 marketIndex) internal {\n        uint256 amount =\n            yieldManagers[marketIndex].getTotalHeld().sub(\n                totalValueLockedInYieldManager[marketIndex]\n            );\n\n        (uint256 marketAmount, uint256 daoAmount) =\n            getYieldSplit(marketIndex, amount);\n\n        // We keep the interest locked in the yield manager, but update our\n        // bookkeeping to logically simulate moving the funds around.\n        totalValueLockedInYieldManager[marketIndex] += amount;\n        totalValueLockedInMarket[marketIndex] += marketAmount;\n        totalValueLockedInDao[marketIndex] += daoAmount;\n\n        // TODO(guy): Implement actual interest split for market. The weaker\n        // side should receive the stronger side's proportion of the interest\n        // to incentivise market balance (leveraged yield!).\n        uint256 longAmount = marketAmount.div(2);\n        uint256 shortAmount = marketAmount.sub(longAmount);\n        longValue[marketIndex] = longValue[marketIndex].add(longAmount);\n        shortValue[marketIndex] = shortValue[marketIndex].add(shortAmount);\n    }\n\n    // TODO fix with beta\n    function _priceChangeMechanism(uint256 marketIndex, uint256 newPrice)\n        internal\n    {\n        // If no new price update from oracle, proceed as normal\n        if (assetPrice[marketIndex] == newPrice) {\n            return;\n        }\n        // 100% -> 10**18\n        // 100% -> 1\n        uint256 percentageChange;\n        uint256 valueChange = 0;\n        // Long gains\n        if (newPrice > assetPrice[marketIndex]) {\n            percentageChange = (newPrice.sub(assetPrice[marketIndex]))\n                .mul(TEN_TO_THE_18)\n                .div(assetPrice[marketIndex]);\n            if (percentageChange >= TEN_TO_THE_18) {\n                // More than 100% price movement, system liquidation.\n                longValue[marketIndex] = longValue[marketIndex].add(\n                    shortValue[marketIndex]\n                );\n                shortValue[marketIndex] = 0;\n            } else {\n                if (getShortBeta(marketIndex) == TEN_TO_THE_18) {\n                    valueChange = shortValue[marketIndex]\n                        .mul(percentageChange)\n                        .div(TEN_TO_THE_18);\n                } else {\n                    valueChange = longValue[marketIndex]\n                        .mul(percentageChange)\n                        .div(TEN_TO_THE_18);\n                }\n                longValue[marketIndex] = longValue[marketIndex].add(\n                    valueChange\n                );\n                shortValue[marketIndex] = shortValue[marketIndex].sub(\n                    valueChange\n                );\n            }\n        } else {\n            percentageChange = (assetPrice[marketIndex].sub(newPrice))\n                .mul(TEN_TO_THE_18)\n                .div(assetPrice[marketIndex]);\n            if (percentageChange >= TEN_TO_THE_18) {\n                shortValue[marketIndex] = shortValue[marketIndex].add(\n                    longValue[marketIndex]\n                );\n                longValue[marketIndex] = 0;\n            } else {\n                if (getShortBeta(marketIndex) == TEN_TO_THE_18) {\n                    valueChange = shortValue[marketIndex]\n                        .mul(percentageChange)\n                        .div(TEN_TO_THE_18);\n                } else {\n                    valueChange = longValue[marketIndex]\n                        .mul(percentageChange)\n                        .div(TEN_TO_THE_18);\n                }\n                longValue[marketIndex] = longValue[marketIndex].sub(\n                    valueChange\n                );\n                shortValue[marketIndex] = shortValue[marketIndex].add(\n                    valueChange\n                );\n            }\n        }\n    }\n\n    /**\n     * Updates the value of the long and short sides within the system\n     * Note this is public. Anyone can call this function.\n     */\n    function _updateSystemState(uint256 marketIndex)\n        public\n        doesMarketExist(marketIndex)\n        updateCounterIfExternalCall(marketIndex)\n    {\n        // This is called right before any state change!\n        // So reward rate can be calculated just in time by\n        // staker without needing to be saved\n        staker.addNewStateForFloatRewards(\n            address(longTokens[marketIndex]),\n            address(shortTokens[marketIndex]),\n            longTokenPrice[marketIndex],\n            shortTokenPrice[marketIndex],\n            longValue[marketIndex],\n            shortValue[marketIndex]\n        );\n\n        if (longValue[marketIndex] == 0 && shortValue[marketIndex] == 0) {\n            return;\n        }\n\n        // TODO: Check why/if this is bad (casting to uint)\n        // If a negative int is return this should fail.\n        uint256 newPrice = uint256(getLatestPrice(marketIndex));\n        emit PriceUpdate(\n            marketIndex,\n            externalContractCounter[marketIndex],\n            assetPrice[marketIndex],\n            newPrice,\n            msg.sender\n        );\n\n        // Adjusts long and short values based on price movements.\n        if (longValue[marketIndex] > 0 && shortValue[marketIndex] > 0) {\n            _priceChangeMechanism(marketIndex, newPrice);\n        }\n\n        // Distibute accrued yield manager interest.\n        _yieldMechanism(marketIndex);\n\n        _refreshTokensPrice(marketIndex);\n        assetPrice[marketIndex] = newPrice;\n\n        emit ValueLockedInSystem(\n            marketIndex,\n            externalContractCounter[marketIndex],\n            totalValueLockedInMarket[marketIndex],\n            longValue[marketIndex],\n            shortValue[marketIndex]\n        );\n\n        // Invariant: long/short values should never differ from total value.\n        require(\n            longValue[marketIndex].add(shortValue[marketIndex]) ==\n                totalValueLockedInMarket[marketIndex],\n            \"Total locked inconsistent\"\n        );\n    }\n\n    /*\n     * Locks funds from the sender into the given market.\n     */\n    function _depositFunds(uint256 marketIndex, uint256 amount) internal {\n        fundTokens[marketIndex].transferFrom(msg.sender, address(this), amount);\n\n        // Update global value state.\n        totalValueLockedInMarket[marketIndex] = totalValueLockedInMarket[\n            marketIndex\n        ]\n            .add(amount);\n\n        // Transfer funds to the yield managers.\n        // TODO: we could consider pooling funds in the LongShort contract and\n        // only transferring over some threshold to save on gas. Does kinda\n        // screw users periodically if they transfer right on the threshold.\n        _transferToYieldManager(marketIndex, amount);\n    }\n\n    /*\n     * Returns locked funds from the market to the sender.\n     */\n    function _withdrawFunds(uint256 marketIndex, uint256 amount) internal {\n        require(totalValueLockedInMarket[marketIndex] >= amount);\n\n        // Withdraw requisite funds from the yield managers if necessary.\n        // TODO: we could consider withdrawing more funds than necessary into\n        // a pool, so users don't have to transfer on every call to safe gas.\n        // Again, kinda screws users now and again if they time calls badly.\n        uint256 liquid = getLiquidFunds(marketIndex);\n        if (liquid < amount) {\n            _transferFromYieldManager(marketIndex, amount - liquid);\n        }\n\n        // Transfer funds to the sender.\n        fundTokens[marketIndex].transfer(msg.sender, amount);\n\n        // Update market state.\n        totalValueLockedInMarket[marketIndex] = totalValueLockedInMarket[\n            marketIndex\n        ]\n            .sub(amount);\n    }\n\n    /*\n     * Transfers locked funds from LongShort into the yield manager.\n     */\n    function _transferToYieldManager(uint256 marketIndex, uint256 amount)\n        internal\n    {\n        fundTokens[marketIndex].approve(\n            address(yieldManagers[marketIndex]),\n            amount\n        );\n        yieldManagers[marketIndex].depositToken(amount);\n\n        // Update market state.\n        totalValueLockedInYieldManager[marketIndex] += amount;\n\n        // Invariant: yield managers should never have more locked funds\n        // than the combined value of the market and dao funds.\n        require(\n            totalValueLockedInYieldManager[marketIndex] <=\n                totalValueLockedInMarket[marketIndex] +\n                    totalValueLockedInDao[marketIndex]\n        );\n    }\n\n    /*\n     * Transfers locked funds from the yield manager into LongShort.\n     */\n    function _transferFromYieldManager(uint256 marketIndex, uint256 amount)\n        internal\n    {\n        require(totalValueLockedInYieldManager[marketIndex] >= amount);\n        yieldManagers[marketIndex].withdrawToken(amount);\n\n        // Update market state.\n        totalValueLockedInYieldManager[marketIndex] -= amount;\n\n        // Invariant: yield managers should never have more locked funds\n        // than the combined value of the market and dao funds.\n        require(\n            totalValueLockedInYieldManager[marketIndex] <=\n                totalValueLockedInMarket[marketIndex] +\n                    totalValueLockedInDao[marketIndex]\n        );\n    }\n\n    /*\n     * Calculates fees for the given base amount and an additional penalty\n     * amount that extra fees are paid on. Users are penalised for imbalancing\n     * the market.\n     */\n    function _getFeesForAmounts(\n        uint256 marketIndex,\n        uint256 baseAmount, // e18\n        uint256 penaltyAmount, // e18\n        bool isMint // true for mint, false for redeem\n    ) internal view returns (uint256) {\n        uint256 baseRate = 0; // base fee pcnt paid for all actions\n        uint256 penaltyRate = 0; // penalty fee pcnt paid for imbalancing\n\n        if (isMint) {\n            baseRate = baseEntryFee[marketIndex];\n            penaltyRate = badLiquidityEntryFee[marketIndex];\n        } else {\n            baseRate = baseExitFee[marketIndex];\n            penaltyRate = badLiquidityExitFee[marketIndex];\n        }\n\n        uint256 baseFee = baseAmount.mul(baseRate).div(feeUnitsOfPrecision);\n\n        uint256 penaltyFee =\n            penaltyAmount.mul(penaltyRate).div(feeUnitsOfPrecision);\n\n        return baseFee.add(penaltyFee);\n    }\n\n    /**\n     * Calculates fees for the given mint/redeem amount. Users are penalised\n     * with higher fees for imbalancing the market.\n     */\n    function _getFeesForAction(\n        uint256 marketIndex,\n        uint256 amount, // 1e18\n        bool isMint, // true for mint, false for redeem\n        bool isLong // true for long side, false for short side\n    ) internal view returns (uint256) {\n        uint256 _longValue = longValue[marketIndex];\n        uint256 _shortValue = shortValue[marketIndex];\n\n        // Edge-case: no penalties for minting in a 1-sided market.\n        // TODO: Is this what we want for new markets?\n        if (isMint && (_longValue == 0 || _shortValue == 0)) {\n            return _getFeesForAmounts(marketIndex, amount, 0, isMint);\n        }\n\n        // Compute amount that can be spent before higher fees.\n        uint256 feeGap = 0;\n        bool isLongMintOrShortRedeem = isMint == isLong;\n        if (isLongMintOrShortRedeem) {\n            if (_shortValue > _longValue) {\n                feeGap = _shortValue - _longValue;\n            }\n        } else {\n            if (_longValue > _shortValue) {\n                feeGap = _longValue - _shortValue;\n            }\n        }\n\n        if (feeGap >= amount) {\n            // Case 1: fee gap is big enough that user pays no penalty fees\n            return _getFeesForAmounts(marketIndex, amount, 0, isMint);\n        } else {\n            // Case 2: user pays penalty fees on the remained after fee gap\n            return\n                _getFeesForAmounts(\n                    marketIndex,\n                    amount,\n                    amount.sub(feeGap),\n                    isMint\n                );\n        }\n    }\n\n    ////////////////////////////////////\n    /////////// MINT TOKENS ////////////\n    ////////////////////////////////////\n\n    /**\n     * Create a long position\n     */\n    function mintLong(uint256 marketIndex, uint256 amount)\n        external\n        refreshSystemState(marketIndex)\n    {\n        _mintLong(marketIndex, amount, msg.sender, msg.sender);\n    }\n\n    /**\n     * Creates a short position\n     */\n    function mintShort(uint256 marketIndex, uint256 amount)\n        external\n        refreshSystemState(marketIndex)\n    {\n        _mintShort(marketIndex, amount, msg.sender, msg.sender);\n    }\n\n    /**\n     * Creates a long position and stakes it\n     */\n    function mintLongAndStake(uint256 marketIndex, uint256 amount)\n        external\n        refreshSystemState(marketIndex)\n    {\n        _mintLong(marketIndex, amount, msg.sender, address(staker));\n\n        staker.stakeTransferredTokens(\n            address(longTokens[marketIndex]),\n            amount,\n            msg.sender\n        );\n    }\n\n    /**\n     * Creates a short position and stakes it\n     */\n    function mintShortAndStake(uint256 marketIndex, uint256 amount)\n        external\n        refreshSystemState(marketIndex)\n    {\n        _mintShort(marketIndex, amount, msg.sender, address(staker));\n\n        staker.stakeTransferredTokens(\n            address(shortTokens[marketIndex]),\n            amount,\n            msg.sender\n        );\n    }\n\n    function _mintLong(\n        uint256 marketIndex,\n        uint256 amount,\n        address user,\n        address transferTo\n    ) internal {\n        // Deposit funds and compute fees.\n        _depositFunds(marketIndex, amount);\n        uint256 fees = _getFeesForAction(marketIndex, amount, true, true);\n        uint256 remaining = amount.sub(fees);\n\n        // Distribute fees across the market.\n        _feesMechanism(marketIndex, fees);\n        _refreshTokensPrice(marketIndex);\n\n        // Mint long tokens with remaining value.\n        uint256 tokens =\n            remaining.mul(TEN_TO_THE_18).div(longTokenPrice[marketIndex]);\n        longTokens[marketIndex].mint(transferTo, tokens);\n        longValue[marketIndex] = longValue[marketIndex].add(remaining);\n\n        emit LongMinted(\n            marketIndex,\n            externalContractCounter[marketIndex],\n            amount,\n            remaining,\n            tokens,\n            user\n        );\n\n        emit ValueLockedInSystem(\n            marketIndex,\n            externalContractCounter[marketIndex],\n            totalValueLockedInMarket[marketIndex],\n            longValue[marketIndex],\n            shortValue[marketIndex]\n        );\n    }\n\n    function _mintShort(\n        uint256 marketIndex,\n        uint256 amount,\n        address user,\n        address transferTo\n    ) internal {\n        // Deposit funds and compute fees.\n        _depositFunds(marketIndex, amount);\n        uint256 fees = _getFeesForAction(marketIndex, amount, true, false);\n        uint256 remaining = amount.sub(fees);\n\n        // Distribute fees across the market.\n        _feesMechanism(marketIndex, fees);\n        _refreshTokensPrice(marketIndex);\n\n        // Mint short tokens with remaining value.\n        uint256 tokens =\n            remaining.mul(TEN_TO_THE_18).div(shortTokenPrice[marketIndex]);\n        shortTokens[marketIndex].mint(transferTo, tokens);\n        shortValue[marketIndex] = shortValue[marketIndex].add(remaining);\n\n        emit ShortMinted(\n            marketIndex,\n            externalContractCounter[marketIndex],\n            amount,\n            remaining,\n            tokens,\n            user\n        );\n\n        emit ValueLockedInSystem(\n            marketIndex,\n            externalContractCounter[marketIndex],\n            totalValueLockedInMarket[marketIndex],\n            longValue[marketIndex],\n            shortValue[marketIndex]\n        );\n    }\n\n    ////////////////////////////////////\n    /////////// REDEEM TOKENS //////////\n    ////////////////////////////////////\n\n    function redeemLong(uint256 marketIndex, uint256 tokensToRedeem)\n        external\n        override\n        refreshSystemState(marketIndex)\n    {\n        // Burn tokens - will revert unless user gives permission.\n        longTokens[marketIndex].burnFrom(msg.sender, tokensToRedeem);\n\n        // Compute fees.\n        uint256 amount =\n            tokensToRedeem.mul(longTokenPrice[marketIndex]).div(TEN_TO_THE_18);\n        uint256 fees = _getFeesForAction(marketIndex, amount, false, true);\n        uint256 remaining = amount.sub(fees);\n\n        // Distribute fees across the market.\n        _feesMechanism(marketIndex, fees);\n\n        // Withdraw funds with remaining amount.\n        longValue[marketIndex] = longValue[marketIndex].sub(amount);\n        _withdrawFunds(marketIndex, remaining);\n        _refreshTokensPrice(marketIndex);\n\n        emit LongRedeem(\n            marketIndex,\n            externalContractCounter[marketIndex],\n            tokensToRedeem,\n            amount,\n            remaining,\n            msg.sender\n        );\n\n        emit ValueLockedInSystem(\n            marketIndex,\n            externalContractCounter[marketIndex],\n            totalValueLockedInMarket[marketIndex],\n            longValue[marketIndex],\n            shortValue[marketIndex]\n        );\n    }\n\n    function redeemShort(uint256 marketIndex, uint256 tokensToRedeem)\n        external\n        override\n        refreshSystemState(marketIndex)\n    {\n        // Burn tokens - will revert unless user gives permission to contract.\n        shortTokens[marketIndex].burnFrom(msg.sender, tokensToRedeem);\n\n        // Compute fees.\n        uint256 amount =\n            tokensToRedeem.mul(shortTokenPrice[marketIndex]).div(TEN_TO_THE_18);\n        uint256 fees = _getFeesForAction(marketIndex, amount, false, false);\n        uint256 remaining = amount.sub(fees);\n\n        // Distribute fees across the market.\n        _feesMechanism(marketIndex, fees);\n\n        // Withdraw funds with remaining amount.\n        shortValue[marketIndex] = shortValue[marketIndex].sub(amount);\n        _withdrawFunds(marketIndex, remaining);\n        _refreshTokensPrice(marketIndex);\n\n        emit ShortRedeem(\n            marketIndex,\n            externalContractCounter[marketIndex],\n            tokensToRedeem,\n            amount,\n            remaining,\n            msg.sender\n        );\n\n        emit ValueLockedInSystem(\n            marketIndex,\n            externalContractCounter[marketIndex],\n            totalValueLockedInMarket[marketIndex],\n            longValue[marketIndex],\n            shortValue[marketIndex]\n        );\n    }\n}\n",
  "sourcePath": "/home/jasoons/Documents/code/longshort/contracts/contracts/LongShort.sol",
  "compiler": {
    "name": "solc",
    "version": "0.7.6+commit.7338295f.Emscripten.clang"
  },
  "schemaVersion": "3.3.4",
  "updatedAt": "2021-02-18T12:41:57.398Z",
  "networkType": "ethereum",
  "devdoc": {
    "details": "{LongShort} contract, including:  - Ability for users to create synthetic long and short positions on value movements  - Value movements could be derived from tradional or alternative asset classes, derivates, binary outcomes, etc...  - Incentive mechansim providing fees to liquidity makers (users on both sides of order book) ******* SYSTEM FUNCTIONING V0.0 *********** System accepts stable coin (DAI) and has a total locked value = short position value + long position value If percentage movement as calculated from oracle is +10%, and short position value == long position value, Then value change = long position value * 10% long position value = long position value + value change short position value = short position value - value change Total contract value remains unchanged. long value has increased and each longtoken is now worth more as underlying pool value has increased. Tokens representing a shares in the short or long token pool can be minted at price (short position value) / (total short token value) or conversely burned to redeem the underlying share of the pool calculated as (short position value) / (total short token value) per token Depending on demand of minting and burning for underlying on both sides (long/short of contract), most often short position value != long position value (there will be an imbalance) Imbalances also naturally occur as the contract adjusts these values after observing oracle value changes Incentives exist to best incentivize contract balance. Mechanism 1 - interest accural imbalance. The entire total locked value accrues interest and distributes it 50/50 even if imbalance exists. I.e. Short side supplys $50 capital. Long side supply $150. Short side effectively earns interest on $100. Enhanced yield exists for sides taking on the position with less demand. Mechanism 2 - liquidity fees earned. The side which is shorter on liquidity will receive fees strengthening their value Whenever liquidity is added to the opposing side or withdrawn from their side (i.e. when the imbalance increases) ******* KNOWN ATTACK VECTORS *********** (1) Feeless withdrawl: [FIXED] Long position $150, Short position $100. User should pay fee to remove short liquidity. Step1: User mints $51 of short position (No fee to add liquidity). Step2: User redeems $100 of short position (no fee as currently removing liquidity from bigger side) Possible solution, check after deposit/withdrawl if order book has flipped, then apply fees. (2) FlashLoan mint: [ONGOING] Consider rapid large entries and exit of the system. (3) Oracle manipulation: [ONGOING] If the oracle determining price change can be easy manipulated (and by a decent magnitude), Funds could be at risk. See: https://blog.trailofbits.com/2020/08/05/accidentally-stepping-on-a-defi-lego/ ******* Work on gas effciencies *********** Layer 2 solutions Remove safe Math library",
    "kind": "dev",
    "methods": {},
    "version": 1
  },
  "userdoc": {
    "kind": "user",
    "methods": {
      "_updateSystemState(uint256)": {
        "notice": "Updates the value of the long and short sides within the system Note this is public. Anyone can call this function."
      },
      "getLatestPrice(uint256)": {
        "notice": "Returns the latest price"
      },
      "getLiquidFunds(uint256)": {
        "notice": "Returns the amount of funds that LongShort can directly transfer. Funds locked in the yield managers have to be withdrawn first."
      },
      "getLongBeta(uint256)": {
        "notice": "Returns % of long position that is filled"
      },
      "getShortBeta(uint256)": {
        "notice": "Returns % of short position that is filled zero div error if both are zero"
      },
      "getYieldSplit(uint256,uint256)": {
        "notice": "Returns the amount of accrued interest that should go to the market, and the amount that should be locked into dao funds. To incentivise market balance, more interest goes to the market in proportion to how imbalanced it is. TODO: use this for the fee mechanism as well?"
      },
      "mintLong(uint256,uint256)": {
        "notice": "Create a long position"
      },
      "mintLongAndStake(uint256,uint256)": {
        "notice": "Creates a long position and stakes it"
      },
      "mintShort(uint256,uint256)": {
        "notice": "Creates a short position"
      },
      "mintShortAndStake(uint256,uint256)": {
        "notice": "Creates a short position and stakes it"
      },
      "newSyntheticMarket(string,string,address,address,address,uint256,uint256,uint256,uint256)": {
        "notice": "MULTISIG ADMIN CREATE MARKETS //"
      }
    },
    "version": 1
  }
}