{
  "contractName": "OracleManagerMock",
  "abi": [
    {
      "inputs": [],
      "name": "admin",
      "outputs": [
        {
          "internalType": "address",
          "name": "",
          "type": "address"
        }
      ],
      "stateMutability": "view",
      "type": "function",
      "constant": true
    },
    {
      "inputs": [],
      "name": "longShortContract",
      "outputs": [
        {
          "internalType": "address",
          "name": "",
          "type": "address"
        }
      ],
      "stateMutability": "view",
      "type": "function",
      "constant": true
    },
    {
      "inputs": [
        {
          "internalType": "uint256",
          "name": "",
          "type": "uint256"
        }
      ],
      "name": "oracleFeeds",
      "outputs": [
        {
          "internalType": "address",
          "name": "",
          "type": "address"
        }
      ],
      "stateMutability": "view",
      "type": "function",
      "constant": true
    },
    {
      "inputs": [
        {
          "internalType": "address",
          "name": "",
          "type": "address"
        }
      ],
      "name": "oraclePrices",
      "outputs": [
        {
          "internalType": "int256",
          "name": "",
          "type": "int256"
        }
      ],
      "stateMutability": "view",
      "type": "function",
      "constant": true
    },
    {
      "inputs": [
        {
          "internalType": "address",
          "name": "_admin",
          "type": "address"
        },
        {
          "internalType": "address",
          "name": "_longShort",
          "type": "address"
        }
      ],
      "name": "setup",
      "outputs": [],
      "stateMutability": "nonpayable",
      "type": "function"
    },
    {
      "inputs": [
        {
          "internalType": "uint256",
          "name": "marketIndex",
          "type": "uint256"
        }
      ],
      "name": "getMarketPriceByIndex",
      "outputs": [
        {
          "internalType": "int256",
          "name": "",
          "type": "int256"
        }
      ],
      "stateMutability": "view",
      "type": "function",
      "constant": true
    },
    {
      "inputs": [
        {
          "internalType": "uint256",
          "name": "marketIndex",
          "type": "uint256"
        },
        {
          "internalType": "int256",
          "name": "price",
          "type": "int256"
        }
      ],
      "name": "setMarketPriceByIndex",
      "outputs": [],
      "stateMutability": "nonpayable",
      "type": "function"
    },
    {
      "inputs": [
        {
          "internalType": "uint256",
          "name": "marketIndex",
          "type": "uint256"
        },
        {
          "internalType": "int256",
          "name": "_percentage",
          "type": "int256"
        }
      ],
      "name": "increasePrice",
      "outputs": [],
      "stateMutability": "nonpayable",
      "type": "function"
    },
    {
      "inputs": [
        {
          "internalType": "uint256",
          "name": "marketIndex",
          "type": "uint256"
        },
        {
          "internalType": "int256",
          "name": "_percentage",
          "type": "int256"
        }
      ],
      "name": "decreasePrice",
      "outputs": [],
      "stateMutability": "nonpayable",
      "type": "function"
    },
    {
      "inputs": [
        {
          "internalType": "uint256",
          "name": "marketIndex",
          "type": "uint256"
        },
        {
          "internalType": "address",
          "name": "marketFeed",
          "type": "address"
        }
      ],
      "name": "registerNewMarket",
      "outputs": [],
      "stateMutability": "nonpayable",
      "type": "function"
    },
    {
      "inputs": [
        {
          "internalType": "uint256",
          "name": "marketIndex",
          "type": "uint256"
        }
      ],
      "name": "getLatestPrice",
      "outputs": [
        {
          "internalType": "int256",
          "name": "",
          "type": "int256"
        }
      ],
      "stateMutability": "view",
      "type": "function",
      "constant": true
    }
  ],
  "bytecode": "0x608060405234801561001057600080fd5b50610590806100206000396000f3fe608060405234801561001057600080fd5b50600436106100a95760003560e01c8063c233d32c11610071578063c233d32c14610169578063d6271c6b14610195578063e13f9323146101bb578063e31ec08d146101de578063f851a44014610201578063ffd461f414610209576100a9565b80632d34ba79146100ae57806396894e68146100de578063986a0b8914610101578063a0ec96fe14610130578063b94fe91714610101575b600080fd5b6100dc600480360360408110156100c457600080fd5b506001600160a01b0381358116916020013516610211565b005b6100dc600480360360408110156100f457600080fd5b50803590602001356102f6565b61011e6004803603602081101561011757600080fd5b5035610334565b60408051918252519081900360200190f35b61014d6004803603602081101561014657600080fd5b503561035c565b604080516001600160a01b039092168252519081900360200190f35b6100dc6004803603604081101561017f57600080fd5b50803590602001356001600160a01b0316610377565b61011e600480360360208110156101ab57600080fd5b50356001600160a01b0316610428565b6100dc600480360360408110156101d157600080fd5b508035906020013561043a565b6100dc600480360360408110156101f457600080fd5b50803590602001356104b3565b61014d6104f1565b61014d610506565b600054610100900460ff168061022a575061022a610515565b80610238575060005460ff16155b6102735760405162461bcd60e51b815260040180806020018281038252602e81526020018061052d602e913960400191505060405180910390fd5b600054610100900460ff1615801561029e576000805460ff1961ff0019909116610100171660011790555b6000805462010000600160b01b031916620100006001600160a01b038681169190910291909117909155600180546001600160a01b03191691841691909117905580156102f1576000805461ff00191690555b505050565b6000918252600260209081526040808420546001600160a01b0316845260039091529091208054670de0b6b3a7640000928102929092059091039055565b6000908152600260209081526040808320546001600160a01b03168352600390915290205490565b6002602052600090815260409020546001600160a01b031681565b6001546001600160a01b031633146103c6576040805162461bcd60e51b815260206004820152600d60248201526c139bdd081b1bdb99d4da1bdc9d609a1b604482015290519081900360640190fd5b600082815260026020908152604080832080546001600160a01b0319166001600160a01b03861690811790915583526003909152902054806102f157506001600160a01b03166000908152600360205260409020678ac7230489e80000905550565b60036020526000908152604090205481565b6000546201000090046001600160a01b0316331461048b576040805162461bcd60e51b81526020600482015260096024820152682737ba1030b236b4b760b91b604482015290519081900360640190fd5b6000918252600260209081526040808420546001600160a01b03168452600390915290912055565b6000918252600260209081526040808420546001600160a01b0316845260039091529091208054670de0b6b3a7640000928102929092059091019055565b6000546201000090046001600160a01b031681565b6001546001600160a01b031681565b600061052030610526565b15905090565b3b15159056fe496e697469616c697a61626c653a20636f6e747261637420697320616c726561647920696e697469616c697a6564a26469706673582212201d6f3582126444d41d448eaefed8c46641c25d7abaf0a63be36d92c837c1301064736f6c63430007060033",
  "immutableReferences": {},
  "source": "//SPDX-License-Identifier: Unlicense\npragma solidity 0.7.6;\n\nimport \"@openzeppelin/contracts-upgradeable/proxy/Initializable.sol\";\nimport \"../interfaces/IOracleManager.sol\";\n\ncontract OracleManagerMock is IOracleManager, Initializable {\n    address public admin;\n    address public longShortContract;\n\n    mapping(uint256 => address) public oracleFeeds; // Oracle\n    mapping(address => int256) public oraclePrices; // Oracle\n\n    modifier adminOnly() {\n        require(msg.sender == admin, \"Not admin\");\n        _;\n    }\n    modifier longShortOnly() {\n        require(msg.sender == longShortContract, \"Not longShort\");\n        _;\n    }\n\n    function setup(address _admin, address _longShort) public initializer {\n        admin = _admin;\n        longShortContract = _longShort;\n    }\n\n    function getMarketPriceByIndex(uint256 marketIndex)\n        public\n        view\n        returns (int256)\n    {\n        address marketFeed = oracleFeeds[marketIndex];\n        return oraclePrices[marketFeed];\n    }\n\n    function setMarketPriceByIndex(uint256 marketIndex, int256 price)\n        public\n        adminOnly\n    {\n        address marketFeed = oracleFeeds[marketIndex];\n        oraclePrices[marketFeed] = price;\n    }\n\n    function increasePrice(uint256 marketIndex, int256 _percentage) public {\n        address marketFeed = oracleFeeds[marketIndex];\n        int256 assetPrice = oraclePrices[marketFeed];\n        oraclePrices[marketFeed] =\n            assetPrice +\n            ((assetPrice * _percentage) / (10**18));\n    }\n\n    function decreasePrice(uint256 marketIndex, int256 _percentage) public {\n        address marketFeed = oracleFeeds[marketIndex];\n        int256 assetPrice = oraclePrices[marketFeed];\n        oraclePrices[marketFeed] =\n            assetPrice -\n            ((assetPrice * _percentage) / (10**18));\n    }\n\n    function registerNewMarket(uint256 marketIndex, address marketFeed)\n        public\n        override\n        longShortOnly\n    {\n        oracleFeeds[marketIndex] = marketFeed;\n        int256 price = oraclePrices[marketFeed];\n        // Initialise the price for testing convenience\n        if (price == 0) {\n            oraclePrices[marketFeed] = 10e18;\n        }\n    }\n\n    function getLatestPrice(uint256 marketIndex)\n        public\n        view\n        override\n        returns (int256)\n    {\n        address feed = oracleFeeds[marketIndex];\n        int256 price = oraclePrices[feed];\n        return price;\n    }\n}\n",
  "sourcePath": "/home/jasoons/Documents/code/longshort/contracts/contracts/mocks/OracleManagerMock.sol",
  "compiler": {
    "name": "solc",
    "version": "0.7.6+commit.7338295f.Emscripten.clang"
  },
  "schemaVersion": "3.3.4",
  "updatedAt": "2021-02-16T12:50:41.380Z",
  "networkType": "ethereum",
  "devdoc": {
    "kind": "dev",
    "methods": {},
    "version": 1
  },
  "userdoc": {
    "kind": "user",
    "methods": {},
    "version": 1
  }
}