{
  "contractName": "PriceOracle",
  "abi": [
    {
      "inputs": [
        {
          "internalType": "int256",
          "name": "_initialPrice",
          "type": "int256"
        }
      ],
      "stateMutability": "nonpayable",
      "type": "constructor"
    },
    {
      "inputs": [],
      "name": "assetPrice",
      "outputs": [
        {
          "internalType": "int256",
          "name": "",
          "type": "int256"
        }
      ],
      "stateMutability": "view",
      "type": "function",
      "constant": true
    },
    {
      "inputs": [],
      "name": "decimals",
      "outputs": [
        {
          "internalType": "uint8",
          "name": "",
          "type": "uint8"
        }
      ],
      "stateMutability": "view",
      "type": "function",
      "constant": true
    },
    {
      "inputs": [],
      "name": "description",
      "outputs": [
        {
          "internalType": "string",
          "name": "",
          "type": "string"
        }
      ],
      "stateMutability": "view",
      "type": "function",
      "constant": true
    },
    {
      "inputs": [],
      "name": "version",
      "outputs": [
        {
          "internalType": "uint256",
          "name": "",
          "type": "uint256"
        }
      ],
      "stateMutability": "view",
      "type": "function",
      "constant": true
    },
    {
      "inputs": [
        {
          "internalType": "uint80",
          "name": "_roundId",
          "type": "uint80"
        }
      ],
      "name": "getRoundData",
      "outputs": [
        {
          "internalType": "uint80",
          "name": "roundId",
          "type": "uint80"
        },
        {
          "internalType": "int256",
          "name": "answer",
          "type": "int256"
        },
        {
          "internalType": "uint256",
          "name": "startedAt",
          "type": "uint256"
        },
        {
          "internalType": "uint256",
          "name": "updatedAt",
          "type": "uint256"
        },
        {
          "internalType": "uint80",
          "name": "answeredInRound",
          "type": "uint80"
        }
      ],
      "stateMutability": "view",
      "type": "function",
      "constant": true
    },
    {
      "inputs": [],
      "name": "latestRoundData",
      "outputs": [
        {
          "internalType": "uint80",
          "name": "roundId",
          "type": "uint80"
        },
        {
          "internalType": "int256",
          "name": "answer",
          "type": "int256"
        },
        {
          "internalType": "uint256",
          "name": "startedAt",
          "type": "uint256"
        },
        {
          "internalType": "uint256",
          "name": "updatedAt",
          "type": "uint256"
        },
        {
          "internalType": "uint80",
          "name": "answeredInRound",
          "type": "uint80"
        }
      ],
      "stateMutability": "view",
      "type": "function",
      "constant": true
    },
    {
      "inputs": [
        {
          "internalType": "int256",
          "name": "_percentage",
          "type": "int256"
        }
      ],
      "name": "increasePrice",
      "outputs": [],
      "stateMutability": "nonpayable",
      "type": "function"
    },
    {
      "inputs": [
        {
          "internalType": "int256",
          "name": "_percentage",
          "type": "int256"
        }
      ],
      "name": "decreasePrice",
      "outputs": [],
      "stateMutability": "nonpayable",
      "type": "function"
    }
  ],
  "bytecode": "0x608060405234801561001057600080fd5b5060405161030c38038061030c8339818101604052602081101561003357600080fd5b50516000556102c5806100476000396000f3fe608060405234801561001057600080fd5b50600436106100885760003560e01c80637284e4161161005b5780637284e416146101015780639a6fc8f51461017e578063d24378eb146101f1578063feaf968c146101f957610088565b80631cae4ab21461008d578063313ce567146100ac57806354fd4d50146100ca578063666a423b146100e4575b600080fd5b6100aa600480360360208110156100a357600080fd5b5035610201565b005b6100b4610224565b6040805160ff9092168252519081900360200190f35b6100d2610224565b60408051918252519081900360200190f35b6100aa600480360360208110156100fa57600080fd5b5035610229565b61010961024c565b6040805160208082528351818301528351919283929083019185019080838360005b8381101561014357818101518382015260200161012b565b50505050905090810190601f1680156101705780820380516001836020036101000a031916815260200191505b509250505060405180910390f35b6101a76004803603602081101561019457600080fd5b503569ffffffffffffffffffff1661026e565b604051808669ffffffffffffffffffff1681526020018581526020018481526020018381526020018269ffffffffffffffffffff1681526020019550505050505060405180910390f35b6100d261027c565b6101a7610282565b670de0b6b3a764000081600054028161021657fe5b056000540160008190555050565b600a90565b670de0b6b3a764000081600054028161023e57fe5b056000540360008190555050565b6040805180820190915260088152676d79737472696e6760c01b602082015290565b506000908190819081908190565b60005481565b600080548180809192939456fea264697066735822122081b11f186b00e84569a818220902abc2b52d49d13a87ff3b5650fbb729f1174464736f6c634300060c0033",
  "immutableReferences": {},
  "source": "pragma solidity 0.6.12;\n\nimport \"@chainlink/contracts/src/v0.6/interfaces/AggregatorV3Interface.sol\";\n\n// Mock price oracle for testing to deliver certain prices\ncontract PriceOracle is AggregatorV3Interface {\n    int256 public assetPrice;\n\n    constructor(int256 _initialPrice) public {\n        assetPrice = _initialPrice;\n    }\n\n    function decimals() external override view returns (uint8) {\n        return 10;\n    }\n\n    function description() external override view returns (string memory) {\n        return \"mystring\";\n    }\n\n    function version() external override view returns (uint256) {\n        return 10;\n    }\n\n    // getRoundData and latestRoundData should both raise \"No data present\"\n    // if they do not have data to report, instead of returning unset values\n    // which could be misinterpreted as actual reported values.\n    function getRoundData(uint80 _roundId)\n        external\n        override\n        view\n        returns (\n            uint80 roundId,\n            int256 answer,\n            uint256 startedAt,\n            uint256 updatedAt,\n            uint80 answeredInRound\n        )\n    {\n        return (0, 0, 0, 0, 0);\n    }\n\n    function latestRoundData()\n        external\n        override\n        view\n        returns (\n            uint80 roundId,\n            int256 answer,\n            uint256 startedAt,\n            uint256 updatedAt,\n            uint80 answeredInRound\n        )\n    {\n        return (0, assetPrice, 0, 0, 0);\n    }\n\n    function increasePrice(int256 _percentage) public {\n        assetPrice = assetPrice + ((assetPrice * _percentage) / (10**18));\n    }\n\n    function decreasePrice(int256 _percentage) public {\n        assetPrice = assetPrice - ((assetPrice * _percentage) / (10**18));\n    }\n}\n",
  "sourcePath": "/home/jasoons/Documents/code/longshort/contracts/contracts/mocks/PriceOracle.sol",
  "compiler": {
    "name": "solc",
    "version": "0.6.12+commit.27d51765.Emscripten.clang"
  },
  "schemaVersion": "3.3.3",
  "updatedAt": "2021-01-29T14:38:38.835Z",
  "networkType": "ethereum",
  "devdoc": {
    "kind": "dev",
    "methods": {},
    "version": 1
  },
  "userdoc": {
    "kind": "user",
    "methods": {},
    "version": 1
  }
}