{
  "contractName": "Staker",
  "abi": [
    {
      "anonymous": false,
      "inputs": [],
      "name": "DeployV0",
      "type": "event"
    },
    {
      "anonymous": false,
      "inputs": [
        {
          "indexed": false,
          "internalType": "address",
          "name": "user",
          "type": "address"
        },
        {
          "indexed": false,
          "internalType": "address",
          "name": "tokenAddress",
          "type": "address"
        },
        {
          "indexed": false,
          "internalType": "uint256",
          "name": "amount",
          "type": "uint256"
        }
      ],
      "name": "FloatAccumulated",
      "type": "event"
    },
    {
      "anonymous": false,
      "inputs": [
        {
          "indexed": false,
          "internalType": "address",
          "name": "user",
          "type": "address"
        },
        {
          "indexed": false,
          "internalType": "uint256",
          "name": "amount",
          "type": "uint256"
        }
      ],
      "name": "FloatMinted",
      "type": "event"
    },
    {
      "anonymous": false,
      "inputs": [
        {
          "indexed": false,
          "internalType": "address",
          "name": "user",
          "type": "address"
        },
        {
          "indexed": false,
          "internalType": "address",
          "name": "tokenAddress",
          "type": "address"
        },
        {
          "indexed": false,
          "internalType": "uint256",
          "name": "amount",
          "type": "uint256"
        }
      ],
      "name": "StakeAdded",
      "type": "event"
    },
    {
      "anonymous": false,
      "inputs": [
        {
          "indexed": false,
          "internalType": "address",
          "name": "user",
          "type": "address"
        },
        {
          "indexed": false,
          "internalType": "address",
          "name": "tokenAddress",
          "type": "address"
        },
        {
          "indexed": false,
          "internalType": "uint256",
          "name": "amount",
          "type": "uint256"
        }
      ],
      "name": "StakeWithdrawn",
      "type": "event"
    },
    {
      "anonymous": false,
      "inputs": [
        {
          "indexed": false,
          "internalType": "address",
          "name": "tokenAddress",
          "type": "address"
        },
        {
          "indexed": false,
          "internalType": "uint256",
          "name": "stateIndex",
          "type": "uint256"
        },
        {
          "indexed": false,
          "internalType": "uint256",
          "name": "timestamp",
          "type": "uint256"
        },
        {
          "indexed": false,
          "internalType": "uint256",
          "name": "accumulative",
          "type": "uint256"
        }
      ],
      "name": "StateAdded",
      "type": "event"
    },
    {
      "inputs": [
        {
          "internalType": "address",
          "name": "",
          "type": "address"
        }
      ],
      "name": "accumulatedFloat",
      "outputs": [
        {
          "internalType": "uint256",
          "name": "",
          "type": "uint256"
        }
      ],
      "stateMutability": "view",
      "type": "function",
      "constant": true
    },
    {
      "inputs": [],
      "name": "admin",
      "outputs": [
        {
          "internalType": "address",
          "name": "",
          "type": "address"
        }
      ],
      "stateMutability": "view",
      "type": "function",
      "constant": true
    },
    {
      "inputs": [],
      "name": "floatContract",
      "outputs": [
        {
          "internalType": "contract LongShort",
          "name": "",
          "type": "address"
        }
      ],
      "stateMutability": "view",
      "type": "function",
      "constant": true
    },
    {
      "inputs": [],
      "name": "floatToken",
      "outputs": [
        {
          "internalType": "contract FloatToken",
          "name": "",
          "type": "address"
        }
      ],
      "stateMutability": "view",
      "type": "function",
      "constant": true
    },
    {
      "inputs": [
        {
          "internalType": "address",
          "name": "",
          "type": "address"
        }
      ],
      "name": "latestRewardIndex",
      "outputs": [
        {
          "internalType": "uint256",
          "name": "",
          "type": "uint256"
        }
      ],
      "stateMutability": "view",
      "type": "function",
      "constant": true
    },
    {
      "inputs": [
        {
          "internalType": "address",
          "name": "",
          "type": "address"
        }
      ],
      "name": "marketIndexOfToken",
      "outputs": [
        {
          "internalType": "uint256",
          "name": "",
          "type": "uint256"
        }
      ],
      "stateMutability": "view",
      "type": "function",
      "constant": true
    },
    {
      "inputs": [
        {
          "internalType": "address",
          "name": "",
          "type": "address"
        },
        {
          "internalType": "uint256",
          "name": "",
          "type": "uint256"
        }
      ],
      "name": "syntheticRewardParams",
      "outputs": [
        {
          "internalType": "uint256",
          "name": "timestamp",
          "type": "uint256"
        },
        {
          "internalType": "uint256",
          "name": "accumulativeFloatPerSecond",
          "type": "uint256"
        }
      ],
      "stateMutability": "view",
      "type": "function",
      "constant": true
    },
    {
      "inputs": [
        {
          "internalType": "address",
          "name": "",
          "type": "address"
        },
        {
          "internalType": "address",
          "name": "",
          "type": "address"
        }
      ],
      "name": "userAmountStaked",
      "outputs": [
        {
          "internalType": "uint256",
          "name": "",
          "type": "uint256"
        }
      ],
      "stateMutability": "view",
      "type": "function",
      "constant": true
    },
    {
      "inputs": [
        {
          "internalType": "address",
          "name": "",
          "type": "address"
        },
        {
          "internalType": "address",
          "name": "",
          "type": "address"
        }
      ],
      "name": "userIndexOfLastClaimedReward",
      "outputs": [
        {
          "internalType": "uint256",
          "name": "",
          "type": "uint256"
        }
      ],
      "stateMutability": "view",
      "type": "function",
      "constant": true
    },
    {
      "inputs": [
        {
          "internalType": "address",
          "name": "_admin",
          "type": "address"
        },
        {
          "internalType": "address",
          "name": "_floatContract",
          "type": "address"
        },
        {
          "internalType": "address",
          "name": "_floatToken",
          "type": "address"
        }
      ],
      "name": "initialize",
      "outputs": [],
      "stateMutability": "nonpayable",
      "type": "function"
    },
    {
      "inputs": [
        {
          "internalType": "address",
          "name": "_admin",
          "type": "address"
        }
      ],
      "name": "changeAdmin",
      "outputs": [],
      "stateMutability": "nonpayable",
      "type": "function"
    },
    {
      "inputs": [
        {
          "internalType": "uint256",
          "name": "marketIndex",
          "type": "uint256"
        },
        {
          "internalType": "address",
          "name": "longTokenAddress",
          "type": "address"
        },
        {
          "internalType": "address",
          "name": "shortTokenAddress",
          "type": "address"
        }
      ],
      "name": "addNewStakingFund",
      "outputs": [],
      "stateMutability": "nonpayable",
      "type": "function"
    },
    {
      "inputs": [
        {
          "internalType": "address",
          "name": "longTokenAddress",
          "type": "address"
        },
        {
          "internalType": "address",
          "name": "shortTokenAddress",
          "type": "address"
        },
        {
          "internalType": "uint256",
          "name": "longTokenPrice",
          "type": "uint256"
        },
        {
          "internalType": "uint256",
          "name": "shortTokenPrice",
          "type": "uint256"
        },
        {
          "internalType": "uint256",
          "name": "longValue",
          "type": "uint256"
        },
        {
          "internalType": "uint256",
          "name": "shortValue",
          "type": "uint256"
        }
      ],
      "name": "addNewStateForFloatRewards",
      "outputs": [],
      "stateMutability": "nonpayable",
      "type": "function"
    },
    {
      "inputs": [
        {
          "internalType": "address",
          "name": "tokenAddress",
          "type": "address"
        },
        {
          "internalType": "uint256",
          "name": "amount",
          "type": "uint256"
        }
      ],
      "name": "stake",
      "outputs": [],
      "stateMutability": "nonpayable",
      "type": "function"
    },
    {
      "inputs": [
        {
          "internalType": "address",
          "name": "tokenAddress",
          "type": "address"
        },
        {
          "internalType": "uint256",
          "name": "amount",
          "type": "uint256"
        }
      ],
      "name": "stakeAndEarnImmediately",
      "outputs": [],
      "stateMutability": "nonpayable",
      "type": "function"
    },
    {
      "inputs": [
        {
          "internalType": "address",
          "name": "tokenAddress",
          "type": "address"
        },
        {
          "internalType": "uint256",
          "name": "amount",
          "type": "uint256"
        },
        {
          "internalType": "address",
          "name": "user",
          "type": "address"
        }
      ],
      "name": "stakeTransferredTokens",
      "outputs": [],
      "stateMutability": "nonpayable",
      "type": "function"
    },
    {
      "inputs": [
        {
          "internalType": "address",
          "name": "tokenAddress",
          "type": "address"
        },
        {
          "internalType": "uint256",
          "name": "amount",
          "type": "uint256"
        }
      ],
      "name": "withdraw",
      "outputs": [],
      "stateMutability": "nonpayable",
      "type": "function"
    },
    {
      "inputs": [],
      "name": "mintFloat",
      "outputs": [],
      "stateMutability": "nonpayable",
      "type": "function"
    }
  ],
  "bytecode": "0x608060405234801561001057600080fd5b506111e8806100206000396000f3fe608060405234801561001057600080fd5b50600436106101165760003560e01c8063c0c53b8b116100a2578063f2d4f5d211610071578063f2d4f5d21461032f578063f3fef3a314610365578063f3ff5fef14610391578063f851a440146103d6578063fab2ad40146103de57610116565b8063c0c53b8b1461029b578063c17f8ce9146102d3578063d946790014610301578063eae5a8d91461032757610116565b80638f283970116100e95780638f283970146101a7578063a4e7d108146101cd578063aa240726146101f9578063adc9772e14610241578063bf92106d1461026d57610116565b806315f2081d1461011b578063234bf63414610153578063885eae3e146101795780638e50dedf1461019d575b600080fd5b6101416004803603602081101561013157600080fd5b50356001600160a01b0316610412565b60408051918252519081900360200190f35b6101416004803603602081101561016957600080fd5b50356001600160a01b0316610424565b610181610436565b604080516001600160a01b039092168252519081900360200190f35b6101a5610445565b005b6101a5600480360360208110156101bd57600080fd5b50356001600160a01b0316610517565b6101a5600480360360408110156101e357600080fd5b506001600160a01b038135169060200135610592565b6101a5600480360360c081101561020f57600080fd5b506001600160a01b03813581169160208101359091169060408101359060608101359060808101359060a001356106a0565b6101a56004803603604081101561025757600080fd5b506001600160a01b0381351690602001356106e1565b6101416004803603604081101561028357600080fd5b506001600160a01b0381358116916020013516610754565b6101a5600480360360608110156102b157600080fd5b506001600160a01b038135811691602081013582169160409091013516610771565b610141600480360360408110156102e957600080fd5b506001600160a01b0381358116916020013516610867565b6101416004803603602081101561031757600080fd5b50356001600160a01b0316610884565b610181610896565b6101a56004803603606081101561034557600080fd5b506001600160a01b038135811691602081013591604090910135166108a5565b6101a56004803603604081101561037b57600080fd5b506001600160a01b0381351690602001356108c9565b6103bd600480360360408110156103a757600080fd5b506001600160a01b038135169060200135610a57565b6040805192835260208301919091528051918290030190f35b610181610a7b565b6101a5600480360360608110156103f457600080fd5b508035906001600160a01b0360208201358116916040013516610a90565b60056020526000908152604090205481565b60026020526000908152604090205481565b6008546001600160a01b031681565b3360009081526002602052604090205415610515573360008181526002602052604080822080549083905560095482516340c10f1960e01b8152600481019590955260248501829052915190936001600160a01b03909216926340c10f19926044808201939182900301818387803b1580156104c057600080fd5b505af11580156104d4573d6000803e3d6000fd5b5050604080513381526020810185905281517f715ca2690dcd53354795dc38b832bd571a39a0ad89b2737ca96cd707bddd9d5c9450908190039091019150a1505b565b6000546201000090046001600160a01b03163314610568576040805162461bcd60e51b81526020600482015260096024820152683737ba1030b236b4b760b91b604482015290519081900360640190fd5b600080546001600160a01b03909216620100000262010000600160b01b0319909216919091179055565b6001600160a01b038216600090815260016020526040902054829060ff166105f3576040805162461bcd60e51b815260206004820152600f60248201526e0dcdee840ecc2d8d2c840e6f2dce8d608b1b604482015290519081900360640190fd5b6008546001600160a01b03848116600090815260056020526040808220548151631ebe838360e11b8152600481019190915290519290931692633d7d0706926024808301939282900301818387803b15801561064e57600080fd5b505af1158015610662573d6000803e3d6000fd5b5050505061067083836106e1565b50506001600160a01b03166000908152600760209081526040808320546004835281842033855290925290912055565b6008546001600160a01b031633146106b757600080fd5b6106c086610bc5565b156106d9576106cf8685610bf8565b6106d98584610bf8565b505050505050565b6001600160a01b038216600090815260016020526040902054829060ff16610742576040805162461bcd60e51b815260206004820152600f60248201526e0dcdee840ecc2d8d2c840e6f2dce8d608b1b604482015290519081900360640190fd5b61074f8383336000610cab565b505050565b600460209081526000928352604080842090915290825290205481565b600054610100900460ff168061078a575061078a610e67565b80610798575060005460ff16155b6107d35760405162461bcd60e51b815260040180806020018281038252602e815260200180611164602e913960400191505060405180910390fd5b600054610100900460ff161580156107fe576000805460ff1961ff0019909116610100171660011790555b600080546001600160a01b03808716620100000262010000600160b01b031990921691909117909155600880548583166001600160a01b03199182161790915560098054928516929091169190911790558015610861576000805461ff00191690555b50505050565b600360209081526000928352604080842090915290825290205481565b60076020526000908152604090205481565b6009546001600160a01b031681565b6008546001600160a01b031633146108bc57600080fd5b6106708383836001610cab565b6001600160a01b0382166000908152600360209081526040808320338452909152902054610934576040805162461bcd60e51b81526020600482015260136024820152726e6f7468696e6720746f20776974686472617760681b604482015290519081900360640190fd5b61093d82610e78565b6001600160a01b038216600090815260036020908152604080832033845290915290205461096b9082610f1a565b6001600160a01b03831660008181526003602090815260408083203380855290835281842095909555805163a9059cbb60e01b815260048101959095526024850186905251929363a9059cbb9360448083019491928390030190829087803b1580156109d657600080fd5b505af11580156109ea573d6000803e3d6000fd5b505050506040513d6020811015610a0057600080fd5b50610a0b9050610445565b604080513381526001600160a01b038416602082015280820183905290517fb7c918e0e249f999e965cafeb6c664271b3f4317d296461500e71da39f0cbda39181900360600190a15050565b60066020908152600092835260408084209091529082529020805460019091015482565b6000546201000090046001600160a01b031681565b6008546001600160a01b03163314610aa757600080fd5b6001600160a01b038281166000818152600160208181526040808420805460ff19908116851790915595871680855281852080549097168417909655848452600582528084208990558584528084208990558484526006808352818520858052835281852042808255908501869055968552825280842084805282528084208681559092018390558151938452830182905282810193909352606082015290517ff2ed3ded7239352543c32455ccd4d109eedda4c3599627843338159622095f069181900360800190a1604080516001600160a01b03831681526000602082018190524282840152606082015290517ff2ed3ded7239352543c32455ccd4d109eedda4c3599627843338159622095f069181900360800190a1505050565b6001600160a01b03811660009081526006602090815260408083206007835281842054845290915290205442035b919050565b6001600160a01b038216600090815260076020526040902054600101610c1e8383610f7c565b6001600160a01b0384166000818152600660209081526040808320868452808352818420600181019687554290819055858552600784528285208890559387905282529354845193845290830185905282840191909152606082015290517ff2ed3ded7239352543c32455ccd4d109eedda4c3599627843338159622095f069181900360800190a1505050565b80610d3657604080516323b872dd60e01b81526001600160a01b038481166004830152306024830152604482018690529151918616916323b872dd916064808201926020929091908290030181600087803b158015610d0957600080fd5b505af1158015610d1d573d6000803e3d6000fd5b505050506040513d6020811015610d3357600080fd5b50505b6001600160a01b0380851660009081526003602090815260408083209386168352929052205415610da8576001600160a01b03808516600090815260076020908152604080832054600483528184209487168452939091529020541015610da857610da084610e78565b610da8610445565b6001600160a01b03808516600090815260036020908152604080832093861683529290522054610dd89084610fe1565b6001600160a01b038086166000818152600360209081526040808320948816808452948252808320959095558282526007815284822054600482528583208584528252918590206001909201909155835192835282015280820185905290517ffb8efd70c9f0ca009bfc9f2ca8a9256a5aefbc720bdb8d838e4bcd42c241b9eb9181900360600190a150505050565b6000610e7230611042565b15905090565b6000610e8382611048565b6001600160a01b038316600090815260076020908152604080832054600483528184203385529092529091205590508015610f16573360008181526002602090815260409182902080548501905581519283526001600160a01b03851690830152818101839052517f2c56814f39d500631d5fc8d08906c52bde575876c8c0f23b89e8474b5c83f3d89181900360600190a15b5050565b600082821115610f71576040805162461bcd60e51b815260206004820152601e60248201527f536166654d6174683a207375627472616374696f6e206f766572666c6f770000604482015290519081900360640190fd5b508082035b92915050565b600080610f8883611107565b90506000610f9585610bc5565b9050610fd8610fa4828461110a565b6001600160a01b03871660009081526006602090815260408083206007835281842054845290915290206001015490610fe1565b95945050505050565b60008282018381101561103b576040805162461bcd60e51b815260206004820152601b60248201527f536166654d6174683a206164646974696f6e206f766572666c6f770000000000604482015290519081900360640190fd5b9392505050565b3b151590565b6001600160a01b03811660009081526007602090815260408083205460048352818420338552909252822054111561108257506000610bf3565b6001600160a01b03821660008181526006602090815260408083206004835281842033855283528184205484528083528184206001908101549585526007845282852054855292528220015490916110da9190610f1a565b6001600160a01b038416600090815260036020908152604080832033845290915290205402915050919050565b90565b60008261111957506000610f76565b8282028284828161112657fe5b041461103b5760405162461bcd60e51b81526004018080602001828103825260218152602001806111926021913960400191505060405180910390fdfe496e697469616c697a61626c653a20636f6e747261637420697320616c726561647920696e697469616c697a6564536166654d6174683a206d756c7469706c69636174696f6e206f766572666c6f77a264697066735822122099d9f76ca81438424f1b825c389bd138c955581bf428be2f907c09d4d59ea4bb64736f6c63430007060033",
  "immutableReferences": {},
  "source": "//SPDX-License-Identifier: Unlicense\npragma solidity 0.7.6;\n\nimport \"@openzeppelin/contracts-upgradeable/presets/ERC20PresetMinterPauserUpgradeable.sol\";\nimport \"./LongShort.sol\";\nimport \"./FloatToken.sol\";\n\n/*\n    ###### Purpose of contract ########\n    This smart contract allows users to securely stake fTokens\n    that represent their synthetic exposure.\n\n    Staking sythentic tokens will ensure that the liquidity of the\n    synthetic market is increased, and entitle users to FLOAT rewards.\n*/\n\n/** @title Staker Contract (name is WIP) */\ncontract Staker is Initializable {\n    using SafeMathUpgradeable for uint256;\n\n    ////////////////////////////////////\n    //////// VARIABLES /////////////////\n    ////////////////////////////////////\n\n    ///////// Global ///////////\n    address public admin;\n    mapping(address => bool) syntheticValid;\n\n    ///////// User Specific ///////////\n    mapping(address => uint256) public accumulatedFloat;\n    mapping(address => mapping(address => uint256)) public userAmountStaked; // synthetic token type -> user -> amount staked\n    mapping(address => mapping(address => uint256))\n        public userIndexOfLastClaimedReward;\n\n    struct RewardState {\n        uint256 timestamp;\n        uint256 accumulativeFloatPerSecond;\n    }\n\n    mapping(address => uint256) public marketIndexOfToken;\n    // token address -> state index -> float reward state\n    mapping(address => mapping(uint256 => RewardState))\n        public syntheticRewardParams;\n    // token address -> last state reward index set\n    mapping(address => uint256) public latestRewardIndex;\n\n    ///////// LongShort Contract ///////////\n    LongShort public floatContract;\n    FloatToken public floatToken;\n\n    ////////////////////////////////////\n    /////////// EVENTS /////////////////\n    ////////////////////////////////////\n\n    event DeployV0();\n    event StateAdded(\n        address tokenAddress,\n        uint256 stateIndex,\n        uint256 timestamp,\n        uint256 accumulative\n    );\n    event StakeAdded(address user, address tokenAddress, uint256 amount);\n    event StakeWithdrawn(address user, address tokenAddress, uint256 amount);\n    event FloatMinted(address user, uint256 amount);\n    event FloatAccumulated(address user, address tokenAddress, uint256 amount);\n\n    ////////////////////////////////////\n    /////////// MODIFIERS //////////////\n    ////////////////////////////////////\n\n    modifier onlyAdmin() {\n        require(msg.sender == admin, \"not admin\");\n        _;\n    }\n\n    modifier onlyValidSynthetic(address _synthAddress) {\n        require(syntheticValid[_synthAddress], \"not valid synth\");\n        _;\n    }\n\n    modifier onlyFloat() {\n        require(msg.sender == address(floatContract));\n        _;\n    }\n\n    ////////////////////////////////////\n    ///// CONTRACT SET-UP //////////////\n    ////////////////////////////////////\n\n    function initialize(\n        address _admin,\n        address _floatContract,\n        address _floatToken\n    ) public initializer {\n        admin = _admin;\n        floatContract = LongShort(_floatContract);\n        floatToken = FloatToken(_floatToken);\n    }\n\n    ////////////////////////////////////\n    /// MULTISIG ADMIN FUNCTIONS ///////\n    ////////////////////////////////////\n\n    function changeAdmin(address _admin) external onlyAdmin {\n        admin = _admin;\n    }\n\n    ////////////////////////////////////\n    /////////// STAKING SETUP //////////\n    ////////////////////////////////////\n\n    function addNewStakingFund(\n        uint256 marketIndex,\n        address longTokenAddress,\n        address shortTokenAddress\n    ) external onlyFloat {\n        syntheticValid[longTokenAddress] = true;\n        syntheticValid[shortTokenAddress] = true;\n        marketIndexOfToken[longTokenAddress] = marketIndex;\n        marketIndexOfToken[shortTokenAddress] = marketIndex;\n\n        syntheticRewardParams[longTokenAddress][0].timestamp = block.timestamp;\n        syntheticRewardParams[longTokenAddress][0]\n            .accumulativeFloatPerSecond = 0;\n\n        syntheticRewardParams[shortTokenAddress][0].timestamp = block.timestamp;\n        syntheticRewardParams[shortTokenAddress][0]\n            .accumulativeFloatPerSecond = 0;\n\n        emit StateAdded(longTokenAddress, 0, block.timestamp, 0);\n        emit StateAdded(shortTokenAddress, 0, block.timestamp, 0);\n    }\n\n    ////////////////////////////////////\n    // GLOBAL REWARD STATE FUNCTIONS ///\n    ////////////////////////////////////\n\n    function calculateFloatPerSecond(uint256 tokenPrice)\n        internal\n        view\n        returns (uint256)\n    {\n        // Note this function will be depedant on other things.\n        // I.e. See latex paper for full details\n        // Lets assumeis some function of\n        // 1)  the order book imbalance\n        // 2)  the price of the token stake\n        // (3)  perhaps time (awarding early adopters more)\n        // (4)  Perhaps which market\n        // (5)  scalar for imbalance\n        // (6) amount already locked from that token\n        return tokenPrice;\n    }\n\n    function calculateTimeDelta(address tokenAddress)\n        internal\n        view\n        returns (uint256)\n    {\n        return\n            block.timestamp -\n            syntheticRewardParams[tokenAddress][latestRewardIndex[tokenAddress]]\n                .timestamp;\n    }\n\n    function calculateNewAccumulative(address tokenAddress, uint256 tokenPrice)\n        internal\n        view\n        returns (uint256)\n    {\n        uint256 floatPerSecond = calculateFloatPerSecond(tokenPrice);\n        uint256 timeDelta = calculateTimeDelta(tokenAddress);\n        return\n            syntheticRewardParams[tokenAddress][latestRewardIndex[tokenAddress]]\n                .accumulativeFloatPerSecond\n                .add(timeDelta.mul(floatPerSecond));\n    }\n\n    function setRewardObjects(address tokenAddress, uint256 tokenPrice)\n        internal\n    {\n        uint256 newIndex = latestRewardIndex[tokenAddress] + 1;\n        // Set accumulative\n        syntheticRewardParams[tokenAddress][newIndex]\n            .accumulativeFloatPerSecond = calculateNewAccumulative(\n            tokenAddress,\n            tokenPrice\n        );\n        // set timestsamp\n        syntheticRewardParams[tokenAddress][newIndex].timestamp = block\n            .timestamp;\n        // set next index\n        latestRewardIndex[tokenAddress] = newIndex;\n\n        emit StateAdded(\n            tokenAddress,\n            newIndex,\n            block.timestamp,\n            syntheticRewardParams[tokenAddress][newIndex]\n                .accumulativeFloatPerSecond\n        );\n    }\n\n    function addNewStateForFloatRewards(\n        address longTokenAddress,\n        address shortTokenAddress,\n        uint256 longTokenPrice,\n        uint256 shortTokenPrice,\n        uint256 longValue,\n        uint256 shortValue\n    ) external onlyFloat {\n        // If this is the first update this block\n        // calculate the accumulative.\n        if (calculateTimeDelta(longTokenAddress) != 0) {\n            setRewardObjects(longTokenAddress, longTokenPrice);\n            setRewardObjects(shortTokenAddress, shortTokenPrice);\n        }\n    }\n\n    ////////////////////////////////////\n    // USER REWARD STATE FUNCTIONS ///\n    ////////////////////////////////////\n\n    function calculateAccumulatedFloat(address tokenAddress)\n        internal\n        returns (uint256)\n    {\n        // Safe Math will make this fail in case users try to claim immediately after\n        // after deposit before the next state is updated.\n        if (\n            userIndexOfLastClaimedReward[tokenAddress][msg.sender] >\n            latestRewardIndex[tokenAddress]\n        ) {\n            return 0;\n        }\n        uint256 accumDelta =\n            syntheticRewardParams[tokenAddress][latestRewardIndex[tokenAddress]]\n                .accumulativeFloatPerSecond\n                .sub(\n                syntheticRewardParams[tokenAddress][\n                    userIndexOfLastClaimedReward[tokenAddress][msg.sender]\n                ]\n                    .accumulativeFloatPerSecond\n            );\n\n        return accumDelta * userAmountStaked[tokenAddress][msg.sender];\n    }\n\n    function creditAccumulatedFloat(address tokenAddress) internal {\n        uint256 additionalFloat = calculateAccumulatedFloat(tokenAddress);\n        // Set the user has claimed up until now.\n        userIndexOfLastClaimedReward[tokenAddress][\n            msg.sender\n        ] = latestRewardIndex[tokenAddress];\n\n        if (additionalFloat > 0) {\n            // Add float to their balance.\n            accumulatedFloat[msg.sender] =\n                accumulatedFloat[msg.sender] +\n                additionalFloat;\n            emit FloatAccumulated(msg.sender, tokenAddress, additionalFloat);\n        }\n    }\n\n    ////////////////////////////////////\n    /////////// STAKING ////////////////\n    ////////////////////////////////////\n\n    /*\n    Staking function.\n    User can stake (flexibly) and start earning float rewards.\n    Only approved float synthetic tokens can be staked.\n    Users can call this same function to \"top-up\" their stake.\n    */\n    function stake(address tokenAddress, uint256 amount)\n        public\n        onlyValidSynthetic(tokenAddress)\n    {\n        _stake(tokenAddress, amount, msg.sender, false);\n    }\n\n    /*\n    Staking function.\n    This is a more gas heavy staking function.\n    It ensures the user starts earning FLOAT immediately \n    As opposed to from the next state point generated.\n    */\n    function stakeAndEarnImmediately(address tokenAddress, uint256 amount)\n        external\n        onlyValidSynthetic(tokenAddress)\n    {\n        //First update state.\n        floatContract._updateSystemState(marketIndexOfToken[tokenAddress]);\n\n        // Stake for user.\n        stake(tokenAddress, amount);\n\n        // Now we can set the users reward state to the just created state.\n        userIndexOfLastClaimedReward[tokenAddress][\n            msg.sender\n        ] = latestRewardIndex[tokenAddress];\n    }\n\n    /**\n     * Stake tokens that have already been minted for the staker\n     */\n    function stakeTransferredTokens(\n        address tokenAddress,\n        uint256 amount,\n        address user\n    ) external onlyFloat() {\n        _stake(tokenAddress, amount, user, true);\n\n        // system state is already updated on the float side\n        userIndexOfLastClaimedReward[tokenAddress][\n            msg.sender\n        ] = latestRewardIndex[tokenAddress];\n    }\n\n    function _stake(\n        address tokenAddress,\n        uint256 amount,\n        address user,\n        bool alreadyTransferred\n    ) internal {\n        if (!alreadyTransferred) {\n            ERC20PresetMinterPauserUpgradeable(tokenAddress).transferFrom(\n                user,\n                address(this),\n                amount\n            );\n        }\n\n        // If they already have staked, calculate and award them their float.\n        if (userAmountStaked[tokenAddress][user] > 0) {\n            if (\n                userIndexOfLastClaimedReward[tokenAddress][user] <\n                latestRewardIndex[tokenAddress]\n            ) {\n                creditAccumulatedFloat(tokenAddress);\n                mintFloat();\n            }\n        }\n\n        userAmountStaked[tokenAddress][user] = userAmountStaked[tokenAddress][\n            user\n        ]\n            .add(amount);\n\n        // We are currently smashing them out of earnings till the next state update.\n        // Figure out what happens when they fall inbetween state updates.\n        // Note this also effects top up people.\n        userIndexOfLastClaimedReward[tokenAddress][user] =\n            latestRewardIndex[tokenAddress] +\n            1;\n\n        emit StakeAdded(user, tokenAddress, amount);\n    }\n\n    ////////////////////////////////////\n    /////// WITHDRAW n MINT ////////////\n    ////////////////////////////////////\n\n    /*\n    Withdraw function.\n    Mint user any outstanding float before\n    */\n    function withdraw(address tokenAddress, uint256 amount) external {\n        require(\n            userAmountStaked[tokenAddress][msg.sender] > 0,\n            \"nothing to withdraw\"\n        );\n        creditAccumulatedFloat(tokenAddress);\n\n        userAmountStaked[tokenAddress][msg.sender] = userAmountStaked[\n            tokenAddress\n        ][msg.sender]\n            .sub(amount);\n\n        ERC20PresetMinterPauserUpgradeable(tokenAddress).transfer(\n            msg.sender,\n            amount\n        );\n\n        mintFloat();\n        emit StakeWithdrawn(msg.sender, tokenAddress, amount);\n    }\n\n    /*\n    Mint function.\n    If the user has accumulated float, we mint it to them.\n    */\n    function mintFloat() public {\n        if (accumulatedFloat[msg.sender] > 0) {\n            uint256 floatToMint = accumulatedFloat[msg.sender];\n            accumulatedFloat[msg.sender] = 0;\n            // mint and send user floatToMint\n            floatToken.mint(msg.sender, floatToMint);\n            emit FloatMinted(msg.sender, floatToMint);\n        }\n    }\n}\n",
  "sourcePath": "/home/jasoons/Documents/code/longshort/contracts/contracts/Staker.sol",
  "compiler": {
    "name": "solc",
    "version": "0.7.6+commit.7338295f.Emscripten.clang"
  },
  "schemaVersion": "3.3.4",
  "updatedAt": "2021-02-18T12:41:57.425Z",
  "networkType": "ethereum",
  "devdoc": {
    "kind": "dev",
    "methods": {},
    "title": "Staker Contract (name is WIP) ",
    "version": 1
  },
  "userdoc": {
    "kind": "user",
    "methods": {
      "changeAdmin(address)": {
        "notice": "MULTISIG ADMIN FUNCTIONS ///////"
      },
      "stakeTransferredTokens(address,uint256,address)": {
        "notice": "Stake tokens that have already been minted for the staker"
      }
    },
    "version": 1
  }
}