{
  "contractName": "TokenFactory",
  "abi": [
    {
      "inputs": [],
      "name": "DEFAULT_ADMIN_ROLE",
      "outputs": [
        {
          "internalType": "bytes32",
          "name": "",
          "type": "bytes32"
        }
      ],
      "stateMutability": "view",
      "type": "function",
      "constant": true
    },
    {
      "inputs": [],
      "name": "MINTER_ROLE",
      "outputs": [
        {
          "internalType": "bytes32",
          "name": "",
          "type": "bytes32"
        }
      ],
      "stateMutability": "view",
      "type": "function",
      "constant": true
    },
    {
      "inputs": [],
      "name": "PAUSER_ROLE",
      "outputs": [
        {
          "internalType": "bytes32",
          "name": "",
          "type": "bytes32"
        }
      ],
      "stateMutability": "view",
      "type": "function",
      "constant": true
    },
    {
      "inputs": [],
      "name": "admin",
      "outputs": [
        {
          "internalType": "address",
          "name": "",
          "type": "address"
        }
      ],
      "stateMutability": "view",
      "type": "function",
      "constant": true
    },
    {
      "inputs": [],
      "name": "floatContract",
      "outputs": [
        {
          "internalType": "address",
          "name": "",
          "type": "address"
        }
      ],
      "stateMutability": "view",
      "type": "function",
      "constant": true
    },
    {
      "inputs": [
        {
          "internalType": "address",
          "name": "_admin",
          "type": "address"
        },
        {
          "internalType": "address",
          "name": "_floatContract",
          "type": "address"
        }
      ],
      "name": "setup",
      "outputs": [],
      "stateMutability": "nonpayable",
      "type": "function"
    },
    {
      "inputs": [
        {
          "internalType": "address",
          "name": "_floatContract",
          "type": "address"
        }
      ],
      "name": "changeFloatAddress",
      "outputs": [],
      "stateMutability": "nonpayable",
      "type": "function"
    },
    {
      "inputs": [
        {
          "internalType": "string",
          "name": "syntheticName",
          "type": "string"
        },
        {
          "internalType": "string",
          "name": "syntheticSymbol",
          "type": "string"
        }
      ],
      "name": "createTokenLong",
      "outputs": [
        {
          "internalType": "contract SyntheticToken",
          "name": "",
          "type": "address"
        }
      ],
      "stateMutability": "nonpayable",
      "type": "function"
    },
    {
      "inputs": [
        {
          "internalType": "string",
          "name": "syntheticName",
          "type": "string"
        },
        {
          "internalType": "string",
          "name": "syntheticSymbol",
          "type": "string"
        }
      ],
      "name": "createTokenShort",
      "outputs": [
        {
          "internalType": "contract SyntheticToken",
          "name": "",
          "type": "address"
        }
      ],
      "stateMutability": "nonpayable",
      "type": "function"
    }
  ],
  "bytecode": "0x608060405234801561001057600080fd5b50612aac806100206000396000f3fe608060405234801561001057600080fd5b50600436106100935760003560e01c8063885eae3e11610066578063885eae3e14610286578063a217fddf1461028e578063d5391393146102a8578063e63ab1e9146102b0578063f851a440146102b857610093565b806319459575146100985780632d34ba79146101725780634740dbdf146101a25780634eb86d7314610260575b600080fd5b610156600480360360408110156100ae57600080fd5b810190602081018135600160201b8111156100c857600080fd5b8201836020820111156100da57600080fd5b803590602001918460018302840111600160201b831117156100fb57600080fd5b919390929091602081019035600160201b81111561011857600080fd5b82018360208201111561012a57600080fd5b803590602001918460018302840111600160201b8311171561014b57600080fd5b5090925090506102c0565b604080516001600160a01b039092168252519081900360200190f35b6101a06004803603604081101561018857600080fd5b506001600160a01b03813581169160200135166104b3565b005b610156600480360360408110156101b857600080fd5b810190602081018135600160201b8111156101d257600080fd5b8201836020820111156101e457600080fd5b803590602001918460018302840111600160201b8311171561020557600080fd5b919390929091602081019035600160201b81111561022257600080fd5b82018360208201111561023457600080fd5b803590602001918460018302840111600160201b8311171561025557600080fd5b509092509050610598565b6101a06004803603602081101561027657600080fd5b50356001600160a01b03166106ae565b6101566106ed565b6102966106fc565b60408051918252519081900360200190f35b610296610720565b610296610744565b610156610768565b6001546000906001600160a01b031633146102da57600080fd5b60006040516102e890610aca565b604051809103906000f080158015610304573d6000803e3d6000fd5b509050806001600160a01b0316634cd88b76878760405160200180806a0232627a0aa102227aba7160ad1b815250600b0183838082843780830192505050925050506040516020818303038152906040528686604051602001808061199960f21b81525060020183838082843780830192505050925050506040516020818303038152906040526040518363ffffffff1660e01b8152600401808060200180602001838103835285818151815260200191508051906020019080838360005b838110156103db5781810151838201526020016103c3565b50505050905090810190601f1680156104085780820380516001836020036101000a031916815260200191505b50838103825284518152845160209182019186019080838360005b8381101561043b578181015183820152602001610423565b50505050905090810190601f1680156104685780820380516001836020036101000a031916815260200191505b50945050505050600060405180830381600087803b15801561048957600080fd5b505af115801561049d573d6000803e3d6000fd5b505050506104aa8161077d565b95945050505050565b600054610100900460ff16806104cc57506104cc610ab3565b806104da575060005460ff16155b6105155760405162461bcd60e51b815260040180806020018281038252602e815260200180612a49602e913960400191505060405180910390fd5b600054610100900460ff16158015610540576000805460ff1961ff0019909116610100171660011790555b6000805462010000600160b01b031916620100006001600160a01b038681169190910291909117909155600180546001600160a01b0319169184169190911790558015610593576000805461ff00191690555b505050565b6001546000906001600160a01b031633146105b257600080fd5b60006040516105c090610aca565b604051809103906000f0801580156105dc573d6000803e3d6000fd5b509050806001600160a01b0316634cd88b7687876040516020018080670464c4f41542055560c41b81525060080183838082843780830192505050925050506040516020818303038152906040528686604051602001808061667560f01b8152506002018383808284376040805191909301818103601f1901825280845260e089901b6001600160e01b031916815260048101938452875160448201528751919650929450849350602483019260640191506020870190808383600083156103db5781810151838201526020016103c3565b6000546201000090046001600160a01b031633146106cb57600080fd5b600180546001600160a01b0319166001600160a01b0392909216919091179055565b6001546001600160a01b031681565b7f1effbbff9c66c5e59634f24fe842750c60d18891155c32dd155fc2d661a4c86d81565b7f9f2df0fed2c77648de5860a4cc508cd0818c85b8b8a1ab4ceeef8d981c8956a681565b7f65d7a28e3265b37a6474929f336521b332c1681b933f6cb9f3376673440d862a81565b6000546201000090046001600160a01b031681565b60015460408051632f2ff15d60e01b81527f1effbbff9c66c5e59634f24fe842750c60d18891155c32dd155fc2d661a4c86d60048201526001600160a01b039283166024820152905191831691632f2ff15d9160448082019260009290919082900301818387803b1580156107f157600080fd5b505af1158015610805573d6000803e3d6000fd5b505060015460408051632f2ff15d60e01b81527f9f2df0fed2c77648de5860a4cc508cd0818c85b8b8a1ab4ceeef8d981c8956a660048201526001600160a01b03928316602482015290519185169350632f2ff15d925060448082019260009290919082900301818387803b15801561087d57600080fd5b505af1158015610891573d6000803e3d6000fd5b505060015460408051632f2ff15d60e01b81527f65d7a28e3265b37a6474929f336521b332c1681b933f6cb9f3376673440d862a60048201526001600160a01b03928316602482015290519185169350632f2ff15d925060448082019260009290919082900301818387803b15801561090957600080fd5b505af115801561091d573d6000803e3d6000fd5b50506040805163d547741f60e01b81527f1effbbff9c66c5e59634f24fe842750c60d18891155c32dd155fc2d661a4c86d600482015230602482015290516001600160a01b038516935063d547741f9250604480830192600092919082900301818387803b15801561098e57600080fd5b505af11580156109a2573d6000803e3d6000fd5b50506040805163d547741f60e01b81527f9f2df0fed2c77648de5860a4cc508cd0818c85b8b8a1ab4ceeef8d981c8956a6600482015230602482015290516001600160a01b038516935063d547741f9250604480830192600092919082900301818387803b158015610a1357600080fd5b505af1158015610a27573d6000803e3d6000fd5b50506040805163d547741f60e01b81527f65d7a28e3265b37a6474929f336521b332c1681b933f6cb9f3376673440d862a600482015230602482015290516001600160a01b038516935063d547741f9250604480830192600092919082900301818387803b158015610a9857600080fd5b505af1158015610aac573d6000803e3d6000fd5b5050505050565b6000610abe30610ac4565b15905090565b3b151590565b611f7180610ad88339019056fe608060405234801561001057600080fd5b50611f51806100206000396000f3fe608060405234801561001057600080fd5b50600436106101c45760003560e01c806370a08231116100f9578063a457c2d711610097578063d539139311610071578063d539139314610667578063d547741f1461066f578063dd62ed3e1461069b578063e63ab1e9146106c9576101c4565b8063a457c2d7146105f2578063a9059cbb1461061e578063ca15c8731461064a576101c4565b80639010d07c116100d35780639010d07c1461057757806391d14854146105b657806395d89b41146105e2578063a217fddf146105ea576101c4565b806370a082311461051d57806379cc6790146105435780638456cb591461056f576101c4565b806336568abe1161016657806340c10f191161014057806340c10f191461039f57806342966c68146103cb5780634cd88b76146103e85780635c975abb14610515576101c4565b806336568abe1461033f578063395093511461036b5780633f4ba83a14610397576101c4565b806323b872dd116101a257806323b872dd146102a0578063248a9ca3146102d65780632f2ff15d146102f3578063313ce56714610321576101c4565b806306fdde03146101c9578063095ea7b31461024657806318160ddd14610286575b600080fd5b6101d16106d1565b6040805160208082528351818301528351919283929083019185019080838360005b8381101561020b5781810151838201526020016101f3565b50505050905090810190601f1680156102385780820380516001836020036101000a031916815260200191505b509250505060405180910390f35b6102726004803603604081101561025c57600080fd5b506001600160a01b038135169060200135610767565b604080519115158252519081900360200190f35b61028e610785565b60408051918252519081900360200190f35b610272600480360360608110156102b657600080fd5b506001600160a01b0381358116916020810135909116906040013561078b565b61028e600480360360208110156102ec57600080fd5b5035610812565b61031f6004803603604081101561030957600080fd5b50803590602001356001600160a01b0316610827565b005b610329610893565b6040805160ff9092168252519081900360200190f35b61031f6004803603604081101561035557600080fd5b50803590602001356001600160a01b031661089c565b6102726004803603604081101561038157600080fd5b506001600160a01b0381351690602001356108fd565b61031f61094b565b61031f600480360360408110156103b557600080fd5b506001600160a01b0381351690602001356109aa565b61031f600480360360208110156103e157600080fd5b5035610a1b565b61031f600480360360408110156103fe57600080fd5b81019060208101813564010000000081111561041957600080fd5b82018360208201111561042b57600080fd5b8035906020019184600183028401116401000000008311171561044d57600080fd5b91908080601f01602080910402602001604051908101604052809392919081815260200183838082843760009201919091525092959493602081019350359150506401000000008111156104a057600080fd5b8201836020820111156104b257600080fd5b803590602001918460018302840111640100000000831117156104d457600080fd5b91908080601f016020809104026020016040519081016040528093929190818152602001838380828437600092019190915250929550610a2f945050505050565b610272610add565b61028e6004803603602081101561053357600080fd5b50356001600160a01b0316610ae6565b61031f6004803603604081101561055957600080fd5b506001600160a01b038135169060200135610b01565b61031f610b56565b61059a6004803603604081101561058d57600080fd5b5080359060200135610bb3565b604080516001600160a01b039092168252519081900360200190f35b610272600480360360408110156105cc57600080fd5b50803590602001356001600160a01b0316610bd2565b6101d1610bea565b61028e610c4b565b6102726004803603604081101561060857600080fd5b506001600160a01b038135169060200135610c50565b6102726004803603604081101561063457600080fd5b506001600160a01b038135169060200135610cb8565b61028e6004803603602081101561066057600080fd5b5035610ccc565b61028e610ce3565b61031f6004803603604081101561068557600080fd5b50803590602001356001600160a01b0316610d07565b61028e600480360360408110156106b157600080fd5b506001600160a01b0381358116916020013516610d60565b61028e610d8b565b60688054604080516020601f600260001961010060018816150201909516949094049384018190048102820181019092528281526060939092909183018282801561075d5780601f106107325761010080835404028352916020019161075d565b820191906000526020600020905b81548152906001019060200180831161074057829003601f168201915b5050505050905090565b600061077b610774610d9d565b8484610da1565b5060015b92915050565b60675490565b6000610798848484610e8d565b610808846107a4610d9d565b61080385604051806060016040528060288152602001611d5b602891396001600160a01b038a166000908152606660205260408120906107e2610d9d565b6001600160a01b031681526020810191909152604001600020549190610fea565b610da1565b5060019392505050565b60009081526033602052604090206002015490565b60008281526033602052604090206002015461084a90610845610d9d565b610bd2565b6108855760405162461bcd60e51b815260040180806020018281038252602f815260200180611c2b602f913960400191505060405180910390fd5b61088f8282611081565b5050565b606a5460ff1690565b6108a4610d9d565b6001600160a01b0316816001600160a01b0316146108f35760405162461bcd60e51b815260040180806020018281038252602f815260200180611ec3602f913960400191505060405180910390fd5b61088f82826110ea565b600061077b61090a610d9d565b84610803856066600061091b610d9d565b6001600160a01b03908116825260208083019390935260409182016000908120918c168152925290205490611153565b610965600080516020611d83833981519152610845610d9d565b6109a05760405162461bcd60e51b8152600401808060200182810382526039815260200180611c7c6039913960400191505060405180910390fd5b6109a86111ad565b565b6109d67f9f2df0fed2c77648de5860a4cc508cd0818c85b8b8a1ab4ceeef8d981c8956a6610845610d9d565b610a115760405162461bcd60e51b8152600401808060200182810382526036815260200180611da36036913960400191505060405180910390fd5b61088f828261124d565b610a2c610a26610d9d565b8261133f565b50565b600054610100900460ff1680610a485750610a4861143b565b80610a56575060005460ff16155b610a915760405162461bcd60e51b815260040180806020018281038252602e815260200180611d2d602e913960400191505060405180910390fd5b600054610100900460ff16158015610abc576000805460ff1961ff0019909116610100171660011790555b610ac6838361144c565b8015610ad8576000805461ff00191690555b505050565b60c95460ff1690565b6001600160a01b031660009081526065602052604090205490565b6000610b3882604051806060016040528060248152602001611dd960249139610b3186610b2c610d9d565b610d60565b9190610fea565b9050610b4c83610b46610d9d565b83610da1565b610ad8838361133f565b610b70600080516020611d83833981519152610845610d9d565b610bab5760405162461bcd60e51b8152600401808060200182810382526037815260200180611e676037913960400191505060405180910390fd5b6109a8611515565b6000828152603360205260408120610bcb9083611598565b9392505050565b6000828152603360205260408120610bcb90836115a4565b60698054604080516020601f600260001961010060018816150201909516949094049384018190048102820181019092528281526060939092909183018282801561075d5780601f106107325761010080835404028352916020019161075d565b600081565b600061077b610c5d610d9d565b8461080385604051806060016040528060258152602001611e9e6025913960666000610c87610d9d565b6001600160a01b03908116825260208083019390935260409182016000908120918d16815292529020549190610fea565b600061077b610cc5610d9d565b8484610e8d565b600081815260336020526040812061077f906115b9565b7f9f2df0fed2c77648de5860a4cc508cd0818c85b8b8a1ab4ceeef8d981c8956a681565b600082815260336020526040902060020154610d2590610845610d9d565b6108f35760405162461bcd60e51b8152600401808060200182810382526030815260200180611cfd6030913960400191505060405180910390fd5b6001600160a01b03918216600090815260666020908152604080832093909416825291909152205490565b600080516020611d8383398151915281565b3390565b6001600160a01b038316610de65760405162461bcd60e51b8152600401808060200182810382526024815260200180611e436024913960400191505060405180910390fd5b6001600160a01b038216610e2b5760405162461bcd60e51b8152600401808060200182810382526022815260200180611cb56022913960400191505060405180910390fd5b6001600160a01b03808416600081815260666020908152604080832094871680845294825291829020859055815185815291517f8c5be1e5ebec7d5bd14f71427d1e84f3dd0314c0f7b2291e5b200ac8c7c3b9259281900390910190a3505050565b6001600160a01b038316610ed25760405162461bcd60e51b8152600401808060200182810382526025815260200180611e1e6025913960400191505060405180910390fd5b6001600160a01b038216610f175760405162461bcd60e51b8152600401808060200182810382526023815260200180611c086023913960400191505060405180910390fd5b610f228383836115c4565b610f5f81604051806060016040528060268152602001611cd7602691396001600160a01b0386166000908152606560205260409020549190610fea565b6001600160a01b038085166000908152606560205260408082209390935590841681522054610f8e9082611153565b6001600160a01b0380841660008181526065602090815260409182902094909455805185815290519193928716927fddf252ad1be2c89b69c2b068fc378daa952ba7f163c4a11628f55a4df523b3ef92918290030190a3505050565b600081848411156110795760405162461bcd60e51b81526004018080602001828103825283818151815260200191508051906020019080838360005b8381101561103e578181015183820152602001611026565b50505050905090810190601f16801561106b5780820380516001836020036101000a031916815260200191505b509250505060405180910390fd5b505050900390565b600082815260336020526040902061109990826115cf565b1561088f576110a6610d9d565b6001600160a01b0316816001600160a01b0316837f2f8788117e7eff1d82e926ec794901d17c78024a50270940304540a733656f0d60405160405180910390a45050565b600082815260336020526040902061110290826115e4565b1561088f5761110f610d9d565b6001600160a01b0316816001600160a01b0316837ff6391f5c32d9c69d2a47ea670b442974b53935d1edc7fd64eb21e047a839171b60405160405180910390a45050565b600082820183811015610bcb576040805162461bcd60e51b815260206004820152601b60248201527f536166654d6174683a206164646974696f6e206f766572666c6f770000000000604482015290519081900360640190fd5b6111b5610add565b6111fd576040805162461bcd60e51b815260206004820152601460248201527314185d5cd8589b194e881b9bdd081c185d5cd95960621b604482015290519081900360640190fd5b60c9805460ff191690557f5db9ee0a495bf2e6ff9c91a7834c1ba4fdd244a5e8aa4e537bd38aeae4b073aa611230610d9d565b604080516001600160a01b039092168252519081900360200190a1565b6001600160a01b0382166112a8576040805162461bcd60e51b815260206004820152601f60248201527f45524332303a206d696e7420746f20746865207a65726f206164647265737300604482015290519081900360640190fd5b6112b4600083836115c4565b6067546112c19082611153565b6067556001600160a01b0382166000908152606560205260409020546112e79082611153565b6001600160a01b03831660008181526065602090815260408083209490945583518581529351929391927fddf252ad1be2c89b69c2b068fc378daa952ba7f163c4a11628f55a4df523b3ef9281900390910190a35050565b6001600160a01b0382166113845760405162461bcd60e51b8152600401808060200182810382526021815260200180611dfd6021913960400191505060405180910390fd5b611390826000836115c4565b6113cd81604051806060016040528060228152602001611c5a602291396001600160a01b0385166000908152606560205260409020549190610fea565b6001600160a01b0383166000908152606560205260409020556067546113f390826115f9565b6067556040805182815290516000916001600160a01b038516917fddf252ad1be2c89b69c2b068fc378daa952ba7f163c4a11628f55a4df523b3ef9181900360200190a35050565b600061144630611656565b15905090565b600054610100900460ff1680611465575061146561143b565b80611473575060005460ff16155b6114ae5760405162461bcd60e51b815260040180806020018281038252602e815260200180611d2d602e913960400191505060405180910390fd5b600054610100900460ff161580156114d9576000805460ff1961ff0019909116610100171660011790555b6114e161165c565b6114e961165c565b6114f383836116fd565b6114fb61165c565b6115036117d5565b61150b61165c565b610ac68383611880565b61151d610add565b15611562576040805162461bcd60e51b815260206004820152601060248201526f14185d5cd8589b194e881c185d5cd95960821b604482015290519081900360640190fd5b60c9805460ff191660011790557f62e78cea01bee320cd4e420270b5ea74000d11b0c9f74754ebdbfc544b05a258611230610d9d565b6000610bcb8383611965565b6000610bcb836001600160a01b0384166119c9565b600061077f826119e1565b610ad88383836119e5565b6000610bcb836001600160a01b038416611a34565b6000610bcb836001600160a01b038416611a7e565b600082821115611650576040805162461bcd60e51b815260206004820152601e60248201527f536166654d6174683a207375627472616374696f6e206f766572666c6f770000604482015290519081900360640190fd5b50900390565b3b151590565b600054610100900460ff1680611675575061167561143b565b80611683575060005460ff16155b6116be5760405162461bcd60e51b815260040180806020018281038252602e815260200180611d2d602e913960400191505060405180910390fd5b600054610100900460ff161580156116e9576000805460ff1961ff0019909116610100171660011790555b8015610a2c576000805461ff001916905550565b600054610100900460ff1680611716575061171661143b565b80611724575060005460ff16155b61175f5760405162461bcd60e51b815260040180806020018281038252602e815260200180611d2d602e913960400191505060405180910390fd5b600054610100900460ff1615801561178a576000805460ff1961ff0019909116610100171660011790555b825161179d906068906020860190611b44565b5081516117b1906069906020850190611b44565b50606a805460ff191660121790558015610ad8576000805461ff0019169055505050565b600054610100900460ff16806117ee57506117ee61143b565b806117fc575060005460ff16155b6118375760405162461bcd60e51b815260040180806020018281038252602e815260200180611d2d602e913960400191505060405180910390fd5b600054610100900460ff16158015611862576000805460ff1961ff0019909116610100171660011790555b60c9805460ff191690558015610a2c576000805461ff001916905550565b600054610100900460ff1680611899575061189961143b565b806118a7575060005460ff16155b6118e25760405162461bcd60e51b815260040180806020018281038252602e815260200180611d2d602e913960400191505060405180910390fd5b600054610100900460ff1615801561190d576000805460ff1961ff0019909116610100171660011790555b61191f600061191a610d9d565b610885565b61194b7f9f2df0fed2c77648de5860a4cc508cd0818c85b8b8a1ab4ceeef8d981c8956a661191a610d9d565b610ac6600080516020611d8383398151915261191a610d9d565b815460009082106119a75760405162461bcd60e51b8152600401808060200182810382526022815260200180611be66022913960400191505060405180910390fd5b8260000182815481106119b657fe5b9060005260206000200154905092915050565b60009081526001919091016020526040902054151590565b5490565b6119f0838383610ad8565b6119f8610add565b15610ad85760405162461bcd60e51b815260040180806020018281038252602a815260200180611ef2602a913960400191505060405180910390fd5b6000611a4083836119c9565b611a765750815460018181018455600084815260208082209093018490558454848252828601909352604090209190915561077f565b50600061077f565b60008181526001830160205260408120548015611b3a5783546000198083019190810190600090879083908110611ab157fe5b9060005260206000200154905080876000018481548110611ace57fe5b600091825260208083209091019290925582815260018981019092526040902090840190558654879080611afe57fe5b6001900381819060005260206000200160009055905586600101600087815260200190815260200160002060009055600194505050505061077f565b600091505061077f565b828054600181600116156101000203166002900490600052602060002090601f016020900481019282611b7a5760008555611bc0565b82601f10611b9357805160ff1916838001178555611bc0565b82800160010185558215611bc0579182015b82811115611bc0578251825591602001919060010190611ba5565b50611bcc929150611bd0565b5090565b5b80821115611bcc5760008155600101611bd156fe456e756d657261626c655365743a20696e646578206f7574206f6620626f756e647345524332303a207472616e7366657220746f20746865207a65726f2061646472657373416363657373436f6e74726f6c3a2073656e646572206d75737420626520616e2061646d696e20746f206772616e7445524332303a206275726e20616d6f756e7420657863656564732062616c616e636545524332305072657365744d696e7465725061757365723a206d75737420686176652070617573657220726f6c6520746f20756e706175736545524332303a20617070726f766520746f20746865207a65726f206164647265737345524332303a207472616e7366657220616d6f756e7420657863656564732062616c616e6365416363657373436f6e74726f6c3a2073656e646572206d75737420626520616e2061646d696e20746f207265766f6b65496e697469616c697a61626c653a20636f6e747261637420697320616c726561647920696e697469616c697a656445524332303a207472616e7366657220616d6f756e74206578636565647320616c6c6f77616e636565d7a28e3265b37a6474929f336521b332c1681b933f6cb9f3376673440d862a45524332305072657365744d696e7465725061757365723a206d7573742068617665206d696e74657220726f6c6520746f206d696e7445524332303a206275726e20616d6f756e74206578636565647320616c6c6f77616e636545524332303a206275726e2066726f6d20746865207a65726f206164647265737345524332303a207472616e736665722066726f6d20746865207a65726f206164647265737345524332303a20617070726f76652066726f6d20746865207a65726f206164647265737345524332305072657365744d696e7465725061757365723a206d75737420686176652070617573657220726f6c6520746f20706175736545524332303a2064656372656173656420616c6c6f77616e63652062656c6f77207a65726f416363657373436f6e74726f6c3a2063616e206f6e6c792072656e6f756e636520726f6c657320666f722073656c6645524332305061757361626c653a20746f6b656e207472616e73666572207768696c6520706175736564a2646970667358221220b319b49a98a0c361b557bcd5b9fcbed50757ca24b0f22a266a4e865789fe1c9864736f6c63430007060033496e697469616c697a61626c653a20636f6e747261637420697320616c726561647920696e697469616c697a6564a26469706673582212200bc66800f4ecf5d556d25e26bf06efdfcc10c230080a4283c635c6028da032be64736f6c63430007060033",
  "immutableReferences": {},
  "source": "//SPDX-License-Identifier: Unlicense\npragma solidity 0.7.6;\n\nimport \"@openzeppelin/contracts-upgradeable/proxy/Initializable.sol\";\n\nimport \"./SyntheticToken.sol\";\n\ncontract TokenFactory is Initializable {\n    ////////////////////////////////////\n    /////////////// STATE //////////////\n    ////////////////////////////////////\n\n    address public admin;\n    address public floatContract;\n\n    bytes32 public constant DEFAULT_ADMIN_ROLE =\n        keccak256(\"DEFAULT_ADMIN_ROLE\");\n    bytes32 public constant MINTER_ROLE = keccak256(\"MINTER_ROLE\");\n    bytes32 public constant PAUSER_ROLE = keccak256(\"PAUSER_ROLE\");\n\n    ////////////////////////////////////\n    /////////// MODIFIERS //////////////\n    ////////////////////////////////////\n\n    modifier adminOnly() {\n        require(msg.sender == admin);\n        _;\n    }\n\n    modifier onlyFLOAT() {\n        require(msg.sender == floatContract);\n        _;\n    }\n\n    ////////////////////////////////////\n    //////////// SET-UP ////////////////\n    ////////////////////////////////////\n\n    function setup(address _admin, address _floatContract) public initializer {\n        admin = _admin;\n        floatContract = _floatContract;\n    }\n\n    ////////////////////////////////////\n    //////////// UTILS /////////////////\n    ////////////////////////////////////\n\n    function changeFloatAddress(address _floatContract) external adminOnly {\n        floatContract = _floatContract;\n    }\n\n    ////////////////////////////////////\n    ///////// TOKEN CREATION ///////////\n    ////////////////////////////////////\n\n    function setupPermissions(SyntheticToken tokenContract) internal {\n        // Give minter roles\n        tokenContract.grantRole(DEFAULT_ADMIN_ROLE, floatContract);\n        tokenContract.grantRole(MINTER_ROLE, floatContract);\n        tokenContract.grantRole(PAUSER_ROLE, floatContract);\n\n        // Revoke roles\n        tokenContract.revokeRole(DEFAULT_ADMIN_ROLE, address(this));\n        tokenContract.revokeRole(MINTER_ROLE, address(this));\n        tokenContract.revokeRole(PAUSER_ROLE, address(this));\n    }\n\n    function createTokenLong(\n        string calldata syntheticName,\n        string calldata syntheticSymbol\n    ) external onlyFLOAT returns (SyntheticToken) {\n        SyntheticToken tokenContract;\n        tokenContract = new SyntheticToken();\n        tokenContract.initialize(\n            string(abi.encodePacked(\"FLOAT UP\", syntheticName)),\n            string(abi.encodePacked(\"fu\", syntheticSymbol))\n        );\n        setupPermissions(tokenContract);\n        return tokenContract;\n    }\n\n    function createTokenShort(\n        string calldata syntheticName,\n        string calldata syntheticSymbol\n    ) external onlyFLOAT returns (SyntheticToken) {\n        SyntheticToken tokenContract;\n        tokenContract = new SyntheticToken();\n        tokenContract.initialize(\n            string(abi.encodePacked(\"FLOAT DOWN \", syntheticName)),\n            string(abi.encodePacked(\"fd\", syntheticSymbol))\n        );\n\n        setupPermissions(tokenContract);\n        return tokenContract;\n    }\n}\n",
  "sourcePath": "/home/jasoons/Documents/code/longshort/contracts/contracts/TokenFactory.sol",
  "compiler": {
    "name": "solc",
    "version": "0.7.6+commit.7338295f.Emscripten.clang"
  },
  "schemaVersion": "3.3.4",
  "updatedAt": "2021-02-16T12:50:36.438Z",
  "networkType": "ethereum",
  "devdoc": {
    "kind": "dev",
    "methods": {},
    "version": 1
  },
  "userdoc": {
    "kind": "user",
    "methods": {},
    "version": 1
  }
}