{
  "contractName": "TokenFactory",
  "abi": [
    {
      "inputs": [],
      "name": "DEFAULT_ADMIN_ROLE",
      "outputs": [
        {
          "internalType": "bytes32",
          "name": "",
          "type": "bytes32"
        }
      ],
      "stateMutability": "view",
      "type": "function",
      "constant": true
    },
    {
      "inputs": [],
      "name": "MINTER_ROLE",
      "outputs": [
        {
          "internalType": "bytes32",
          "name": "",
          "type": "bytes32"
        }
      ],
      "stateMutability": "view",
      "type": "function",
      "constant": true
    },
    {
      "inputs": [],
      "name": "PAUSER_ROLE",
      "outputs": [
        {
          "internalType": "bytes32",
          "name": "",
          "type": "bytes32"
        }
      ],
      "stateMutability": "view",
      "type": "function",
      "constant": true
    },
    {
      "inputs": [],
      "name": "admin",
      "outputs": [
        {
          "internalType": "address",
          "name": "",
          "type": "address"
        }
      ],
      "stateMutability": "view",
      "type": "function",
      "constant": true
    },
    {
      "inputs": [],
      "name": "floatContract",
      "outputs": [
        {
          "internalType": "address",
          "name": "",
          "type": "address"
        }
      ],
      "stateMutability": "view",
      "type": "function",
      "constant": true
    },
    {
      "inputs": [
        {
          "internalType": "address",
          "name": "_admin",
          "type": "address"
        },
        {
          "internalType": "address",
          "name": "_floatContract",
          "type": "address"
        }
      ],
      "name": "setup",
      "outputs": [],
      "stateMutability": "nonpayable",
      "type": "function"
    },
    {
      "inputs": [
        {
          "internalType": "address",
          "name": "_floatContract",
          "type": "address"
        }
      ],
      "name": "changeFloatAddress",
      "outputs": [],
      "stateMutability": "nonpayable",
      "type": "function"
    },
    {
      "inputs": [
        {
          "internalType": "string",
          "name": "syntheticName",
          "type": "string"
        },
        {
          "internalType": "string",
          "name": "syntheticSymbol",
          "type": "string"
        },
        {
          "internalType": "uint256",
          "name": "marketIndex",
          "type": "uint256"
        }
      ],
      "name": "createTokenLong",
      "outputs": [
        {
          "internalType": "contract SyntheticToken",
          "name": "",
          "type": "address"
        }
      ],
      "stateMutability": "nonpayable",
      "type": "function"
    },
    {
      "inputs": [
        {
          "internalType": "string",
          "name": "syntheticName",
          "type": "string"
        },
        {
          "internalType": "string",
          "name": "syntheticSymbol",
          "type": "string"
        },
        {
          "internalType": "uint256",
          "name": "marketIndex",
          "type": "uint256"
        }
      ],
      "name": "createTokenShort",
      "outputs": [
        {
          "internalType": "contract SyntheticToken",
          "name": "",
          "type": "address"
        }
      ],
      "stateMutability": "nonpayable",
      "type": "function"
    }
  ],
  "bytecode": "0x608060405234801561001057600080fd5b50612ee8806100206000396000f3fe608060405234801561001057600080fd5b50600436106100935760003560e01c8063a217fddf11610066578063a217fddf146101d0578063d5391393146101ea578063d5af62e1146101f2578063e63ab1e9146102b0578063f851a440146102b857610093565b80632d34ba79146100985780632d46e402146100c85780634eb86d73146101a2578063885eae3e146101c8575b600080fd5b6100c6600480360360408110156100ae57600080fd5b506001600160a01b03813581169160200135166102c0565b005b610186600480360360608110156100de57600080fd5b810190602081018135600160201b8111156100f857600080fd5b82018360208201111561010a57600080fd5b803590602001918460018302840111600160201b8311171561012b57600080fd5b919390929091602081019035600160201b81111561014857600080fd5b82018360208201111561015a57600080fd5b803590602001918460018302840111600160201b8311171561017b57600080fd5b9193509150356103a5565b604080516001600160a01b039092168252519081900360200190f35b6100c6600480360360208110156101b857600080fd5b50356001600160a01b03166105c5565b610186610604565b6101d8610613565b60408051918252519081900360200190f35b6101d8610637565b6101866004803603606081101561020857600080fd5b810190602081018135600160201b81111561022257600080fd5b82018360208201111561023457600080fd5b803590602001918460018302840111600160201b8311171561025557600080fd5b919390929091602081019035600160201b81111561027257600080fd5b82018360208201111561028457600080fd5b803590602001918460018302840111600160201b831117156102a557600080fd5b91935091503561065b565b6101d861079e565b6101866107c2565b600054610100900460ff16806102d957506102d96107d7565b806102e7575060005460ff16155b6103225760405162461bcd60e51b815260040180806020018281038252602e815260200180612e85602e913960400191505060405180910390fd5b600054610100900460ff1615801561034d576000805460ff1961ff0019909116610100171660011790555b6000805462010000600160b01b031916620100006001600160a01b038681169190910291909117909155600180546001600160a01b03191691841691909117905580156103a0576000805461ff00191690555b505050565b6001546000906001600160a01b031633146103bf57600080fd5b60006040516103cd90610b24565b604051809103906000f0801580156103e9573d6000803e3d6000fd5b509050806001600160a01b031663a031256388886040516020018080670464c4f41542055560c41b81525060080183838082843780830192505050925050506040516020818303038152906040528787604051602001808061667560f01b8152506002018383808284376040805191909301818103601f19018252928390526001805460e08a901b6001600160e01b03191685526001600160a01b03166044850181905260648501829052608485018e905260a060048601908152895160a487015289519398509096509094508c939092508291602482019160c4019060208a019080838360005b838110156104e95781810151838201526020016104d1565b50505050905090810190601f1680156105165780820380516001836020036101000a031916815260200191505b50838103825287518152875160209182019189019080838360005b83811015610549578181015183820152602001610531565b50505050905090810190601f1680156105765780820380516001836020036101000a031916815260200191505b50975050505050505050600060405180830381600087803b15801561059a57600080fd5b505af11580156105ae573d6000803e3d6000fd5b505050506105bb816107e8565b9695505050505050565b6000546201000090046001600160a01b031633146105e257600080fd5b600180546001600160a01b0319166001600160a01b0392909216919091179055565b6001546001600160a01b031681565b7f1effbbff9c66c5e59634f24fe842750c60d18891155c32dd155fc2d661a4c86d81565b7f9f2df0fed2c77648de5860a4cc508cd0818c85b8b8a1ab4ceeef8d981c8956a681565b6001546000906001600160a01b0316331461067557600080fd5b600060405161068390610b24565b604051809103906000f08015801561069f573d6000803e3d6000fd5b509050806001600160a01b031663a0312563888860405160200180806a0232627a0aa102227aba7160ad1b815250600b0183838082843780830192505050925050506040516020818303038152906040528787604051602001808061199960f21b8152506002018383808284376040805191909301818103601f190182529283905260015460e089901b6001600160e01b03191684526001600160a01b031660448401819052600060648501819052608485018e905260a060048601908152895160a4870152895193985091965094508c939092508291602482019160c4019060208a01908083838a83156104e95781810151838201526020016104d1565b7f65d7a28e3265b37a6474929f336521b332c1681b933f6cb9f3376673440d862a81565b6000546201000090046001600160a01b031681565b60006107e230610b1e565b15905090565b60015460408051632f2ff15d60e01b81527f1effbbff9c66c5e59634f24fe842750c60d18891155c32dd155fc2d661a4c86d60048201526001600160a01b039283166024820152905191831691632f2ff15d9160448082019260009290919082900301818387803b15801561085c57600080fd5b505af1158015610870573d6000803e3d6000fd5b505060015460408051632f2ff15d60e01b81527f9f2df0fed2c77648de5860a4cc508cd0818c85b8b8a1ab4ceeef8d981c8956a660048201526001600160a01b03928316602482015290519185169350632f2ff15d925060448082019260009290919082900301818387803b1580156108e857600080fd5b505af11580156108fc573d6000803e3d6000fd5b505060015460408051632f2ff15d60e01b81527f65d7a28e3265b37a6474929f336521b332c1681b933f6cb9f3376673440d862a60048201526001600160a01b03928316602482015290519185169350632f2ff15d925060448082019260009290919082900301818387803b15801561097457600080fd5b505af1158015610988573d6000803e3d6000fd5b50506040805163d547741f60e01b81527f1effbbff9c66c5e59634f24fe842750c60d18891155c32dd155fc2d661a4c86d600482015230602482015290516001600160a01b038516935063d547741f9250604480830192600092919082900301818387803b1580156109f957600080fd5b505af1158015610a0d573d6000803e3d6000fd5b50506040805163d547741f60e01b81527f9f2df0fed2c77648de5860a4cc508cd0818c85b8b8a1ab4ceeef8d981c8956a6600482015230602482015290516001600160a01b038516935063d547741f9250604480830192600092919082900301818387803b158015610a7e57600080fd5b505af1158015610a92573d6000803e3d6000fd5b50506040805163d547741f60e01b81527f65d7a28e3265b37a6474929f336521b332c1681b933f6cb9f3376673440d862a600482015230602482015290516001600160a01b038516935063d547741f9250604480830192600092919082900301818387803b158015610b0357600080fd5b505af1158015610b17573d6000803e3d6000fd5b5050505050565b3b151590565b61235380610b328339019056fe608060405234801561001057600080fd5b50612333806100206000396000f3fe608060405234801561001057600080fd5b50600436106101fb5760003560e01c806370a082311161011a578063a217fddf116100ad578063d53913931161007c578063d5391393146107f1578063d547741f146107f9578063db006a7514610825578063dd62ed3e14610842578063e63ab1e914610870576101fb565b8063a217fddf14610774578063a457c2d71461077c578063a9059cbb146107a8578063ca15c873146107d4576101fb565b80639010d07c116100e95780639010d07c146105de57806391d148541461060157806395d89b411461062d578063a031256314610635576101fb565b806370a082311461057c57806379cc6790146105a25780638456cb59146105ce5780638c7adc15146105d6576101fb565b8063313ce5671161019257806340c10f191161016157806340c10f191461040257806342966c681461042e5780634cd88b761461044b5780635c975abb14610574576101fb565b8063313ce5671461038457806336568abe146103a257806339509351146103ce5780633f4ba83a146103fa576101fb565b806323b872dd116101ce57806323b872dd146102df578063248a9ca31461031557806329949872146103325780632f2ff15d14610356576101fb565b806306fdde0314610200578063095ea7b31461027d57806318160ddd146102bd578063202a61a1146102d7575b600080fd5b610208610878565b6040805160208082528351818301528351919283929083019185019080838360005b8381101561024257818101518382015260200161022a565b50505050905090810190601f16801561026f5780820380516001836020036101000a031916815260200191505b509250505060405180910390f35b6102a96004803603604081101561029357600080fd5b506001600160a01b03813516906020013561090e565b604080519115158252519081900360200190f35b6102c561092c565b60408051918252519081900360200190f35b6102a9610932565b6102a9600480360360608110156102f557600080fd5b506001600160a01b0381358116916020810135909116906040013561093c565b6102c56004803603602081101561032b57600080fd5b50356109c3565b61033a6109d8565b604080516001600160a01b039092168252519081900360200190f35b6103826004803603604081101561036c57600080fd5b50803590602001356001600160a01b03166109ed565b005b61038c610a59565b6040805160ff9092168252519081900360200190f35b610382600480360360408110156103b857600080fd5b50803590602001356001600160a01b0316610a62565b6102a9600480360360408110156103e457600080fd5b506001600160a01b038135169060200135610ac3565b610382610b11565b6103826004803603604081101561041857600080fd5b506001600160a01b038135169060200135610b70565b6103826004803603602081101561044457600080fd5b5035610be1565b6103826004803603604081101561046157600080fd5b810190602081018135600160201b81111561047b57600080fd5b82018360208201111561048d57600080fd5b803590602001918460018302840111600160201b831117156104ae57600080fd5b91908080601f0160208091040260200160405190810160405280939291908181526020018383808284376000920191909152509295949360208101935035915050600160201b81111561050057600080fd5b82018360208201111561051257600080fd5b803590602001918460018302840111600160201b8311171561053357600080fd5b91908080601f016020809104026020016040519081016040528093929190818152602001838380828437600092019190915250929550610bf5945050505050565b6102a9610ca3565b6102c56004803603602081101561059257600080fd5b50356001600160a01b0316610cac565b610382600480360360408110156105b857600080fd5b506001600160a01b038135169060200135610cc7565b610382610d1c565b6102c5610d79565b61033a600480360360408110156105f457600080fd5b5080359060200135610d80565b6102a96004803603604081101561061757600080fd5b50803590602001356001600160a01b0316610d9f565b610208610db7565b610382600480360360a081101561064b57600080fd5b810190602081018135600160201b81111561066557600080fd5b82018360208201111561067757600080fd5b803590602001918460018302840111600160201b8311171561069857600080fd5b91908080601f0160208091040260200160405190810160405280939291908181526020018383808284376000920191909152509295949360208101935035915050600160201b8111156106ea57600080fd5b8201836020820111156106fc57600080fd5b803590602001918460018302840111600160201b8311171561071d57600080fd5b91908080601f016020809104026020016040519081016040528093929190818152602001838380828437600092019190915250929550506001600160a01b0383351693505050602081013515159060400135610e18565b6102c5610ef8565b6102a96004803603604081101561079257600080fd5b506001600160a01b038135169060200135610efd565b6102a9600480360360408110156107be57600080fd5b506001600160a01b038135169060200135610f65565b6102c5600480360360208110156107ea57600080fd5b5035610f79565b6102c5610f90565b6103826004803603604081101561080f57600080fd5b50803590602001356001600160a01b0316610fb4565b6103826004803603602081101561083b57600080fd5b503561100d565b6102c56004803603604081101561085857600080fd5b506001600160a01b0381358116916020013516611142565b6102c561116d565b60688054604080516020601f60026000196101006001881615020190951694909404938401819004810282018101909252828152606093909290918301828280156109045780601f106108d957610100808354040283529160200191610904565b820191906000526020600020905b8154815290600101906020018083116108e757829003601f168201915b5050505050905090565b600061092261091b61117f565b8484611183565b5060015b92915050565b60675490565b61015f5460ff1681565b600061094984848461126f565b6109b98461095561117f565b6109b48560405180606001604052806028815260200161213d602891396001600160a01b038a1660009081526066602052604081209061099361117f565b6001600160a01b0316815260208101919091526040016000205491906113cc565b611183565b5060019392505050565b60009081526033602052604090206002015490565b61015f5461010090046001600160a01b031681565b600082815260336020526040902060020154610a1090610a0b61117f565b610d9f565b610a4b5760405162461bcd60e51b815260040180806020018281038252602f81526020018061200d602f913960400191505060405180910390fd5b610a558282611463565b5050565b606a5460ff1690565b610a6a61117f565b6001600160a01b0316816001600160a01b031614610ab95760405162461bcd60e51b815260040180806020018281038252602f8152602001806122a5602f913960400191505060405180910390fd5b610a5582826114cc565b6000610922610ad061117f565b846109b48560666000610ae161117f565b6001600160a01b03908116825260208083019390935260409182016000908120918c168152925290205490611535565b610b2b600080516020612165833981519152610a0b61117f565b610b665760405162461bcd60e51b815260040180806020018281038252603981526020018061205e6039913960400191505060405180910390fd5b610b6e61158f565b565b610b9c7f9f2df0fed2c77648de5860a4cc508cd0818c85b8b8a1ab4ceeef8d981c8956a6610a0b61117f565b610bd75760405162461bcd60e51b81526004018080602001828103825260368152602001806121856036913960400191505060405180910390fd5b610a55828261162f565b610bf2610bec61117f565b82611721565b50565b600054610100900460ff1680610c0e5750610c0e61181d565b80610c1c575060005460ff16155b610c575760405162461bcd60e51b815260040180806020018281038252602e81526020018061210f602e913960400191505060405180910390fd5b600054610100900460ff16158015610c82576000805460ff1961ff0019909116610100171660011790555b610c8c838361182e565b8015610c9e576000805461ff00191690555b505050565b60c95460ff1690565b6001600160a01b031660009081526065602052604090205490565b6000610cfe826040518060600160405280602481526020016121bb60249139610cf786610cf261117f565b611142565b91906113cc565b9050610d1283610d0c61117f565b83611183565b610c9e8383611721565b610d36600080516020612165833981519152610a0b61117f565b610d715760405162461bcd60e51b81526004018080602001828103825260378152602001806122496037913960400191505060405180910390fd5b610b6e6118f7565b6101605481565b6000828152603360205260408120610d98908361197a565b9392505050565b6000828152603360205260408120610d989083611986565b60698054604080516020601f60026000196101006001881615020190951694909404938401819004810282018101909252828152606093909290918301828280156109045780601f106108d957610100808354040283529160200191610904565b600054610100900460ff1680610e315750610e3161181d565b80610e3f575060005460ff16155b610e7a5760405162461bcd60e51b815260040180806020018281038252602e81526020018061210f602e913960400191505060405180910390fd5b600054610100900460ff16158015610ea5576000805460ff1961ff0019909116610100171660011790555b610eaf8686610bf5565b61015f805460ff191684151517610100600160a81b0319166101006001600160a01b038716021790556101608290558015610ef0576000805461ff00191690555b505050505050565b600081565b6000610922610f0a61117f565b846109b4856040518060600160405280602581526020016122806025913960666000610f3461117f565b6001600160a01b03908116825260208083019390935260409182016000908120918d168152925290205491906113cc565b6000610922610f7261117f565b848461126f565b60008181526033602052604081206109269061199b565b7f9f2df0fed2c77648de5860a4cc508cd0818c85b8b8a1ab4ceeef8d981c8956a681565b600082815260336020526040902060020154610fd290610a0b61117f565b610ab95760405162461bcd60e51b81526004018080602001828103825260308152602001806120df6030913960400191505060405180910390fd5b61103061101861117f565b61015f5461010090046001600160a01b031683611183565b61015f5460ff16156110c05761015f60019054906101000a90046001600160a01b03166001600160a01b03166387d3249761016054836040518363ffffffff1660e01b81526004018083815260200182815260200192505050600060405180830381600087803b1580156110a357600080fd5b505af11580156110b7573d6000803e3d6000fd5b50505050610bf2565b61015f60019054906101000a90046001600160a01b03166001600160a01b031663a104438f61016054836040518363ffffffff1660e01b81526004018083815260200182815260200192505050600060405180830381600087803b15801561112757600080fd5b505af115801561113b573d6000803e3d6000fd5b5050505050565b6001600160a01b03918216600090815260666020908152604080832093909416825291909152205490565b60008051602061216583398151915281565b3390565b6001600160a01b0383166111c85760405162461bcd60e51b81526004018080602001828103825260248152602001806122256024913960400191505060405180910390fd5b6001600160a01b03821661120d5760405162461bcd60e51b81526004018080602001828103825260228152602001806120976022913960400191505060405180910390fd5b6001600160a01b03808416600081815260666020908152604080832094871680845294825291829020859055815185815291517f8c5be1e5ebec7d5bd14f71427d1e84f3dd0314c0f7b2291e5b200ac8c7c3b9259281900390910190a3505050565b6001600160a01b0383166112b45760405162461bcd60e51b81526004018080602001828103825260258152602001806122006025913960400191505060405180910390fd5b6001600160a01b0382166112f95760405162461bcd60e51b8152600401808060200182810382526023815260200180611fea6023913960400191505060405180910390fd5b6113048383836119a6565b611341816040518060600160405280602681526020016120b9602691396001600160a01b03861660009081526065602052604090205491906113cc565b6001600160a01b0380851660009081526065602052604080822093909355908416815220546113709082611535565b6001600160a01b0380841660008181526065602090815260409182902094909455805185815290519193928716927fddf252ad1be2c89b69c2b068fc378daa952ba7f163c4a11628f55a4df523b3ef92918290030190a3505050565b6000818484111561145b5760405162461bcd60e51b81526004018080602001828103825283818151815260200191508051906020019080838360005b83811015611420578181015183820152602001611408565b50505050905090810190601f16801561144d5780820380516001836020036101000a031916815260200191505b509250505060405180910390fd5b505050900390565b600082815260336020526040902061147b90826119b1565b15610a555761148861117f565b6001600160a01b0316816001600160a01b0316837f2f8788117e7eff1d82e926ec794901d17c78024a50270940304540a733656f0d60405160405180910390a45050565b60008281526033602052604090206114e490826119c6565b15610a55576114f161117f565b6001600160a01b0316816001600160a01b0316837ff6391f5c32d9c69d2a47ea670b442974b53935d1edc7fd64eb21e047a839171b60405160405180910390a45050565b600082820183811015610d98576040805162461bcd60e51b815260206004820152601b60248201527f536166654d6174683a206164646974696f6e206f766572666c6f770000000000604482015290519081900360640190fd5b611597610ca3565b6115df576040805162461bcd60e51b815260206004820152601460248201527314185d5cd8589b194e881b9bdd081c185d5cd95960621b604482015290519081900360640190fd5b60c9805460ff191690557f5db9ee0a495bf2e6ff9c91a7834c1ba4fdd244a5e8aa4e537bd38aeae4b073aa61161261117f565b604080516001600160a01b039092168252519081900360200190a1565b6001600160a01b03821661168a576040805162461bcd60e51b815260206004820152601f60248201527f45524332303a206d696e7420746f20746865207a65726f206164647265737300604482015290519081900360640190fd5b611696600083836119a6565b6067546116a39082611535565b6067556001600160a01b0382166000908152606560205260409020546116c99082611535565b6001600160a01b03831660008181526065602090815260408083209490945583518581529351929391927fddf252ad1be2c89b69c2b068fc378daa952ba7f163c4a11628f55a4df523b3ef9281900390910190a35050565b6001600160a01b0382166117665760405162461bcd60e51b81526004018080602001828103825260218152602001806121df6021913960400191505060405180910390fd5b611772826000836119a6565b6117af8160405180606001604052806022815260200161203c602291396001600160a01b03851660009081526065602052604090205491906113cc565b6001600160a01b0383166000908152606560205260409020556067546117d590826119db565b6067556040805182815290516000916001600160a01b038516917fddf252ad1be2c89b69c2b068fc378daa952ba7f163c4a11628f55a4df523b3ef9181900360200190a35050565b600061182830611a38565b15905090565b600054610100900460ff1680611847575061184761181d565b80611855575060005460ff16155b6118905760405162461bcd60e51b815260040180806020018281038252602e81526020018061210f602e913960400191505060405180910390fd5b600054610100900460ff161580156118bb576000805460ff1961ff0019909116610100171660011790555b6118c3611a3e565b6118cb611a3e565b6118d58383611adf565b6118dd611a3e565b6118e5611bb7565b6118ed611a3e565b610c8c8383611c62565b6118ff610ca3565b15611944576040805162461bcd60e51b815260206004820152601060248201526f14185d5cd8589b194e881c185d5cd95960821b604482015290519081900360640190fd5b60c9805460ff191660011790557f62e78cea01bee320cd4e420270b5ea74000d11b0c9f74754ebdbfc544b05a25861161261117f565b6000610d988383611d47565b6000610d98836001600160a01b038416611dab565b600061092682611dc3565b610c9e838383611dc7565b6000610d98836001600160a01b038416611e16565b6000610d98836001600160a01b038416611e60565b600082821115611a32576040805162461bcd60e51b815260206004820152601e60248201527f536166654d6174683a207375627472616374696f6e206f766572666c6f770000604482015290519081900360640190fd5b50900390565b3b151590565b600054610100900460ff1680611a575750611a5761181d565b80611a65575060005460ff16155b611aa05760405162461bcd60e51b815260040180806020018281038252602e81526020018061210f602e913960400191505060405180910390fd5b600054610100900460ff16158015611acb576000805460ff1961ff0019909116610100171660011790555b8015610bf2576000805461ff001916905550565b600054610100900460ff1680611af85750611af861181d565b80611b06575060005460ff16155b611b415760405162461bcd60e51b815260040180806020018281038252602e81526020018061210f602e913960400191505060405180910390fd5b600054610100900460ff16158015611b6c576000805460ff1961ff0019909116610100171660011790555b8251611b7f906068906020860190611f26565b508151611b93906069906020850190611f26565b50606a805460ff191660121790558015610c9e576000805461ff0019169055505050565b600054610100900460ff1680611bd05750611bd061181d565b80611bde575060005460ff16155b611c195760405162461bcd60e51b815260040180806020018281038252602e81526020018061210f602e913960400191505060405180910390fd5b600054610100900460ff16158015611c44576000805460ff1961ff0019909116610100171660011790555b60c9805460ff191690558015610bf2576000805461ff001916905550565b600054610100900460ff1680611c7b5750611c7b61181d565b80611c89575060005460ff16155b611cc45760405162461bcd60e51b815260040180806020018281038252602e81526020018061210f602e913960400191505060405180910390fd5b600054610100900460ff16158015611cef576000805460ff1961ff0019909116610100171660011790555b611d016000611cfc61117f565b610a4b565b611d2d7f9f2df0fed2c77648de5860a4cc508cd0818c85b8b8a1ab4ceeef8d981c8956a6611cfc61117f565b610c8c600080516020612165833981519152611cfc61117f565b81546000908210611d895760405162461bcd60e51b8152600401808060200182810382526022815260200180611fc86022913960400191505060405180910390fd5b826000018281548110611d9857fe5b9060005260206000200154905092915050565b60009081526001919091016020526040902054151590565b5490565b611dd2838383610c9e565b611dda610ca3565b15610c9e5760405162461bcd60e51b815260040180806020018281038252602a8152602001806122d4602a913960400191505060405180910390fd5b6000611e228383611dab565b611e5857508154600181810184556000848152602080822090930184905584548482528286019093526040902091909155610926565b506000610926565b60008181526001830160205260408120548015611f1c5783546000198083019190810190600090879083908110611e9357fe5b9060005260206000200154905080876000018481548110611eb057fe5b600091825260208083209091019290925582815260018981019092526040902090840190558654879080611ee057fe5b60019003818190600052602060002001600090559055866001016000878152602001908152602001600020600090556001945050505050610926565b6000915050610926565b828054600181600116156101000203166002900490600052602060002090601f016020900481019282611f5c5760008555611fa2565b82601f10611f7557805160ff1916838001178555611fa2565b82800160010185558215611fa2579182015b82811115611fa2578251825591602001919060010190611f87565b50611fae929150611fb2565b5090565b5b80821115611fae5760008155600101611fb356fe456e756d657261626c655365743a20696e646578206f7574206f6620626f756e647345524332303a207472616e7366657220746f20746865207a65726f2061646472657373416363657373436f6e74726f6c3a2073656e646572206d75737420626520616e2061646d696e20746f206772616e7445524332303a206275726e20616d6f756e7420657863656564732062616c616e636545524332305072657365744d696e7465725061757365723a206d75737420686176652070617573657220726f6c6520746f20756e706175736545524332303a20617070726f766520746f20746865207a65726f206164647265737345524332303a207472616e7366657220616d6f756e7420657863656564732062616c616e6365416363657373436f6e74726f6c3a2073656e646572206d75737420626520616e2061646d696e20746f207265766f6b65496e697469616c697a61626c653a20636f6e747261637420697320616c726561647920696e697469616c697a656445524332303a207472616e7366657220616d6f756e74206578636565647320616c6c6f77616e636565d7a28e3265b37a6474929f336521b332c1681b933f6cb9f3376673440d862a45524332305072657365744d696e7465725061757365723a206d7573742068617665206d696e74657220726f6c6520746f206d696e7445524332303a206275726e20616d6f756e74206578636565647320616c6c6f77616e636545524332303a206275726e2066726f6d20746865207a65726f206164647265737345524332303a207472616e736665722066726f6d20746865207a65726f206164647265737345524332303a20617070726f76652066726f6d20746865207a65726f206164647265737345524332305072657365744d696e7465725061757365723a206d75737420686176652070617573657220726f6c6520746f20706175736545524332303a2064656372656173656420616c6c6f77616e63652062656c6f77207a65726f416363657373436f6e74726f6c3a2063616e206f6e6c792072656e6f756e636520726f6c657320666f722073656c6645524332305061757361626c653a20746f6b656e207472616e73666572207768696c6520706175736564a2646970667358221220c26776e678c3888533b8fbd3719059d81773f7c6447b09fcbe17906e02f3e4fa64736f6c63430007060033496e697469616c697a61626c653a20636f6e747261637420697320616c726561647920696e697469616c697a6564a2646970667358221220f66ce27fee130fa84edf72fb37d5c3561db49039676a8287a06a318332aeed3f64736f6c63430007060033",
  "immutableReferences": {},
  "source": "//SPDX-License-Identifier: Unlicense\npragma solidity 0.7.6;\n\nimport \"@openzeppelin/contracts-upgradeable/proxy/Initializable.sol\";\n\nimport \"./SyntheticToken.sol\";\n\ncontract TokenFactory is Initializable {\n    ////////////////////////////////////\n    /////////////// STATE //////////////\n    ////////////////////////////////////\n\n    address public admin;\n    address public floatContract;\n\n    bytes32 public constant DEFAULT_ADMIN_ROLE =\n        keccak256(\"DEFAULT_ADMIN_ROLE\");\n    bytes32 public constant MINTER_ROLE = keccak256(\"MINTER_ROLE\");\n    bytes32 public constant PAUSER_ROLE = keccak256(\"PAUSER_ROLE\");\n\n    ////////////////////////////////////\n    /////////// MODIFIERS //////////////\n    ////////////////////////////////////\n\n    modifier adminOnly() {\n        require(msg.sender == admin);\n        _;\n    }\n\n    modifier onlyFLOAT() {\n        require(msg.sender == floatContract);\n        _;\n    }\n\n    ////////////////////////////////////\n    //////////// SET-UP ////////////////\n    ////////////////////////////////////\n\n    function setup(address _admin, address _floatContract) public initializer {\n        admin = _admin;\n        floatContract = _floatContract;\n    }\n\n    ////////////////////////////////////\n    //////////// UTILS /////////////////\n    ////////////////////////////////////\n\n    function changeFloatAddress(address _floatContract) external adminOnly {\n        floatContract = _floatContract;\n    }\n\n    ////////////////////////////////////\n    ///////// TOKEN CREATION ///////////\n    ////////////////////////////////////\n\n    function setupPermissions(SyntheticToken tokenContract) internal {\n        // Give minter roles\n        tokenContract.grantRole(DEFAULT_ADMIN_ROLE, floatContract);\n        tokenContract.grantRole(MINTER_ROLE, floatContract);\n        tokenContract.grantRole(PAUSER_ROLE, floatContract);\n\n        // Revoke roles\n        tokenContract.revokeRole(DEFAULT_ADMIN_ROLE, address(this));\n        tokenContract.revokeRole(MINTER_ROLE, address(this));\n        tokenContract.revokeRole(PAUSER_ROLE, address(this));\n    }\n\n    function createTokenLong(\n        string calldata syntheticName,\n        string calldata syntheticSymbol,\n        uint256 marketIndex\n    ) external onlyFLOAT returns (SyntheticToken) {\n        SyntheticToken tokenContract;\n        tokenContract = new SyntheticToken();\n        tokenContract.initialize(\n            string(abi.encodePacked(\"FLOAT UP\", syntheticName)),\n            string(abi.encodePacked(\"fu\", syntheticSymbol)),\n            floatContract,\n            true,\n            marketIndex\n        );\n        setupPermissions(tokenContract);\n        return tokenContract;\n    }\n\n    function createTokenShort(\n        string calldata syntheticName,\n        string calldata syntheticSymbol,\n        uint256 marketIndex\n    ) external onlyFLOAT returns (SyntheticToken) {\n        SyntheticToken tokenContract;\n        tokenContract = new SyntheticToken();\n        tokenContract.initialize(\n            string(abi.encodePacked(\"FLOAT DOWN \", syntheticName)),\n            string(abi.encodePacked(\"fd\", syntheticSymbol)),\n            floatContract,\n            false,\n            marketIndex\n        );\n\n        setupPermissions(tokenContract);\n        return tokenContract;\n    }\n}\n",
  "sourcePath": "/home/jasoons/Documents/code/longshort/contracts/contracts/TokenFactory.sol",
  "compiler": {
    "name": "solc",
    "version": "0.7.6+commit.7338295f.Emscripten.clang"
  },
  "schemaVersion": "3.3.4",
  "updatedAt": "2021-02-18T12:41:57.442Z",
  "networkType": "ethereum",
  "devdoc": {
    "kind": "dev",
    "methods": {},
    "version": 1
  },
  "userdoc": {
    "kind": "user",
    "methods": {},
    "version": 1
  }
}