{
  "contractName": "YieldManagerMock",
  "abi": [
    {
      "inputs": [],
      "name": "admin",
      "outputs": [
        {
          "internalType": "address",
          "name": "",
          "type": "address"
        }
      ],
      "stateMutability": "view",
      "type": "function",
      "constant": true
    },
    {
      "inputs": [],
      "name": "lastSettled",
      "outputs": [
        {
          "internalType": "uint256",
          "name": "",
          "type": "uint256"
        }
      ],
      "stateMutability": "view",
      "type": "function",
      "constant": true
    },
    {
      "inputs": [],
      "name": "longShort",
      "outputs": [
        {
          "internalType": "address",
          "name": "",
          "type": "address"
        }
      ],
      "stateMutability": "view",
      "type": "function",
      "constant": true
    },
    {
      "inputs": [],
      "name": "token",
      "outputs": [
        {
          "internalType": "contract ERC20PresetMinterPauserUpgradeable",
          "name": "",
          "type": "address"
        }
      ],
      "stateMutability": "view",
      "type": "function",
      "constant": true
    },
    {
      "inputs": [],
      "name": "totalHeld",
      "outputs": [
        {
          "internalType": "uint256",
          "name": "",
          "type": "uint256"
        }
      ],
      "stateMutability": "view",
      "type": "function",
      "constant": true
    },
    {
      "inputs": [],
      "name": "yieldRate",
      "outputs": [
        {
          "internalType": "uint256",
          "name": "",
          "type": "uint256"
        }
      ],
      "stateMutability": "view",
      "type": "function",
      "constant": true
    },
    {
      "inputs": [],
      "name": "yieldScale",
      "outputs": [
        {
          "internalType": "uint256",
          "name": "",
          "type": "uint256"
        }
      ],
      "stateMutability": "view",
      "type": "function",
      "constant": true
    },
    {
      "inputs": [
        {
          "internalType": "address",
          "name": "_admin",
          "type": "address"
        },
        {
          "internalType": "address",
          "name": "_longShort",
          "type": "address"
        },
        {
          "internalType": "address",
          "name": "_token",
          "type": "address"
        }
      ],
      "name": "setup",
      "outputs": [],
      "stateMutability": "nonpayable",
      "type": "function"
    },
    {
      "inputs": [],
      "name": "settle",
      "outputs": [],
      "stateMutability": "nonpayable",
      "type": "function"
    },
    {
      "inputs": [
        {
          "internalType": "uint256",
          "name": "yield",
          "type": "uint256"
        }
      ],
      "name": "settleWithYield",
      "outputs": [],
      "stateMutability": "nonpayable",
      "type": "function"
    },
    {
      "inputs": [
        {
          "internalType": "uint256",
          "name": "_yieldRate",
          "type": "uint256"
        }
      ],
      "name": "setYieldRate",
      "outputs": [],
      "stateMutability": "nonpayable",
      "type": "function"
    },
    {
      "inputs": [
        {
          "internalType": "uint256",
          "name": "amount",
          "type": "uint256"
        }
      ],
      "name": "depositToken",
      "outputs": [],
      "stateMutability": "nonpayable",
      "type": "function"
    },
    {
      "inputs": [
        {
          "internalType": "uint256",
          "name": "amount",
          "type": "uint256"
        }
      ],
      "name": "withdrawToken",
      "outputs": [],
      "stateMutability": "nonpayable",
      "type": "function"
    },
    {
      "inputs": [],
      "name": "getTotalHeld",
      "outputs": [
        {
          "internalType": "uint256",
          "name": "amount",
          "type": "uint256"
        }
      ],
      "stateMutability": "nonpayable",
      "type": "function"
    },
    {
      "inputs": [],
      "name": "getHeldToken",
      "outputs": [
        {
          "internalType": "address",
          "name": "_token",
          "type": "address"
        }
      ],
      "stateMutability": "view",
      "type": "function",
      "constant": true
    }
  ],
  "bytecode": "0x608060405234801561001057600080fd5b5061093b806100206000396000f3fe608060405234801561001057600080fd5b50600436106100f55760003560e01c806377b8b1c711610097578063acd3315911610066578063acd3315914610206578063f43cc7731461020e578063f851a44014610216578063fc0c546a1461021e576100f5565b806377b8b1c7146101a15780637aba5887146101d95780638fb98017146101e1578063998c0235146101e9576100f5565b8063509f5c32116100d3578063509f5c321461014557806350baa6221461015f5780636215be771461017c5780636999ac9314610199576100f5565b806311da60b4146100fa5780631411dab0146101045780632994987214610121575b600080fd5b610102610226565b005b6101026004803603602081101561011a57600080fd5b50356102fa565b610129610350565b604080516001600160a01b039092168252519081900360200190f35b61014d61035f565b60408051918252519081900360200190f35b6101026004803603602081101561017557600080fd5b5035610365565b6101026004803603602081101561019257600080fd5b5035610463565b61014d610552565b610102600480360360608110156101b757600080fd5b506001600160a01b038135811691602081013582169160409091013516610558565b610129610652565b61014d610661565b610102600480360360208110156101ff57600080fd5b5035610672565b61014d6106e6565b61014d6106f2565b6101296106f8565b61012961070d565b60006102496102406005544261071c90919063ffffffff16565b6004549061077e565b90506000610274670de0b6b3a764000061026e8460035461077e90919063ffffffff16565b906107de565b426005556003549091506102889082610845565b600355600254604080516340c10f1960e01b81523060048201526024810184905290516001600160a01b03909216916340c10f199160448082019260009290919082900301818387803b1580156102de57600080fd5b505af11580156102f2573d6000803e3d6000fd5b505050505050565b6000546201000090046001600160a01b0316331461034b576040805162461bcd60e51b81526020600482015260096024820152682737ba1030b236b4b760b91b604482015290519081900360640190fd5b600455565b6001546001600160a01b031681565b60055481565b6001546001600160a01b031633146103b4576040805162461bcd60e51b815260206004820152600d60248201526c139bdd081b1bdb99d4da1bdc9d609a1b604482015290519081900360640190fd5b6103bc610226565b6003548111156103cb57600080fd5b6002546001546040805163a9059cbb60e01b81526001600160a01b039283166004820152602481018590529051919092169163a9059cbb9160448083019260209291908290030181600087803b15801561042457600080fd5b505af1158015610438573d6000803e3d6000fd5b505050506040513d602081101561044e57600080fd5b505060035461045d908261071c565b60035550565b6001546001600160a01b031633146104b2576040805162461bcd60e51b815260206004820152600d60248201526c139bdd081b1bdb99d4da1bdc9d609a1b604482015290519081900360640190fd5b6104ba610226565b600254600154604080516323b872dd60e01b81526001600160a01b03928316600482015230602482015260448101859052905191909216916323b872dd9160648083019260209291908290030181600087803b15801561051957600080fd5b505af115801561052d573d6000803e3d6000fd5b505050506040513d602081101561054357600080fd5b505060035461045d9082610845565b60045481565b600054610100900460ff1680610571575061057161089f565b8061057f575060005460ff16155b6105ba5760405162461bcd60e51b815260040180806020018281038252602e8152602001806108b7602e913960400191505060405180910390fd5b600054610100900460ff161580156105e5576000805460ff1961ff0019909116610100171660011790555b600080546001600160a01b03808716620100000262010000600160b01b031990921691909117909155600180548583166001600160a01b031991821617909155600280549285169290911691909117905542600555801561064c576000805461ff00191690555b50505050565b6002546001600160a01b031690565b600061066b610226565b5060035490565b6000546201000090046001600160a01b031633146106c3576040805162461bcd60e51b81526020600482015260096024820152682737ba1030b236b4b760b91b604482015290519081900360640190fd5b6000610274670de0b6b3a764000061026e8460035461077e90919063ffffffff16565b670de0b6b3a764000081565b60035481565b6000546201000090046001600160a01b031681565b6002546001600160a01b031681565b600082821115610773576040805162461bcd60e51b815260206004820152601e60248201527f536166654d6174683a207375627472616374696f6e206f766572666c6f770000604482015290519081900360640190fd5b508082035b92915050565b60008261078d57506000610778565b8282028284828161079a57fe5b04146107d75760405162461bcd60e51b81526004018080602001828103825260218152602001806108e56021913960400191505060405180910390fd5b9392505050565b6000808211610834576040805162461bcd60e51b815260206004820152601a60248201527f536166654d6174683a206469766973696f6e206279207a65726f000000000000604482015290519081900360640190fd5b81838161083d57fe5b049392505050565b6000828201838110156107d7576040805162461bcd60e51b815260206004820152601b60248201527f536166654d6174683a206164646974696f6e206f766572666c6f770000000000604482015290519081900360640190fd5b60006108aa306108b0565b15905090565b3b15159056fe496e697469616c697a61626c653a20636f6e747261637420697320616c726561647920696e697469616c697a6564536166654d6174683a206d756c7469706c69636174696f6e206f766572666c6f77a2646970667358221220861da7d7bb44c4c411777c4dda3921d5d0f06f3074430dc460acdea4c7b1148f64736f6c63430007060033",
  "immutableReferences": {},
  "source": "//SPDX-License-Identifier: Unlicense\npragma solidity 0.7.6;\n\nimport \"@openzeppelin/contracts-upgradeable/proxy/Initializable.sol\";\nimport \"@openzeppelin/contracts-upgradeable/math/SafeMathUpgradeable.sol\";\nimport \"@openzeppelin/contracts-upgradeable/presets/ERC20PresetMinterPauserUpgradeable.sol\";\n\nimport \"../interfaces/IYieldManager.sol\";\n\n/*\n * YieldManagerMock is an implementation of a yield manager that supports\n * configurable, deterministic token yields for testing. Note that the mock\n * needs to be able to mint the underlying token to simulate yield.\n */\ncontract YieldManagerMock is IYieldManager, Initializable {\n    using SafeMathUpgradeable for uint256;\n\n    // Admin contracts.\n    address public admin;\n    address public longShort;\n\n    // Fixed-precision scale for interest percentages.\n    uint256 public constant yieldScale = 1e18;\n\n    // Global state.\n    ERC20PresetMinterPauserUpgradeable public token;\n    uint256 public totalHeld;\n    uint256 public yieldRate; // pcnt per sec\n    uint256 public lastSettled; // secs after epoch\n\n    ////////////////////////////////////\n    /////////// MODIFIERS //////////////\n    ////////////////////////////////////\n\n    modifier adminOnly() {\n        require(msg.sender == admin, \"Not admin\");\n        _;\n    }\n\n    modifier longShortOnly() {\n        require(msg.sender == longShort, \"Not longShort\");\n        _;\n    }\n\n    ////////////////////////////////////\n    ///// CONTRACT SET-UP //////////////\n    ////////////////////////////////////\n\n    function setup(\n        address _admin,\n        address _longShort,\n        address _token\n    ) public initializer {\n        // Admin contracts.\n        admin = _admin;\n        longShort = _longShort;\n\n        // Global state.\n        token = ERC20PresetMinterPauserUpgradeable(_token);\n        lastSettled = block.timestamp;\n    }\n\n    ////////////////////////////////////\n    ///// IMPLEMENTATION ///////////////\n    ////////////////////////////////////\n\n    /**\n     * Adds the token's accrued yield to the token holdings.\n     */\n    function settle() public {\n        uint256 totalYieldRate = yieldRate.mul(block.timestamp.sub(lastSettled));\n        uint256 totalYield = totalHeld.mul(totalYieldRate).div(yieldScale);\n\n        lastSettled = block.timestamp;\n        totalHeld = totalHeld.add(totalYield);\n        token.mint(address(this), totalYield);\n    }\n\n    /**\n     * Adds the given yield to the token holdings.\n     */\n    function settleWithYield(uint256 yield) public adminOnly {\n        uint256 totalYield = totalHeld.mul(yield).div(yieldScale);\n\n        lastSettled = block.timestamp;\n        totalHeld = totalHeld.add(totalYield);\n        token.mint(address(this), totalYield);\n    }\n\n    /**\n     * Sets the yield percentage per second for the given token.\n     */\n    function setYieldRate(uint256 _yieldRate) public adminOnly {\n        yieldRate = _yieldRate;\n    }\n\n    function depositToken(uint256 amount) public override longShortOnly {\n        // Ensure token state is current.\n        settle();\n\n        // Transfer tokens to manager contract.\n        token.transferFrom(longShort, address(this), amount);\n        totalHeld = totalHeld.add(amount);\n    }\n\n    function withdrawToken(uint256 amount) public override longShortOnly {\n        // Ensure token state is current.\n        settle();\n        require(amount <= totalHeld);\n\n        // Transfer tokens back to LongShort contract.\n        token.transfer(longShort, amount);\n        totalHeld = totalHeld.sub(amount);\n    }\n\n    function getTotalHeld() public override returns (uint256 amount) {\n        settle();\n\n        return totalHeld;\n    }\n\n    function getHeldToken() public view override returns (address _token) {\n        return address(token);\n    }\n}\n",
  "sourcePath": "/home/jasoons/Documents/code/longshort/contracts/contracts/mocks/YieldManagerMock.sol",
  "compiler": {
    "name": "solc",
    "version": "0.7.6+commit.7338295f.Emscripten.clang"
  },
  "schemaVersion": "3.3.4",
  "updatedAt": "2021-02-18T12:34:35.294Z",
  "networkType": "ethereum",
  "devdoc": {
    "kind": "dev",
    "methods": {},
    "version": 1
  },
  "userdoc": {
    "kind": "user",
    "methods": {
      "setYieldRate(uint256)": {
        "notice": "Sets the yield percentage per second for the given token."
      },
      "settle()": {
        "notice": "Adds the token's accrued yield to the token holdings."
      },
      "settleWithYield(uint256)": {
        "notice": "Adds the given yield to the token holdings."
      }
    },
    "version": 1
  }
}