{
  "contractName": "YieldManagerMock",
  "abi": [
    {
      "inputs": [],
      "name": "admin",
      "outputs": [
        {
          "internalType": "address",
          "name": "",
          "type": "address"
        }
      ],
      "stateMutability": "view",
      "type": "function",
      "constant": true
    },
    {
      "inputs": [],
      "name": "interestScalarDenominator",
      "outputs": [
        {
          "internalType": "uint256",
          "name": "",
          "type": "uint256"
        }
      ],
      "stateMutability": "view",
      "type": "function",
      "constant": true
    },
    {
      "inputs": [
        {
          "internalType": "address",
          "name": "",
          "type": "address"
        }
      ],
      "name": "interestScalarTime",
      "outputs": [
        {
          "internalType": "uint256",
          "name": "",
          "type": "uint256"
        }
      ],
      "stateMutability": "view",
      "type": "function",
      "constant": true
    },
    {
      "inputs": [],
      "name": "longShortContract",
      "outputs": [
        {
          "internalType": "address",
          "name": "",
          "type": "address"
        }
      ],
      "stateMutability": "view",
      "type": "function",
      "constant": true
    },
    {
      "inputs": [
        {
          "internalType": "address",
          "name": "",
          "type": "address"
        }
      ],
      "name": "timeYieldWasLastSettled",
      "outputs": [
        {
          "internalType": "uint256",
          "name": "",
          "type": "uint256"
        }
      ],
      "stateMutability": "view",
      "type": "function",
      "constant": true
    },
    {
      "inputs": [
        {
          "internalType": "address",
          "name": "",
          "type": "address"
        }
      ],
      "name": "totalHeld",
      "outputs": [
        {
          "internalType": "uint256",
          "name": "",
          "type": "uint256"
        }
      ],
      "stateMutability": "view",
      "type": "function",
      "constant": true
    },
    {
      "inputs": [
        {
          "internalType": "address",
          "name": "_admin",
          "type": "address"
        },
        {
          "internalType": "address",
          "name": "_longShort",
          "type": "address"
        }
      ],
      "name": "setup",
      "outputs": [],
      "stateMutability": "nonpayable",
      "type": "function"
    },
    {
      "inputs": [
        {
          "internalType": "address",
          "name": "tokenAddress",
          "type": "address"
        },
        {
          "internalType": "uint256",
          "name": "percentage",
          "type": "uint256"
        }
      ],
      "name": "setYieldRateIncreaseForNextQuery",
      "outputs": [],
      "stateMutability": "nonpayable",
      "type": "function"
    },
    {
      "inputs": [
        {
          "internalType": "address",
          "name": "tokenAddress",
          "type": "address"
        },
        {
          "internalType": "uint256",
          "name": "newPercentage",
          "type": "uint256"
        }
      ],
      "name": "setYieldRateIncreasePerSecond",
      "outputs": [],
      "stateMutability": "nonpayable",
      "type": "function"
    },
    {
      "inputs": [
        {
          "internalType": "address",
          "name": "erc20Token",
          "type": "address"
        },
        {
          "internalType": "uint256",
          "name": "amount",
          "type": "uint256"
        }
      ],
      "name": "depositToken",
      "outputs": [],
      "stateMutability": "nonpayable",
      "type": "function"
    },
    {
      "inputs": [
        {
          "internalType": "address",
          "name": "erc20Token",
          "type": "address"
        },
        {
          "internalType": "uint256",
          "name": "amount",
          "type": "uint256"
        }
      ],
      "name": "withdrawDepositToken",
      "outputs": [
        {
          "internalType": "address",
          "name": "tokenWithdrawn",
          "type": "address"
        },
        {
          "internalType": "uint256",
          "name": "amountWithdrawn",
          "type": "uint256"
        }
      ],
      "stateMutability": "nonpayable",
      "type": "function"
    },
    {
      "inputs": [
        {
          "internalType": "address",
          "name": "erc20Token",
          "type": "address"
        }
      ],
      "name": "getTotalHeld",
      "outputs": [
        {
          "internalType": "uint256",
          "name": "amount",
          "type": "uint256"
        }
      ],
      "stateMutability": "view",
      "type": "function",
      "constant": true
    }
  ],
  "bytecode": "0x608060405234801561001057600080fd5b50610879806100206000396000f3fe608060405234801561001057600080fd5b50600436106100b45760003560e01c8063338b5dea11610071578063338b5dea146101c55780634362707e146101f15780639a2888ea146101f9578063a2df2f7114610248578063f851a4401461026e578063ffd461f414610292576100b4565b806306ed5caf146100b957806318932aa1146100f15780632b587c4e146101175780632c6addc6146101455780632d34ba791461016b5780632d44242b14610199575b600080fd5b6100df600480360360208110156100cf57600080fd5b50356001600160a01b031661029a565b60408051918252519081900360200190f35b6100df6004803603602081101561010757600080fd5b50356001600160a01b0316610341565b6101436004803603604081101561012d57600080fd5b506001600160a01b038135169060200135610353565b005b6100df6004803603602081101561015b57600080fd5b50356001600160a01b03166103cb565b6101436004803603604081101561018157600080fd5b506001600160a01b03813581169160200135166103dd565b610143600480360360408110156101af57600080fd5b506001600160a01b0381351690602001356104c2565b610143600480360360408110156101db57600080fd5b506001600160a01b03813516906020013561056f565b6100df6105c2565b6102256004803603604081101561020f57600080fd5b506001600160a01b0381351690602001356105ce565b604080516001600160a01b03909316835260208301919091528051918290030190f35b6100df6004803603602081101561025e57600080fd5b50356001600160a01b0316610629565b61027661063b565b604080516001600160a01b039092168252519081900360200190f35b610276610650565b6001600160a01b03811660009081526004602052604081205461033b9061031c90678ac7230489e8000090610316906102f7906102d890429061065f565b6001600160a01b038816600090815260036020526040902054906106bc565b6001600160a01b038716600090815260026020526040902054906106bc565b9061071c565b6001600160a01b03841660009081526002602052604090205490610783565b92915050565b60046020526000908152604090205481565b6000546201000090046001600160a01b031633146103a4576040805162461bcd60e51b81526020600482015260096024820152682737ba1030b236b4b760b91b604482015290519081900360640190fd5b6103af8260006104c2565b6001600160a01b03909116600090815260036020526040902055565b60036020526000908152604090205481565b600054610100900460ff16806103f657506103f66107dd565b80610404575060005460ff16155b61043f5760405162461bcd60e51b815260040180806020018281038252602e8152602001806107f5602e913960400191505060405180910390fd5b600054610100900460ff1615801561046a576000805460ff1961ff0019909116610100171660011790555b6000805462010000600160b01b031916620100006001600160a01b038681169190910291909117909155600180546001600160a01b03191691841691909117905580156104bd576000805461ff00191690555b505050565b6000546201000090046001600160a01b03163314610513576040805162461bcd60e51b81526020600482015260096024820152682737ba1030b236b4b760b91b604482015290519081900360640190fd5b600061051e8361029a565b9050610540610539678ac7230489e8000061031684866106bc565b8290610783565b6001600160a01b0390931660009081526002602090815260408083209590955560049052929092204290555050565b6001546001600160a01b031633146105be576040805162461bcd60e51b815260206004820152600d60248201526c139bdd081b1bdb99d4da1bdc9d609a1b604482015290519081900360640190fd5b5050565b678ac7230489e8000081565b60015460009081906001600160a01b03163314610622576040805162461bcd60e51b815260206004820152600d60248201526c139bdd081b1bdb99d4da1bdc9d609a1b604482015290519081900360640190fd5b9250929050565b60026020526000908152604090205481565b6000546201000090046001600160a01b031681565b6001546001600160a01b031681565b6000828211156106b6576040805162461bcd60e51b815260206004820152601e60248201527f536166654d6174683a207375627472616374696f6e206f766572666c6f770000604482015290519081900360640190fd5b50900390565b6000826106cb5750600061033b565b828202828482816106d857fe5b04146107155760405162461bcd60e51b81526004018080602001828103825260218152602001806108236021913960400191505060405180910390fd5b9392505050565b6000808211610772576040805162461bcd60e51b815260206004820152601a60248201527f536166654d6174683a206469766973696f6e206279207a65726f000000000000604482015290519081900360640190fd5b81838161077b57fe5b049392505050565b600082820183811015610715576040805162461bcd60e51b815260206004820152601b60248201527f536166654d6174683a206164646974696f6e206f766572666c6f770000000000604482015290519081900360640190fd5b60006107e8306107ee565b15905090565b3b15159056fe496e697469616c697a61626c653a20636f6e747261637420697320616c726561647920696e697469616c697a6564536166654d6174683a206d756c7469706c69636174696f6e206f766572666c6f77a26469706673582212205c7fbe0edff58b7ca86a6a1be740ec07f00847b9dcf9bb1189d9776b4d20c37a64736f6c63430007060033",
  "immutableReferences": {},
  "source": "//SPDX-License-Identifier: Unlicense\npragma solidity 0.7.6;\n\nimport \"@openzeppelin/contracts-upgradeable/proxy/Initializable.sol\";\n\nimport \"@openzeppelin/contracts-upgradeable/presets/ERC20PresetMinterPauserUpgradeable.sol\";\nimport \"@openzeppelin/contracts-upgradeable/math/SafeMathUpgradeable.sol\";\n\nimport \"../interfaces/IYieldManager.sol\";\n\n/*\nThoughts for the mock:\n* Should accept multiple erc20 tokens\n\nThought, for contract testing we likely want a small yield increase per transaction.\nBut for UI testing, we want yield to be earned smoothly over time.\nMaybe solution is to have a combination of both.\n\nI do think it is a good thing to test that the yield could increase between two transactions in the same block\n  (which should be possible with current lending markets since interactions with the yield platform can happen inbetween)\n */\ncontract YieldManagerMock is IYieldManager, Initializable {\n    using SafeMathUpgradeable for uint256;\n\n    address public admin;\n    address public longShortContract;\n\n    uint256 public constant interestScalarDenominator = 10e18; // = 10^9\n\n    mapping(address => uint256) public totalHeld;\n    mapping(address => uint256) public interestScalarTime;\n    mapping(address => uint256) public timeYieldWasLastSettled;\n\n    modifier adminOnly() {\n        require(msg.sender == admin, \"Not admin\");\n        _;\n    }\n    modifier longShortOnly() {\n        require(msg.sender == longShortContract, \"Not longShort\");\n        _;\n    }\n\n    function setup(address _admin, address _longShort) public initializer {\n        admin = _admin;\n        longShortContract = _longShort;\n    }\n\n    function setYieldRateIncreaseForNextQuery(\n        address tokenAddress,\n        uint256 percentage\n    ) public adminOnly {\n        uint256 currentTotalHeld = getTotalHeld(tokenAddress);\n        totalHeld[tokenAddress] = currentTotalHeld.add(\n            currentTotalHeld.mul(percentage).div(interestScalarDenominator)\n        );\n        timeYieldWasLastSettled[tokenAddress] = block.timestamp;\n    }\n\n    function setYieldRateIncreasePerSecond(\n        address tokenAddress,\n        uint256 newPercentage\n    ) public adminOnly {\n        setYieldRateIncreaseForNextQuery(tokenAddress, 0);\n\n        interestScalarTime[tokenAddress] = newPercentage;\n    }\n\n    function depositToken(address erc20Token, uint256 amount)\n        public\n        override\n        longShortOnly\n    {\n        // erc20Token.burn()\n    }\n\n    // Note, it is possible that this won't be able to withdraw the underlying token - so it may have to give the user the interest bearing token\n    function withdrawDepositToken(address erc20Token, uint256 amount)\n        public\n        override\n        longShortOnly\n        returns (address tokenWithdrawn, uint256 amountWithdrawn)\n    {\n        // token.mint(receiverOfTokens, amountToMintForUser);\n    }\n\n    function getTotalHeld(address erc20Token)\n        public\n        view\n        override\n        returns (uint256 amount)\n    {\n        return\n            totalHeld[erc20Token].add(\n                totalHeld[erc20Token]\n                    .mul(\n                    interestScalarTime[erc20Token].mul(\n                        block.timestamp.sub(timeYieldWasLastSettled[erc20Token])\n                    )\n                )\n                    .div(interestScalarDenominator)\n            );\n    }\n}\n",
  "sourcePath": "/home/jasoons/Documents/code/longshort/contracts/contracts/mocks/YieldManagerMock.sol",
  "compiler": {
    "name": "solc",
    "version": "0.7.6+commit.7338295f.Emscripten.clang"
  },
  "schemaVersion": "3.3.4",
  "updatedAt": "2021-02-16T12:50:36.445Z",
  "networkType": "ethereum",
  "devdoc": {
    "kind": "dev",
    "methods": {},
    "version": 1
  },
  "userdoc": {
    "kind": "user",
    "methods": {},
    "version": 1
  }
}